{
	"contracts/MetaERC20.sol": {
		"MetaERC20": {
			"abi": [
				{
					"inputs": [
						{
							"internalType": "uint256",
							"name": "totalSupply_",
							"type": "uint256"
						},
						{
							"internalType": "string",
							"name": "name_",
							"type": "string"
						},
						{
							"internalType": "string",
							"name": "symbol_",
							"type": "string"
						}
					],
					"stateMutability": "nonpayable",
					"type": "constructor"
				},
				{
					"anonymous": false,
					"inputs": [
						{
							"indexed": true,
							"internalType": "address",
							"name": "owner",
							"type": "address"
						},
						{
							"indexed": true,
							"internalType": "address",
							"name": "spender",
							"type": "address"
						},
						{
							"indexed": false,
							"internalType": "uint256",
							"name": "value",
							"type": "uint256"
						}
					],
					"name": "Approval",
					"type": "event"
				},
				{
					"anonymous": false,
					"inputs": [
						{
							"indexed": true,
							"internalType": "address",
							"name": "from",
							"type": "address"
						},
						{
							"indexed": true,
							"internalType": "address",
							"name": "to",
							"type": "address"
						},
						{
							"indexed": false,
							"internalType": "uint256",
							"name": "value",
							"type": "uint256"
						}
					],
					"name": "Transfer",
					"type": "event"
				},
				{
					"inputs": [
						{
							"internalType": "address",
							"name": "owner",
							"type": "address"
						},
						{
							"internalType": "address",
							"name": "spender",
							"type": "address"
						}
					],
					"name": "allowance",
					"outputs": [
						{
							"internalType": "uint256",
							"name": "",
							"type": "uint256"
						}
					],
					"stateMutability": "view",
					"type": "function"
				},
				{
					"inputs": [
						{
							"internalType": "address",
							"name": "spender",
							"type": "address"
						},
						{
							"internalType": "uint256",
							"name": "value",
							"type": "uint256"
						}
					],
					"name": "approve",
					"outputs": [
						{
							"internalType": "bool",
							"name": "",
							"type": "bool"
						}
					],
					"stateMutability": "nonpayable",
					"type": "function"
				},
				{
					"inputs": [
						{
							"internalType": "address",
							"name": "account",
							"type": "address"
						}
					],
					"name": "balanceOf",
					"outputs": [
						{
							"internalType": "uint256",
							"name": "",
							"type": "uint256"
						}
					],
					"stateMutability": "view",
					"type": "function"
				},
				{
					"inputs": [
						{
							"internalType": "address",
							"name": "to",
							"type": "address"
						},
						{
							"internalType": "uint256",
							"name": "amount",
							"type": "uint256"
						}
					],
					"name": "mint",
					"outputs": [],
					"stateMutability": "nonpayable",
					"type": "function"
				},
				{
					"inputs": [],
					"name": "totalSupply",
					"outputs": [
						{
							"internalType": "uint256",
							"name": "",
							"type": "uint256"
						}
					],
					"stateMutability": "view",
					"type": "function"
				},
				{
					"inputs": [
						{
							"internalType": "address",
							"name": "to",
							"type": "address"
						},
						{
							"internalType": "uint256",
							"name": "value",
							"type": "uint256"
						}
					],
					"name": "transfer",
					"outputs": [
						{
							"internalType": "bool",
							"name": "",
							"type": "bool"
						}
					],
					"stateMutability": "nonpayable",
					"type": "function"
				},
				{
					"inputs": [
						{
							"internalType": "address",
							"name": "from",
							"type": "address"
						},
						{
							"internalType": "address",
							"name": "to",
							"type": "address"
						},
						{
							"internalType": "uint256",
							"name": "value",
							"type": "uint256"
						}
					],
					"name": "transferFrom",
					"outputs": [
						{
							"internalType": "bool",
							"name": "",
							"type": "bool"
						}
					],
					"stateMutability": "nonpayable",
					"type": "function"
				}
			],
			"devdoc": {
				"events": {
					"Approval(address,address,uint256)": {
						"details": "Emitted when the allowance of a `spender` for an `owner` is set by a call to {approve}. `value` is the new allowance."
					},
					"Transfer(address,address,uint256)": {
						"details": "Emitted when `value` tokens are moved from one account (`from`) to another (`to`). Note that `value` may be zero."
					}
				},
				"kind": "dev",
				"methods": {
					"allowance(address,address)": {
						"details": "Returns the remaining number of tokens that `spender` will be allowed to spend on behalf of `owner` through {transferFrom}. This is zero by default. This value changes when {approve} or {transferFrom} are called."
					},
					"approve(address,uint256)": {
						"details": "Sets a `value` amount of tokens as the allowance of `spender` over the caller's tokens. Returns a boolean value indicating whether the operation succeeded. IMPORTANT: Beware that changing an allowance with this method brings the risk that someone may use both the old and the new allowance by unfortunate transaction ordering. One possible solution to mitigate this race condition is to first reduce the spender's allowance to 0 and set the desired value afterwards: https://github.com/ethereum/EIPs/issues/20#issuecomment-263524729 Emits an {Approval} event."
					},
					"balanceOf(address)": {
						"details": "Returns the value of tokens owned by `account`."
					},
					"totalSupply()": {
						"details": "Returns the value of tokens in existence."
					},
					"transfer(address,uint256)": {
						"details": "Moves a `value` amount of tokens from the caller's account to `to`. Returns a boolean value indicating whether the operation succeeded. Emits a {Transfer} event."
					},
					"transferFrom(address,address,uint256)": {
						"details": "Moves a `value` amount of tokens from `from` to `to` using the allowance mechanism. `value` is then deducted from the caller's allowance. Returns a boolean value indicating whether the operation succeeded. Emits a {Transfer} event."
					}
				},
				"version": 1
			},
			"evm": {
				"assembly": "    /* \"contracts/MetaERC20.sol\":132:3106  contract MetaERC20 is IERC20 {... */\n  mstore(0x40, 0x80)\n    /* \"contracts/MetaERC20.sol\":408:623  constructor(uint256 totalSupply_, string memory name_, string memory symbol_) {... */\n  callvalue\n  dup1\n  iszero\n  tag_1\n  jumpi\n  revert(0x00, 0x00)\ntag_1:\n  pop\n  mload(0x40)\n  sub(codesize, bytecodeSize)\n  dup1\n  bytecodeSize\n  dup4\n  codecopy\n  dup2\n  dup2\n  add\n  0x40\n  mstore\n  dup2\n  add\n  swap1\n  tag_2\n  swap2\n  swap1\n  tag_3\n  jump\t// in\ntag_2:\n    /* \"contracts/MetaERC20.sol\":499:509  msg.sender */\n  caller\n    /* \"contracts/MetaERC20.sol\":490:496  _owner */\n  0x00\n  0x00\n    /* \"contracts/MetaERC20.sol\":490:509  _owner = msg.sender */\n  0x0100\n  exp\n  dup2\n  sload\n  dup2\n  0xffffffffffffffffffffffffffffffffffffffff\n  mul\n  not\n  and\n  swap1\n  dup4\n  0xffffffffffffffffffffffffffffffffffffffff\n  and\n  mul\n  or\n  swap1\n  sstore\n  pop\n    /* \"contracts/MetaERC20.sol\":528:540  totalSupply_ */\n  dup3\n    /* \"contracts/MetaERC20.sol\":513:525  _totalSupply */\n  0x03\n    /* \"contracts/MetaERC20.sol\":513:540  _totalSupply = totalSupply_ */\n  dup2\n  swap1\n  sstore\n  pop\n    /* \"contracts/MetaERC20.sol\":552:557  name_ */\n  dup2\n    /* \"contracts/MetaERC20.sol\":544:549  _name */\n  0x04\n    /* \"contracts/MetaERC20.sol\":544:557  _name = name_ */\n  swap1\n  dup2\n  tag_6\n  swap2\n  swap1\n  tag_7\n  jump\t// in\ntag_6:\n  pop\n    /* \"contracts/MetaERC20.sol\":571:578  symbol_ */\n  dup1\n    /* \"contracts/MetaERC20.sol\":561:568  _symbol */\n  0x05\n    /* \"contracts/MetaERC20.sol\":561:578  _symbol = symbol_ */\n  swap1\n  dup2\n  tag_8\n  swap2\n  swap1\n  tag_7\n  jump\t// in\ntag_8:\n  pop\n    /* \"contracts/MetaERC20.sol\":607:619  totalSupply_ */\n  dup3\n    /* \"contracts/MetaERC20.sol\":583:592  _balances */\n  0x01\n    /* \"contracts/MetaERC20.sol\":583:604  _balances[msg.sender] */\n  0x00\n    /* \"contracts/MetaERC20.sol\":593:603  msg.sender */\n  caller\n    /* \"contracts/MetaERC20.sol\":583:604  _balances[msg.sender] */\n  0xffffffffffffffffffffffffffffffffffffffff\n  and\n  0xffffffffffffffffffffffffffffffffffffffff\n  and\n  dup2\n  mstore\n  0x20\n  add\n  swap1\n  dup2\n  mstore\n  0x20\n  add\n  0x00\n  keccak256\n    /* \"contracts/MetaERC20.sol\":583:619  _balances[msg.sender] = totalSupply_ */\n  dup2\n  swap1\n  sstore\n  pop\n    /* \"contracts/MetaERC20.sol\":408:623  constructor(uint256 totalSupply_, string memory name_, string memory symbol_) {... */\n  pop\n  pop\n  pop\n    /* \"contracts/MetaERC20.sol\":132:3106  contract MetaERC20 is IERC20 {... */\n  jump(tag_9)\n    /* \"#utility.yul\":7:82   */\ntag_10:\n    /* \"#utility.yul\":40:46   */\n  0x00\n    /* \"#utility.yul\":73:75   */\n  0x40\n    /* \"#utility.yul\":67:76   */\n  mload\n    /* \"#utility.yul\":57:76   */\n  swap1\n  pop\n    /* \"#utility.yul\":7:82   */\n  swap1\n  jump\t// out\n    /* \"#utility.yul\":88:205   */\ntag_11:\n    /* \"#utility.yul\":197:198   */\n  0x00\n    /* \"#utility.yul\":194:195   */\n  0x00\n    /* \"#utility.yul\":187:199   */\n  revert\n    /* \"#utility.yul\":211:328   */\ntag_12:\n    /* \"#utility.yul\":320:321   */\n  0x00\n    /* \"#utility.yul\":317:318   */\n  0x00\n    /* \"#utility.yul\":310:322   */\n  revert\n    /* \"#utility.yul\":334:411   */\ntag_13:\n    /* \"#utility.yul\":371:378   */\n  0x00\n    /* \"#utility.yul\":400:405   */\n  dup2\n    /* \"#utility.yul\":389:405   */\n  swap1\n  pop\n    /* \"#utility.yul\":334:411   */\n  swap2\n  swap1\n  pop\n  jump\t// out\n    /* \"#utility.yul\":417:539   */\ntag_14:\n    /* \"#utility.yul\":490:514   */\n  tag_50\n    /* \"#utility.yul\":508:513   */\n  dup2\n    /* \"#utility.yul\":490:514   */\n  tag_13\n  jump\t// in\ntag_50:\n    /* \"#utility.yul\":483:488   */\n  dup2\n    /* \"#utility.yul\":480:515   */\n  eq\n    /* \"#utility.yul\":470:533   */\n  tag_51\n  jumpi\n    /* \"#utility.yul\":529:530   */\n  0x00\n    /* \"#utility.yul\":526:527   */\n  0x00\n    /* \"#utility.yul\":519:531   */\n  revert\n    /* \"#utility.yul\":470:533   */\ntag_51:\n    /* \"#utility.yul\":417:539   */\n  pop\n  jump\t// out\n    /* \"#utility.yul\":545:688   */\ntag_15:\n    /* \"#utility.yul\":602:607   */\n  0x00\n    /* \"#utility.yul\":633:639   */\n  dup2\n    /* \"#utility.yul\":627:640   */\n  mload\n    /* \"#utility.yul\":618:640   */\n  swap1\n  pop\n    /* \"#utility.yul\":649:682   */\n  tag_53\n    /* \"#utility.yul\":676:681   */\n  dup2\n    /* \"#utility.yul\":649:682   */\n  tag_14\n  jump\t// in\ntag_53:\n    /* \"#utility.yul\":545:688   */\n  swap3\n  swap2\n  pop\n  pop\n  jump\t// out\n    /* \"#utility.yul\":694:811   */\ntag_16:\n    /* \"#utility.yul\":803:804   */\n  0x00\n    /* \"#utility.yul\":800:801   */\n  0x00\n    /* \"#utility.yul\":793:805   */\n  revert\n    /* \"#utility.yul\":817:934   */\ntag_17:\n    /* \"#utility.yul\":926:927   */\n  0x00\n    /* \"#utility.yul\":923:924   */\n  0x00\n    /* \"#utility.yul\":916:928   */\n  revert\n    /* \"#utility.yul\":940:1042   */\ntag_18:\n    /* \"#utility.yul\":981:987   */\n  0x00\n    /* \"#utility.yul\":1032:1034   */\n  0x1f\n    /* \"#utility.yul\":1028:1035   */\n  not\n    /* \"#utility.yul\":1023:1025   */\n  0x1f\n    /* \"#utility.yul\":1016:1021   */\n  dup4\n    /* \"#utility.yul\":1012:1026   */\n  add\n    /* \"#utility.yul\":1008:1036   */\n  and\n    /* \"#utility.yul\":998:1036   */\n  swap1\n  pop\n    /* \"#utility.yul\":940:1042   */\n  swap2\n  swap1\n  pop\n  jump\t// out\n    /* \"#utility.yul\":1048:1228   */\ntag_19:\n    /* \"#utility.yul\":1096:1173   */\n  0x4e487b7100000000000000000000000000000000000000000000000000000000\n    /* \"#utility.yul\":1093:1094   */\n  0x00\n    /* \"#utility.yul\":1086:1174   */\n  mstore\n    /* \"#utility.yul\":1193:1197   */\n  0x41\n    /* \"#utility.yul\":1190:1191   */\n  0x04\n    /* \"#utility.yul\":1183:1198   */\n  mstore\n    /* \"#utility.yul\":1217:1221   */\n  0x24\n    /* \"#utility.yul\":1214:1215   */\n  0x00\n    /* \"#utility.yul\":1207:1222   */\n  revert\n    /* \"#utility.yul\":1234:1515   */\ntag_20:\n    /* \"#utility.yul\":1317:1344   */\n  tag_59\n    /* \"#utility.yul\":1339:1343   */\n  dup3\n    /* \"#utility.yul\":1317:1344   */\n  tag_18\n  jump\t// in\ntag_59:\n    /* \"#utility.yul\":1309:1315   */\n  dup2\n    /* \"#utility.yul\":1305:1345   */\n  add\n    /* \"#utility.yul\":1447:1453   */\n  dup2\n    /* \"#utility.yul\":1435:1445   */\n  dup2\n    /* \"#utility.yul\":1432:1454   */\n  lt\n    /* \"#utility.yul\":1411:1429   */\n  0xffffffffffffffff\n    /* \"#utility.yul\":1399:1409   */\n  dup3\n    /* \"#utility.yul\":1396:1430   */\n  gt\n    /* \"#utility.yul\":1393:1455   */\n  or\n    /* \"#utility.yul\":1390:1478   */\n  iszero\n  tag_60\n  jumpi\n    /* \"#utility.yul\":1458:1476   */\n  tag_61\n  tag_19\n  jump\t// in\ntag_61:\n    /* \"#utility.yul\":1390:1478   */\ntag_60:\n    /* \"#utility.yul\":1498:1508   */\n  dup1\n    /* \"#utility.yul\":1494:1496   */\n  0x40\n    /* \"#utility.yul\":1487:1509   */\n  mstore\n    /* \"#utility.yul\":1277:1515   */\n  pop\n    /* \"#utility.yul\":1234:1515   */\n  pop\n  pop\n  jump\t// out\n    /* \"#utility.yul\":1521:1650   */\ntag_21:\n    /* \"#utility.yul\":1555:1561   */\n  0x00\n    /* \"#utility.yul\":1582:1602   */\n  tag_63\n  tag_10\n  jump\t// in\ntag_63:\n    /* \"#utility.yul\":1572:1602   */\n  swap1\n  pop\n    /* \"#utility.yul\":1611:1644   */\n  tag_64\n    /* \"#utility.yul\":1639:1643   */\n  dup3\n    /* \"#utility.yul\":1631:1637   */\n  dup3\n    /* \"#utility.yul\":1611:1644   */\n  tag_20\n  jump\t// in\ntag_64:\n    /* \"#utility.yul\":1521:1650   */\n  swap2\n  swap1\n  pop\n  jump\t// out\n    /* \"#utility.yul\":1656:1964   */\ntag_22:\n    /* \"#utility.yul\":1718:1722   */\n  0x00\n    /* \"#utility.yul\":1808:1826   */\n  0xffffffffffffffff\n    /* \"#utility.yul\":1800:1806   */\n  dup3\n    /* \"#utility.yul\":1797:1827   */\n  gt\n    /* \"#utility.yul\":1794:1850   */\n  iszero\n  tag_66\n  jumpi\n    /* \"#utility.yul\":1830:1848   */\n  tag_67\n  tag_19\n  jump\t// in\ntag_67:\n    /* \"#utility.yul\":1794:1850   */\ntag_66:\n    /* \"#utility.yul\":1868:1897   */\n  tag_68\n    /* \"#utility.yul\":1890:1896   */\n  dup3\n    /* \"#utility.yul\":1868:1897   */\n  tag_18\n  jump\t// in\ntag_68:\n    /* \"#utility.yul\":1860:1897   */\n  swap1\n  pop\n    /* \"#utility.yul\":1952:1956   */\n  0x20\n    /* \"#utility.yul\":1946:1950   */\n  dup2\n    /* \"#utility.yul\":1942:1957   */\n  add\n    /* \"#utility.yul\":1934:1957   */\n  swap1\n  pop\n    /* \"#utility.yul\":1656:1964   */\n  swap2\n  swap1\n  pop\n  jump\t// out\n    /* \"#utility.yul\":1970:2109   */\ntag_23:\n    /* \"#utility.yul\":2059:2065   */\n  dup3\n    /* \"#utility.yul\":2054:2057   */\n  dup2\n    /* \"#utility.yul\":2049:2052   */\n  dup4\n    /* \"#utility.yul\":2043:2066   */\n  mcopy\n    /* \"#utility.yul\":2100:2101   */\n  0x00\n    /* \"#utility.yul\":2091:2097   */\n  dup4\n    /* \"#utility.yul\":2086:2089   */\n  dup4\n    /* \"#utility.yul\":2082:2098   */\n  add\n    /* \"#utility.yul\":2075:2102   */\n  mstore\n    /* \"#utility.yul\":1970:2109   */\n  pop\n  pop\n  pop\n  jump\t// out\n    /* \"#utility.yul\":2115:2549   */\ntag_24:\n    /* \"#utility.yul\":2204:2209   */\n  0x00\n    /* \"#utility.yul\":2229:2295   */\n  tag_71\n    /* \"#utility.yul\":2245:2294   */\n  tag_72\n    /* \"#utility.yul\":2287:2293   */\n  dup5\n    /* \"#utility.yul\":2245:2294   */\n  tag_22\n  jump\t// in\ntag_72:\n    /* \"#utility.yul\":2229:2295   */\n  tag_21\n  jump\t// in\ntag_71:\n    /* \"#utility.yul\":2220:2295   */\n  swap1\n  pop\n    /* \"#utility.yul\":2318:2324   */\n  dup3\n    /* \"#utility.yul\":2311:2316   */\n  dup2\n    /* \"#utility.yul\":2304:2325   */\n  mstore\n    /* \"#utility.yul\":2356:2360   */\n  0x20\n    /* \"#utility.yul\":2349:2354   */\n  dup2\n    /* \"#utility.yul\":2345:2361   */\n  add\n    /* \"#utility.yul\":2394:2397   */\n  dup5\n    /* \"#utility.yul\":2385:2391   */\n  dup5\n    /* \"#utility.yul\":2380:2383   */\n  dup5\n    /* \"#utility.yul\":2376:2392   */\n  add\n    /* \"#utility.yul\":2373:2398   */\n  gt\n    /* \"#utility.yul\":2370:2482   */\n  iszero\n  tag_73\n  jumpi\n    /* \"#utility.yul\":2401:2480   */\n  tag_74\n  tag_17\n  jump\t// in\ntag_74:\n    /* \"#utility.yul\":2370:2482   */\ntag_73:\n    /* \"#utility.yul\":2491:2543   */\n  tag_75\n    /* \"#utility.yul\":2536:2542   */\n  dup5\n    /* \"#utility.yul\":2531:2534   */\n  dup3\n    /* \"#utility.yul\":2526:2529   */\n  dup6\n    /* \"#utility.yul\":2491:2543   */\n  tag_23\n  jump\t// in\ntag_75:\n    /* \"#utility.yul\":2210:2549   */\n  pop\n    /* \"#utility.yul\":2115:2549   */\n  swap4\n  swap3\n  pop\n  pop\n  pop\n  jump\t// out\n    /* \"#utility.yul\":2569:2924   */\ntag_25:\n    /* \"#utility.yul\":2636:2641   */\n  0x00\n    /* \"#utility.yul\":2685:2688   */\n  dup3\n    /* \"#utility.yul\":2678:2682   */\n  0x1f\n    /* \"#utility.yul\":2670:2676   */\n  dup4\n    /* \"#utility.yul\":2666:2683   */\n  add\n    /* \"#utility.yul\":2662:2689   */\n  slt\n    /* \"#utility.yul\":2652:2774   */\n  tag_77\n  jumpi\n    /* \"#utility.yul\":2693:2772   */\n  tag_78\n  tag_16\n  jump\t// in\ntag_78:\n    /* \"#utility.yul\":2652:2774   */\ntag_77:\n    /* \"#utility.yul\":2803:2809   */\n  dup2\n    /* \"#utility.yul\":2797:2810   */\n  mload\n    /* \"#utility.yul\":2828:2918   */\n  tag_79\n    /* \"#utility.yul\":2914:2917   */\n  dup5\n    /* \"#utility.yul\":2906:2912   */\n  dup3\n    /* \"#utility.yul\":2899:2903   */\n  0x20\n    /* \"#utility.yul\":2891:2897   */\n  dup7\n    /* \"#utility.yul\":2887:2904   */\n  add\n    /* \"#utility.yul\":2828:2918   */\n  tag_24\n  jump\t// in\ntag_79:\n    /* \"#utility.yul\":2819:2918   */\n  swap2\n  pop\n    /* \"#utility.yul\":2642:2924   */\n  pop\n    /* \"#utility.yul\":2569:2924   */\n  swap3\n  swap2\n  pop\n  pop\n  jump\t// out\n    /* \"#utility.yul\":2930:3939   */\ntag_3:\n    /* \"#utility.yul\":3038:3044   */\n  0x00\n    /* \"#utility.yul\":3046:3052   */\n  0x00\n    /* \"#utility.yul\":3054:3060   */\n  0x00\n    /* \"#utility.yul\":3103:3105   */\n  0x60\n    /* \"#utility.yul\":3091:3100   */\n  dup5\n    /* \"#utility.yul\":3082:3089   */\n  dup7\n    /* \"#utility.yul\":3078:3101   */\n  sub\n    /* \"#utility.yul\":3074:3106   */\n  slt\n    /* \"#utility.yul\":3071:3190   */\n  iszero\n  tag_81\n  jumpi\n    /* \"#utility.yul\":3109:3188   */\n  tag_82\n  tag_11\n  jump\t// in\ntag_82:\n    /* \"#utility.yul\":3071:3190   */\ntag_81:\n    /* \"#utility.yul\":3229:3230   */\n  0x00\n    /* \"#utility.yul\":3254:3318   */\n  tag_83\n    /* \"#utility.yul\":3310:3317   */\n  dup7\n    /* \"#utility.yul\":3301:3307   */\n  dup3\n    /* \"#utility.yul\":3290:3299   */\n  dup8\n    /* \"#utility.yul\":3286:3308   */\n  add\n    /* \"#utility.yul\":3254:3318   */\n  tag_15\n  jump\t// in\ntag_83:\n    /* \"#utility.yul\":3244:3318   */\n  swap4\n  pop\n    /* \"#utility.yul\":3200:3328   */\n  pop\n    /* \"#utility.yul\":3388:3390   */\n  0x20\n    /* \"#utility.yul\":3377:3386   */\n  dup5\n    /* \"#utility.yul\":3373:3391   */\n  add\n    /* \"#utility.yul\":3367:3392   */\n  mload\n    /* \"#utility.yul\":3419:3437   */\n  0xffffffffffffffff\n    /* \"#utility.yul\":3411:3417   */\n  dup2\n    /* \"#utility.yul\":3408:3438   */\n  gt\n    /* \"#utility.yul\":3405:3522   */\n  iszero\n  tag_84\n  jumpi\n    /* \"#utility.yul\":3441:3520   */\n  tag_85\n  tag_12\n  jump\t// in\ntag_85:\n    /* \"#utility.yul\":3405:3522   */\ntag_84:\n    /* \"#utility.yul\":3546:3620   */\n  tag_86\n    /* \"#utility.yul\":3612:3619   */\n  dup7\n    /* \"#utility.yul\":3603:3609   */\n  dup3\n    /* \"#utility.yul\":3592:3601   */\n  dup8\n    /* \"#utility.yul\":3588:3610   */\n  add\n    /* \"#utility.yul\":3546:3620   */\n  tag_25\n  jump\t// in\ntag_86:\n    /* \"#utility.yul\":3536:3620   */\n  swap3\n  pop\n    /* \"#utility.yul\":3338:3630   */\n  pop\n    /* \"#utility.yul\":3690:3692   */\n  0x40\n    /* \"#utility.yul\":3679:3688   */\n  dup5\n    /* \"#utility.yul\":3675:3693   */\n  add\n    /* \"#utility.yul\":3669:3694   */\n  mload\n    /* \"#utility.yul\":3721:3739   */\n  0xffffffffffffffff\n    /* \"#utility.yul\":3713:3719   */\n  dup2\n    /* \"#utility.yul\":3710:3740   */\n  gt\n    /* \"#utility.yul\":3707:3824   */\n  iszero\n  tag_87\n  jumpi\n    /* \"#utility.yul\":3743:3822   */\n  tag_88\n  tag_12\n  jump\t// in\ntag_88:\n    /* \"#utility.yul\":3707:3824   */\ntag_87:\n    /* \"#utility.yul\":3848:3922   */\n  tag_89\n    /* \"#utility.yul\":3914:3921   */\n  dup7\n    /* \"#utility.yul\":3905:3911   */\n  dup3\n    /* \"#utility.yul\":3894:3903   */\n  dup8\n    /* \"#utility.yul\":3890:3912   */\n  add\n    /* \"#utility.yul\":3848:3922   */\n  tag_25\n  jump\t// in\ntag_89:\n    /* \"#utility.yul\":3838:3922   */\n  swap2\n  pop\n    /* \"#utility.yul\":3640:3932   */\n  pop\n    /* \"#utility.yul\":2930:3939   */\n  swap3\n  pop\n  swap3\n  pop\n  swap3\n  jump\t// out\n    /* \"#utility.yul\":3945:4044   */\ntag_26:\n    /* \"#utility.yul\":3997:4003   */\n  0x00\n    /* \"#utility.yul\":4031:4036   */\n  dup2\n    /* \"#utility.yul\":4025:4037   */\n  mload\n    /* \"#utility.yul\":4015:4037   */\n  swap1\n  pop\n    /* \"#utility.yul\":3945:4044   */\n  swap2\n  swap1\n  pop\n  jump\t// out\n    /* \"#utility.yul\":4050:4230   */\ntag_27:\n    /* \"#utility.yul\":4098:4175   */\n  0x4e487b7100000000000000000000000000000000000000000000000000000000\n    /* \"#utility.yul\":4095:4096   */\n  0x00\n    /* \"#utility.yul\":4088:4176   */\n  mstore\n    /* \"#utility.yul\":4195:4199   */\n  0x22\n    /* \"#utility.yul\":4192:4193   */\n  0x04\n    /* \"#utility.yul\":4185:4200   */\n  mstore\n    /* \"#utility.yul\":4219:4223   */\n  0x24\n    /* \"#utility.yul\":4216:4217   */\n  0x00\n    /* \"#utility.yul\":4209:4224   */\n  revert\n    /* \"#utility.yul\":4236:4556   */\ntag_28:\n    /* \"#utility.yul\":4280:4286   */\n  0x00\n    /* \"#utility.yul\":4317:4318   */\n  0x02\n    /* \"#utility.yul\":4311:4315   */\n  dup3\n    /* \"#utility.yul\":4307:4319   */\n  div\n    /* \"#utility.yul\":4297:4319   */\n  swap1\n  pop\n    /* \"#utility.yul\":4364:4365   */\n  0x01\n    /* \"#utility.yul\":4358:4362   */\n  dup3\n    /* \"#utility.yul\":4354:4366   */\n  and\n    /* \"#utility.yul\":4385:4403   */\n  dup1\n    /* \"#utility.yul\":4375:4456   */\n  tag_93\n  jumpi\n    /* \"#utility.yul\":4441:4445   */\n  0x7f\n    /* \"#utility.yul\":4433:4439   */\n  dup3\n    /* \"#utility.yul\":4429:4446   */\n  and\n    /* \"#utility.yul\":4419:4446   */\n  swap2\n  pop\n    /* \"#utility.yul\":4375:4456   */\ntag_93:\n    /* \"#utility.yul\":4503:4505   */\n  0x20\n    /* \"#utility.yul\":4495:4501   */\n  dup3\n    /* \"#utility.yul\":4492:4506   */\n  lt\n    /* \"#utility.yul\":4472:4490   */\n  dup2\n    /* \"#utility.yul\":4469:4507   */\n  sub\n    /* \"#utility.yul\":4466:4550   */\n  tag_94\n  jumpi\n    /* \"#utility.yul\":4522:4540   */\n  tag_95\n  tag_27\n  jump\t// in\ntag_95:\n    /* \"#utility.yul\":4466:4550   */\ntag_94:\n    /* \"#utility.yul\":4287:4556   */\n  pop\n    /* \"#utility.yul\":4236:4556   */\n  swap2\n  swap1\n  pop\n  jump\t// out\n    /* \"#utility.yul\":4562:4703   */\ntag_29:\n    /* \"#utility.yul\":4611:4615   */\n  0x00\n    /* \"#utility.yul\":4634:4637   */\n  dup2\n    /* \"#utility.yul\":4626:4637   */\n  swap1\n  pop\n    /* \"#utility.yul\":4657:4660   */\n  dup2\n    /* \"#utility.yul\":4654:4655   */\n  0x00\n    /* \"#utility.yul\":4647:4661   */\n  mstore\n    /* \"#utility.yul\":4691:4695   */\n  0x20\n    /* \"#utility.yul\":4688:4689   */\n  0x00\n    /* \"#utility.yul\":4678:4696   */\n  keccak256\n    /* \"#utility.yul\":4670:4696   */\n  swap1\n  pop\n    /* \"#utility.yul\":4562:4703   */\n  swap2\n  swap1\n  pop\n  jump\t// out\n    /* \"#utility.yul\":4709:4802   */\ntag_30:\n    /* \"#utility.yul\":4746:4752   */\n  0x00\n    /* \"#utility.yul\":4793:4795   */\n  0x20\n    /* \"#utility.yul\":4788:4790   */\n  0x1f\n    /* \"#utility.yul\":4781:4786   */\n  dup4\n    /* \"#utility.yul\":4777:4791   */\n  add\n    /* \"#utility.yul\":4773:4796   */\n  div\n    /* \"#utility.yul\":4763:4796   */\n  swap1\n  pop\n    /* \"#utility.yul\":4709:4802   */\n  swap2\n  swap1\n  pop\n  jump\t// out\n    /* \"#utility.yul\":4808:4915   */\ntag_31:\n    /* \"#utility.yul\":4852:4860   */\n  0x00\n    /* \"#utility.yul\":4902:4907   */\n  dup3\n    /* \"#utility.yul\":4896:4900   */\n  dup3\n    /* \"#utility.yul\":4892:4908   */\n  shl\n    /* \"#utility.yul\":4871:4908   */\n  swap1\n  pop\n    /* \"#utility.yul\":4808:4915   */\n  swap3\n  swap2\n  pop\n  pop\n  jump\t// out\n    /* \"#utility.yul\":4921:5314   */\ntag_32:\n    /* \"#utility.yul\":4990:4996   */\n  0x00\n    /* \"#utility.yul\":5040:5041   */\n  0x08\n    /* \"#utility.yul\":5028:5038   */\n  dup4\n    /* \"#utility.yul\":5024:5042   */\n  mul\n    /* \"#utility.yul\":5063:5160   */\n  tag_100\n    /* \"#utility.yul\":5093:5159   */\n  0xffffffffffffffffffffffffffffffffffffffffffffffffffffffffffffffff\n    /* \"#utility.yul\":5082:5091   */\n  dup3\n    /* \"#utility.yul\":5063:5160   */\n  tag_31\n  jump\t// in\ntag_100:\n    /* \"#utility.yul\":5181:5220   */\n  tag_101\n    /* \"#utility.yul\":5211:5219   */\n  dup7\n    /* \"#utility.yul\":5200:5209   */\n  dup4\n    /* \"#utility.yul\":5181:5220   */\n  tag_31\n  jump\t// in\ntag_101:\n    /* \"#utility.yul\":5169:5220   */\n  swap6\n  pop\n    /* \"#utility.yul\":5253:5257   */\n  dup1\n    /* \"#utility.yul\":5249:5258   */\n  not\n    /* \"#utility.yul\":5242:5247   */\n  dup5\n    /* \"#utility.yul\":5238:5259   */\n  and\n    /* \"#utility.yul\":5229:5259   */\n  swap4\n  pop\n    /* \"#utility.yul\":5302:5306   */\n  dup1\n    /* \"#utility.yul\":5292:5300   */\n  dup7\n    /* \"#utility.yul\":5288:5307   */\n  and\n    /* \"#utility.yul\":5281:5286   */\n  dup5\n    /* \"#utility.yul\":5278:5308   */\n  or\n    /* \"#utility.yul\":5268:5308   */\n  swap3\n  pop\n    /* \"#utility.yul\":4997:5314   */\n  pop\n  pop\n    /* \"#utility.yul\":4921:5314   */\n  swap4\n  swap3\n  pop\n  pop\n  pop\n  jump\t// out\n    /* \"#utility.yul\":5320:5380   */\ntag_33:\n    /* \"#utility.yul\":5348:5351   */\n  0x00\n    /* \"#utility.yul\":5369:5374   */\n  dup2\n    /* \"#utility.yul\":5362:5374   */\n  swap1\n  pop\n    /* \"#utility.yul\":5320:5380   */\n  swap2\n  swap1\n  pop\n  jump\t// out\n    /* \"#utility.yul\":5386:5528   */\ntag_34:\n    /* \"#utility.yul\":5436:5445   */\n  0x00\n    /* \"#utility.yul\":5469:5522   */\n  tag_104\n    /* \"#utility.yul\":5487:5521   */\n  tag_105\n    /* \"#utility.yul\":5496:5520   */\n  tag_106\n    /* \"#utility.yul\":5514:5519   */\n  dup5\n    /* \"#utility.yul\":5496:5520   */\n  tag_13\n  jump\t// in\ntag_106:\n    /* \"#utility.yul\":5487:5521   */\n  tag_33\n  jump\t// in\ntag_105:\n    /* \"#utility.yul\":5469:5522   */\n  tag_13\n  jump\t// in\ntag_104:\n    /* \"#utility.yul\":5456:5522   */\n  swap1\n  pop\n    /* \"#utility.yul\":5386:5528   */\n  swap2\n  swap1\n  pop\n  jump\t// out\n    /* \"#utility.yul\":5534:5609   */\ntag_35:\n    /* \"#utility.yul\":5577:5580   */\n  0x00\n    /* \"#utility.yul\":5598:5603   */\n  dup2\n    /* \"#utility.yul\":5591:5603   */\n  swap1\n  pop\n    /* \"#utility.yul\":5534:5609   */\n  swap2\n  swap1\n  pop\n  jump\t// out\n    /* \"#utility.yul\":5615:5884   */\ntag_36:\n    /* \"#utility.yul\":5725:5764   */\n  tag_109\n    /* \"#utility.yul\":5756:5763   */\n  dup4\n    /* \"#utility.yul\":5725:5764   */\n  tag_34\n  jump\t// in\ntag_109:\n    /* \"#utility.yul\":5786:5877   */\n  tag_110\n    /* \"#utility.yul\":5835:5876   */\n  tag_111\n    /* \"#utility.yul\":5859:5875   */\n  dup3\n    /* \"#utility.yul\":5835:5876   */\n  tag_35\n  jump\t// in\ntag_111:\n    /* \"#utility.yul\":5827:5833   */\n  dup5\n    /* \"#utility.yul\":5820:5824   */\n  dup5\n    /* \"#utility.yul\":5814:5825   */\n  sload\n    /* \"#utility.yul\":5786:5877   */\n  tag_32\n  jump\t// in\ntag_110:\n    /* \"#utility.yul\":5780:5784   */\n  dup3\n    /* \"#utility.yul\":5773:5878   */\n  sstore\n    /* \"#utility.yul\":5691:5884   */\n  pop\n    /* \"#utility.yul\":5615:5884   */\n  pop\n  pop\n  pop\n  jump\t// out\n    /* \"#utility.yul\":5890:5963   */\ntag_37:\n    /* \"#utility.yul\":5935:5938   */\n  0x00\n    /* \"#utility.yul\":5956:5957   */\n  0x00\n    /* \"#utility.yul\":5949:5957   */\n  swap1\n  pop\n    /* \"#utility.yul\":5890:5963   */\n  swap1\n  jump\t// out\n    /* \"#utility.yul\":5969:6158   */\ntag_38:\n    /* \"#utility.yul\":6046:6078   */\n  tag_114\n  tag_37\n  jump\t// in\ntag_114:\n    /* \"#utility.yul\":6087:6152   */\n  tag_115\n    /* \"#utility.yul\":6145:6151   */\n  dup2\n    /* \"#utility.yul\":6137:6143   */\n  dup5\n    /* \"#utility.yul\":6131:6135   */\n  dup5\n    /* \"#utility.yul\":6087:6152   */\n  tag_36\n  jump\t// in\ntag_115:\n    /* \"#utility.yul\":6022:6158   */\n  pop\n    /* \"#utility.yul\":5969:6158   */\n  pop\n  pop\n  jump\t// out\n    /* \"#utility.yul\":6164:6350   */\ntag_39:\n    /* \"#utility.yul\":6224:6344   */\ntag_117:\n    /* \"#utility.yul\":6241:6244   */\n  dup2\n    /* \"#utility.yul\":6234:6239   */\n  dup2\n    /* \"#utility.yul\":6231:6245   */\n  lt\n    /* \"#utility.yul\":6224:6344   */\n  iszero\n  tag_119\n  jumpi\n    /* \"#utility.yul\":6295:6334   */\n  tag_120\n    /* \"#utility.yul\":6332:6333   */\n  0x00\n    /* \"#utility.yul\":6325:6330   */\n  dup3\n    /* \"#utility.yul\":6295:6334   */\n  tag_38\n  jump\t// in\ntag_120:\n    /* \"#utility.yul\":6268:6269   */\n  0x01\n    /* \"#utility.yul\":6261:6266   */\n  dup2\n    /* \"#utility.yul\":6257:6270   */\n  add\n    /* \"#utility.yul\":6248:6270   */\n  swap1\n  pop\n    /* \"#utility.yul\":6224:6344   */\n  jump(tag_117)\ntag_119:\n    /* \"#utility.yul\":6164:6350   */\n  pop\n  pop\n  jump\t// out\n    /* \"#utility.yul\":6356:6899   */\ntag_40:\n    /* \"#utility.yul\":6457:6459   */\n  0x1f\n    /* \"#utility.yul\":6452:6455   */\n  dup3\n    /* \"#utility.yul\":6449:6460   */\n  gt\n    /* \"#utility.yul\":6446:6892   */\n  iszero\n  tag_122\n  jumpi\n    /* \"#utility.yul\":6491:6529   */\n  tag_123\n    /* \"#utility.yul\":6523:6528   */\n  dup2\n    /* \"#utility.yul\":6491:6529   */\n  tag_29\n  jump\t// in\ntag_123:\n    /* \"#utility.yul\":6575:6604   */\n  tag_124\n    /* \"#utility.yul\":6593:6603   */\n  dup5\n    /* \"#utility.yul\":6575:6604   */\n  tag_30\n  jump\t// in\ntag_124:\n    /* \"#utility.yul\":6565:6573   */\n  dup2\n    /* \"#utility.yul\":6561:6605   */\n  add\n    /* \"#utility.yul\":6758:6760   */\n  0x20\n    /* \"#utility.yul\":6746:6756   */\n  dup6\n    /* \"#utility.yul\":6743:6761   */\n  lt\n    /* \"#utility.yul\":6740:6789   */\n  iszero\n  tag_125\n  jumpi\n    /* \"#utility.yul\":6779:6787   */\n  dup2\n    /* \"#utility.yul\":6764:6787   */\n  swap1\n  pop\n    /* \"#utility.yul\":6740:6789   */\ntag_125:\n    /* \"#utility.yul\":6802:6882   */\n  tag_126\n    /* \"#utility.yul\":6858:6880   */\n  tag_127\n    /* \"#utility.yul\":6876:6879   */\n  dup6\n    /* \"#utility.yul\":6858:6880   */\n  tag_30\n  jump\t// in\ntag_127:\n    /* \"#utility.yul\":6848:6856   */\n  dup4\n    /* \"#utility.yul\":6844:6881   */\n  add\n    /* \"#utility.yul\":6831:6842   */\n  dup3\n    /* \"#utility.yul\":6802:6882   */\n  tag_39\n  jump\t// in\ntag_126:\n    /* \"#utility.yul\":6461:6892   */\n  pop\n  pop\n    /* \"#utility.yul\":6446:6892   */\ntag_122:\n    /* \"#utility.yul\":6356:6899   */\n  pop\n  pop\n  pop\n  jump\t// out\n    /* \"#utility.yul\":6905:7022   */\ntag_41:\n    /* \"#utility.yul\":6959:6967   */\n  0x00\n    /* \"#utility.yul\":7009:7014   */\n  dup3\n    /* \"#utility.yul\":7003:7007   */\n  dup3\n    /* \"#utility.yul\":6999:7015   */\n  shr\n    /* \"#utility.yul\":6978:7015   */\n  swap1\n  pop\n    /* \"#utility.yul\":6905:7022   */\n  swap3\n  swap2\n  pop\n  pop\n  jump\t// out\n    /* \"#utility.yul\":7028:7197   */\ntag_42:\n    /* \"#utility.yul\":7072:7078   */\n  0x00\n    /* \"#utility.yul\":7105:7156   */\n  tag_130\n    /* \"#utility.yul\":7153:7154   */\n  0x00\n    /* \"#utility.yul\":7149:7155   */\n  not\n    /* \"#utility.yul\":7141:7146   */\n  dup5\n    /* \"#utility.yul\":7138:7139   */\n  0x08\n    /* \"#utility.yul\":7134:7147   */\n  mul\n    /* \"#utility.yul\":7105:7156   */\n  tag_41\n  jump\t// in\ntag_130:\n    /* \"#utility.yul\":7101:7157   */\n  not\n    /* \"#utility.yul\":7186:7190   */\n  dup1\n    /* \"#utility.yul\":7180:7184   */\n  dup4\n    /* \"#utility.yul\":7176:7191   */\n  and\n    /* \"#utility.yul\":7166:7191   */\n  swap2\n  pop\n    /* \"#utility.yul\":7079:7197   */\n  pop\n    /* \"#utility.yul\":7028:7197   */\n  swap3\n  swap2\n  pop\n  pop\n  jump\t// out\n    /* \"#utility.yul\":7202:7497   */\ntag_43:\n    /* \"#utility.yul\":7278:7282   */\n  0x00\n    /* \"#utility.yul\":7424:7453   */\n  tag_132\n    /* \"#utility.yul\":7449:7452   */\n  dup4\n    /* \"#utility.yul\":7443:7447   */\n  dup4\n    /* \"#utility.yul\":7424:7453   */\n  tag_42\n  jump\t// in\ntag_132:\n    /* \"#utility.yul\":7416:7453   */\n  swap2\n  pop\n    /* \"#utility.yul\":7486:7489   */\n  dup3\n    /* \"#utility.yul\":7483:7484   */\n  0x02\n    /* \"#utility.yul\":7479:7490   */\n  mul\n    /* \"#utility.yul\":7473:7477   */\n  dup3\n    /* \"#utility.yul\":7470:7491   */\n  or\n    /* \"#utility.yul\":7462:7491   */\n  swap1\n  pop\n    /* \"#utility.yul\":7202:7497   */\n  swap3\n  swap2\n  pop\n  pop\n  jump\t// out\n    /* \"#utility.yul\":7502:8897   */\ntag_7:\n    /* \"#utility.yul\":7619:7656   */\n  tag_134\n    /* \"#utility.yul\":7652:7655   */\n  dup3\n    /* \"#utility.yul\":7619:7656   */\n  tag_26\n  jump\t// in\ntag_134:\n    /* \"#utility.yul\":7721:7739   */\n  0xffffffffffffffff\n    /* \"#utility.yul\":7713:7719   */\n  dup2\n    /* \"#utility.yul\":7710:7740   */\n  gt\n    /* \"#utility.yul\":7707:7763   */\n  iszero\n  tag_135\n  jumpi\n    /* \"#utility.yul\":7743:7761   */\n  tag_136\n  tag_19\n  jump\t// in\ntag_136:\n    /* \"#utility.yul\":7707:7763   */\ntag_135:\n    /* \"#utility.yul\":7787:7825   */\n  tag_137\n    /* \"#utility.yul\":7819:7823   */\n  dup3\n    /* \"#utility.yul\":7813:7824   */\n  sload\n    /* \"#utility.yul\":7787:7825   */\n  tag_28\n  jump\t// in\ntag_137:\n    /* \"#utility.yul\":7872:7939   */\n  tag_138\n    /* \"#utility.yul\":7932:7938   */\n  dup3\n    /* \"#utility.yul\":7924:7930   */\n  dup3\n    /* \"#utility.yul\":7918:7922   */\n  dup6\n    /* \"#utility.yul\":7872:7939   */\n  tag_40\n  jump\t// in\ntag_138:\n    /* \"#utility.yul\":7966:7967   */\n  0x00\n    /* \"#utility.yul\":7990:7994   */\n  0x20\n    /* \"#utility.yul\":7977:7994   */\n  swap1\n  pop\n    /* \"#utility.yul\":8022:8024   */\n  0x1f\n    /* \"#utility.yul\":8014:8020   */\n  dup4\n    /* \"#utility.yul\":8011:8025   */\n  gt\n    /* \"#utility.yul\":8039:8040   */\n  0x01\n    /* \"#utility.yul\":8034:8652   */\n  dup2\n  eq\n  tag_140\n  jumpi\n    /* \"#utility.yul\":8696:8697   */\n  0x00\n    /* \"#utility.yul\":8713:8719   */\n  dup5\n    /* \"#utility.yul\":8710:8787   */\n  iszero\n  tag_141\n  jumpi\n    /* \"#utility.yul\":8762:8771   */\n  dup3\n    /* \"#utility.yul\":8757:8760   */\n  dup8\n    /* \"#utility.yul\":8753:8772   */\n  add\n    /* \"#utility.yul\":8747:8773   */\n  mload\n    /* \"#utility.yul\":8738:8773   */\n  swap1\n  pop\n    /* \"#utility.yul\":8710:8787   */\ntag_141:\n    /* \"#utility.yul\":8813:8880   */\n  tag_142\n    /* \"#utility.yul\":8873:8879   */\n  dup6\n    /* \"#utility.yul\":8866:8871   */\n  dup3\n    /* \"#utility.yul\":8813:8880   */\n  tag_43\n  jump\t// in\ntag_142:\n    /* \"#utility.yul\":8807:8811   */\n  dup7\n    /* \"#utility.yul\":8800:8881   */\n  sstore\n    /* \"#utility.yul\":8669:8891   */\n  pop\n    /* \"#utility.yul\":8004:8891   */\n  jump(tag_139)\n    /* \"#utility.yul\":8034:8652   */\ntag_140:\n    /* \"#utility.yul\":8086:8090   */\n  0x1f\n    /* \"#utility.yul\":8082:8091   */\n  not\n    /* \"#utility.yul\":8074:8080   */\n  dup5\n    /* \"#utility.yul\":8070:8092   */\n  and\n    /* \"#utility.yul\":8120:8157   */\n  tag_143\n    /* \"#utility.yul\":8152:8156   */\n  dup7\n    /* \"#utility.yul\":8120:8157   */\n  tag_29\n  jump\t// in\ntag_143:\n    /* \"#utility.yul\":8179:8180   */\n  0x00\n    /* \"#utility.yul\":8193:8401   */\ntag_144:\n    /* \"#utility.yul\":8207:8214   */\n  dup3\n    /* \"#utility.yul\":8204:8205   */\n  dup2\n    /* \"#utility.yul\":8201:8215   */\n  lt\n    /* \"#utility.yul\":8193:8401   */\n  iszero\n  tag_146\n  jumpi\n    /* \"#utility.yul\":8286:8295   */\n  dup5\n    /* \"#utility.yul\":8281:8284   */\n  dup10\n    /* \"#utility.yul\":8277:8296   */\n  add\n    /* \"#utility.yul\":8271:8297   */\n  mload\n    /* \"#utility.yul\":8263:8269   */\n  dup3\n    /* \"#utility.yul\":8256:8298   */\n  sstore\n    /* \"#utility.yul\":8337:8338   */\n  0x01\n    /* \"#utility.yul\":8329:8335   */\n  dup3\n    /* \"#utility.yul\":8325:8339   */\n  add\n    /* \"#utility.yul\":8315:8339   */\n  swap2\n  pop\n    /* \"#utility.yul\":8384:8386   */\n  0x20\n    /* \"#utility.yul\":8373:8382   */\n  dup6\n    /* \"#utility.yul\":8369:8387   */\n  add\n    /* \"#utility.yul\":8356:8387   */\n  swap5\n  pop\n    /* \"#utility.yul\":8230:8234   */\n  0x20\n    /* \"#utility.yul\":8227:8228   */\n  dup2\n    /* \"#utility.yul\":8223:8235   */\n  add\n    /* \"#utility.yul\":8218:8235   */\n  swap1\n  pop\n    /* \"#utility.yul\":8193:8401   */\n  jump(tag_144)\ntag_146:\n    /* \"#utility.yul\":8429:8435   */\n  dup7\n    /* \"#utility.yul\":8420:8427   */\n  dup4\n    /* \"#utility.yul\":8417:8436   */\n  lt\n    /* \"#utility.yul\":8414:8593   */\n  iszero\n  tag_147\n  jumpi\n    /* \"#utility.yul\":8487:8496   */\n  dup5\n    /* \"#utility.yul\":8482:8485   */\n  dup10\n    /* \"#utility.yul\":8478:8497   */\n  add\n    /* \"#utility.yul\":8472:8498   */\n  mload\n    /* \"#utility.yul\":8530:8578   */\n  tag_148\n    /* \"#utility.yul\":8572:8576   */\n  0x1f\n    /* \"#utility.yul\":8564:8570   */\n  dup10\n    /* \"#utility.yul\":8560:8577   */\n  and\n    /* \"#utility.yul\":8549:8558   */\n  dup3\n    /* \"#utility.yul\":8530:8578   */\n  tag_42\n  jump\t// in\ntag_148:\n    /* \"#utility.yul\":8522:8528   */\n  dup4\n    /* \"#utility.yul\":8515:8579   */\n  sstore\n    /* \"#utility.yul\":8437:8593   */\n  pop\n    /* \"#utility.yul\":8414:8593   */\ntag_147:\n    /* \"#utility.yul\":8639:8640   */\n  0x01\n    /* \"#utility.yul\":8635:8636   */\n  0x02\n    /* \"#utility.yul\":8627:8633   */\n  dup9\n    /* \"#utility.yul\":8623:8637   */\n  mul\n    /* \"#utility.yul\":8619:8641   */\n  add\n    /* \"#utility.yul\":8613:8617   */\n  dup9\n    /* \"#utility.yul\":8606:8642   */\n  sstore\n    /* \"#utility.yul\":8041:8652   */\n  pop\n  pop\n  pop\n    /* \"#utility.yul\":8004:8891   */\ntag_139:\n  pop\n    /* \"#utility.yul\":7594:8897   */\n  pop\n  pop\n  pop\n    /* \"#utility.yul\":7502:8897   */\n  pop\n  pop\n  jump\t// out\n    /* \"contracts/MetaERC20.sol\":132:3106  contract MetaERC20 is IERC20 {... */\ntag_9:\n  dataSize(sub_0)\n  dup1\n  dataOffset(sub_0)\n  0x00\n  codecopy\n  0x00\n  return\nstop\n\nsub_0: assembly {\n        /* \"contracts/MetaERC20.sol\":132:3106  contract MetaERC20 is IERC20 {... */\n      mstore(0x40, 0x80)\n      callvalue\n      dup1\n      iszero\n      tag_1\n      jumpi\n      revert(0x00, 0x00)\n    tag_1:\n      pop\n      jumpi(tag_2, lt(calldatasize, 0x04))\n      shr(0xe0, calldataload(0x00))\n      dup1\n      0x40c10f19\n      gt\n      tag_10\n      jumpi\n      dup1\n      0x40c10f19\n      eq\n      tag_6\n      jumpi\n      dup1\n      0x70a08231\n      eq\n      tag_7\n      jumpi\n      dup1\n      0xa9059cbb\n      eq\n      tag_8\n      jumpi\n      dup1\n      0xdd62ed3e\n      eq\n      tag_9\n      jumpi\n      jump(tag_2)\n    tag_10:\n      dup1\n      0x095ea7b3\n      eq\n      tag_3\n      jumpi\n      dup1\n      0x18160ddd\n      eq\n      tag_4\n      jumpi\n      dup1\n      0x23b872dd\n      eq\n      tag_5\n      jumpi\n    tag_2:\n      revert(0x00, 0x00)\n        /* \"contracts/MetaERC20.sol\":1795:2252  function approve(address spender, uint256 value) external override returns (bool) {... */\n    tag_3:\n      tag_11\n      0x04\n      dup1\n      calldatasize\n      sub\n      dup2\n      add\n      swap1\n      tag_12\n      swap2\n      swap1\n      tag_13\n      jump\t// in\n    tag_12:\n      tag_14\n      jump\t// in\n    tag_11:\n      mload(0x40)\n      tag_15\n      swap2\n      swap1\n      tag_16\n      jump\t// in\n    tag_15:\n      mload(0x40)\n      dup1\n      swap2\n      sub\n      swap1\n      return\n        /* \"contracts/MetaERC20.sol\":990:1081  function totalSupply() external view override returns (uint256) {... */\n    tag_4:\n      tag_17\n      tag_18\n      jump\t// in\n    tag_17:\n      mload(0x40)\n      tag_19\n      swap2\n      swap1\n      tag_20\n      jump\t// in\n    tag_19:\n      mload(0x40)\n      dup1\n      swap2\n      sub\n      swap1\n      return\n        /* \"contracts/MetaERC20.sol\":2255:3104  function transferFrom(address from, address to, uint256 value) external override returns (bool) {... */\n    tag_5:\n      tag_21\n      0x04\n      dup1\n      calldatasize\n      sub\n      dup2\n      add\n      swap1\n      tag_22\n      swap2\n      swap1\n      tag_23\n      jump\t// in\n    tag_22:\n      tag_24\n      jump\t// in\n    tag_21:\n      mload(0x40)\n      tag_25\n      swap2\n      swap1\n      tag_16\n      jump\t// in\n    tag_25:\n      mload(0x40)\n      dup1\n      swap2\n      sub\n      swap1\n      return\n        /* \"contracts/MetaERC20.sol\":626:987  function mint(address to, uint256 amount) external {... */\n    tag_6:\n      tag_26\n      0x04\n      dup1\n      calldatasize\n      sub\n      dup2\n      add\n      swap1\n      tag_27\n      swap2\n      swap1\n      tag_13\n      jump\t// in\n    tag_27:\n      tag_28\n      jump\t// in\n    tag_26:\n      stop\n        /* \"contracts/MetaERC20.sol\":1084:1194  function balanceOf(address account) external view override returns (uint256) {... */\n    tag_7:\n      tag_29\n      0x04\n      dup1\n      calldatasize\n      sub\n      dup2\n      add\n      swap1\n      tag_30\n      swap2\n      swap1\n      tag_31\n      jump\t// in\n    tag_30:\n      tag_32\n      jump\t// in\n    tag_29:\n      mload(0x40)\n      tag_33\n      swap2\n      swap1\n      tag_20\n      jump\t// in\n    tag_33:\n      mload(0x40)\n      dup1\n      swap2\n      sub\n      swap1\n      return\n        /* \"contracts/MetaERC20.sol\":1197:1655  function transfer(address to, uint256 value) external override returns (bool) {... */\n    tag_8:\n      tag_34\n      0x04\n      dup1\n      calldatasize\n      sub\n      dup2\n      add\n      swap1\n      tag_35\n      swap2\n      swap1\n      tag_13\n      jump\t// in\n    tag_35:\n      tag_36\n      jump\t// in\n    tag_34:\n      mload(0x40)\n      tag_37\n      swap2\n      swap1\n      tag_16\n      jump\t// in\n    tag_37:\n      mload(0x40)\n      dup1\n      swap2\n      sub\n      swap1\n      return\n        /* \"contracts/MetaERC20.sol\":1658:1792  function allowance(address owner, address spender) external view override returns (uint256) {... */\n    tag_9:\n      tag_38\n      0x04\n      dup1\n      calldatasize\n      sub\n      dup2\n      add\n      swap1\n      tag_39\n      swap2\n      swap1\n      tag_40\n      jump\t// in\n    tag_39:\n      tag_41\n      jump\t// in\n    tag_38:\n      mload(0x40)\n      tag_42\n      swap2\n      swap1\n      tag_20\n      jump\t// in\n    tag_42:\n      mload(0x40)\n      dup1\n      swap2\n      sub\n      swap1\n      return\n        /* \"contracts/MetaERC20.sol\":1795:2252  function approve(address spender, uint256 value) external override returns (bool) {... */\n    tag_14:\n        /* \"contracts/MetaERC20.sol\":1871:1875  bool */\n      0x00\n        /* \"contracts/MetaERC20.sol\":1903:1910  spender */\n      dup3\n        /* \"contracts/MetaERC20.sol\":1889:1910  msg.sender != spender */\n      0xffffffffffffffffffffffffffffffffffffffff\n      and\n        /* \"contracts/MetaERC20.sol\":1889:1899  msg.sender */\n      caller\n        /* \"contracts/MetaERC20.sol\":1889:1910  msg.sender != spender */\n      0xffffffffffffffffffffffffffffffffffffffff\n      and\n      sub\n        /* \"contracts/MetaERC20.sol\":1881:1941  require(msg.sender != spender, \"MetaERC20: approve to self\") */\n      tag_44\n      jumpi\n      mload(0x40)\n      0x08c379a000000000000000000000000000000000000000000000000000000000\n      dup2\n      mstore\n      0x04\n      add\n      tag_45\n      swap1\n      tag_46\n      jump\t// in\n    tag_45:\n      mload(0x40)\n      dup1\n      swap2\n      sub\n      swap1\n      revert\n    tag_44:\n        /* \"contracts/MetaERC20.sol\":1972:1973  0 */\n      0x00\n        /* \"contracts/MetaERC20.sol\":1953:1974  spender != address(0) */\n      0xffffffffffffffffffffffffffffffffffffffff\n      and\n        /* \"contracts/MetaERC20.sol\":1953:1960  spender */\n      dup4\n        /* \"contracts/MetaERC20.sol\":1953:1974  spender != address(0) */\n      0xffffffffffffffffffffffffffffffffffffffff\n      and\n      sub\n        /* \"contracts/MetaERC20.sol\":1945:2017  require(spender != address(0), \"MetaERC20: approve to the zero address\") */\n      tag_47\n      jumpi\n      mload(0x40)\n      0x08c379a000000000000000000000000000000000000000000000000000000000\n      dup2\n      mstore\n      0x04\n      add\n      tag_48\n      swap1\n      tag_49\n      jump\t// in\n    tag_48:\n      mload(0x40)\n      dup1\n      swap2\n      sub\n      swap1\n      revert\n    tag_47:\n        /* \"contracts/MetaERC20.sol\":2037:2038  0 */\n      0x00\n        /* \"contracts/MetaERC20.sol\":2029:2034  value */\n      dup3\n        /* \"contracts/MetaERC20.sol\":2029:2038  value > 0 */\n      gt\n        /* \"contracts/MetaERC20.sol\":2021:2094  require(value > 0, \"MetaERC20: approve amount must be greater than zero\") */\n      tag_50\n      jumpi\n      mload(0x40)\n      0x08c379a000000000000000000000000000000000000000000000000000000000\n      dup2\n      mstore\n      0x04\n      add\n      tag_51\n      swap1\n      tag_52\n      jump\t// in\n    tag_51:\n      mload(0x40)\n      dup1\n      swap2\n      sub\n      swap1\n      revert\n    tag_50:\n        /* \"contracts/MetaERC20.sol\":2155:2160  value */\n      dup2\n        /* \"contracts/MetaERC20.sol\":2120:2131  _allowances */\n      0x02\n        /* \"contracts/MetaERC20.sol\":2120:2143  _allowances[msg.sender] */\n      0x00\n        /* \"contracts/MetaERC20.sol\":2132:2142  msg.sender */\n      caller\n        /* \"contracts/MetaERC20.sol\":2120:2143  _allowances[msg.sender] */\n      0xffffffffffffffffffffffffffffffffffffffff\n      and\n      0xffffffffffffffffffffffffffffffffffffffff\n      and\n      dup2\n      mstore\n      0x20\n      add\n      swap1\n      dup2\n      mstore\n      0x20\n      add\n      0x00\n      keccak256\n        /* \"contracts/MetaERC20.sol\":2120:2152  _allowances[msg.sender][spender] */\n      0x00\n        /* \"contracts/MetaERC20.sol\":2144:2151  spender */\n      dup6\n        /* \"contracts/MetaERC20.sol\":2120:2152  _allowances[msg.sender][spender] */\n      0xffffffffffffffffffffffffffffffffffffffff\n      and\n      0xffffffffffffffffffffffffffffffffffffffff\n      and\n      dup2\n      mstore\n      0x20\n      add\n      swap1\n      dup2\n      mstore\n      0x20\n      add\n      0x00\n      keccak256\n        /* \"contracts/MetaERC20.sol\":2120:2160  _allowances[msg.sender][spender] = value */\n      dup2\n      swap1\n      sstore\n      pop\n        /* \"contracts/MetaERC20.sol\":2191:2198  spender */\n      dup3\n        /* \"contracts/MetaERC20.sol\":2170:2233  Approval(msg.sender, spender, _allowances[msg.sender][spender]) */\n      0xffffffffffffffffffffffffffffffffffffffff\n      and\n        /* \"contracts/MetaERC20.sol\":2179:2189  msg.sender */\n      caller\n        /* \"contracts/MetaERC20.sol\":2170:2233  Approval(msg.sender, spender, _allowances[msg.sender][spender]) */\n      0xffffffffffffffffffffffffffffffffffffffff\n      and\n      0x8c5be1e5ebec7d5bd14f71427d1e84f3dd0314c0f7b2291e5b200ac8c7c3b925\n        /* \"contracts/MetaERC20.sol\":2200:2211  _allowances */\n      0x02\n        /* \"contracts/MetaERC20.sol\":2200:2223  _allowances[msg.sender] */\n      0x00\n        /* \"contracts/MetaERC20.sol\":2212:2222  msg.sender */\n      caller\n        /* \"contracts/MetaERC20.sol\":2200:2223  _allowances[msg.sender] */\n      0xffffffffffffffffffffffffffffffffffffffff\n      and\n      0xffffffffffffffffffffffffffffffffffffffff\n      and\n      dup2\n      mstore\n      0x20\n      add\n      swap1\n      dup2\n      mstore\n      0x20\n      add\n      0x00\n      keccak256\n        /* \"contracts/MetaERC20.sol\":2200:2232  _allowances[msg.sender][spender] */\n      0x00\n        /* \"contracts/MetaERC20.sol\":2224:2231  spender */\n      dup8\n        /* \"contracts/MetaERC20.sol\":2200:2232  _allowances[msg.sender][spender] */\n      0xffffffffffffffffffffffffffffffffffffffff\n      and\n      0xffffffffffffffffffffffffffffffffffffffff\n      and\n      dup2\n      mstore\n      0x20\n      add\n      swap1\n      dup2\n      mstore\n      0x20\n      add\n      0x00\n      keccak256\n      sload\n        /* \"contracts/MetaERC20.sol\":2170:2233  Approval(msg.sender, spender, _allowances[msg.sender][spender]) */\n      mload(0x40)\n      tag_53\n      swap2\n      swap1\n      tag_20\n      jump\t// in\n    tag_53:\n      mload(0x40)\n      dup1\n      swap2\n      sub\n      swap1\n      log3\n        /* \"contracts/MetaERC20.sol\":2244:2248  true */\n      0x01\n        /* \"contracts/MetaERC20.sol\":2237:2248  return true */\n      swap1\n      pop\n        /* \"contracts/MetaERC20.sol\":1795:2252  function approve(address spender, uint256 value) external override returns (bool) {... */\n      swap3\n      swap2\n      pop\n      pop\n      jump\t// out\n        /* \"contracts/MetaERC20.sol\":990:1081  function totalSupply() external view override returns (uint256) {... */\n    tag_18:\n        /* \"contracts/MetaERC20.sol\":1045:1052  uint256 */\n      0x00\n        /* \"contracts/MetaERC20.sol\":1065:1077  _totalSupply */\n      sload(0x03)\n        /* \"contracts/MetaERC20.sol\":1058:1077  return _totalSupply */\n      swap1\n      pop\n        /* \"contracts/MetaERC20.sol\":990:1081  function totalSupply() external view override returns (uint256) {... */\n      swap1\n      jump\t// out\n        /* \"contracts/MetaERC20.sol\":2255:3104  function transferFrom(address from, address to, uint256 value) external override returns (bool) {... */\n    tag_24:\n        /* \"contracts/MetaERC20.sol\":2345:2349  bool */\n      0x00\n        /* \"contracts/MetaERC20.sol\":2371:2377  _owner */\n      0x00\n      0x00\n      swap1\n      sload\n      swap1\n      0x0100\n      exp\n      swap1\n      div\n      0xffffffffffffffffffffffffffffffffffffffff\n      and\n        /* \"contracts/MetaERC20.sol\":2363:2377  from != _owner */\n      0xffffffffffffffffffffffffffffffffffffffff\n      and\n        /* \"contracts/MetaERC20.sol\":2363:2367  from */\n      dup5\n        /* \"contracts/MetaERC20.sol\":2363:2377  from != _owner */\n      0xffffffffffffffffffffffffffffffffffffffff\n      and\n      sub\n        /* \"contracts/MetaERC20.sol\":2355:2416  require(from != _owner, \"MetaERC20: transfer from the owner\") */\n      tag_56\n      jumpi\n      mload(0x40)\n      0x08c379a000000000000000000000000000000000000000000000000000000000\n      dup2\n      mstore\n      0x04\n      add\n      tag_57\n      swap1\n      tag_58\n      jump\t// in\n    tag_57:\n      mload(0x40)\n      dup1\n      swap2\n      sub\n      swap1\n      revert\n    tag_56:\n        /* \"contracts/MetaERC20.sol\":2444:2445  0 */\n      0x00\n        /* \"contracts/MetaERC20.sol\":2428:2446  from != address(0) */\n      0xffffffffffffffffffffffffffffffffffffffff\n      and\n        /* \"contracts/MetaERC20.sol\":2428:2432  from */\n      dup5\n        /* \"contracts/MetaERC20.sol\":2428:2446  from != address(0) */\n      0xffffffffffffffffffffffffffffffffffffffff\n      and\n      sub\n        /* \"contracts/MetaERC20.sol\":2420:2492  require(from != address(0), \"MetaERC20: transfer from the zero address\") */\n      tag_59\n      jumpi\n      mload(0x40)\n      0x08c379a000000000000000000000000000000000000000000000000000000000\n      dup2\n      mstore\n      0x04\n      add\n      tag_60\n      swap1\n      tag_61\n      jump\t// in\n    tag_60:\n      mload(0x40)\n      dup1\n      swap2\n      sub\n      swap1\n      revert\n    tag_59:\n        /* \"contracts/MetaERC20.sol\":2523:2528  value */\n      dup2\n        /* \"contracts/MetaERC20.sol\":2504:2513  _balances */\n      0x01\n        /* \"contracts/MetaERC20.sol\":2504:2519  _balances[from] */\n      0x00\n        /* \"contracts/MetaERC20.sol\":2514:2518  from */\n      dup7\n        /* \"contracts/MetaERC20.sol\":2504:2519  _balances[from] */\n      0xffffffffffffffffffffffffffffffffffffffff\n      and\n      0xffffffffffffffffffffffffffffffffffffffff\n      and\n      dup2\n      mstore\n      0x20\n      add\n      swap1\n      dup2\n      mstore\n      0x20\n      add\n      0x00\n      keccak256\n      sload\n        /* \"contracts/MetaERC20.sol\":2504:2528  _balances[from] >= value */\n      lt\n      iszero\n        /* \"contracts/MetaERC20.sol\":2496:2575  require(_balances[from] >= value, \"MetaERC20: transfer amount exceeds balance\") */\n      tag_62\n      jumpi\n      mload(0x40)\n      0x08c379a000000000000000000000000000000000000000000000000000000000\n      dup2\n      mstore\n      0x04\n      add\n      tag_63\n      swap1\n      tag_64\n      jump\t// in\n    tag_63:\n      mload(0x40)\n      dup1\n      swap2\n      sub\n      swap1\n      revert\n    tag_62:\n        /* \"contracts/MetaERC20.sol\":2591:2601  msg.sender */\n      caller\n        /* \"contracts/MetaERC20.sol\":2583:2601  from != msg.sender */\n      0xffffffffffffffffffffffffffffffffffffffff\n      and\n        /* \"contracts/MetaERC20.sol\":2583:2587  from */\n      dup5\n        /* \"contracts/MetaERC20.sol\":2583:2601  from != msg.sender */\n      0xffffffffffffffffffffffffffffffffffffffff\n      and\n      eq\n      iszero\n        /* \"contracts/MetaERC20.sol\":2583:2655  from != msg.sender && _allowances[from][msg.sender] != type(uint256).max */\n      dup1\n      iszero\n      tag_65\n      jumpi\n      pop\n        /* \"contracts/MetaERC20.sol\":2638:2655  type(uint256).max */\n      0xffffffffffffffffffffffffffffffffffffffffffffffffffffffffffffffff\n        /* \"contracts/MetaERC20.sol\":2605:2616  _allowances */\n      0x02\n        /* \"contracts/MetaERC20.sol\":2605:2622  _allowances[from] */\n      0x00\n        /* \"contracts/MetaERC20.sol\":2617:2621  from */\n      dup7\n        /* \"contracts/MetaERC20.sol\":2605:2622  _allowances[from] */\n      0xffffffffffffffffffffffffffffffffffffffff\n      and\n      0xffffffffffffffffffffffffffffffffffffffff\n      and\n      dup2\n      mstore\n      0x20\n      add\n      swap1\n      dup2\n      mstore\n      0x20\n      add\n      0x00\n      keccak256\n        /* \"contracts/MetaERC20.sol\":2605:2634  _allowances[from][msg.sender] */\n      0x00\n        /* \"contracts/MetaERC20.sol\":2623:2633  msg.sender */\n      caller\n        /* \"contracts/MetaERC20.sol\":2605:2634  _allowances[from][msg.sender] */\n      0xffffffffffffffffffffffffffffffffffffffff\n      and\n      0xffffffffffffffffffffffffffffffffffffffff\n      and\n      dup2\n      mstore\n      0x20\n      add\n      swap1\n      dup2\n      mstore\n      0x20\n      add\n      0x00\n      keccak256\n      sload\n        /* \"contracts/MetaERC20.sol\":2605:2655  _allowances[from][msg.sender] != type(uint256).max */\n      eq\n      iszero\n        /* \"contracts/MetaERC20.sol\":2583:2655  from != msg.sender && _allowances[from][msg.sender] != type(uint256).max */\n    tag_65:\n        /* \"contracts/MetaERC20.sol\":2579:2762  if (from != msg.sender && _allowances[from][msg.sender] != type(uint256).max) {... */\n      iszero\n      tag_66\n      jumpi\n        /* \"contracts/MetaERC20.sol\":2703:2708  value */\n      dup2\n        /* \"contracts/MetaERC20.sol\":2670:2681  _allowances */\n      0x02\n        /* \"contracts/MetaERC20.sol\":2670:2687  _allowances[from] */\n      0x00\n        /* \"contracts/MetaERC20.sol\":2682:2686  from */\n      dup7\n        /* \"contracts/MetaERC20.sol\":2670:2687  _allowances[from] */\n      0xffffffffffffffffffffffffffffffffffffffff\n      and\n      0xffffffffffffffffffffffffffffffffffffffff\n      and\n      dup2\n      mstore\n      0x20\n      add\n      swap1\n      dup2\n      mstore\n      0x20\n      add\n      0x00\n      keccak256\n        /* \"contracts/MetaERC20.sol\":2670:2699  _allowances[from][msg.sender] */\n      0x00\n        /* \"contracts/MetaERC20.sol\":2688:2698  msg.sender */\n      caller\n        /* \"contracts/MetaERC20.sol\":2670:2699  _allowances[from][msg.sender] */\n      0xffffffffffffffffffffffffffffffffffffffff\n      and\n      0xffffffffffffffffffffffffffffffffffffffff\n      and\n      dup2\n      mstore\n      0x20\n      add\n      swap1\n      dup2\n      mstore\n      0x20\n      add\n      0x00\n      keccak256\n      sload\n        /* \"contracts/MetaERC20.sol\":2670:2708  _allowances[from][msg.sender] >= value */\n      lt\n      iszero\n        /* \"contracts/MetaERC20.sol\":2662:2757  require(_allowances[from][msg.sender] >= value, \"MetaERC20: transfer amount exceeds allowance\") */\n      tag_67\n      jumpi\n      mload(0x40)\n      0x08c379a000000000000000000000000000000000000000000000000000000000\n      dup2\n      mstore\n      0x04\n      add\n      tag_68\n      swap1\n      tag_69\n      jump\t// in\n    tag_68:\n      mload(0x40)\n      dup1\n      swap2\n      sub\n      swap1\n      revert\n    tag_67:\n        /* \"contracts/MetaERC20.sol\":2579:2762  if (from != msg.sender && _allowances[from][msg.sender] != type(uint256).max) {... */\n    tag_66:\n        /* \"contracts/MetaERC20.sol\":2787:2788  0 */\n      0x00\n        /* \"contracts/MetaERC20.sol\":2773:2789  to != address(0) */\n      0xffffffffffffffffffffffffffffffffffffffff\n      and\n        /* \"contracts/MetaERC20.sol\":2773:2775  to */\n      dup4\n        /* \"contracts/MetaERC20.sol\":2773:2789  to != address(0) */\n      0xffffffffffffffffffffffffffffffffffffffff\n      and\n      sub\n        /* \"contracts/MetaERC20.sol\":2765:2833  require(to != address(0), \"MetaERC20: transfer to the zero address\") */\n      tag_70\n      jumpi\n      mload(0x40)\n      0x08c379a000000000000000000000000000000000000000000000000000000000\n      dup2\n      mstore\n      0x04\n      add\n      tag_71\n      swap1\n      tag_72\n      jump\t// in\n    tag_71:\n      mload(0x40)\n      dup1\n      swap2\n      sub\n      swap1\n      revert\n    tag_70:\n        /* \"contracts/MetaERC20.sol\":2853:2854  0 */\n      0x00\n        /* \"contracts/MetaERC20.sol\":2845:2850  value */\n      dup3\n        /* \"contracts/MetaERC20.sol\":2845:2854  value > 0 */\n      gt\n        /* \"contracts/MetaERC20.sol\":2837:2911  require(value > 0, \"MetaERC20: transfer amount must be greater than zero\") */\n      tag_73\n      jumpi\n      mload(0x40)\n      0x08c379a000000000000000000000000000000000000000000000000000000000\n      dup2\n      mstore\n      0x04\n      add\n      tag_74\n      swap1\n      tag_75\n      jump\t// in\n    tag_74:\n      mload(0x40)\n      dup1\n      swap2\n      sub\n      swap1\n      revert\n    tag_73:\n        /* \"contracts/MetaERC20.sol\":2955:2960  value */\n      dup2\n        /* \"contracts/MetaERC20.sol\":2936:2945  _balances */\n      0x01\n        /* \"contracts/MetaERC20.sol\":2936:2951  _balances[from] */\n      0x00\n        /* \"contracts/MetaERC20.sol\":2946:2950  from */\n      dup7\n        /* \"contracts/MetaERC20.sol\":2936:2951  _balances[from] */\n      0xffffffffffffffffffffffffffffffffffffffff\n      and\n      0xffffffffffffffffffffffffffffffffffffffff\n      and\n      dup2\n      mstore\n      0x20\n      add\n      swap1\n      dup2\n      mstore\n      0x20\n      add\n      0x00\n      keccak256\n      0x00\n        /* \"contracts/MetaERC20.sol\":2936:2960  _balances[from] -= value */\n      dup3\n      dup3\n      sload\n      tag_76\n      swap2\n      swap1\n      tag_77\n      jump\t// in\n    tag_76:\n      swap3\n      pop\n      pop\n      dup2\n      swap1\n      sstore\n      pop\n        /* \"contracts/MetaERC20.sol\":2981:2986  value */\n      dup2\n        /* \"contracts/MetaERC20.sol\":2964:2973  _balances */\n      0x01\n        /* \"contracts/MetaERC20.sol\":2964:2977  _balances[to] */\n      0x00\n        /* \"contracts/MetaERC20.sol\":2974:2976  to */\n      dup6\n        /* \"contracts/MetaERC20.sol\":2964:2977  _balances[to] */\n      0xffffffffffffffffffffffffffffffffffffffff\n      and\n      0xffffffffffffffffffffffffffffffffffffffff\n      and\n      dup2\n      mstore\n      0x20\n      add\n      swap1\n      dup2\n      mstore\n      0x20\n      add\n      0x00\n      keccak256\n      0x00\n        /* \"contracts/MetaERC20.sol\":2964:2986  _balances[to] += value */\n      dup3\n      dup3\n      sload\n      tag_78\n      swap2\n      swap1\n      tag_79\n      jump\t// in\n    tag_78:\n      swap3\n      pop\n      pop\n      dup2\n      swap1\n      sstore\n      pop\n        /* \"contracts/MetaERC20.sol\":3045:3050  value */\n      dup2\n        /* \"contracts/MetaERC20.sol\":3012:3023  _allowances */\n      0x02\n        /* \"contracts/MetaERC20.sol\":3012:3029  _allowances[from] */\n      0x00\n        /* \"contracts/MetaERC20.sol\":3024:3028  from */\n      dup7\n        /* \"contracts/MetaERC20.sol\":3012:3029  _allowances[from] */\n      0xffffffffffffffffffffffffffffffffffffffff\n      and\n      0xffffffffffffffffffffffffffffffffffffffff\n      and\n      dup2\n      mstore\n      0x20\n      add\n      swap1\n      dup2\n      mstore\n      0x20\n      add\n      0x00\n      keccak256\n        /* \"contracts/MetaERC20.sol\":3012:3041  _allowances[from][msg.sender] */\n      0x00\n        /* \"contracts/MetaERC20.sol\":3030:3040  msg.sender */\n      caller\n        /* \"contracts/MetaERC20.sol\":3012:3041  _allowances[from][msg.sender] */\n      0xffffffffffffffffffffffffffffffffffffffff\n      and\n      0xffffffffffffffffffffffffffffffffffffffff\n      and\n      dup2\n      mstore\n      0x20\n      add\n      swap1\n      dup2\n      mstore\n      0x20\n      add\n      0x00\n      keccak256\n      0x00\n        /* \"contracts/MetaERC20.sol\":3012:3050  _allowances[from][msg.sender] -= value */\n      dup3\n      dup3\n      sload\n      tag_80\n      swap2\n      swap1\n      tag_77\n      jump\t// in\n    tag_80:\n      swap3\n      pop\n      pop\n      dup2\n      swap1\n      sstore\n      pop\n        /* \"contracts/MetaERC20.sol\":3075:3077  to */\n      dup3\n        /* \"contracts/MetaERC20.sol\":3060:3085  Transfer(from, to, value) */\n      0xffffffffffffffffffffffffffffffffffffffff\n      and\n        /* \"contracts/MetaERC20.sol\":3069:3073  from */\n      dup5\n        /* \"contracts/MetaERC20.sol\":3060:3085  Transfer(from, to, value) */\n      0xffffffffffffffffffffffffffffffffffffffff\n      and\n      0xddf252ad1be2c89b69c2b068fc378daa952ba7f163c4a11628f55a4df523b3ef\n        /* \"contracts/MetaERC20.sol\":3079:3084  value */\n      dup5\n        /* \"contracts/MetaERC20.sol\":3060:3085  Transfer(from, to, value) */\n      mload(0x40)\n      tag_81\n      swap2\n      swap1\n      tag_20\n      jump\t// in\n    tag_81:\n      mload(0x40)\n      dup1\n      swap2\n      sub\n      swap1\n      log3\n        /* \"contracts/MetaERC20.sol\":3096:3100  true */\n      0x01\n        /* \"contracts/MetaERC20.sol\":3089:3100  return true */\n      swap1\n      pop\n        /* \"contracts/MetaERC20.sol\":2255:3104  function transferFrom(address from, address to, uint256 value) external override returns (bool) {... */\n      swap4\n      swap3\n      pop\n      pop\n      pop\n      jump\t// out\n        /* \"contracts/MetaERC20.sol\":626:987  function mint(address to, uint256 amount) external {... */\n    tag_28:\n        /* \"contracts/MetaERC20.sol\":703:709  _owner */\n      0x00\n      0x00\n      swap1\n      sload\n      swap1\n      0x0100\n      exp\n      swap1\n      div\n      0xffffffffffffffffffffffffffffffffffffffff\n      and\n        /* \"contracts/MetaERC20.sol\":689:709  msg.sender == _owner */\n      0xffffffffffffffffffffffffffffffffffffffff\n      and\n        /* \"contracts/MetaERC20.sol\":689:699  msg.sender */\n      caller\n        /* \"contracts/MetaERC20.sol\":689:709  msg.sender == _owner */\n      0xffffffffffffffffffffffffffffffffffffffff\n      and\n      eq\n        /* \"contracts/MetaERC20.sol\":681:744  require(msg.sender == _owner, \"MetaERC20: mint from non-owner\") */\n      tag_83\n      jumpi\n      mload(0x40)\n      0x08c379a000000000000000000000000000000000000000000000000000000000\n      dup2\n      mstore\n      0x04\n      add\n      tag_84\n      swap1\n      tag_85\n      jump\t// in\n    tag_84:\n      mload(0x40)\n      dup1\n      swap2\n      sub\n      swap1\n      revert\n    tag_83:\n        /* \"contracts/MetaERC20.sol\":770:771  0 */\n      0x00\n        /* \"contracts/MetaERC20.sol\":756:772  to != address(0) */\n      0xffffffffffffffffffffffffffffffffffffffff\n      and\n        /* \"contracts/MetaERC20.sol\":756:758  to */\n      dup3\n        /* \"contracts/MetaERC20.sol\":756:772  to != address(0) */\n      0xffffffffffffffffffffffffffffffffffffffff\n      and\n      sub\n        /* \"contracts/MetaERC20.sol\":748:812  require(to != address(0), \"MetaERC20: mint to the zero address\") */\n      tag_86\n      jumpi\n      mload(0x40)\n      0x08c379a000000000000000000000000000000000000000000000000000000000\n      dup2\n      mstore\n      0x04\n      add\n      tag_87\n      swap1\n      tag_88\n      jump\t// in\n    tag_87:\n      mload(0x40)\n      dup1\n      swap2\n      sub\n      swap1\n      revert\n    tag_86:\n        /* \"contracts/MetaERC20.sol\":833:834  0 */\n      0x00\n        /* \"contracts/MetaERC20.sol\":824:830  amount */\n      dup2\n        /* \"contracts/MetaERC20.sol\":824:834  amount > 0 */\n      gt\n        /* \"contracts/MetaERC20.sol\":816:887  require(amount > 0, \"MetaERC20: mint amount must be greater than zero\") */\n      tag_89\n      jumpi\n      mload(0x40)\n      0x08c379a000000000000000000000000000000000000000000000000000000000\n      dup2\n      mstore\n      0x04\n      add\n      tag_90\n      swap1\n      tag_91\n      jump\t// in\n    tag_90:\n      mload(0x40)\n      dup1\n      swap2\n      sub\n      swap1\n      revert\n    tag_89:\n        /* \"contracts/MetaERC20.sol\":908:914  amount */\n      dup1\n        /* \"contracts/MetaERC20.sol\":892:904  _totalSupply */\n      0x03\n      0x00\n        /* \"contracts/MetaERC20.sol\":892:914  _totalSupply += amount */\n      dup3\n      dup3\n      sload\n      tag_92\n      swap2\n      swap1\n      tag_79\n      jump\t// in\n    tag_92:\n      swap3\n      pop\n      pop\n      dup2\n      swap1\n      sstore\n      pop\n        /* \"contracts/MetaERC20.sol\":935:941  amount */\n      dup1\n        /* \"contracts/MetaERC20.sol\":918:927  _balances */\n      0x01\n        /* \"contracts/MetaERC20.sol\":918:931  _balances[to] */\n      0x00\n        /* \"contracts/MetaERC20.sol\":928:930  to */\n      dup5\n        /* \"contracts/MetaERC20.sol\":918:931  _balances[to] */\n      0xffffffffffffffffffffffffffffffffffffffff\n      and\n      0xffffffffffffffffffffffffffffffffffffffff\n      and\n      dup2\n      mstore\n      0x20\n      add\n      swap1\n      dup2\n      mstore\n      0x20\n      add\n      0x00\n      keccak256\n      0x00\n        /* \"contracts/MetaERC20.sol\":918:941  _balances[to] += amount */\n      dup3\n      dup3\n      sload\n      tag_93\n      swap2\n      swap1\n      tag_79\n      jump\t// in\n    tag_93:\n      swap3\n      pop\n      pop\n      dup2\n      swap1\n      sstore\n      pop\n        /* \"contracts/MetaERC20.sol\":972:974  to */\n      dup2\n        /* \"contracts/MetaERC20.sol\":951:983  Transfer(address(0), to, amount) */\n      0xffffffffffffffffffffffffffffffffffffffff\n      and\n        /* \"contracts/MetaERC20.sol\":968:969  0 */\n      0x00\n        /* \"contracts/MetaERC20.sol\":951:983  Transfer(address(0), to, amount) */\n      0xffffffffffffffffffffffffffffffffffffffff\n      and\n      0xddf252ad1be2c89b69c2b068fc378daa952ba7f163c4a11628f55a4df523b3ef\n        /* \"contracts/MetaERC20.sol\":976:982  amount */\n      dup4\n        /* \"contracts/MetaERC20.sol\":951:983  Transfer(address(0), to, amount) */\n      mload(0x40)\n      tag_94\n      swap2\n      swap1\n      tag_20\n      jump\t// in\n    tag_94:\n      mload(0x40)\n      dup1\n      swap2\n      sub\n      swap1\n      log3\n        /* \"contracts/MetaERC20.sol\":626:987  function mint(address to, uint256 amount) external {... */\n      pop\n      pop\n      jump\t// out\n        /* \"contracts/MetaERC20.sol\":1084:1194  function balanceOf(address account) external view override returns (uint256) {... */\n    tag_32:\n        /* \"contracts/MetaERC20.sol\":1152:1159  uint256 */\n      0x00\n        /* \"contracts/MetaERC20.sol\":1172:1181  _balances */\n      0x01\n        /* \"contracts/MetaERC20.sol\":1172:1190  _balances[account] */\n      0x00\n        /* \"contracts/MetaERC20.sol\":1182:1189  account */\n      dup4\n        /* \"contracts/MetaERC20.sol\":1172:1190  _balances[account] */\n      0xffffffffffffffffffffffffffffffffffffffff\n      and\n      0xffffffffffffffffffffffffffffffffffffffff\n      and\n      dup2\n      mstore\n      0x20\n      add\n      swap1\n      dup2\n      mstore\n      0x20\n      add\n      0x00\n      keccak256\n      sload\n        /* \"contracts/MetaERC20.sol\":1165:1190  return _balances[account] */\n      swap1\n      pop\n        /* \"contracts/MetaERC20.sol\":1084:1194  function balanceOf(address account) external view override returns (uint256) {... */\n      swap2\n      swap1\n      pop\n      jump\t// out\n        /* \"contracts/MetaERC20.sol\":1197:1655  function transfer(address to, uint256 value) external override returns (bool) {... */\n    tag_36:\n        /* \"contracts/MetaERC20.sol\":1269:1273  bool */\n      0x00\n        /* \"contracts/MetaERC20.sol\":1312:1317  value */\n      dup2\n        /* \"contracts/MetaERC20.sol\":1287:1296  _balances */\n      0x01\n        /* \"contracts/MetaERC20.sol\":1287:1308  _balances[msg.sender] */\n      0x00\n        /* \"contracts/MetaERC20.sol\":1297:1307  msg.sender */\n      caller\n        /* \"contracts/MetaERC20.sol\":1287:1308  _balances[msg.sender] */\n      0xffffffffffffffffffffffffffffffffffffffff\n      and\n      0xffffffffffffffffffffffffffffffffffffffff\n      and\n      dup2\n      mstore\n      0x20\n      add\n      swap1\n      dup2\n      mstore\n      0x20\n      add\n      0x00\n      keccak256\n      sload\n        /* \"contracts/MetaERC20.sol\":1287:1317  _balances[msg.sender] >= value */\n      lt\n      iszero\n        /* \"contracts/MetaERC20.sol\":1279:1364  require(_balances[msg.sender] >= value, \"MetaERC20: transfer amount exceeds balance\") */\n      tag_97\n      jumpi\n      mload(0x40)\n      0x08c379a000000000000000000000000000000000000000000000000000000000\n      dup2\n      mstore\n      0x04\n      add\n      tag_98\n      swap1\n      tag_64\n      jump\t// in\n    tag_98:\n      mload(0x40)\n      dup1\n      swap2\n      sub\n      swap1\n      revert\n    tag_97:\n        /* \"contracts/MetaERC20.sol\":1390:1391  0 */\n      0x00\n        /* \"contracts/MetaERC20.sol\":1376:1392  to != address(0) */\n      0xffffffffffffffffffffffffffffffffffffffff\n      and\n        /* \"contracts/MetaERC20.sol\":1376:1378  to */\n      dup4\n        /* \"contracts/MetaERC20.sol\":1376:1392  to != address(0) */\n      0xffffffffffffffffffffffffffffffffffffffff\n      and\n      sub\n        /* \"contracts/MetaERC20.sol\":1368:1436  require(to != address(0), \"MetaERC20: transfer to the zero address\") */\n      tag_99\n      jumpi\n      mload(0x40)\n      0x08c379a000000000000000000000000000000000000000000000000000000000\n      dup2\n      mstore\n      0x04\n      add\n      tag_100\n      swap1\n      tag_72\n      jump\t// in\n    tag_100:\n      mload(0x40)\n      dup1\n      swap2\n      sub\n      swap1\n      revert\n    tag_99:\n        /* \"contracts/MetaERC20.sol\":1456:1457  0 */\n      0x00\n        /* \"contracts/MetaERC20.sol\":1448:1453  value */\n      dup3\n        /* \"contracts/MetaERC20.sol\":1448:1457  value > 0 */\n      gt\n        /* \"contracts/MetaERC20.sol\":1440:1514  require(value > 0, \"MetaERC20: transfer amount must be greater than zero\") */\n      tag_101\n      jumpi\n      mload(0x40)\n      0x08c379a000000000000000000000000000000000000000000000000000000000\n      dup2\n      mstore\n      0x04\n      add\n      tag_102\n      swap1\n      tag_75\n      jump\t// in\n    tag_102:\n      mload(0x40)\n      dup1\n      swap2\n      sub\n      swap1\n      revert\n    tag_101:\n        /* \"contracts/MetaERC20.sol\":1564:1569  value */\n      dup2\n        /* \"contracts/MetaERC20.sol\":1539:1548  _balances */\n      0x01\n        /* \"contracts/MetaERC20.sol\":1539:1560  _balances[msg.sender] */\n      0x00\n        /* \"contracts/MetaERC20.sol\":1549:1559  msg.sender */\n      caller\n        /* \"contracts/MetaERC20.sol\":1539:1560  _balances[msg.sender] */\n      0xffffffffffffffffffffffffffffffffffffffff\n      and\n      0xffffffffffffffffffffffffffffffffffffffff\n      and\n      dup2\n      mstore\n      0x20\n      add\n      swap1\n      dup2\n      mstore\n      0x20\n      add\n      0x00\n      keccak256\n      0x00\n        /* \"contracts/MetaERC20.sol\":1539:1569  _balances[msg.sender] -= value */\n      dup3\n      dup3\n      sload\n      tag_103\n      swap2\n      swap1\n      tag_77\n      jump\t// in\n    tag_103:\n      swap3\n      pop\n      pop\n      dup2\n      swap1\n      sstore\n      pop\n        /* \"contracts/MetaERC20.sol\":1590:1595  value */\n      dup2\n        /* \"contracts/MetaERC20.sol\":1573:1582  _balances */\n      0x01\n        /* \"contracts/MetaERC20.sol\":1573:1586  _balances[to] */\n      0x00\n        /* \"contracts/MetaERC20.sol\":1583:1585  to */\n      dup6\n        /* \"contracts/MetaERC20.sol\":1573:1586  _balances[to] */\n      0xffffffffffffffffffffffffffffffffffffffff\n      and\n      0xffffffffffffffffffffffffffffffffffffffff\n      and\n      dup2\n      mstore\n      0x20\n      add\n      swap1\n      dup2\n      mstore\n      0x20\n      add\n      0x00\n      keccak256\n      0x00\n        /* \"contracts/MetaERC20.sol\":1573:1595  _balances[to] += value */\n      dup3\n      dup3\n      sload\n      tag_104\n      swap2\n      swap1\n      tag_79\n      jump\t// in\n    tag_104:\n      swap3\n      pop\n      pop\n      dup2\n      swap1\n      sstore\n      pop\n        /* \"contracts/MetaERC20.sol\":1626:1628  to */\n      dup3\n        /* \"contracts/MetaERC20.sol\":1605:1636  Transfer(msg.sender, to, value) */\n      0xffffffffffffffffffffffffffffffffffffffff\n      and\n        /* \"contracts/MetaERC20.sol\":1614:1624  msg.sender */\n      caller\n        /* \"contracts/MetaERC20.sol\":1605:1636  Transfer(msg.sender, to, value) */\n      0xffffffffffffffffffffffffffffffffffffffff\n      and\n      0xddf252ad1be2c89b69c2b068fc378daa952ba7f163c4a11628f55a4df523b3ef\n        /* \"contracts/MetaERC20.sol\":1630:1635  value */\n      dup5\n        /* \"contracts/MetaERC20.sol\":1605:1636  Transfer(msg.sender, to, value) */\n      mload(0x40)\n      tag_105\n      swap2\n      swap1\n      tag_20\n      jump\t// in\n    tag_105:\n      mload(0x40)\n      dup1\n      swap2\n      sub\n      swap1\n      log3\n        /* \"contracts/MetaERC20.sol\":1647:1651  true */\n      0x01\n        /* \"contracts/MetaERC20.sol\":1640:1651  return true */\n      swap1\n      pop\n        /* \"contracts/MetaERC20.sol\":1197:1655  function transfer(address to, uint256 value) external override returns (bool) {... */\n      swap3\n      swap2\n      pop\n      pop\n      jump\t// out\n        /* \"contracts/MetaERC20.sol\":1658:1792  function allowance(address owner, address spender) external view override returns (uint256) {... */\n    tag_41:\n        /* \"contracts/MetaERC20.sol\":1741:1748  uint256 */\n      0x00\n        /* \"contracts/MetaERC20.sol\":1761:1772  _allowances */\n      0x02\n        /* \"contracts/MetaERC20.sol\":1761:1779  _allowances[owner] */\n      0x00\n        /* \"contracts/MetaERC20.sol\":1773:1778  owner */\n      dup5\n        /* \"contracts/MetaERC20.sol\":1761:1779  _allowances[owner] */\n      0xffffffffffffffffffffffffffffffffffffffff\n      and\n      0xffffffffffffffffffffffffffffffffffffffff\n      and\n      dup2\n      mstore\n      0x20\n      add\n      swap1\n      dup2\n      mstore\n      0x20\n      add\n      0x00\n      keccak256\n        /* \"contracts/MetaERC20.sol\":1761:1788  _allowances[owner][spender] */\n      0x00\n        /* \"contracts/MetaERC20.sol\":1780:1787  spender */\n      dup4\n        /* \"contracts/MetaERC20.sol\":1761:1788  _allowances[owner][spender] */\n      0xffffffffffffffffffffffffffffffffffffffff\n      and\n      0xffffffffffffffffffffffffffffffffffffffff\n      and\n      dup2\n      mstore\n      0x20\n      add\n      swap1\n      dup2\n      mstore\n      0x20\n      add\n      0x00\n      keccak256\n      sload\n        /* \"contracts/MetaERC20.sol\":1754:1788  return _allowances[owner][spender] */\n      swap1\n      pop\n        /* \"contracts/MetaERC20.sol\":1658:1792  function allowance(address owner, address spender) external view override returns (uint256) {... */\n      swap3\n      swap2\n      pop\n      pop\n      jump\t// out\n        /* \"#utility.yul\":88:205   */\n    tag_108:\n        /* \"#utility.yul\":197:198   */\n      0x00\n        /* \"#utility.yul\":194:195   */\n      0x00\n        /* \"#utility.yul\":187:199   */\n      revert\n        /* \"#utility.yul\":334:460   */\n    tag_110:\n        /* \"#utility.yul\":371:378   */\n      0x00\n        /* \"#utility.yul\":411:453   */\n      0xffffffffffffffffffffffffffffffffffffffff\n        /* \"#utility.yul\":404:409   */\n      dup3\n        /* \"#utility.yul\":400:454   */\n      and\n        /* \"#utility.yul\":389:454   */\n      swap1\n      pop\n        /* \"#utility.yul\":334:460   */\n      swap2\n      swap1\n      pop\n      jump\t// out\n        /* \"#utility.yul\":466:562   */\n    tag_111:\n        /* \"#utility.yul\":503:510   */\n      0x00\n        /* \"#utility.yul\":532:556   */\n      tag_152\n        /* \"#utility.yul\":550:555   */\n      dup3\n        /* \"#utility.yul\":532:556   */\n      tag_110\n      jump\t// in\n    tag_152:\n        /* \"#utility.yul\":521:556   */\n      swap1\n      pop\n        /* \"#utility.yul\":466:562   */\n      swap2\n      swap1\n      pop\n      jump\t// out\n        /* \"#utility.yul\":568:690   */\n    tag_112:\n        /* \"#utility.yul\":641:665   */\n      tag_154\n        /* \"#utility.yul\":659:664   */\n      dup2\n        /* \"#utility.yul\":641:665   */\n      tag_111\n      jump\t// in\n    tag_154:\n        /* \"#utility.yul\":634:639   */\n      dup2\n        /* \"#utility.yul\":631:666   */\n      eq\n        /* \"#utility.yul\":621:684   */\n      tag_155\n      jumpi\n        /* \"#utility.yul\":680:681   */\n      0x00\n        /* \"#utility.yul\":677:678   */\n      0x00\n        /* \"#utility.yul\":670:682   */\n      revert\n        /* \"#utility.yul\":621:684   */\n    tag_155:\n        /* \"#utility.yul\":568:690   */\n      pop\n      jump\t// out\n        /* \"#utility.yul\":696:835   */\n    tag_113:\n        /* \"#utility.yul\":742:747   */\n      0x00\n        /* \"#utility.yul\":780:786   */\n      dup2\n        /* \"#utility.yul\":767:787   */\n      calldataload\n        /* \"#utility.yul\":758:787   */\n      swap1\n      pop\n        /* \"#utility.yul\":796:829   */\n      tag_157\n        /* \"#utility.yul\":823:828   */\n      dup2\n        /* \"#utility.yul\":796:829   */\n      tag_112\n      jump\t// in\n    tag_157:\n        /* \"#utility.yul\":696:835   */\n      swap3\n      swap2\n      pop\n      pop\n      jump\t// out\n        /* \"#utility.yul\":841:918   */\n    tag_114:\n        /* \"#utility.yul\":878:885   */\n      0x00\n        /* \"#utility.yul\":907:912   */\n      dup2\n        /* \"#utility.yul\":896:912   */\n      swap1\n      pop\n        /* \"#utility.yul\":841:918   */\n      swap2\n      swap1\n      pop\n      jump\t// out\n        /* \"#utility.yul\":924:1046   */\n    tag_115:\n        /* \"#utility.yul\":997:1021   */\n      tag_160\n        /* \"#utility.yul\":1015:1020   */\n      dup2\n        /* \"#utility.yul\":997:1021   */\n      tag_114\n      jump\t// in\n    tag_160:\n        /* \"#utility.yul\":990:995   */\n      dup2\n        /* \"#utility.yul\":987:1022   */\n      eq\n        /* \"#utility.yul\":977:1040   */\n      tag_161\n      jumpi\n        /* \"#utility.yul\":1036:1037   */\n      0x00\n        /* \"#utility.yul\":1033:1034   */\n      0x00\n        /* \"#utility.yul\":1026:1038   */\n      revert\n        /* \"#utility.yul\":977:1040   */\n    tag_161:\n        /* \"#utility.yul\":924:1046   */\n      pop\n      jump\t// out\n        /* \"#utility.yul\":1052:1191   */\n    tag_116:\n        /* \"#utility.yul\":1098:1103   */\n      0x00\n        /* \"#utility.yul\":1136:1142   */\n      dup2\n        /* \"#utility.yul\":1123:1143   */\n      calldataload\n        /* \"#utility.yul\":1114:1143   */\n      swap1\n      pop\n        /* \"#utility.yul\":1152:1185   */\n      tag_163\n        /* \"#utility.yul\":1179:1184   */\n      dup2\n        /* \"#utility.yul\":1152:1185   */\n      tag_115\n      jump\t// in\n    tag_163:\n        /* \"#utility.yul\":1052:1191   */\n      swap3\n      swap2\n      pop\n      pop\n      jump\t// out\n        /* \"#utility.yul\":1197:1671   */\n    tag_13:\n        /* \"#utility.yul\":1265:1271   */\n      0x00\n        /* \"#utility.yul\":1273:1279   */\n      0x00\n        /* \"#utility.yul\":1322:1324   */\n      0x40\n        /* \"#utility.yul\":1310:1319   */\n      dup4\n        /* \"#utility.yul\":1301:1308   */\n      dup6\n        /* \"#utility.yul\":1297:1320   */\n      sub\n        /* \"#utility.yul\":1293:1325   */\n      slt\n        /* \"#utility.yul\":1290:1409   */\n      iszero\n      tag_165\n      jumpi\n        /* \"#utility.yul\":1328:1407   */\n      tag_166\n      tag_108\n      jump\t// in\n    tag_166:\n        /* \"#utility.yul\":1290:1409   */\n    tag_165:\n        /* \"#utility.yul\":1448:1449   */\n      0x00\n        /* \"#utility.yul\":1473:1526   */\n      tag_167\n        /* \"#utility.yul\":1518:1525   */\n      dup6\n        /* \"#utility.yul\":1509:1515   */\n      dup3\n        /* \"#utility.yul\":1498:1507   */\n      dup7\n        /* \"#utility.yul\":1494:1516   */\n      add\n        /* \"#utility.yul\":1473:1526   */\n      tag_113\n      jump\t// in\n    tag_167:\n        /* \"#utility.yul\":1463:1526   */\n      swap3\n      pop\n        /* \"#utility.yul\":1419:1536   */\n      pop\n        /* \"#utility.yul\":1575:1577   */\n      0x20\n        /* \"#utility.yul\":1601:1654   */\n      tag_168\n        /* \"#utility.yul\":1646:1653   */\n      dup6\n        /* \"#utility.yul\":1637:1643   */\n      dup3\n        /* \"#utility.yul\":1626:1635   */\n      dup7\n        /* \"#utility.yul\":1622:1644   */\n      add\n        /* \"#utility.yul\":1601:1654   */\n      tag_116\n      jump\t// in\n    tag_168:\n        /* \"#utility.yul\":1591:1654   */\n      swap2\n      pop\n        /* \"#utility.yul\":1546:1664   */\n      pop\n        /* \"#utility.yul\":1197:1671   */\n      swap3\n      pop\n      swap3\n      swap1\n      pop\n      jump\t// out\n        /* \"#utility.yul\":1677:1767   */\n    tag_117:\n        /* \"#utility.yul\":1711:1718   */\n      0x00\n        /* \"#utility.yul\":1754:1759   */\n      dup2\n        /* \"#utility.yul\":1747:1760   */\n      iszero\n        /* \"#utility.yul\":1740:1761   */\n      iszero\n        /* \"#utility.yul\":1729:1761   */\n      swap1\n      pop\n        /* \"#utility.yul\":1677:1767   */\n      swap2\n      swap1\n      pop\n      jump\t// out\n        /* \"#utility.yul\":1773:1882   */\n    tag_118:\n        /* \"#utility.yul\":1854:1875   */\n      tag_171\n        /* \"#utility.yul\":1869:1874   */\n      dup2\n        /* \"#utility.yul\":1854:1875   */\n      tag_117\n      jump\t// in\n    tag_171:\n        /* \"#utility.yul\":1849:1852   */\n      dup3\n        /* \"#utility.yul\":1842:1876   */\n      mstore\n        /* \"#utility.yul\":1773:1882   */\n      pop\n      pop\n      jump\t// out\n        /* \"#utility.yul\":1888:2098   */\n    tag_16:\n        /* \"#utility.yul\":1975:1979   */\n      0x00\n        /* \"#utility.yul\":2013:2015   */\n      0x20\n        /* \"#utility.yul\":2002:2011   */\n      dup3\n        /* \"#utility.yul\":1998:2016   */\n      add\n        /* \"#utility.yul\":1990:2016   */\n      swap1\n      pop\n        /* \"#utility.yul\":2026:2091   */\n      tag_173\n        /* \"#utility.yul\":2088:2089   */\n      0x00\n        /* \"#utility.yul\":2077:2086   */\n      dup4\n        /* \"#utility.yul\":2073:2090   */\n      add\n        /* \"#utility.yul\":2064:2070   */\n      dup5\n        /* \"#utility.yul\":2026:2091   */\n      tag_118\n      jump\t// in\n    tag_173:\n        /* \"#utility.yul\":1888:2098   */\n      swap3\n      swap2\n      pop\n      pop\n      jump\t// out\n        /* \"#utility.yul\":2104:2222   */\n    tag_119:\n        /* \"#utility.yul\":2191:2215   */\n      tag_175\n        /* \"#utility.yul\":2209:2214   */\n      dup2\n        /* \"#utility.yul\":2191:2215   */\n      tag_114\n      jump\t// in\n    tag_175:\n        /* \"#utility.yul\":2186:2189   */\n      dup3\n        /* \"#utility.yul\":2179:2216   */\n      mstore\n        /* \"#utility.yul\":2104:2222   */\n      pop\n      pop\n      jump\t// out\n        /* \"#utility.yul\":2228:2450   */\n    tag_20:\n        /* \"#utility.yul\":2321:2325   */\n      0x00\n        /* \"#utility.yul\":2359:2361   */\n      0x20\n        /* \"#utility.yul\":2348:2357   */\n      dup3\n        /* \"#utility.yul\":2344:2362   */\n      add\n        /* \"#utility.yul\":2336:2362   */\n      swap1\n      pop\n        /* \"#utility.yul\":2372:2443   */\n      tag_177\n        /* \"#utility.yul\":2440:2441   */\n      0x00\n        /* \"#utility.yul\":2429:2438   */\n      dup4\n        /* \"#utility.yul\":2425:2442   */\n      add\n        /* \"#utility.yul\":2416:2422   */\n      dup5\n        /* \"#utility.yul\":2372:2443   */\n      tag_119\n      jump\t// in\n    tag_177:\n        /* \"#utility.yul\":2228:2450   */\n      swap3\n      swap2\n      pop\n      pop\n      jump\t// out\n        /* \"#utility.yul\":2456:3075   */\n    tag_23:\n        /* \"#utility.yul\":2533:2539   */\n      0x00\n        /* \"#utility.yul\":2541:2547   */\n      0x00\n        /* \"#utility.yul\":2549:2555   */\n      0x00\n        /* \"#utility.yul\":2598:2600   */\n      0x60\n        /* \"#utility.yul\":2586:2595   */\n      dup5\n        /* \"#utility.yul\":2577:2584   */\n      dup7\n        /* \"#utility.yul\":2573:2596   */\n      sub\n        /* \"#utility.yul\":2569:2601   */\n      slt\n        /* \"#utility.yul\":2566:2685   */\n      iszero\n      tag_179\n      jumpi\n        /* \"#utility.yul\":2604:2683   */\n      tag_180\n      tag_108\n      jump\t// in\n    tag_180:\n        /* \"#utility.yul\":2566:2685   */\n    tag_179:\n        /* \"#utility.yul\":2724:2725   */\n      0x00\n        /* \"#utility.yul\":2749:2802   */\n      tag_181\n        /* \"#utility.yul\":2794:2801   */\n      dup7\n        /* \"#utility.yul\":2785:2791   */\n      dup3\n        /* \"#utility.yul\":2774:2783   */\n      dup8\n        /* \"#utility.yul\":2770:2792   */\n      add\n        /* \"#utility.yul\":2749:2802   */\n      tag_113\n      jump\t// in\n    tag_181:\n        /* \"#utility.yul\":2739:2802   */\n      swap4\n      pop\n        /* \"#utility.yul\":2695:2812   */\n      pop\n        /* \"#utility.yul\":2851:2853   */\n      0x20\n        /* \"#utility.yul\":2877:2930   */\n      tag_182\n        /* \"#utility.yul\":2922:2929   */\n      dup7\n        /* \"#utility.yul\":2913:2919   */\n      dup3\n        /* \"#utility.yul\":2902:2911   */\n      dup8\n        /* \"#utility.yul\":2898:2920   */\n      add\n        /* \"#utility.yul\":2877:2930   */\n      tag_113\n      jump\t// in\n    tag_182:\n        /* \"#utility.yul\":2867:2930   */\n      swap3\n      pop\n        /* \"#utility.yul\":2822:2940   */\n      pop\n        /* \"#utility.yul\":2979:2981   */\n      0x40\n        /* \"#utility.yul\":3005:3058   */\n      tag_183\n        /* \"#utility.yul\":3050:3057   */\n      dup7\n        /* \"#utility.yul\":3041:3047   */\n      dup3\n        /* \"#utility.yul\":3030:3039   */\n      dup8\n        /* \"#utility.yul\":3026:3048   */\n      add\n        /* \"#utility.yul\":3005:3058   */\n      tag_116\n      jump\t// in\n    tag_183:\n        /* \"#utility.yul\":2995:3058   */\n      swap2\n      pop\n        /* \"#utility.yul\":2950:3068   */\n      pop\n        /* \"#utility.yul\":2456:3075   */\n      swap3\n      pop\n      swap3\n      pop\n      swap3\n      jump\t// out\n        /* \"#utility.yul\":3081:3410   */\n    tag_31:\n        /* \"#utility.yul\":3140:3146   */\n      0x00\n        /* \"#utility.yul\":3189:3191   */\n      0x20\n        /* \"#utility.yul\":3177:3186   */\n      dup3\n        /* \"#utility.yul\":3168:3175   */\n      dup5\n        /* \"#utility.yul\":3164:3187   */\n      sub\n        /* \"#utility.yul\":3160:3192   */\n      slt\n        /* \"#utility.yul\":3157:3276   */\n      iszero\n      tag_185\n      jumpi\n        /* \"#utility.yul\":3195:3274   */\n      tag_186\n      tag_108\n      jump\t// in\n    tag_186:\n        /* \"#utility.yul\":3157:3276   */\n    tag_185:\n        /* \"#utility.yul\":3315:3316   */\n      0x00\n        /* \"#utility.yul\":3340:3393   */\n      tag_187\n        /* \"#utility.yul\":3385:3392   */\n      dup5\n        /* \"#utility.yul\":3376:3382   */\n      dup3\n        /* \"#utility.yul\":3365:3374   */\n      dup6\n        /* \"#utility.yul\":3361:3383   */\n      add\n        /* \"#utility.yul\":3340:3393   */\n      tag_113\n      jump\t// in\n    tag_187:\n        /* \"#utility.yul\":3330:3393   */\n      swap2\n      pop\n        /* \"#utility.yul\":3286:3403   */\n      pop\n        /* \"#utility.yul\":3081:3410   */\n      swap3\n      swap2\n      pop\n      pop\n      jump\t// out\n        /* \"#utility.yul\":3416:3890   */\n    tag_40:\n        /* \"#utility.yul\":3484:3490   */\n      0x00\n        /* \"#utility.yul\":3492:3498   */\n      0x00\n        /* \"#utility.yul\":3541:3543   */\n      0x40\n        /* \"#utility.yul\":3529:3538   */\n      dup4\n        /* \"#utility.yul\":3520:3527   */\n      dup6\n        /* \"#utility.yul\":3516:3539   */\n      sub\n        /* \"#utility.yul\":3512:3544   */\n      slt\n        /* \"#utility.yul\":3509:3628   */\n      iszero\n      tag_189\n      jumpi\n        /* \"#utility.yul\":3547:3626   */\n      tag_190\n      tag_108\n      jump\t// in\n    tag_190:\n        /* \"#utility.yul\":3509:3628   */\n    tag_189:\n        /* \"#utility.yul\":3667:3668   */\n      0x00\n        /* \"#utility.yul\":3692:3745   */\n      tag_191\n        /* \"#utility.yul\":3737:3744   */\n      dup6\n        /* \"#utility.yul\":3728:3734   */\n      dup3\n        /* \"#utility.yul\":3717:3726   */\n      dup7\n        /* \"#utility.yul\":3713:3735   */\n      add\n        /* \"#utility.yul\":3692:3745   */\n      tag_113\n      jump\t// in\n    tag_191:\n        /* \"#utility.yul\":3682:3745   */\n      swap3\n      pop\n        /* \"#utility.yul\":3638:3755   */\n      pop\n        /* \"#utility.yul\":3794:3796   */\n      0x20\n        /* \"#utility.yul\":3820:3873   */\n      tag_192\n        /* \"#utility.yul\":3865:3872   */\n      dup6\n        /* \"#utility.yul\":3856:3862   */\n      dup3\n        /* \"#utility.yul\":3845:3854   */\n      dup7\n        /* \"#utility.yul\":3841:3863   */\n      add\n        /* \"#utility.yul\":3820:3873   */\n      tag_113\n      jump\t// in\n    tag_192:\n        /* \"#utility.yul\":3810:3873   */\n      swap2\n      pop\n        /* \"#utility.yul\":3765:3883   */\n      pop\n        /* \"#utility.yul\":3416:3890   */\n      swap3\n      pop\n      swap3\n      swap1\n      pop\n      jump\t// out\n        /* \"#utility.yul\":3896:4065   */\n    tag_120:\n        /* \"#utility.yul\":3980:3991   */\n      0x00\n        /* \"#utility.yul\":4014:4020   */\n      dup3\n        /* \"#utility.yul\":4009:4012   */\n      dup3\n        /* \"#utility.yul\":4002:4021   */\n      mstore\n        /* \"#utility.yul\":4054:4058   */\n      0x20\n        /* \"#utility.yul\":4049:4052   */\n      dup3\n        /* \"#utility.yul\":4045:4059   */\n      add\n        /* \"#utility.yul\":4030:4059   */\n      swap1\n      pop\n        /* \"#utility.yul\":3896:4065   */\n      swap3\n      swap2\n      pop\n      pop\n      jump\t// out\n        /* \"#utility.yul\":4071:4247   */\n    tag_121:\n        /* \"#utility.yul\":4211:4239   */\n      0x4d65746145524332303a20617070726f766520746f2073656c66000000000000\n        /* \"#utility.yul\":4207:4208   */\n      0x00\n        /* \"#utility.yul\":4199:4205   */\n      dup3\n        /* \"#utility.yul\":4195:4209   */\n      add\n        /* \"#utility.yul\":4188:4240   */\n      mstore\n        /* \"#utility.yul\":4071:4247   */\n      pop\n      jump\t// out\n        /* \"#utility.yul\":4253:4619   */\n    tag_122:\n        /* \"#utility.yul\":4395:4398   */\n      0x00\n        /* \"#utility.yul\":4416:4483   */\n      tag_196\n        /* \"#utility.yul\":4480:4482   */\n      0x1a\n        /* \"#utility.yul\":4475:4478   */\n      dup4\n        /* \"#utility.yul\":4416:4483   */\n      tag_120\n      jump\t// in\n    tag_196:\n        /* \"#utility.yul\":4409:4483   */\n      swap2\n      pop\n        /* \"#utility.yul\":4492:4585   */\n      tag_197\n        /* \"#utility.yul\":4581:4584   */\n      dup3\n        /* \"#utility.yul\":4492:4585   */\n      tag_121\n      jump\t// in\n    tag_197:\n        /* \"#utility.yul\":4610:4612   */\n      0x20\n        /* \"#utility.yul\":4605:4608   */\n      dup3\n        /* \"#utility.yul\":4601:4613   */\n      add\n        /* \"#utility.yul\":4594:4613   */\n      swap1\n      pop\n        /* \"#utility.yul\":4253:4619   */\n      swap2\n      swap1\n      pop\n      jump\t// out\n        /* \"#utility.yul\":4625:5044   */\n    tag_46:\n        /* \"#utility.yul\":4791:4795   */\n      0x00\n        /* \"#utility.yul\":4829:4831   */\n      0x20\n        /* \"#utility.yul\":4818:4827   */\n      dup3\n        /* \"#utility.yul\":4814:4832   */\n      add\n        /* \"#utility.yul\":4806:4832   */\n      swap1\n      pop\n        /* \"#utility.yul\":4878:4887   */\n      dup2\n        /* \"#utility.yul\":4872:4876   */\n      dup2\n        /* \"#utility.yul\":4868:4888   */\n      sub\n        /* \"#utility.yul\":4864:4865   */\n      0x00\n        /* \"#utility.yul\":4853:4862   */\n      dup4\n        /* \"#utility.yul\":4849:4866   */\n      add\n        /* \"#utility.yul\":4842:4889   */\n      mstore\n        /* \"#utility.yul\":4906:5037   */\n      tag_199\n        /* \"#utility.yul\":5032:5036   */\n      dup2\n        /* \"#utility.yul\":4906:5037   */\n      tag_122\n      jump\t// in\n    tag_199:\n        /* \"#utility.yul\":4898:5037   */\n      swap1\n      pop\n        /* \"#utility.yul\":4625:5044   */\n      swap2\n      swap1\n      pop\n      jump\t// out\n        /* \"#utility.yul\":5050:5275   */\n    tag_123:\n        /* \"#utility.yul\":5190:5224   */\n      0x4d65746145524332303a20617070726f766520746f20746865207a65726f2061\n        /* \"#utility.yul\":5186:5187   */\n      0x00\n        /* \"#utility.yul\":5178:5184   */\n      dup3\n        /* \"#utility.yul\":5174:5188   */\n      add\n        /* \"#utility.yul\":5167:5225   */\n      mstore\n        /* \"#utility.yul\":5259:5267   */\n      0x6464726573730000000000000000000000000000000000000000000000000000\n        /* \"#utility.yul\":5254:5256   */\n      0x20\n        /* \"#utility.yul\":5246:5252   */\n      dup3\n        /* \"#utility.yul\":5242:5257   */\n      add\n        /* \"#utility.yul\":5235:5268   */\n      mstore\n        /* \"#utility.yul\":5050:5275   */\n      pop\n      jump\t// out\n        /* \"#utility.yul\":5281:5647   */\n    tag_124:\n        /* \"#utility.yul\":5423:5426   */\n      0x00\n        /* \"#utility.yul\":5444:5511   */\n      tag_202\n        /* \"#utility.yul\":5508:5510   */\n      0x26\n        /* \"#utility.yul\":5503:5506   */\n      dup4\n        /* \"#utility.yul\":5444:5511   */\n      tag_120\n      jump\t// in\n    tag_202:\n        /* \"#utility.yul\":5437:5511   */\n      swap2\n      pop\n        /* \"#utility.yul\":5520:5613   */\n      tag_203\n        /* \"#utility.yul\":5609:5612   */\n      dup3\n        /* \"#utility.yul\":5520:5613   */\n      tag_123\n      jump\t// in\n    tag_203:\n        /* \"#utility.yul\":5638:5640   */\n      0x40\n        /* \"#utility.yul\":5633:5636   */\n      dup3\n        /* \"#utility.yul\":5629:5641   */\n      add\n        /* \"#utility.yul\":5622:5641   */\n      swap1\n      pop\n        /* \"#utility.yul\":5281:5647   */\n      swap2\n      swap1\n      pop\n      jump\t// out\n        /* \"#utility.yul\":5653:6072   */\n    tag_49:\n        /* \"#utility.yul\":5819:5823   */\n      0x00\n        /* \"#utility.yul\":5857:5859   */\n      0x20\n        /* \"#utility.yul\":5846:5855   */\n      dup3\n        /* \"#utility.yul\":5842:5860   */\n      add\n        /* \"#utility.yul\":5834:5860   */\n      swap1\n      pop\n        /* \"#utility.yul\":5906:5915   */\n      dup2\n        /* \"#utility.yul\":5900:5904   */\n      dup2\n        /* \"#utility.yul\":5896:5916   */\n      sub\n        /* \"#utility.yul\":5892:5893   */\n      0x00\n        /* \"#utility.yul\":5881:5890   */\n      dup4\n        /* \"#utility.yul\":5877:5894   */\n      add\n        /* \"#utility.yul\":5870:5917   */\n      mstore\n        /* \"#utility.yul\":5934:6065   */\n      tag_205\n        /* \"#utility.yul\":6060:6064   */\n      dup2\n        /* \"#utility.yul\":5934:6065   */\n      tag_124\n      jump\t// in\n    tag_205:\n        /* \"#utility.yul\":5926:6065   */\n      swap1\n      pop\n        /* \"#utility.yul\":5653:6072   */\n      swap2\n      swap1\n      pop\n      jump\t// out\n        /* \"#utility.yul\":6078:6316   */\n    tag_125:\n        /* \"#utility.yul\":6218:6252   */\n      0x4d65746145524332303a20617070726f766520616d6f756e74206d7573742062\n        /* \"#utility.yul\":6214:6215   */\n      0x00\n        /* \"#utility.yul\":6206:6212   */\n      dup3\n        /* \"#utility.yul\":6202:6216   */\n      add\n        /* \"#utility.yul\":6195:6253   */\n      mstore\n        /* \"#utility.yul\":6287:6308   */\n      0x652067726561746572207468616e207a65726f00000000000000000000000000\n        /* \"#utility.yul\":6282:6284   */\n      0x20\n        /* \"#utility.yul\":6274:6280   */\n      dup3\n        /* \"#utility.yul\":6270:6285   */\n      add\n        /* \"#utility.yul\":6263:6309   */\n      mstore\n        /* \"#utility.yul\":6078:6316   */\n      pop\n      jump\t// out\n        /* \"#utility.yul\":6322:6688   */\n    tag_126:\n        /* \"#utility.yul\":6464:6467   */\n      0x00\n        /* \"#utility.yul\":6485:6552   */\n      tag_208\n        /* \"#utility.yul\":6549:6551   */\n      0x33\n        /* \"#utility.yul\":6544:6547   */\n      dup4\n        /* \"#utility.yul\":6485:6552   */\n      tag_120\n      jump\t// in\n    tag_208:\n        /* \"#utility.yul\":6478:6552   */\n      swap2\n      pop\n        /* \"#utility.yul\":6561:6654   */\n      tag_209\n        /* \"#utility.yul\":6650:6653   */\n      dup3\n        /* \"#utility.yul\":6561:6654   */\n      tag_125\n      jump\t// in\n    tag_209:\n        /* \"#utility.yul\":6679:6681   */\n      0x40\n        /* \"#utility.yul\":6674:6677   */\n      dup3\n        /* \"#utility.yul\":6670:6682   */\n      add\n        /* \"#utility.yul\":6663:6682   */\n      swap1\n      pop\n        /* \"#utility.yul\":6322:6688   */\n      swap2\n      swap1\n      pop\n      jump\t// out\n        /* \"#utility.yul\":6694:7113   */\n    tag_52:\n        /* \"#utility.yul\":6860:6864   */\n      0x00\n        /* \"#utility.yul\":6898:6900   */\n      0x20\n        /* \"#utility.yul\":6887:6896   */\n      dup3\n        /* \"#utility.yul\":6883:6901   */\n      add\n        /* \"#utility.yul\":6875:6901   */\n      swap1\n      pop\n        /* \"#utility.yul\":6947:6956   */\n      dup2\n        /* \"#utility.yul\":6941:6945   */\n      dup2\n        /* \"#utility.yul\":6937:6957   */\n      sub\n        /* \"#utility.yul\":6933:6934   */\n      0x00\n        /* \"#utility.yul\":6922:6931   */\n      dup4\n        /* \"#utility.yul\":6918:6935   */\n      add\n        /* \"#utility.yul\":6911:6958   */\n      mstore\n        /* \"#utility.yul\":6975:7106   */\n      tag_211\n        /* \"#utility.yul\":7101:7105   */\n      dup2\n        /* \"#utility.yul\":6975:7106   */\n      tag_126\n      jump\t// in\n    tag_211:\n        /* \"#utility.yul\":6967:7106   */\n      swap1\n      pop\n        /* \"#utility.yul\":6694:7113   */\n      swap2\n      swap1\n      pop\n      jump\t// out\n        /* \"#utility.yul\":7119:7340   */\n    tag_127:\n        /* \"#utility.yul\":7259:7293   */\n      0x4d65746145524332303a207472616e736665722066726f6d20746865206f776e\n        /* \"#utility.yul\":7255:7256   */\n      0x00\n        /* \"#utility.yul\":7247:7253   */\n      dup3\n        /* \"#utility.yul\":7243:7257   */\n      add\n        /* \"#utility.yul\":7236:7294   */\n      mstore\n        /* \"#utility.yul\":7328:7332   */\n      0x6572000000000000000000000000000000000000000000000000000000000000\n        /* \"#utility.yul\":7323:7325   */\n      0x20\n        /* \"#utility.yul\":7315:7321   */\n      dup3\n        /* \"#utility.yul\":7311:7326   */\n      add\n        /* \"#utility.yul\":7304:7333   */\n      mstore\n        /* \"#utility.yul\":7119:7340   */\n      pop\n      jump\t// out\n        /* \"#utility.yul\":7346:7712   */\n    tag_128:\n        /* \"#utility.yul\":7488:7491   */\n      0x00\n        /* \"#utility.yul\":7509:7576   */\n      tag_214\n        /* \"#utility.yul\":7573:7575   */\n      0x22\n        /* \"#utility.yul\":7568:7571   */\n      dup4\n        /* \"#utility.yul\":7509:7576   */\n      tag_120\n      jump\t// in\n    tag_214:\n        /* \"#utility.yul\":7502:7576   */\n      swap2\n      pop\n        /* \"#utility.yul\":7585:7678   */\n      tag_215\n        /* \"#utility.yul\":7674:7677   */\n      dup3\n        /* \"#utility.yul\":7585:7678   */\n      tag_127\n      jump\t// in\n    tag_215:\n        /* \"#utility.yul\":7703:7705   */\n      0x40\n        /* \"#utility.yul\":7698:7701   */\n      dup3\n        /* \"#utility.yul\":7694:7706   */\n      add\n        /* \"#utility.yul\":7687:7706   */\n      swap1\n      pop\n        /* \"#utility.yul\":7346:7712   */\n      swap2\n      swap1\n      pop\n      jump\t// out\n        /* \"#utility.yul\":7718:8137   */\n    tag_58:\n        /* \"#utility.yul\":7884:7888   */\n      0x00\n        /* \"#utility.yul\":7922:7924   */\n      0x20\n        /* \"#utility.yul\":7911:7920   */\n      dup3\n        /* \"#utility.yul\":7907:7925   */\n      add\n        /* \"#utility.yul\":7899:7925   */\n      swap1\n      pop\n        /* \"#utility.yul\":7971:7980   */\n      dup2\n        /* \"#utility.yul\":7965:7969   */\n      dup2\n        /* \"#utility.yul\":7961:7981   */\n      sub\n        /* \"#utility.yul\":7957:7958   */\n      0x00\n        /* \"#utility.yul\":7946:7955   */\n      dup4\n        /* \"#utility.yul\":7942:7959   */\n      add\n        /* \"#utility.yul\":7935:7982   */\n      mstore\n        /* \"#utility.yul\":7999:8130   */\n      tag_217\n        /* \"#utility.yul\":8125:8129   */\n      dup2\n        /* \"#utility.yul\":7999:8130   */\n      tag_128\n      jump\t// in\n    tag_217:\n        /* \"#utility.yul\":7991:8130   */\n      swap1\n      pop\n        /* \"#utility.yul\":7718:8137   */\n      swap2\n      swap1\n      pop\n      jump\t// out\n        /* \"#utility.yul\":8143:8371   */\n    tag_129:\n        /* \"#utility.yul\":8283:8317   */\n      0x4d65746145524332303a207472616e736665722066726f6d20746865207a6572\n        /* \"#utility.yul\":8279:8280   */\n      0x00\n        /* \"#utility.yul\":8271:8277   */\n      dup3\n        /* \"#utility.yul\":8267:8281   */\n      add\n        /* \"#utility.yul\":8260:8318   */\n      mstore\n        /* \"#utility.yul\":8352:8363   */\n      0x6f20616464726573730000000000000000000000000000000000000000000000\n        /* \"#utility.yul\":8347:8349   */\n      0x20\n        /* \"#utility.yul\":8339:8345   */\n      dup3\n        /* \"#utility.yul\":8335:8350   */\n      add\n        /* \"#utility.yul\":8328:8364   */\n      mstore\n        /* \"#utility.yul\":8143:8371   */\n      pop\n      jump\t// out\n        /* \"#utility.yul\":8377:8743   */\n    tag_130:\n        /* \"#utility.yul\":8519:8522   */\n      0x00\n        /* \"#utility.yul\":8540:8607   */\n      tag_220\n        /* \"#utility.yul\":8604:8606   */\n      0x29\n        /* \"#utility.yul\":8599:8602   */\n      dup4\n        /* \"#utility.yul\":8540:8607   */\n      tag_120\n      jump\t// in\n    tag_220:\n        /* \"#utility.yul\":8533:8607   */\n      swap2\n      pop\n        /* \"#utility.yul\":8616:8709   */\n      tag_221\n        /* \"#utility.yul\":8705:8708   */\n      dup3\n        /* \"#utility.yul\":8616:8709   */\n      tag_129\n      jump\t// in\n    tag_221:\n        /* \"#utility.yul\":8734:8736   */\n      0x40\n        /* \"#utility.yul\":8729:8732   */\n      dup3\n        /* \"#utility.yul\":8725:8737   */\n      add\n        /* \"#utility.yul\":8718:8737   */\n      swap1\n      pop\n        /* \"#utility.yul\":8377:8743   */\n      swap2\n      swap1\n      pop\n      jump\t// out\n        /* \"#utility.yul\":8749:9168   */\n    tag_61:\n        /* \"#utility.yul\":8915:8919   */\n      0x00\n        /* \"#utility.yul\":8953:8955   */\n      0x20\n        /* \"#utility.yul\":8942:8951   */\n      dup3\n        /* \"#utility.yul\":8938:8956   */\n      add\n        /* \"#utility.yul\":8930:8956   */\n      swap1\n      pop\n        /* \"#utility.yul\":9002:9011   */\n      dup2\n        /* \"#utility.yul\":8996:9000   */\n      dup2\n        /* \"#utility.yul\":8992:9012   */\n      sub\n        /* \"#utility.yul\":8988:8989   */\n      0x00\n        /* \"#utility.yul\":8977:8986   */\n      dup4\n        /* \"#utility.yul\":8973:8990   */\n      add\n        /* \"#utility.yul\":8966:9013   */\n      mstore\n        /* \"#utility.yul\":9030:9161   */\n      tag_223\n        /* \"#utility.yul\":9156:9160   */\n      dup2\n        /* \"#utility.yul\":9030:9161   */\n      tag_130\n      jump\t// in\n    tag_223:\n        /* \"#utility.yul\":9022:9161   */\n      swap1\n      pop\n        /* \"#utility.yul\":8749:9168   */\n      swap2\n      swap1\n      pop\n      jump\t// out\n        /* \"#utility.yul\":9174:9403   */\n    tag_131:\n        /* \"#utility.yul\":9314:9348   */\n      0x4d65746145524332303a207472616e7366657220616d6f756e74206578636565\n        /* \"#utility.yul\":9310:9311   */\n      0x00\n        /* \"#utility.yul\":9302:9308   */\n      dup3\n        /* \"#utility.yul\":9298:9312   */\n      add\n        /* \"#utility.yul\":9291:9349   */\n      mstore\n        /* \"#utility.yul\":9383:9395   */\n      0x64732062616c616e636500000000000000000000000000000000000000000000\n        /* \"#utility.yul\":9378:9380   */\n      0x20\n        /* \"#utility.yul\":9370:9376   */\n      dup3\n        /* \"#utility.yul\":9366:9381   */\n      add\n        /* \"#utility.yul\":9359:9396   */\n      mstore\n        /* \"#utility.yul\":9174:9403   */\n      pop\n      jump\t// out\n        /* \"#utility.yul\":9409:9775   */\n    tag_132:\n        /* \"#utility.yul\":9551:9554   */\n      0x00\n        /* \"#utility.yul\":9572:9639   */\n      tag_226\n        /* \"#utility.yul\":9636:9638   */\n      0x2a\n        /* \"#utility.yul\":9631:9634   */\n      dup4\n        /* \"#utility.yul\":9572:9639   */\n      tag_120\n      jump\t// in\n    tag_226:\n        /* \"#utility.yul\":9565:9639   */\n      swap2\n      pop\n        /* \"#utility.yul\":9648:9741   */\n      tag_227\n        /* \"#utility.yul\":9737:9740   */\n      dup3\n        /* \"#utility.yul\":9648:9741   */\n      tag_131\n      jump\t// in\n    tag_227:\n        /* \"#utility.yul\":9766:9768   */\n      0x40\n        /* \"#utility.yul\":9761:9764   */\n      dup3\n        /* \"#utility.yul\":9757:9769   */\n      add\n        /* \"#utility.yul\":9750:9769   */\n      swap1\n      pop\n        /* \"#utility.yul\":9409:9775   */\n      swap2\n      swap1\n      pop\n      jump\t// out\n        /* \"#utility.yul\":9781:10200   */\n    tag_64:\n        /* \"#utility.yul\":9947:9951   */\n      0x00\n        /* \"#utility.yul\":9985:9987   */\n      0x20\n        /* \"#utility.yul\":9974:9983   */\n      dup3\n        /* \"#utility.yul\":9970:9988   */\n      add\n        /* \"#utility.yul\":9962:9988   */\n      swap1\n      pop\n        /* \"#utility.yul\":10034:10043   */\n      dup2\n        /* \"#utility.yul\":10028:10032   */\n      dup2\n        /* \"#utility.yul\":10024:10044   */\n      sub\n        /* \"#utility.yul\":10020:10021   */\n      0x00\n        /* \"#utility.yul\":10009:10018   */\n      dup4\n        /* \"#utility.yul\":10005:10022   */\n      add\n        /* \"#utility.yul\":9998:10045   */\n      mstore\n        /* \"#utility.yul\":10062:10193   */\n      tag_229\n        /* \"#utility.yul\":10188:10192   */\n      dup2\n        /* \"#utility.yul\":10062:10193   */\n      tag_132\n      jump\t// in\n    tag_229:\n        /* \"#utility.yul\":10054:10193   */\n      swap1\n      pop\n        /* \"#utility.yul\":9781:10200   */\n      swap2\n      swap1\n      pop\n      jump\t// out\n        /* \"#utility.yul\":10206:10437   */\n    tag_133:\n        /* \"#utility.yul\":10346:10380   */\n      0x4d65746145524332303a207472616e7366657220616d6f756e74206578636565\n        /* \"#utility.yul\":10342:10343   */\n      0x00\n        /* \"#utility.yul\":10334:10340   */\n      dup3\n        /* \"#utility.yul\":10330:10344   */\n      add\n        /* \"#utility.yul\":10323:10381   */\n      mstore\n        /* \"#utility.yul\":10415:10429   */\n      0x647320616c6c6f77616e63650000000000000000000000000000000000000000\n        /* \"#utility.yul\":10410:10412   */\n      0x20\n        /* \"#utility.yul\":10402:10408   */\n      dup3\n        /* \"#utility.yul\":10398:10413   */\n      add\n        /* \"#utility.yul\":10391:10430   */\n      mstore\n        /* \"#utility.yul\":10206:10437   */\n      pop\n      jump\t// out\n        /* \"#utility.yul\":10443:10809   */\n    tag_134:\n        /* \"#utility.yul\":10585:10588   */\n      0x00\n        /* \"#utility.yul\":10606:10673   */\n      tag_232\n        /* \"#utility.yul\":10670:10672   */\n      0x2c\n        /* \"#utility.yul\":10665:10668   */\n      dup4\n        /* \"#utility.yul\":10606:10673   */\n      tag_120\n      jump\t// in\n    tag_232:\n        /* \"#utility.yul\":10599:10673   */\n      swap2\n      pop\n        /* \"#utility.yul\":10682:10775   */\n      tag_233\n        /* \"#utility.yul\":10771:10774   */\n      dup3\n        /* \"#utility.yul\":10682:10775   */\n      tag_133\n      jump\t// in\n    tag_233:\n        /* \"#utility.yul\":10800:10802   */\n      0x40\n        /* \"#utility.yul\":10795:10798   */\n      dup3\n        /* \"#utility.yul\":10791:10803   */\n      add\n        /* \"#utility.yul\":10784:10803   */\n      swap1\n      pop\n        /* \"#utility.yul\":10443:10809   */\n      swap2\n      swap1\n      pop\n      jump\t// out\n        /* \"#utility.yul\":10815:11234   */\n    tag_69:\n        /* \"#utility.yul\":10981:10985   */\n      0x00\n        /* \"#utility.yul\":11019:11021   */\n      0x20\n        /* \"#utility.yul\":11008:11017   */\n      dup3\n        /* \"#utility.yul\":11004:11022   */\n      add\n        /* \"#utility.yul\":10996:11022   */\n      swap1\n      pop\n        /* \"#utility.yul\":11068:11077   */\n      dup2\n        /* \"#utility.yul\":11062:11066   */\n      dup2\n        /* \"#utility.yul\":11058:11078   */\n      sub\n        /* \"#utility.yul\":11054:11055   */\n      0x00\n        /* \"#utility.yul\":11043:11052   */\n      dup4\n        /* \"#utility.yul\":11039:11056   */\n      add\n        /* \"#utility.yul\":11032:11079   */\n      mstore\n        /* \"#utility.yul\":11096:11227   */\n      tag_235\n        /* \"#utility.yul\":11222:11226   */\n      dup2\n        /* \"#utility.yul\":11096:11227   */\n      tag_134\n      jump\t// in\n    tag_235:\n        /* \"#utility.yul\":11088:11227   */\n      swap1\n      pop\n        /* \"#utility.yul\":10815:11234   */\n      swap2\n      swap1\n      pop\n      jump\t// out\n        /* \"#utility.yul\":11240:11466   */\n    tag_135:\n        /* \"#utility.yul\":11380:11414   */\n      0x4d65746145524332303a207472616e7366657220746f20746865207a65726f20\n        /* \"#utility.yul\":11376:11377   */\n      0x00\n        /* \"#utility.yul\":11368:11374   */\n      dup3\n        /* \"#utility.yul\":11364:11378   */\n      add\n        /* \"#utility.yul\":11357:11415   */\n      mstore\n        /* \"#utility.yul\":11449:11458   */\n      0x6164647265737300000000000000000000000000000000000000000000000000\n        /* \"#utility.yul\":11444:11446   */\n      0x20\n        /* \"#utility.yul\":11436:11442   */\n      dup3\n        /* \"#utility.yul\":11432:11447   */\n      add\n        /* \"#utility.yul\":11425:11459   */\n      mstore\n        /* \"#utility.yul\":11240:11466   */\n      pop\n      jump\t// out\n        /* \"#utility.yul\":11472:11838   */\n    tag_136:\n        /* \"#utility.yul\":11614:11617   */\n      0x00\n        /* \"#utility.yul\":11635:11702   */\n      tag_238\n        /* \"#utility.yul\":11699:11701   */\n      0x27\n        /* \"#utility.yul\":11694:11697   */\n      dup4\n        /* \"#utility.yul\":11635:11702   */\n      tag_120\n      jump\t// in\n    tag_238:\n        /* \"#utility.yul\":11628:11702   */\n      swap2\n      pop\n        /* \"#utility.yul\":11711:11804   */\n      tag_239\n        /* \"#utility.yul\":11800:11803   */\n      dup3\n        /* \"#utility.yul\":11711:11804   */\n      tag_135\n      jump\t// in\n    tag_239:\n        /* \"#utility.yul\":11829:11831   */\n      0x40\n        /* \"#utility.yul\":11824:11827   */\n      dup3\n        /* \"#utility.yul\":11820:11832   */\n      add\n        /* \"#utility.yul\":11813:11832   */\n      swap1\n      pop\n        /* \"#utility.yul\":11472:11838   */\n      swap2\n      swap1\n      pop\n      jump\t// out\n        /* \"#utility.yul\":11844:12263   */\n    tag_72:\n        /* \"#utility.yul\":12010:12014   */\n      0x00\n        /* \"#utility.yul\":12048:12050   */\n      0x20\n        /* \"#utility.yul\":12037:12046   */\n      dup3\n        /* \"#utility.yul\":12033:12051   */\n      add\n        /* \"#utility.yul\":12025:12051   */\n      swap1\n      pop\n        /* \"#utility.yul\":12097:12106   */\n      dup2\n        /* \"#utility.yul\":12091:12095   */\n      dup2\n        /* \"#utility.yul\":12087:12107   */\n      sub\n        /* \"#utility.yul\":12083:12084   */\n      0x00\n        /* \"#utility.yul\":12072:12081   */\n      dup4\n        /* \"#utility.yul\":12068:12085   */\n      add\n        /* \"#utility.yul\":12061:12108   */\n      mstore\n        /* \"#utility.yul\":12125:12256   */\n      tag_241\n        /* \"#utility.yul\":12251:12255   */\n      dup2\n        /* \"#utility.yul\":12125:12256   */\n      tag_136\n      jump\t// in\n    tag_241:\n        /* \"#utility.yul\":12117:12256   */\n      swap1\n      pop\n        /* \"#utility.yul\":11844:12263   */\n      swap2\n      swap1\n      pop\n      jump\t// out\n        /* \"#utility.yul\":12269:12508   */\n    tag_137:\n        /* \"#utility.yul\":12409:12443   */\n      0x4d65746145524332303a207472616e7366657220616d6f756e74206d75737420\n        /* \"#utility.yul\":12405:12406   */\n      0x00\n        /* \"#utility.yul\":12397:12403   */\n      dup3\n        /* \"#utility.yul\":12393:12407   */\n      add\n        /* \"#utility.yul\":12386:12444   */\n      mstore\n        /* \"#utility.yul\":12478:12500   */\n      0x62652067726561746572207468616e207a65726f000000000000000000000000\n        /* \"#utility.yul\":12473:12475   */\n      0x20\n        /* \"#utility.yul\":12465:12471   */\n      dup3\n        /* \"#utility.yul\":12461:12476   */\n      add\n        /* \"#utility.yul\":12454:12501   */\n      mstore\n        /* \"#utility.yul\":12269:12508   */\n      pop\n      jump\t// out\n        /* \"#utility.yul\":12514:12880   */\n    tag_138:\n        /* \"#utility.yul\":12656:12659   */\n      0x00\n        /* \"#utility.yul\":12677:12744   */\n      tag_244\n        /* \"#utility.yul\":12741:12743   */\n      0x34\n        /* \"#utility.yul\":12736:12739   */\n      dup4\n        /* \"#utility.yul\":12677:12744   */\n      tag_120\n      jump\t// in\n    tag_244:\n        /* \"#utility.yul\":12670:12744   */\n      swap2\n      pop\n        /* \"#utility.yul\":12753:12846   */\n      tag_245\n        /* \"#utility.yul\":12842:12845   */\n      dup3\n        /* \"#utility.yul\":12753:12846   */\n      tag_137\n      jump\t// in\n    tag_245:\n        /* \"#utility.yul\":12871:12873   */\n      0x40\n        /* \"#utility.yul\":12866:12869   */\n      dup3\n        /* \"#utility.yul\":12862:12874   */\n      add\n        /* \"#utility.yul\":12855:12874   */\n      swap1\n      pop\n        /* \"#utility.yul\":12514:12880   */\n      swap2\n      swap1\n      pop\n      jump\t// out\n        /* \"#utility.yul\":12886:13305   */\n    tag_75:\n        /* \"#utility.yul\":13052:13056   */\n      0x00\n        /* \"#utility.yul\":13090:13092   */\n      0x20\n        /* \"#utility.yul\":13079:13088   */\n      dup3\n        /* \"#utility.yul\":13075:13093   */\n      add\n        /* \"#utility.yul\":13067:13093   */\n      swap1\n      pop\n        /* \"#utility.yul\":13139:13148   */\n      dup2\n        /* \"#utility.yul\":13133:13137   */\n      dup2\n        /* \"#utility.yul\":13129:13149   */\n      sub\n        /* \"#utility.yul\":13125:13126   */\n      0x00\n        /* \"#utility.yul\":13114:13123   */\n      dup4\n        /* \"#utility.yul\":13110:13127   */\n      add\n        /* \"#utility.yul\":13103:13150   */\n      mstore\n        /* \"#utility.yul\":13167:13298   */\n      tag_247\n        /* \"#utility.yul\":13293:13297   */\n      dup2\n        /* \"#utility.yul\":13167:13298   */\n      tag_138\n      jump\t// in\n    tag_247:\n        /* \"#utility.yul\":13159:13298   */\n      swap1\n      pop\n        /* \"#utility.yul\":12886:13305   */\n      swap2\n      swap1\n      pop\n      jump\t// out\n        /* \"#utility.yul\":13311:13491   */\n    tag_139:\n        /* \"#utility.yul\":13359:13436   */\n      0x4e487b7100000000000000000000000000000000000000000000000000000000\n        /* \"#utility.yul\":13356:13357   */\n      0x00\n        /* \"#utility.yul\":13349:13437   */\n      mstore\n        /* \"#utility.yul\":13456:13460   */\n      0x11\n        /* \"#utility.yul\":13453:13454   */\n      0x04\n        /* \"#utility.yul\":13446:13461   */\n      mstore\n        /* \"#utility.yul\":13480:13484   */\n      0x24\n        /* \"#utility.yul\":13477:13478   */\n      0x00\n        /* \"#utility.yul\":13470:13485   */\n      revert\n        /* \"#utility.yul\":13497:13691   */\n    tag_77:\n        /* \"#utility.yul\":13537:13541   */\n      0x00\n        /* \"#utility.yul\":13557:13577   */\n      tag_250\n        /* \"#utility.yul\":13575:13576   */\n      dup3\n        /* \"#utility.yul\":13557:13577   */\n      tag_114\n      jump\t// in\n    tag_250:\n        /* \"#utility.yul\":13552:13577   */\n      swap2\n      pop\n        /* \"#utility.yul\":13591:13611   */\n      tag_251\n        /* \"#utility.yul\":13609:13610   */\n      dup4\n        /* \"#utility.yul\":13591:13611   */\n      tag_114\n      jump\t// in\n    tag_251:\n        /* \"#utility.yul\":13586:13611   */\n      swap3\n      pop\n        /* \"#utility.yul\":13635:13636   */\n      dup3\n        /* \"#utility.yul\":13632:13633   */\n      dup3\n        /* \"#utility.yul\":13628:13637   */\n      sub\n        /* \"#utility.yul\":13620:13637   */\n      swap1\n      pop\n        /* \"#utility.yul\":13659:13660   */\n      dup2\n        /* \"#utility.yul\":13653:13657   */\n      dup2\n        /* \"#utility.yul\":13650:13661   */\n      gt\n        /* \"#utility.yul\":13647:13684   */\n      iszero\n      tag_252\n      jumpi\n        /* \"#utility.yul\":13664:13682   */\n      tag_253\n      tag_139\n      jump\t// in\n    tag_253:\n        /* \"#utility.yul\":13647:13684   */\n    tag_252:\n        /* \"#utility.yul\":13497:13691   */\n      swap3\n      swap2\n      pop\n      pop\n      jump\t// out\n        /* \"#utility.yul\":13697:13888   */\n    tag_79:\n        /* \"#utility.yul\":13737:13740   */\n      0x00\n        /* \"#utility.yul\":13756:13776   */\n      tag_255\n        /* \"#utility.yul\":13774:13775   */\n      dup3\n        /* \"#utility.yul\":13756:13776   */\n      tag_114\n      jump\t// in\n    tag_255:\n        /* \"#utility.yul\":13751:13776   */\n      swap2\n      pop\n        /* \"#utility.yul\":13790:13810   */\n      tag_256\n        /* \"#utility.yul\":13808:13809   */\n      dup4\n        /* \"#utility.yul\":13790:13810   */\n      tag_114\n      jump\t// in\n    tag_256:\n        /* \"#utility.yul\":13785:13810   */\n      swap3\n      pop\n        /* \"#utility.yul\":13833:13834   */\n      dup3\n        /* \"#utility.yul\":13830:13831   */\n      dup3\n        /* \"#utility.yul\":13826:13835   */\n      add\n        /* \"#utility.yul\":13819:13835   */\n      swap1\n      pop\n        /* \"#utility.yul\":13854:13857   */\n      dup1\n        /* \"#utility.yul\":13851:13852   */\n      dup3\n        /* \"#utility.yul\":13848:13858   */\n      gt\n        /* \"#utility.yul\":13845:13881   */\n      iszero\n      tag_257\n      jumpi\n        /* \"#utility.yul\":13861:13879   */\n      tag_258\n      tag_139\n      jump\t// in\n    tag_258:\n        /* \"#utility.yul\":13845:13881   */\n    tag_257:\n        /* \"#utility.yul\":13697:13888   */\n      swap3\n      swap2\n      pop\n      pop\n      jump\t// out\n        /* \"#utility.yul\":13894:14074   */\n    tag_140:\n        /* \"#utility.yul\":14034:14066   */\n      0x4d65746145524332303a206d696e742066726f6d206e6f6e2d6f776e65720000\n        /* \"#utility.yul\":14030:14031   */\n      0x00\n        /* \"#utility.yul\":14022:14028   */\n      dup3\n        /* \"#utility.yul\":14018:14032   */\n      add\n        /* \"#utility.yul\":14011:14067   */\n      mstore\n        /* \"#utility.yul\":13894:14074   */\n      pop\n      jump\t// out\n        /* \"#utility.yul\":14080:14446   */\n    tag_141:\n        /* \"#utility.yul\":14222:14225   */\n      0x00\n        /* \"#utility.yul\":14243:14310   */\n      tag_261\n        /* \"#utility.yul\":14307:14309   */\n      0x1e\n        /* \"#utility.yul\":14302:14305   */\n      dup4\n        /* \"#utility.yul\":14243:14310   */\n      tag_120\n      jump\t// in\n    tag_261:\n        /* \"#utility.yul\":14236:14310   */\n      swap2\n      pop\n        /* \"#utility.yul\":14319:14412   */\n      tag_262\n        /* \"#utility.yul\":14408:14411   */\n      dup3\n        /* \"#utility.yul\":14319:14412   */\n      tag_140\n      jump\t// in\n    tag_262:\n        /* \"#utility.yul\":14437:14439   */\n      0x20\n        /* \"#utility.yul\":14432:14435   */\n      dup3\n        /* \"#utility.yul\":14428:14440   */\n      add\n        /* \"#utility.yul\":14421:14440   */\n      swap1\n      pop\n        /* \"#utility.yul\":14080:14446   */\n      swap2\n      swap1\n      pop\n      jump\t// out\n        /* \"#utility.yul\":14452:14871   */\n    tag_85:\n        /* \"#utility.yul\":14618:14622   */\n      0x00\n        /* \"#utility.yul\":14656:14658   */\n      0x20\n        /* \"#utility.yul\":14645:14654   */\n      dup3\n        /* \"#utility.yul\":14641:14659   */\n      add\n        /* \"#utility.yul\":14633:14659   */\n      swap1\n      pop\n        /* \"#utility.yul\":14705:14714   */\n      dup2\n        /* \"#utility.yul\":14699:14703   */\n      dup2\n        /* \"#utility.yul\":14695:14715   */\n      sub\n        /* \"#utility.yul\":14691:14692   */\n      0x00\n        /* \"#utility.yul\":14680:14689   */\n      dup4\n        /* \"#utility.yul\":14676:14693   */\n      add\n        /* \"#utility.yul\":14669:14716   */\n      mstore\n        /* \"#utility.yul\":14733:14864   */\n      tag_264\n        /* \"#utility.yul\":14859:14863   */\n      dup2\n        /* \"#utility.yul\":14733:14864   */\n      tag_141\n      jump\t// in\n    tag_264:\n        /* \"#utility.yul\":14725:14864   */\n      swap1\n      pop\n        /* \"#utility.yul\":14452:14871   */\n      swap2\n      swap1\n      pop\n      jump\t// out\n        /* \"#utility.yul\":14877:15099   */\n    tag_142:\n        /* \"#utility.yul\":15017:15051   */\n      0x4d65746145524332303a206d696e7420746f20746865207a65726f2061646472\n        /* \"#utility.yul\":15013:15014   */\n      0x00\n        /* \"#utility.yul\":15005:15011   */\n      dup3\n        /* \"#utility.yul\":15001:15015   */\n      add\n        /* \"#utility.yul\":14994:15052   */\n      mstore\n        /* \"#utility.yul\":15086:15091   */\n      0x6573730000000000000000000000000000000000000000000000000000000000\n        /* \"#utility.yul\":15081:15083   */\n      0x20\n        /* \"#utility.yul\":15073:15079   */\n      dup3\n        /* \"#utility.yul\":15069:15084   */\n      add\n        /* \"#utility.yul\":15062:15092   */\n      mstore\n        /* \"#utility.yul\":14877:15099   */\n      pop\n      jump\t// out\n        /* \"#utility.yul\":15105:15471   */\n    tag_143:\n        /* \"#utility.yul\":15247:15250   */\n      0x00\n        /* \"#utility.yul\":15268:15335   */\n      tag_267\n        /* \"#utility.yul\":15332:15334   */\n      0x23\n        /* \"#utility.yul\":15327:15330   */\n      dup4\n        /* \"#utility.yul\":15268:15335   */\n      tag_120\n      jump\t// in\n    tag_267:\n        /* \"#utility.yul\":15261:15335   */\n      swap2\n      pop\n        /* \"#utility.yul\":15344:15437   */\n      tag_268\n        /* \"#utility.yul\":15433:15436   */\n      dup3\n        /* \"#utility.yul\":15344:15437   */\n      tag_142\n      jump\t// in\n    tag_268:\n        /* \"#utility.yul\":15462:15464   */\n      0x40\n        /* \"#utility.yul\":15457:15460   */\n      dup3\n        /* \"#utility.yul\":15453:15465   */\n      add\n        /* \"#utility.yul\":15446:15465   */\n      swap1\n      pop\n        /* \"#utility.yul\":15105:15471   */\n      swap2\n      swap1\n      pop\n      jump\t// out\n        /* \"#utility.yul\":15477:15896   */\n    tag_88:\n        /* \"#utility.yul\":15643:15647   */\n      0x00\n        /* \"#utility.yul\":15681:15683   */\n      0x20\n        /* \"#utility.yul\":15670:15679   */\n      dup3\n        /* \"#utility.yul\":15666:15684   */\n      add\n        /* \"#utility.yul\":15658:15684   */\n      swap1\n      pop\n        /* \"#utility.yul\":15730:15739   */\n      dup2\n        /* \"#utility.yul\":15724:15728   */\n      dup2\n        /* \"#utility.yul\":15720:15740   */\n      sub\n        /* \"#utility.yul\":15716:15717   */\n      0x00\n        /* \"#utility.yul\":15705:15714   */\n      dup4\n        /* \"#utility.yul\":15701:15718   */\n      add\n        /* \"#utility.yul\":15694:15741   */\n      mstore\n        /* \"#utility.yul\":15758:15889   */\n      tag_270\n        /* \"#utility.yul\":15884:15888   */\n      dup2\n        /* \"#utility.yul\":15758:15889   */\n      tag_143\n      jump\t// in\n    tag_270:\n        /* \"#utility.yul\":15750:15889   */\n      swap1\n      pop\n        /* \"#utility.yul\":15477:15896   */\n      swap2\n      swap1\n      pop\n      jump\t// out\n        /* \"#utility.yul\":15902:16137   */\n    tag_144:\n        /* \"#utility.yul\":16042:16076   */\n      0x4d65746145524332303a206d696e7420616d6f756e74206d7573742062652067\n        /* \"#utility.yul\":16038:16039   */\n      0x00\n        /* \"#utility.yul\":16030:16036   */\n      dup3\n        /* \"#utility.yul\":16026:16040   */\n      add\n        /* \"#utility.yul\":16019:16077   */\n      mstore\n        /* \"#utility.yul\":16111:16129   */\n      0x726561746572207468616e207a65726f00000000000000000000000000000000\n        /* \"#utility.yul\":16106:16108   */\n      0x20\n        /* \"#utility.yul\":16098:16104   */\n      dup3\n        /* \"#utility.yul\":16094:16109   */\n      add\n        /* \"#utility.yul\":16087:16130   */\n      mstore\n        /* \"#utility.yul\":15902:16137   */\n      pop\n      jump\t// out\n        /* \"#utility.yul\":16143:16509   */\n    tag_145:\n        /* \"#utility.yul\":16285:16288   */\n      0x00\n        /* \"#utility.yul\":16306:16373   */\n      tag_273\n        /* \"#utility.yul\":16370:16372   */\n      0x30\n        /* \"#utility.yul\":16365:16368   */\n      dup4\n        /* \"#utility.yul\":16306:16373   */\n      tag_120\n      jump\t// in\n    tag_273:\n        /* \"#utility.yul\":16299:16373   */\n      swap2\n      pop\n        /* \"#utility.yul\":16382:16475   */\n      tag_274\n        /* \"#utility.yul\":16471:16474   */\n      dup3\n        /* \"#utility.yul\":16382:16475   */\n      tag_144\n      jump\t// in\n    tag_274:\n        /* \"#utility.yul\":16500:16502   */\n      0x40\n        /* \"#utility.yul\":16495:16498   */\n      dup3\n        /* \"#utility.yul\":16491:16503   */\n      add\n        /* \"#utility.yul\":16484:16503   */\n      swap1\n      pop\n        /* \"#utility.yul\":16143:16509   */\n      swap2\n      swap1\n      pop\n      jump\t// out\n        /* \"#utility.yul\":16515:16934   */\n    tag_91:\n        /* \"#utility.yul\":16681:16685   */\n      0x00\n        /* \"#utility.yul\":16719:16721   */\n      0x20\n        /* \"#utility.yul\":16708:16717   */\n      dup3\n        /* \"#utility.yul\":16704:16722   */\n      add\n        /* \"#utility.yul\":16696:16722   */\n      swap1\n      pop\n        /* \"#utility.yul\":16768:16777   */\n      dup2\n        /* \"#utility.yul\":16762:16766   */\n      dup2\n        /* \"#utility.yul\":16758:16778   */\n      sub\n        /* \"#utility.yul\":16754:16755   */\n      0x00\n        /* \"#utility.yul\":16743:16752   */\n      dup4\n        /* \"#utility.yul\":16739:16756   */\n      add\n        /* \"#utility.yul\":16732:16779   */\n      mstore\n        /* \"#utility.yul\":16796:16927   */\n      tag_276\n        /* \"#utility.yul\":16922:16926   */\n      dup2\n        /* \"#utility.yul\":16796:16927   */\n      tag_145\n      jump\t// in\n    tag_276:\n        /* \"#utility.yul\":16788:16927   */\n      swap1\n      pop\n        /* \"#utility.yul\":16515:16934   */\n      swap2\n      swap1\n      pop\n      jump\t// out\n\n    auxdata: 0xa2646970667358221220494398a0365a37c25311409edf80c007e0a1f60debba21a2b922a3a17e7b223664736f6c634300081e0033\n}\n",
				"bytecode": {
					"linkReferences": {},
					"object": "608060405234801561000f575f5ffd5b50604051611d9f380380611d9f83398181016040528101906100319190610261565b335f5f6101000a81548173ffffffffffffffffffffffffffffffffffffffff021916908373ffffffffffffffffffffffffffffffffffffffff16021790555082600381905550816004908161008691906104f0565b50806005908161009691906104f0565b508260015f3373ffffffffffffffffffffffffffffffffffffffff1673ffffffffffffffffffffffffffffffffffffffff1681526020019081526020015f20819055505050506105bf565b5f604051905090565b5f5ffd5b5f5ffd5b5f819050919050565b610104816100f2565b811461010e575f5ffd5b50565b5f8151905061011f816100fb565b92915050565b5f5ffd5b5f5ffd5b5f601f19601f8301169050919050565b7f4e487b71000000000000000000000000000000000000000000000000000000005f52604160045260245ffd5b6101738261012d565b810181811067ffffffffffffffff821117156101925761019161013d565b5b80604052505050565b5f6101a46100e1565b90506101b0828261016a565b919050565b5f67ffffffffffffffff8211156101cf576101ce61013d565b5b6101d88261012d565b9050602081019050919050565b8281835e5f83830152505050565b5f610205610200846101b5565b61019b565b90508281526020810184848401111561022157610220610129565b5b61022c8482856101e5565b509392505050565b5f82601f83011261024857610247610125565b5b81516102588482602086016101f3565b91505092915050565b5f5f5f60608486031215610278576102776100ea565b5b5f61028586828701610111565b935050602084015167ffffffffffffffff8111156102a6576102a56100ee565b5b6102b286828701610234565b925050604084015167ffffffffffffffff8111156102d3576102d26100ee565b5b6102df86828701610234565b9150509250925092565b5f81519050919050565b7f4e487b71000000000000000000000000000000000000000000000000000000005f52602260045260245ffd5b5f600282049050600182168061033757607f821691505b60208210810361034a576103496102f3565b5b50919050565b5f819050815f5260205f209050919050565b5f6020601f8301049050919050565b5f82821b905092915050565b5f600883026103ac7fffffffffffffffffffffffffffffffffffffffffffffffffffffffffffffffff82610371565b6103b68683610371565b95508019841693508086168417925050509392505050565b5f819050919050565b5f6103f16103ec6103e7846100f2565b6103ce565b6100f2565b9050919050565b5f819050919050565b61040a836103d7565b61041e610416826103f8565b84845461037d565b825550505050565b5f5f905090565b610435610426565b610440818484610401565b505050565b5b81811015610463576104585f8261042d565b600181019050610446565b5050565b601f8211156104a85761047981610350565b61048284610362565b81016020851015610491578190505b6104a561049d85610362565b830182610445565b50505b505050565b5f82821c905092915050565b5f6104c85f19846008026104ad565b1980831691505092915050565b5f6104e083836104b9565b9150826002028217905092915050565b6104f9826102e9565b67ffffffffffffffff8111156105125761051161013d565b5b61051c8254610320565b610527828285610467565b5f60209050601f831160018114610558575f8415610546578287015190505b61055085826104d5565b8655506105b7565b601f19841661056686610350565b5f5b8281101561058d57848901518255600182019150602085019450602081019050610568565b868310156105aa57848901516105a6601f8916826104b9565b8355505b6001600288020188555050505b505050505050565b6117d3806105cc5f395ff3fe608060405234801561000f575f5ffd5b506004361061007b575f3560e01c806340c10f191161005957806340c10f19146100fd57806370a0823114610119578063a9059cbb14610149578063dd62ed3e146101795761007b565b8063095ea7b31461007f57806318160ddd146100af57806323b872dd146100cd575b5f5ffd5b61009960048036038101906100949190610f4c565b6101a9565b6040516100a69190610fa4565b60405180910390f35b6100b761042c565b6040516100c49190610fcc565b60405180910390f35b6100e760048036038101906100e29190610fe5565b610435565b6040516100f49190610fa4565b60405180910390f35b61011760048036038101906101129190610f4c565b61099b565b005b610133600480360381019061012e9190611035565b610bad565b6040516101409190610fcc565b60405180910390f35b610163600480360381019061015e9190610f4c565b610bf3565b6040516101709190610fa4565b60405180910390f35b610193600480360381019061018e9190611060565b610e39565b6040516101a09190610fcc565b60405180910390f35b5f8273ffffffffffffffffffffffffffffffffffffffff163373ffffffffffffffffffffffffffffffffffffffff1603610218576040517f08c379a000000000000000000000000000000000000000000000000000000000815260040161020f906110f8565b60405180910390fd5b5f73ffffffffffffffffffffffffffffffffffffffff168373ffffffffffffffffffffffffffffffffffffffff1603610286576040517f08c379a000000000000000000000000000000000000000000000000000000000815260040161027d90611186565b60405180910390fd5b5f82116102c8576040517f08c379a00000000000000000000000000000000000000000000000000000000081526004016102bf90611214565b60405180910390fd5b8160025f3373ffffffffffffffffffffffffffffffffffffffff1673ffffffffffffffffffffffffffffffffffffffff1681526020019081526020015f205f8573ffffffffffffffffffffffffffffffffffffffff1673ffffffffffffffffffffffffffffffffffffffff1681526020019081526020015f20819055508273ffffffffffffffffffffffffffffffffffffffff163373ffffffffffffffffffffffffffffffffffffffff167f8c5be1e5ebec7d5bd14f71427d1e84f3dd0314c0f7b2291e5b200ac8c7c3b92560025f3373ffffffffffffffffffffffffffffffffffffffff1673ffffffffffffffffffffffffffffffffffffffff1681526020019081526020015f205f8773ffffffffffffffffffffffffffffffffffffffff1673ffffffffffffffffffffffffffffffffffffffff1681526020019081526020015f205460405161041a9190610fcc565b60405180910390a36001905092915050565b5f600354905090565b5f5f5f9054906101000a900473ffffffffffffffffffffffffffffffffffffffff1673ffffffffffffffffffffffffffffffffffffffff168473ffffffffffffffffffffffffffffffffffffffff16036104c4576040517f08c379a00000000000000000000000000000000000000000000000000000000081526004016104bb906112a2565b60405180910390fd5b5f73ffffffffffffffffffffffffffffffffffffffff168473ffffffffffffffffffffffffffffffffffffffff1603610532576040517f08c379a000000000000000000000000000000000000000000000000000000000815260040161052990611330565b60405180910390fd5b8160015f8673ffffffffffffffffffffffffffffffffffffffff1673ffffffffffffffffffffffffffffffffffffffff1681526020019081526020015f205410156105b2576040517f08c379a00000000000000000000000000000000000000000000000000000000081526004016105a9906113be565b60405180910390fd5b3373ffffffffffffffffffffffffffffffffffffffff168473ffffffffffffffffffffffffffffffffffffffff161415801561068657507fffffffffffffffffffffffffffffffffffffffffffffffffffffffffffffffff60025f8673ffffffffffffffffffffffffffffffffffffffff1673ffffffffffffffffffffffffffffffffffffffff1681526020019081526020015f205f3373ffffffffffffffffffffffffffffffffffffffff1673ffffffffffffffffffffffffffffffffffffffff1681526020019081526020015f205414155b15610747578160025f8673ffffffffffffffffffffffffffffffffffffffff1673ffffffffffffffffffffffffffffffffffffffff1681526020019081526020015f205f3373ffffffffffffffffffffffffffffffffffffffff1673ffffffffffffffffffffffffffffffffffffffff1681526020019081526020015f20541015610746576040517f08c379a000000000000000000000000000000000000000000000000000000000815260040161073d9061144c565b60405180910390fd5b5b5f73ffffffffffffffffffffffffffffffffffffffff168373ffffffffffffffffffffffffffffffffffffffff16036107b5576040517f08c379a00000000000000000000000000000000000000000000000000000000081526004016107ac906114da565b60405180910390fd5b5f82116107f7576040517f08c379a00000000000000000000000000000000000000000000000000000000081526004016107ee90611568565b60405180910390fd5b8160015f8673ffffffffffffffffffffffffffffffffffffffff1673ffffffffffffffffffffffffffffffffffffffff1681526020019081526020015f205f82825461084391906115b3565b925050819055508160015f8573ffffffffffffffffffffffffffffffffffffffff1673ffffffffffffffffffffffffffffffffffffffff1681526020019081526020015f205f82825461089691906115e6565b925050819055508160025f8673ffffffffffffffffffffffffffffffffffffffff1673ffffffffffffffffffffffffffffffffffffffff1681526020019081526020015f205f3373ffffffffffffffffffffffffffffffffffffffff1673ffffffffffffffffffffffffffffffffffffffff1681526020019081526020015f205f82825461092491906115b3565b925050819055508273ffffffffffffffffffffffffffffffffffffffff168473ffffffffffffffffffffffffffffffffffffffff167fddf252ad1be2c89b69c2b068fc378daa952ba7f163c4a11628f55a4df523b3ef846040516109889190610fcc565b60405180910390a3600190509392505050565b5f5f9054906101000a900473ffffffffffffffffffffffffffffffffffffffff1673ffffffffffffffffffffffffffffffffffffffff163373ffffffffffffffffffffffffffffffffffffffff1614610a29576040517f08c379a0000000000000000000000000000000000000000000000000000000008152600401610a2090611663565b60405180910390fd5b5f73ffffffffffffffffffffffffffffffffffffffff168273ffffffffffffffffffffffffffffffffffffffff1603610a97576040517f08c379a0000000000000000000000000000000000000000000000000000000008152600401610a8e906116f1565b60405180910390fd5b5f8111610ad9576040517f08c379a0000000000000000000000000000000000000000000000000000000008152600401610ad09061177f565b60405180910390fd5b8060035f828254610aea91906115e6565b925050819055508060015f8473ffffffffffffffffffffffffffffffffffffffff1673ffffffffffffffffffffffffffffffffffffffff1681526020019081526020015f205f828254610b3d91906115e6565b925050819055508173ffffffffffffffffffffffffffffffffffffffff165f73ffffffffffffffffffffffffffffffffffffffff167fddf252ad1be2c89b69c2b068fc378daa952ba7f163c4a11628f55a4df523b3ef83604051610ba19190610fcc565b60405180910390a35050565b5f60015f8373ffffffffffffffffffffffffffffffffffffffff1673ffffffffffffffffffffffffffffffffffffffff1681526020019081526020015f20549050919050565b5f8160015f3373ffffffffffffffffffffffffffffffffffffffff1673ffffffffffffffffffffffffffffffffffffffff1681526020019081526020015f20541015610c74576040517f08c379a0000000000000000000000000000000000000000000000000000000008152600401610c6b906113be565b60405180910390fd5b5f73ffffffffffffffffffffffffffffffffffffffff168373ffffffffffffffffffffffffffffffffffffffff1603610ce2576040517f08c379a0000000000000000000000000000000000000000000000000000000008152600401610cd9906114da565b60405180910390fd5b5f8211610d24576040517f08c379a0000000000000000000000000000000000000000000000000000000008152600401610d1b90611568565b60405180910390fd5b8160015f3373ffffffffffffffffffffffffffffffffffffffff1673ffffffffffffffffffffffffffffffffffffffff1681526020019081526020015f205f828254610d7091906115b3565b925050819055508160015f8573ffffffffffffffffffffffffffffffffffffffff1673ffffffffffffffffffffffffffffffffffffffff1681526020019081526020015f205f828254610dc391906115e6565b925050819055508273ffffffffffffffffffffffffffffffffffffffff163373ffffffffffffffffffffffffffffffffffffffff167fddf252ad1be2c89b69c2b068fc378daa952ba7f163c4a11628f55a4df523b3ef84604051610e279190610fcc565b60405180910390a36001905092915050565b5f60025f8473ffffffffffffffffffffffffffffffffffffffff1673ffffffffffffffffffffffffffffffffffffffff1681526020019081526020015f205f8373ffffffffffffffffffffffffffffffffffffffff1673ffffffffffffffffffffffffffffffffffffffff1681526020019081526020015f2054905092915050565b5f5ffd5b5f73ffffffffffffffffffffffffffffffffffffffff82169050919050565b5f610ee882610ebf565b9050919050565b610ef881610ede565b8114610f02575f5ffd5b50565b5f81359050610f1381610eef565b92915050565b5f819050919050565b610f2b81610f19565b8114610f35575f5ffd5b50565b5f81359050610f4681610f22565b92915050565b5f5f60408385031215610f6257610f61610ebb565b5b5f610f6f85828601610f05565b9250506020610f8085828601610f38565b9150509250929050565b5f8115159050919050565b610f9e81610f8a565b82525050565b5f602082019050610fb75f830184610f95565b92915050565b610fc681610f19565b82525050565b5f602082019050610fdf5f830184610fbd565b92915050565b5f5f5f60608486031215610ffc57610ffb610ebb565b5b5f61100986828701610f05565b935050602061101a86828701610f05565b925050604061102b86828701610f38565b9150509250925092565b5f6020828403121561104a57611049610ebb565b5b5f61105784828501610f05565b91505092915050565b5f5f6040838503121561107657611075610ebb565b5b5f61108385828601610f05565b925050602061109485828601610f05565b9150509250929050565b5f82825260208201905092915050565b7f4d65746145524332303a20617070726f766520746f2073656c660000000000005f82015250565b5f6110e2601a8361109e565b91506110ed826110ae565b602082019050919050565b5f6020820190508181035f83015261110f816110d6565b9050919050565b7f4d65746145524332303a20617070726f766520746f20746865207a65726f20615f8201527f6464726573730000000000000000000000000000000000000000000000000000602082015250565b5f61117060268361109e565b915061117b82611116565b604082019050919050565b5f6020820190508181035f83015261119d81611164565b9050919050565b7f4d65746145524332303a20617070726f766520616d6f756e74206d75737420625f8201527f652067726561746572207468616e207a65726f00000000000000000000000000602082015250565b5f6111fe60338361109e565b9150611209826111a4565b604082019050919050565b5f6020820190508181035f83015261122b816111f2565b9050919050565b7f4d65746145524332303a207472616e736665722066726f6d20746865206f776e5f8201527f6572000000000000000000000000000000000000000000000000000000000000602082015250565b5f61128c60228361109e565b915061129782611232565b604082019050919050565b5f6020820190508181035f8301526112b981611280565b9050919050565b7f4d65746145524332303a207472616e736665722066726f6d20746865207a65725f8201527f6f20616464726573730000000000000000000000000000000000000000000000602082015250565b5f61131a60298361109e565b9150611325826112c0565b604082019050919050565b5f6020820190508181035f8301526113478161130e565b9050919050565b7f4d65746145524332303a207472616e7366657220616d6f756e742065786365655f8201527f64732062616c616e636500000000000000000000000000000000000000000000602082015250565b5f6113a8602a8361109e565b91506113b38261134e565b604082019050919050565b5f6020820190508181035f8301526113d58161139c565b9050919050565b7f4d65746145524332303a207472616e7366657220616d6f756e742065786365655f8201527f647320616c6c6f77616e63650000000000000000000000000000000000000000602082015250565b5f611436602c8361109e565b9150611441826113dc565b604082019050919050565b5f6020820190508181035f8301526114638161142a565b9050919050565b7f4d65746145524332303a207472616e7366657220746f20746865207a65726f205f8201527f6164647265737300000000000000000000000000000000000000000000000000602082015250565b5f6114c460278361109e565b91506114cf8261146a565b604082019050919050565b5f6020820190508181035f8301526114f1816114b8565b9050919050565b7f4d65746145524332303a207472616e7366657220616d6f756e74206d757374205f8201527f62652067726561746572207468616e207a65726f000000000000000000000000602082015250565b5f61155260348361109e565b915061155d826114f8565b604082019050919050565b5f6020820190508181035f83015261157f81611546565b9050919050565b7f4e487b71000000000000000000000000000000000000000000000000000000005f52601160045260245ffd5b5f6115bd82610f19565b91506115c883610f19565b92508282039050818111156115e0576115df611586565b5b92915050565b5f6115f082610f19565b91506115fb83610f19565b925082820190508082111561161357611612611586565b5b92915050565b7f4d65746145524332303a206d696e742066726f6d206e6f6e2d6f776e657200005f82015250565b5f61164d601e8361109e565b915061165882611619565b602082019050919050565b5f6020820190508181035f83015261167a81611641565b9050919050565b7f4d65746145524332303a206d696e7420746f20746865207a65726f20616464725f8201527f6573730000000000000000000000000000000000000000000000000000000000602082015250565b5f6116db60238361109e565b91506116e682611681565b604082019050919050565b5f6020820190508181035f830152611708816116cf565b9050919050565b7f4d65746145524332303a206d696e7420616d6f756e74206d75737420626520675f8201527f726561746572207468616e207a65726f00000000000000000000000000000000602082015250565b5f61176960308361109e565b91506117748261170f565b604082019050919050565b5f6020820190508181035f8301526117968161175d565b905091905056fea2646970667358221220494398a0365a37c25311409edf80c007e0a1f60debba21a2b922a3a17e7b223664736f6c634300081e0033",
					"opcodes": "PUSH1 0x80 PUSH1 0x40 MSTORE CALLVALUE DUP1 ISZERO PUSH2 0xF JUMPI PUSH0 PUSH0 REVERT JUMPDEST POP PUSH1 0x40 MLOAD PUSH2 0x1D9F CODESIZE SUB DUP1 PUSH2 0x1D9F DUP4 CODECOPY DUP2 DUP2 ADD PUSH1 0x40 MSTORE DUP2 ADD SWAP1 PUSH2 0x31 SWAP2 SWAP1 PUSH2 0x261 JUMP JUMPDEST CALLER PUSH0 PUSH0 PUSH2 0x100 EXP DUP2 SLOAD DUP2 PUSH20 0xFFFFFFFFFFFFFFFFFFFFFFFFFFFFFFFFFFFFFFFF MUL NOT AND SWAP1 DUP4 PUSH20 0xFFFFFFFFFFFFFFFFFFFFFFFFFFFFFFFFFFFFFFFF AND MUL OR SWAP1 SSTORE POP DUP3 PUSH1 0x3 DUP2 SWAP1 SSTORE POP DUP2 PUSH1 0x4 SWAP1 DUP2 PUSH2 0x86 SWAP2 SWAP1 PUSH2 0x4F0 JUMP JUMPDEST POP DUP1 PUSH1 0x5 SWAP1 DUP2 PUSH2 0x96 SWAP2 SWAP1 PUSH2 0x4F0 JUMP JUMPDEST POP DUP3 PUSH1 0x1 PUSH0 CALLER PUSH20 0xFFFFFFFFFFFFFFFFFFFFFFFFFFFFFFFFFFFFFFFF AND PUSH20 0xFFFFFFFFFFFFFFFFFFFFFFFFFFFFFFFFFFFFFFFF AND DUP2 MSTORE PUSH1 0x20 ADD SWAP1 DUP2 MSTORE PUSH1 0x20 ADD PUSH0 KECCAK256 DUP2 SWAP1 SSTORE POP POP POP POP PUSH2 0x5BF JUMP JUMPDEST PUSH0 PUSH1 0x40 MLOAD SWAP1 POP SWAP1 JUMP JUMPDEST PUSH0 PUSH0 REVERT JUMPDEST PUSH0 PUSH0 REVERT JUMPDEST PUSH0 DUP2 SWAP1 POP SWAP2 SWAP1 POP JUMP JUMPDEST PUSH2 0x104 DUP2 PUSH2 0xF2 JUMP JUMPDEST DUP2 EQ PUSH2 0x10E JUMPI PUSH0 PUSH0 REVERT JUMPDEST POP JUMP JUMPDEST PUSH0 DUP2 MLOAD SWAP1 POP PUSH2 0x11F DUP2 PUSH2 0xFB JUMP JUMPDEST SWAP3 SWAP2 POP POP JUMP JUMPDEST PUSH0 PUSH0 REVERT JUMPDEST PUSH0 PUSH0 REVERT JUMPDEST PUSH0 PUSH1 0x1F NOT PUSH1 0x1F DUP4 ADD AND SWAP1 POP SWAP2 SWAP1 POP JUMP JUMPDEST PUSH32 0x4E487B7100000000000000000000000000000000000000000000000000000000 PUSH0 MSTORE PUSH1 0x41 PUSH1 0x4 MSTORE PUSH1 0x24 PUSH0 REVERT JUMPDEST PUSH2 0x173 DUP3 PUSH2 0x12D JUMP JUMPDEST DUP2 ADD DUP2 DUP2 LT PUSH8 0xFFFFFFFFFFFFFFFF DUP3 GT OR ISZERO PUSH2 0x192 JUMPI PUSH2 0x191 PUSH2 0x13D JUMP JUMPDEST JUMPDEST DUP1 PUSH1 0x40 MSTORE POP POP POP JUMP JUMPDEST PUSH0 PUSH2 0x1A4 PUSH2 0xE1 JUMP JUMPDEST SWAP1 POP PUSH2 0x1B0 DUP3 DUP3 PUSH2 0x16A JUMP JUMPDEST SWAP2 SWAP1 POP JUMP JUMPDEST PUSH0 PUSH8 0xFFFFFFFFFFFFFFFF DUP3 GT ISZERO PUSH2 0x1CF JUMPI PUSH2 0x1CE PUSH2 0x13D JUMP JUMPDEST JUMPDEST PUSH2 0x1D8 DUP3 PUSH2 0x12D JUMP JUMPDEST SWAP1 POP PUSH1 0x20 DUP2 ADD SWAP1 POP SWAP2 SWAP1 POP JUMP JUMPDEST DUP3 DUP2 DUP4 MCOPY PUSH0 DUP4 DUP4 ADD MSTORE POP POP POP JUMP JUMPDEST PUSH0 PUSH2 0x205 PUSH2 0x200 DUP5 PUSH2 0x1B5 JUMP JUMPDEST PUSH2 0x19B JUMP JUMPDEST SWAP1 POP DUP3 DUP2 MSTORE PUSH1 0x20 DUP2 ADD DUP5 DUP5 DUP5 ADD GT ISZERO PUSH2 0x221 JUMPI PUSH2 0x220 PUSH2 0x129 JUMP JUMPDEST JUMPDEST PUSH2 0x22C DUP5 DUP3 DUP6 PUSH2 0x1E5 JUMP JUMPDEST POP SWAP4 SWAP3 POP POP POP JUMP JUMPDEST PUSH0 DUP3 PUSH1 0x1F DUP4 ADD SLT PUSH2 0x248 JUMPI PUSH2 0x247 PUSH2 0x125 JUMP JUMPDEST JUMPDEST DUP2 MLOAD PUSH2 0x258 DUP5 DUP3 PUSH1 0x20 DUP7 ADD PUSH2 0x1F3 JUMP JUMPDEST SWAP2 POP POP SWAP3 SWAP2 POP POP JUMP JUMPDEST PUSH0 PUSH0 PUSH0 PUSH1 0x60 DUP5 DUP7 SUB SLT ISZERO PUSH2 0x278 JUMPI PUSH2 0x277 PUSH2 0xEA JUMP JUMPDEST JUMPDEST PUSH0 PUSH2 0x285 DUP7 DUP3 DUP8 ADD PUSH2 0x111 JUMP JUMPDEST SWAP4 POP POP PUSH1 0x20 DUP5 ADD MLOAD PUSH8 0xFFFFFFFFFFFFFFFF DUP2 GT ISZERO PUSH2 0x2A6 JUMPI PUSH2 0x2A5 PUSH2 0xEE JUMP JUMPDEST JUMPDEST PUSH2 0x2B2 DUP7 DUP3 DUP8 ADD PUSH2 0x234 JUMP JUMPDEST SWAP3 POP POP PUSH1 0x40 DUP5 ADD MLOAD PUSH8 0xFFFFFFFFFFFFFFFF DUP2 GT ISZERO PUSH2 0x2D3 JUMPI PUSH2 0x2D2 PUSH2 0xEE JUMP JUMPDEST JUMPDEST PUSH2 0x2DF DUP7 DUP3 DUP8 ADD PUSH2 0x234 JUMP JUMPDEST SWAP2 POP POP SWAP3 POP SWAP3 POP SWAP3 JUMP JUMPDEST PUSH0 DUP2 MLOAD SWAP1 POP SWAP2 SWAP1 POP JUMP JUMPDEST PUSH32 0x4E487B7100000000000000000000000000000000000000000000000000000000 PUSH0 MSTORE PUSH1 0x22 PUSH1 0x4 MSTORE PUSH1 0x24 PUSH0 REVERT JUMPDEST PUSH0 PUSH1 0x2 DUP3 DIV SWAP1 POP PUSH1 0x1 DUP3 AND DUP1 PUSH2 0x337 JUMPI PUSH1 0x7F DUP3 AND SWAP2 POP JUMPDEST PUSH1 0x20 DUP3 LT DUP2 SUB PUSH2 0x34A JUMPI PUSH2 0x349 PUSH2 0x2F3 JUMP JUMPDEST JUMPDEST POP SWAP2 SWAP1 POP JUMP JUMPDEST PUSH0 DUP2 SWAP1 POP DUP2 PUSH0 MSTORE PUSH1 0x20 PUSH0 KECCAK256 SWAP1 POP SWAP2 SWAP1 POP JUMP JUMPDEST PUSH0 PUSH1 0x20 PUSH1 0x1F DUP4 ADD DIV SWAP1 POP SWAP2 SWAP1 POP JUMP JUMPDEST PUSH0 DUP3 DUP3 SHL SWAP1 POP SWAP3 SWAP2 POP POP JUMP JUMPDEST PUSH0 PUSH1 0x8 DUP4 MUL PUSH2 0x3AC PUSH32 0xFFFFFFFFFFFFFFFFFFFFFFFFFFFFFFFFFFFFFFFFFFFFFFFFFFFFFFFFFFFFFFFF DUP3 PUSH2 0x371 JUMP JUMPDEST PUSH2 0x3B6 DUP7 DUP4 PUSH2 0x371 JUMP JUMPDEST SWAP6 POP DUP1 NOT DUP5 AND SWAP4 POP DUP1 DUP7 AND DUP5 OR SWAP3 POP POP POP SWAP4 SWAP3 POP POP POP JUMP JUMPDEST PUSH0 DUP2 SWAP1 POP SWAP2 SWAP1 POP JUMP JUMPDEST PUSH0 PUSH2 0x3F1 PUSH2 0x3EC PUSH2 0x3E7 DUP5 PUSH2 0xF2 JUMP JUMPDEST PUSH2 0x3CE JUMP JUMPDEST PUSH2 0xF2 JUMP JUMPDEST SWAP1 POP SWAP2 SWAP1 POP JUMP JUMPDEST PUSH0 DUP2 SWAP1 POP SWAP2 SWAP1 POP JUMP JUMPDEST PUSH2 0x40A DUP4 PUSH2 0x3D7 JUMP JUMPDEST PUSH2 0x41E PUSH2 0x416 DUP3 PUSH2 0x3F8 JUMP JUMPDEST DUP5 DUP5 SLOAD PUSH2 0x37D JUMP JUMPDEST DUP3 SSTORE POP POP POP POP JUMP JUMPDEST PUSH0 PUSH0 SWAP1 POP SWAP1 JUMP JUMPDEST PUSH2 0x435 PUSH2 0x426 JUMP JUMPDEST PUSH2 0x440 DUP2 DUP5 DUP5 PUSH2 0x401 JUMP JUMPDEST POP POP POP JUMP JUMPDEST JUMPDEST DUP2 DUP2 LT ISZERO PUSH2 0x463 JUMPI PUSH2 0x458 PUSH0 DUP3 PUSH2 0x42D JUMP JUMPDEST PUSH1 0x1 DUP2 ADD SWAP1 POP PUSH2 0x446 JUMP JUMPDEST POP POP JUMP JUMPDEST PUSH1 0x1F DUP3 GT ISZERO PUSH2 0x4A8 JUMPI PUSH2 0x479 DUP2 PUSH2 0x350 JUMP JUMPDEST PUSH2 0x482 DUP5 PUSH2 0x362 JUMP JUMPDEST DUP2 ADD PUSH1 0x20 DUP6 LT ISZERO PUSH2 0x491 JUMPI DUP2 SWAP1 POP JUMPDEST PUSH2 0x4A5 PUSH2 0x49D DUP6 PUSH2 0x362 JUMP JUMPDEST DUP4 ADD DUP3 PUSH2 0x445 JUMP JUMPDEST POP POP JUMPDEST POP POP POP JUMP JUMPDEST PUSH0 DUP3 DUP3 SHR SWAP1 POP SWAP3 SWAP2 POP POP JUMP JUMPDEST PUSH0 PUSH2 0x4C8 PUSH0 NOT DUP5 PUSH1 0x8 MUL PUSH2 0x4AD JUMP JUMPDEST NOT DUP1 DUP4 AND SWAP2 POP POP SWAP3 SWAP2 POP POP JUMP JUMPDEST PUSH0 PUSH2 0x4E0 DUP4 DUP4 PUSH2 0x4B9 JUMP JUMPDEST SWAP2 POP DUP3 PUSH1 0x2 MUL DUP3 OR SWAP1 POP SWAP3 SWAP2 POP POP JUMP JUMPDEST PUSH2 0x4F9 DUP3 PUSH2 0x2E9 JUMP JUMPDEST PUSH8 0xFFFFFFFFFFFFFFFF DUP2 GT ISZERO PUSH2 0x512 JUMPI PUSH2 0x511 PUSH2 0x13D JUMP JUMPDEST JUMPDEST PUSH2 0x51C DUP3 SLOAD PUSH2 0x320 JUMP JUMPDEST PUSH2 0x527 DUP3 DUP3 DUP6 PUSH2 0x467 JUMP JUMPDEST PUSH0 PUSH1 0x20 SWAP1 POP PUSH1 0x1F DUP4 GT PUSH1 0x1 DUP2 EQ PUSH2 0x558 JUMPI PUSH0 DUP5 ISZERO PUSH2 0x546 JUMPI DUP3 DUP8 ADD MLOAD SWAP1 POP JUMPDEST PUSH2 0x550 DUP6 DUP3 PUSH2 0x4D5 JUMP JUMPDEST DUP7 SSTORE POP PUSH2 0x5B7 JUMP JUMPDEST PUSH1 0x1F NOT DUP5 AND PUSH2 0x566 DUP7 PUSH2 0x350 JUMP JUMPDEST PUSH0 JUMPDEST DUP3 DUP2 LT ISZERO PUSH2 0x58D JUMPI DUP5 DUP10 ADD MLOAD DUP3 SSTORE PUSH1 0x1 DUP3 ADD SWAP2 POP PUSH1 0x20 DUP6 ADD SWAP5 POP PUSH1 0x20 DUP2 ADD SWAP1 POP PUSH2 0x568 JUMP JUMPDEST DUP7 DUP4 LT ISZERO PUSH2 0x5AA JUMPI DUP5 DUP10 ADD MLOAD PUSH2 0x5A6 PUSH1 0x1F DUP10 AND DUP3 PUSH2 0x4B9 JUMP JUMPDEST DUP4 SSTORE POP JUMPDEST PUSH1 0x1 PUSH1 0x2 DUP9 MUL ADD DUP9 SSTORE POP POP POP JUMPDEST POP POP POP POP POP POP JUMP JUMPDEST PUSH2 0x17D3 DUP1 PUSH2 0x5CC PUSH0 CODECOPY PUSH0 RETURN INVALID PUSH1 0x80 PUSH1 0x40 MSTORE CALLVALUE DUP1 ISZERO PUSH2 0xF JUMPI PUSH0 PUSH0 REVERT JUMPDEST POP PUSH1 0x4 CALLDATASIZE LT PUSH2 0x7B JUMPI PUSH0 CALLDATALOAD PUSH1 0xE0 SHR DUP1 PUSH4 0x40C10F19 GT PUSH2 0x59 JUMPI DUP1 PUSH4 0x40C10F19 EQ PUSH2 0xFD JUMPI DUP1 PUSH4 0x70A08231 EQ PUSH2 0x119 JUMPI DUP1 PUSH4 0xA9059CBB EQ PUSH2 0x149 JUMPI DUP1 PUSH4 0xDD62ED3E EQ PUSH2 0x179 JUMPI PUSH2 0x7B JUMP JUMPDEST DUP1 PUSH4 0x95EA7B3 EQ PUSH2 0x7F JUMPI DUP1 PUSH4 0x18160DDD EQ PUSH2 0xAF JUMPI DUP1 PUSH4 0x23B872DD EQ PUSH2 0xCD JUMPI JUMPDEST PUSH0 PUSH0 REVERT JUMPDEST PUSH2 0x99 PUSH1 0x4 DUP1 CALLDATASIZE SUB DUP2 ADD SWAP1 PUSH2 0x94 SWAP2 SWAP1 PUSH2 0xF4C JUMP JUMPDEST PUSH2 0x1A9 JUMP JUMPDEST PUSH1 0x40 MLOAD PUSH2 0xA6 SWAP2 SWAP1 PUSH2 0xFA4 JUMP JUMPDEST PUSH1 0x40 MLOAD DUP1 SWAP2 SUB SWAP1 RETURN JUMPDEST PUSH2 0xB7 PUSH2 0x42C JUMP JUMPDEST PUSH1 0x40 MLOAD PUSH2 0xC4 SWAP2 SWAP1 PUSH2 0xFCC JUMP JUMPDEST PUSH1 0x40 MLOAD DUP1 SWAP2 SUB SWAP1 RETURN JUMPDEST PUSH2 0xE7 PUSH1 0x4 DUP1 CALLDATASIZE SUB DUP2 ADD SWAP1 PUSH2 0xE2 SWAP2 SWAP1 PUSH2 0xFE5 JUMP JUMPDEST PUSH2 0x435 JUMP JUMPDEST PUSH1 0x40 MLOAD PUSH2 0xF4 SWAP2 SWAP1 PUSH2 0xFA4 JUMP JUMPDEST PUSH1 0x40 MLOAD DUP1 SWAP2 SUB SWAP1 RETURN JUMPDEST PUSH2 0x117 PUSH1 0x4 DUP1 CALLDATASIZE SUB DUP2 ADD SWAP1 PUSH2 0x112 SWAP2 SWAP1 PUSH2 0xF4C JUMP JUMPDEST PUSH2 0x99B JUMP JUMPDEST STOP JUMPDEST PUSH2 0x133 PUSH1 0x4 DUP1 CALLDATASIZE SUB DUP2 ADD SWAP1 PUSH2 0x12E SWAP2 SWAP1 PUSH2 0x1035 JUMP JUMPDEST PUSH2 0xBAD JUMP JUMPDEST PUSH1 0x40 MLOAD PUSH2 0x140 SWAP2 SWAP1 PUSH2 0xFCC JUMP JUMPDEST PUSH1 0x40 MLOAD DUP1 SWAP2 SUB SWAP1 RETURN JUMPDEST PUSH2 0x163 PUSH1 0x4 DUP1 CALLDATASIZE SUB DUP2 ADD SWAP1 PUSH2 0x15E SWAP2 SWAP1 PUSH2 0xF4C JUMP JUMPDEST PUSH2 0xBF3 JUMP JUMPDEST PUSH1 0x40 MLOAD PUSH2 0x170 SWAP2 SWAP1 PUSH2 0xFA4 JUMP JUMPDEST PUSH1 0x40 MLOAD DUP1 SWAP2 SUB SWAP1 RETURN JUMPDEST PUSH2 0x193 PUSH1 0x4 DUP1 CALLDATASIZE SUB DUP2 ADD SWAP1 PUSH2 0x18E SWAP2 SWAP1 PUSH2 0x1060 JUMP JUMPDEST PUSH2 0xE39 JUMP JUMPDEST PUSH1 0x40 MLOAD PUSH2 0x1A0 SWAP2 SWAP1 PUSH2 0xFCC JUMP JUMPDEST PUSH1 0x40 MLOAD DUP1 SWAP2 SUB SWAP1 RETURN JUMPDEST PUSH0 DUP3 PUSH20 0xFFFFFFFFFFFFFFFFFFFFFFFFFFFFFFFFFFFFFFFF AND CALLER PUSH20 0xFFFFFFFFFFFFFFFFFFFFFFFFFFFFFFFFFFFFFFFF AND SUB PUSH2 0x218 JUMPI PUSH1 0x40 MLOAD PUSH32 0x8C379A000000000000000000000000000000000000000000000000000000000 DUP2 MSTORE PUSH1 0x4 ADD PUSH2 0x20F SWAP1 PUSH2 0x10F8 JUMP JUMPDEST PUSH1 0x40 MLOAD DUP1 SWAP2 SUB SWAP1 REVERT JUMPDEST PUSH0 PUSH20 0xFFFFFFFFFFFFFFFFFFFFFFFFFFFFFFFFFFFFFFFF AND DUP4 PUSH20 0xFFFFFFFFFFFFFFFFFFFFFFFFFFFFFFFFFFFFFFFF AND SUB PUSH2 0x286 JUMPI PUSH1 0x40 MLOAD PUSH32 0x8C379A000000000000000000000000000000000000000000000000000000000 DUP2 MSTORE PUSH1 0x4 ADD PUSH2 0x27D SWAP1 PUSH2 0x1186 JUMP JUMPDEST PUSH1 0x40 MLOAD DUP1 SWAP2 SUB SWAP1 REVERT JUMPDEST PUSH0 DUP3 GT PUSH2 0x2C8 JUMPI PUSH1 0x40 MLOAD PUSH32 0x8C379A000000000000000000000000000000000000000000000000000000000 DUP2 MSTORE PUSH1 0x4 ADD PUSH2 0x2BF SWAP1 PUSH2 0x1214 JUMP JUMPDEST PUSH1 0x40 MLOAD DUP1 SWAP2 SUB SWAP1 REVERT JUMPDEST DUP2 PUSH1 0x2 PUSH0 CALLER PUSH20 0xFFFFFFFFFFFFFFFFFFFFFFFFFFFFFFFFFFFFFFFF AND PUSH20 0xFFFFFFFFFFFFFFFFFFFFFFFFFFFFFFFFFFFFFFFF AND DUP2 MSTORE PUSH1 0x20 ADD SWAP1 DUP2 MSTORE PUSH1 0x20 ADD PUSH0 KECCAK256 PUSH0 DUP6 PUSH20 0xFFFFFFFFFFFFFFFFFFFFFFFFFFFFFFFFFFFFFFFF AND PUSH20 0xFFFFFFFFFFFFFFFFFFFFFFFFFFFFFFFFFFFFFFFF AND DUP2 MSTORE PUSH1 0x20 ADD SWAP1 DUP2 MSTORE PUSH1 0x20 ADD PUSH0 KECCAK256 DUP2 SWAP1 SSTORE POP DUP3 PUSH20 0xFFFFFFFFFFFFFFFFFFFFFFFFFFFFFFFFFFFFFFFF AND CALLER PUSH20 0xFFFFFFFFFFFFFFFFFFFFFFFFFFFFFFFFFFFFFFFF AND PUSH32 0x8C5BE1E5EBEC7D5BD14F71427D1E84F3DD0314C0F7B2291E5B200AC8C7C3B925 PUSH1 0x2 PUSH0 CALLER PUSH20 0xFFFFFFFFFFFFFFFFFFFFFFFFFFFFFFFFFFFFFFFF AND PUSH20 0xFFFFFFFFFFFFFFFFFFFFFFFFFFFFFFFFFFFFFFFF AND DUP2 MSTORE PUSH1 0x20 ADD SWAP1 DUP2 MSTORE PUSH1 0x20 ADD PUSH0 KECCAK256 PUSH0 DUP8 PUSH20 0xFFFFFFFFFFFFFFFFFFFFFFFFFFFFFFFFFFFFFFFF AND PUSH20 0xFFFFFFFFFFFFFFFFFFFFFFFFFFFFFFFFFFFFFFFF AND DUP2 MSTORE PUSH1 0x20 ADD SWAP1 DUP2 MSTORE PUSH1 0x20 ADD PUSH0 KECCAK256 SLOAD PUSH1 0x40 MLOAD PUSH2 0x41A SWAP2 SWAP1 PUSH2 0xFCC JUMP JUMPDEST PUSH1 0x40 MLOAD DUP1 SWAP2 SUB SWAP1 LOG3 PUSH1 0x1 SWAP1 POP SWAP3 SWAP2 POP POP JUMP JUMPDEST PUSH0 PUSH1 0x3 SLOAD SWAP1 POP SWAP1 JUMP JUMPDEST PUSH0 PUSH0 PUSH0 SWAP1 SLOAD SWAP1 PUSH2 0x100 EXP SWAP1 DIV PUSH20 0xFFFFFFFFFFFFFFFFFFFFFFFFFFFFFFFFFFFFFFFF AND PUSH20 0xFFFFFFFFFFFFFFFFFFFFFFFFFFFFFFFFFFFFFFFF AND DUP5 PUSH20 0xFFFFFFFFFFFFFFFFFFFFFFFFFFFFFFFFFFFFFFFF AND SUB PUSH2 0x4C4 JUMPI PUSH1 0x40 MLOAD PUSH32 0x8C379A000000000000000000000000000000000000000000000000000000000 DUP2 MSTORE PUSH1 0x4 ADD PUSH2 0x4BB SWAP1 PUSH2 0x12A2 JUMP JUMPDEST PUSH1 0x40 MLOAD DUP1 SWAP2 SUB SWAP1 REVERT JUMPDEST PUSH0 PUSH20 0xFFFFFFFFFFFFFFFFFFFFFFFFFFFFFFFFFFFFFFFF AND DUP5 PUSH20 0xFFFFFFFFFFFFFFFFFFFFFFFFFFFFFFFFFFFFFFFF AND SUB PUSH2 0x532 JUMPI PUSH1 0x40 MLOAD PUSH32 0x8C379A000000000000000000000000000000000000000000000000000000000 DUP2 MSTORE PUSH1 0x4 ADD PUSH2 0x529 SWAP1 PUSH2 0x1330 JUMP JUMPDEST PUSH1 0x40 MLOAD DUP1 SWAP2 SUB SWAP1 REVERT JUMPDEST DUP2 PUSH1 0x1 PUSH0 DUP7 PUSH20 0xFFFFFFFFFFFFFFFFFFFFFFFFFFFFFFFFFFFFFFFF AND PUSH20 0xFFFFFFFFFFFFFFFFFFFFFFFFFFFFFFFFFFFFFFFF AND DUP2 MSTORE PUSH1 0x20 ADD SWAP1 DUP2 MSTORE PUSH1 0x20 ADD PUSH0 KECCAK256 SLOAD LT ISZERO PUSH2 0x5B2 JUMPI PUSH1 0x40 MLOAD PUSH32 0x8C379A000000000000000000000000000000000000000000000000000000000 DUP2 MSTORE PUSH1 0x4 ADD PUSH2 0x5A9 SWAP1 PUSH2 0x13BE JUMP JUMPDEST PUSH1 0x40 MLOAD DUP1 SWAP2 SUB SWAP1 REVERT JUMPDEST CALLER PUSH20 0xFFFFFFFFFFFFFFFFFFFFFFFFFFFFFFFFFFFFFFFF AND DUP5 PUSH20 0xFFFFFFFFFFFFFFFFFFFFFFFFFFFFFFFFFFFFFFFF AND EQ ISZERO DUP1 ISZERO PUSH2 0x686 JUMPI POP PUSH32 0xFFFFFFFFFFFFFFFFFFFFFFFFFFFFFFFFFFFFFFFFFFFFFFFFFFFFFFFFFFFFFFFF PUSH1 0x2 PUSH0 DUP7 PUSH20 0xFFFFFFFFFFFFFFFFFFFFFFFFFFFFFFFFFFFFFFFF AND PUSH20 0xFFFFFFFFFFFFFFFFFFFFFFFFFFFFFFFFFFFFFFFF AND DUP2 MSTORE PUSH1 0x20 ADD SWAP1 DUP2 MSTORE PUSH1 0x20 ADD PUSH0 KECCAK256 PUSH0 CALLER PUSH20 0xFFFFFFFFFFFFFFFFFFFFFFFFFFFFFFFFFFFFFFFF AND PUSH20 0xFFFFFFFFFFFFFFFFFFFFFFFFFFFFFFFFFFFFFFFF AND DUP2 MSTORE PUSH1 0x20 ADD SWAP1 DUP2 MSTORE PUSH1 0x20 ADD PUSH0 KECCAK256 SLOAD EQ ISZERO JUMPDEST ISZERO PUSH2 0x747 JUMPI DUP2 PUSH1 0x2 PUSH0 DUP7 PUSH20 0xFFFFFFFFFFFFFFFFFFFFFFFFFFFFFFFFFFFFFFFF AND PUSH20 0xFFFFFFFFFFFFFFFFFFFFFFFFFFFFFFFFFFFFFFFF AND DUP2 MSTORE PUSH1 0x20 ADD SWAP1 DUP2 MSTORE PUSH1 0x20 ADD PUSH0 KECCAK256 PUSH0 CALLER PUSH20 0xFFFFFFFFFFFFFFFFFFFFFFFFFFFFFFFFFFFFFFFF AND PUSH20 0xFFFFFFFFFFFFFFFFFFFFFFFFFFFFFFFFFFFFFFFF AND DUP2 MSTORE PUSH1 0x20 ADD SWAP1 DUP2 MSTORE PUSH1 0x20 ADD PUSH0 KECCAK256 SLOAD LT ISZERO PUSH2 0x746 JUMPI PUSH1 0x40 MLOAD PUSH32 0x8C379A000000000000000000000000000000000000000000000000000000000 DUP2 MSTORE PUSH1 0x4 ADD PUSH2 0x73D SWAP1 PUSH2 0x144C JUMP JUMPDEST PUSH1 0x40 MLOAD DUP1 SWAP2 SUB SWAP1 REVERT JUMPDEST JUMPDEST PUSH0 PUSH20 0xFFFFFFFFFFFFFFFFFFFFFFFFFFFFFFFFFFFFFFFF AND DUP4 PUSH20 0xFFFFFFFFFFFFFFFFFFFFFFFFFFFFFFFFFFFFFFFF AND SUB PUSH2 0x7B5 JUMPI PUSH1 0x40 MLOAD PUSH32 0x8C379A000000000000000000000000000000000000000000000000000000000 DUP2 MSTORE PUSH1 0x4 ADD PUSH2 0x7AC SWAP1 PUSH2 0x14DA JUMP JUMPDEST PUSH1 0x40 MLOAD DUP1 SWAP2 SUB SWAP1 REVERT JUMPDEST PUSH0 DUP3 GT PUSH2 0x7F7 JUMPI PUSH1 0x40 MLOAD PUSH32 0x8C379A000000000000000000000000000000000000000000000000000000000 DUP2 MSTORE PUSH1 0x4 ADD PUSH2 0x7EE SWAP1 PUSH2 0x1568 JUMP JUMPDEST PUSH1 0x40 MLOAD DUP1 SWAP2 SUB SWAP1 REVERT JUMPDEST DUP2 PUSH1 0x1 PUSH0 DUP7 PUSH20 0xFFFFFFFFFFFFFFFFFFFFFFFFFFFFFFFFFFFFFFFF AND PUSH20 0xFFFFFFFFFFFFFFFFFFFFFFFFFFFFFFFFFFFFFFFF AND DUP2 MSTORE PUSH1 0x20 ADD SWAP1 DUP2 MSTORE PUSH1 0x20 ADD PUSH0 KECCAK256 PUSH0 DUP3 DUP3 SLOAD PUSH2 0x843 SWAP2 SWAP1 PUSH2 0x15B3 JUMP JUMPDEST SWAP3 POP POP DUP2 SWAP1 SSTORE POP DUP2 PUSH1 0x1 PUSH0 DUP6 PUSH20 0xFFFFFFFFFFFFFFFFFFFFFFFFFFFFFFFFFFFFFFFF AND PUSH20 0xFFFFFFFFFFFFFFFFFFFFFFFFFFFFFFFFFFFFFFFF AND DUP2 MSTORE PUSH1 0x20 ADD SWAP1 DUP2 MSTORE PUSH1 0x20 ADD PUSH0 KECCAK256 PUSH0 DUP3 DUP3 SLOAD PUSH2 0x896 SWAP2 SWAP1 PUSH2 0x15E6 JUMP JUMPDEST SWAP3 POP POP DUP2 SWAP1 SSTORE POP DUP2 PUSH1 0x2 PUSH0 DUP7 PUSH20 0xFFFFFFFFFFFFFFFFFFFFFFFFFFFFFFFFFFFFFFFF AND PUSH20 0xFFFFFFFFFFFFFFFFFFFFFFFFFFFFFFFFFFFFFFFF AND DUP2 MSTORE PUSH1 0x20 ADD SWAP1 DUP2 MSTORE PUSH1 0x20 ADD PUSH0 KECCAK256 PUSH0 CALLER PUSH20 0xFFFFFFFFFFFFFFFFFFFFFFFFFFFFFFFFFFFFFFFF AND PUSH20 0xFFFFFFFFFFFFFFFFFFFFFFFFFFFFFFFFFFFFFFFF AND DUP2 MSTORE PUSH1 0x20 ADD SWAP1 DUP2 MSTORE PUSH1 0x20 ADD PUSH0 KECCAK256 PUSH0 DUP3 DUP3 SLOAD PUSH2 0x924 SWAP2 SWAP1 PUSH2 0x15B3 JUMP JUMPDEST SWAP3 POP POP DUP2 SWAP1 SSTORE POP DUP3 PUSH20 0xFFFFFFFFFFFFFFFFFFFFFFFFFFFFFFFFFFFFFFFF AND DUP5 PUSH20 0xFFFFFFFFFFFFFFFFFFFFFFFFFFFFFFFFFFFFFFFF AND PUSH32 0xDDF252AD1BE2C89B69C2B068FC378DAA952BA7F163C4A11628F55A4DF523B3EF DUP5 PUSH1 0x40 MLOAD PUSH2 0x988 SWAP2 SWAP1 PUSH2 0xFCC JUMP JUMPDEST PUSH1 0x40 MLOAD DUP1 SWAP2 SUB SWAP1 LOG3 PUSH1 0x1 SWAP1 POP SWAP4 SWAP3 POP POP POP JUMP JUMPDEST PUSH0 PUSH0 SWAP1 SLOAD SWAP1 PUSH2 0x100 EXP SWAP1 DIV PUSH20 0xFFFFFFFFFFFFFFFFFFFFFFFFFFFFFFFFFFFFFFFF AND PUSH20 0xFFFFFFFFFFFFFFFFFFFFFFFFFFFFFFFFFFFFFFFF AND CALLER PUSH20 0xFFFFFFFFFFFFFFFFFFFFFFFFFFFFFFFFFFFFFFFF AND EQ PUSH2 0xA29 JUMPI PUSH1 0x40 MLOAD PUSH32 0x8C379A000000000000000000000000000000000000000000000000000000000 DUP2 MSTORE PUSH1 0x4 ADD PUSH2 0xA20 SWAP1 PUSH2 0x1663 JUMP JUMPDEST PUSH1 0x40 MLOAD DUP1 SWAP2 SUB SWAP1 REVERT JUMPDEST PUSH0 PUSH20 0xFFFFFFFFFFFFFFFFFFFFFFFFFFFFFFFFFFFFFFFF AND DUP3 PUSH20 0xFFFFFFFFFFFFFFFFFFFFFFFFFFFFFFFFFFFFFFFF AND SUB PUSH2 0xA97 JUMPI PUSH1 0x40 MLOAD PUSH32 0x8C379A000000000000000000000000000000000000000000000000000000000 DUP2 MSTORE PUSH1 0x4 ADD PUSH2 0xA8E SWAP1 PUSH2 0x16F1 JUMP JUMPDEST PUSH1 0x40 MLOAD DUP1 SWAP2 SUB SWAP1 REVERT JUMPDEST PUSH0 DUP2 GT PUSH2 0xAD9 JUMPI PUSH1 0x40 MLOAD PUSH32 0x8C379A000000000000000000000000000000000000000000000000000000000 DUP2 MSTORE PUSH1 0x4 ADD PUSH2 0xAD0 SWAP1 PUSH2 0x177F JUMP JUMPDEST PUSH1 0x40 MLOAD DUP1 SWAP2 SUB SWAP1 REVERT JUMPDEST DUP1 PUSH1 0x3 PUSH0 DUP3 DUP3 SLOAD PUSH2 0xAEA SWAP2 SWAP1 PUSH2 0x15E6 JUMP JUMPDEST SWAP3 POP POP DUP2 SWAP1 SSTORE POP DUP1 PUSH1 0x1 PUSH0 DUP5 PUSH20 0xFFFFFFFFFFFFFFFFFFFFFFFFFFFFFFFFFFFFFFFF AND PUSH20 0xFFFFFFFFFFFFFFFFFFFFFFFFFFFFFFFFFFFFFFFF AND DUP2 MSTORE PUSH1 0x20 ADD SWAP1 DUP2 MSTORE PUSH1 0x20 ADD PUSH0 KECCAK256 PUSH0 DUP3 DUP3 SLOAD PUSH2 0xB3D SWAP2 SWAP1 PUSH2 0x15E6 JUMP JUMPDEST SWAP3 POP POP DUP2 SWAP1 SSTORE POP DUP2 PUSH20 0xFFFFFFFFFFFFFFFFFFFFFFFFFFFFFFFFFFFFFFFF AND PUSH0 PUSH20 0xFFFFFFFFFFFFFFFFFFFFFFFFFFFFFFFFFFFFFFFF AND PUSH32 0xDDF252AD1BE2C89B69C2B068FC378DAA952BA7F163C4A11628F55A4DF523B3EF DUP4 PUSH1 0x40 MLOAD PUSH2 0xBA1 SWAP2 SWAP1 PUSH2 0xFCC JUMP JUMPDEST PUSH1 0x40 MLOAD DUP1 SWAP2 SUB SWAP1 LOG3 POP POP JUMP JUMPDEST PUSH0 PUSH1 0x1 PUSH0 DUP4 PUSH20 0xFFFFFFFFFFFFFFFFFFFFFFFFFFFFFFFFFFFFFFFF AND PUSH20 0xFFFFFFFFFFFFFFFFFFFFFFFFFFFFFFFFFFFFFFFF AND DUP2 MSTORE PUSH1 0x20 ADD SWAP1 DUP2 MSTORE PUSH1 0x20 ADD PUSH0 KECCAK256 SLOAD SWAP1 POP SWAP2 SWAP1 POP JUMP JUMPDEST PUSH0 DUP2 PUSH1 0x1 PUSH0 CALLER PUSH20 0xFFFFFFFFFFFFFFFFFFFFFFFFFFFFFFFFFFFFFFFF AND PUSH20 0xFFFFFFFFFFFFFFFFFFFFFFFFFFFFFFFFFFFFFFFF AND DUP2 MSTORE PUSH1 0x20 ADD SWAP1 DUP2 MSTORE PUSH1 0x20 ADD PUSH0 KECCAK256 SLOAD LT ISZERO PUSH2 0xC74 JUMPI PUSH1 0x40 MLOAD PUSH32 0x8C379A000000000000000000000000000000000000000000000000000000000 DUP2 MSTORE PUSH1 0x4 ADD PUSH2 0xC6B SWAP1 PUSH2 0x13BE JUMP JUMPDEST PUSH1 0x40 MLOAD DUP1 SWAP2 SUB SWAP1 REVERT JUMPDEST PUSH0 PUSH20 0xFFFFFFFFFFFFFFFFFFFFFFFFFFFFFFFFFFFFFFFF AND DUP4 PUSH20 0xFFFFFFFFFFFFFFFFFFFFFFFFFFFFFFFFFFFFFFFF AND SUB PUSH2 0xCE2 JUMPI PUSH1 0x40 MLOAD PUSH32 0x8C379A000000000000000000000000000000000000000000000000000000000 DUP2 MSTORE PUSH1 0x4 ADD PUSH2 0xCD9 SWAP1 PUSH2 0x14DA JUMP JUMPDEST PUSH1 0x40 MLOAD DUP1 SWAP2 SUB SWAP1 REVERT JUMPDEST PUSH0 DUP3 GT PUSH2 0xD24 JUMPI PUSH1 0x40 MLOAD PUSH32 0x8C379A000000000000000000000000000000000000000000000000000000000 DUP2 MSTORE PUSH1 0x4 ADD PUSH2 0xD1B SWAP1 PUSH2 0x1568 JUMP JUMPDEST PUSH1 0x40 MLOAD DUP1 SWAP2 SUB SWAP1 REVERT JUMPDEST DUP2 PUSH1 0x1 PUSH0 CALLER PUSH20 0xFFFFFFFFFFFFFFFFFFFFFFFFFFFFFFFFFFFFFFFF AND PUSH20 0xFFFFFFFFFFFFFFFFFFFFFFFFFFFFFFFFFFFFFFFF AND DUP2 MSTORE PUSH1 0x20 ADD SWAP1 DUP2 MSTORE PUSH1 0x20 ADD PUSH0 KECCAK256 PUSH0 DUP3 DUP3 SLOAD PUSH2 0xD70 SWAP2 SWAP1 PUSH2 0x15B3 JUMP JUMPDEST SWAP3 POP POP DUP2 SWAP1 SSTORE POP DUP2 PUSH1 0x1 PUSH0 DUP6 PUSH20 0xFFFFFFFFFFFFFFFFFFFFFFFFFFFFFFFFFFFFFFFF AND PUSH20 0xFFFFFFFFFFFFFFFFFFFFFFFFFFFFFFFFFFFFFFFF AND DUP2 MSTORE PUSH1 0x20 ADD SWAP1 DUP2 MSTORE PUSH1 0x20 ADD PUSH0 KECCAK256 PUSH0 DUP3 DUP3 SLOAD PUSH2 0xDC3 SWAP2 SWAP1 PUSH2 0x15E6 JUMP JUMPDEST SWAP3 POP POP DUP2 SWAP1 SSTORE POP DUP3 PUSH20 0xFFFFFFFFFFFFFFFFFFFFFFFFFFFFFFFFFFFFFFFF AND CALLER PUSH20 0xFFFFFFFFFFFFFFFFFFFFFFFFFFFFFFFFFFFFFFFF AND PUSH32 0xDDF252AD1BE2C89B69C2B068FC378DAA952BA7F163C4A11628F55A4DF523B3EF DUP5 PUSH1 0x40 MLOAD PUSH2 0xE27 SWAP2 SWAP1 PUSH2 0xFCC JUMP JUMPDEST PUSH1 0x40 MLOAD DUP1 SWAP2 SUB SWAP1 LOG3 PUSH1 0x1 SWAP1 POP SWAP3 SWAP2 POP POP JUMP JUMPDEST PUSH0 PUSH1 0x2 PUSH0 DUP5 PUSH20 0xFFFFFFFFFFFFFFFFFFFFFFFFFFFFFFFFFFFFFFFF AND PUSH20 0xFFFFFFFFFFFFFFFFFFFFFFFFFFFFFFFFFFFFFFFF AND DUP2 MSTORE PUSH1 0x20 ADD SWAP1 DUP2 MSTORE PUSH1 0x20 ADD PUSH0 KECCAK256 PUSH0 DUP4 PUSH20 0xFFFFFFFFFFFFFFFFFFFFFFFFFFFFFFFFFFFFFFFF AND PUSH20 0xFFFFFFFFFFFFFFFFFFFFFFFFFFFFFFFFFFFFFFFF AND DUP2 MSTORE PUSH1 0x20 ADD SWAP1 DUP2 MSTORE PUSH1 0x20 ADD PUSH0 KECCAK256 SLOAD SWAP1 POP SWAP3 SWAP2 POP POP JUMP JUMPDEST PUSH0 PUSH0 REVERT JUMPDEST PUSH0 PUSH20 0xFFFFFFFFFFFFFFFFFFFFFFFFFFFFFFFFFFFFFFFF DUP3 AND SWAP1 POP SWAP2 SWAP1 POP JUMP JUMPDEST PUSH0 PUSH2 0xEE8 DUP3 PUSH2 0xEBF JUMP JUMPDEST SWAP1 POP SWAP2 SWAP1 POP JUMP JUMPDEST PUSH2 0xEF8 DUP2 PUSH2 0xEDE JUMP JUMPDEST DUP2 EQ PUSH2 0xF02 JUMPI PUSH0 PUSH0 REVERT JUMPDEST POP JUMP JUMPDEST PUSH0 DUP2 CALLDATALOAD SWAP1 POP PUSH2 0xF13 DUP2 PUSH2 0xEEF JUMP JUMPDEST SWAP3 SWAP2 POP POP JUMP JUMPDEST PUSH0 DUP2 SWAP1 POP SWAP2 SWAP1 POP JUMP JUMPDEST PUSH2 0xF2B DUP2 PUSH2 0xF19 JUMP JUMPDEST DUP2 EQ PUSH2 0xF35 JUMPI PUSH0 PUSH0 REVERT JUMPDEST POP JUMP JUMPDEST PUSH0 DUP2 CALLDATALOAD SWAP1 POP PUSH2 0xF46 DUP2 PUSH2 0xF22 JUMP JUMPDEST SWAP3 SWAP2 POP POP JUMP JUMPDEST PUSH0 PUSH0 PUSH1 0x40 DUP4 DUP6 SUB SLT ISZERO PUSH2 0xF62 JUMPI PUSH2 0xF61 PUSH2 0xEBB JUMP JUMPDEST JUMPDEST PUSH0 PUSH2 0xF6F DUP6 DUP3 DUP7 ADD PUSH2 0xF05 JUMP JUMPDEST SWAP3 POP POP PUSH1 0x20 PUSH2 0xF80 DUP6 DUP3 DUP7 ADD PUSH2 0xF38 JUMP JUMPDEST SWAP2 POP POP SWAP3 POP SWAP3 SWAP1 POP JUMP JUMPDEST PUSH0 DUP2 ISZERO ISZERO SWAP1 POP SWAP2 SWAP1 POP JUMP JUMPDEST PUSH2 0xF9E DUP2 PUSH2 0xF8A JUMP JUMPDEST DUP3 MSTORE POP POP JUMP JUMPDEST PUSH0 PUSH1 0x20 DUP3 ADD SWAP1 POP PUSH2 0xFB7 PUSH0 DUP4 ADD DUP5 PUSH2 0xF95 JUMP JUMPDEST SWAP3 SWAP2 POP POP JUMP JUMPDEST PUSH2 0xFC6 DUP2 PUSH2 0xF19 JUMP JUMPDEST DUP3 MSTORE POP POP JUMP JUMPDEST PUSH0 PUSH1 0x20 DUP3 ADD SWAP1 POP PUSH2 0xFDF PUSH0 DUP4 ADD DUP5 PUSH2 0xFBD JUMP JUMPDEST SWAP3 SWAP2 POP POP JUMP JUMPDEST PUSH0 PUSH0 PUSH0 PUSH1 0x60 DUP5 DUP7 SUB SLT ISZERO PUSH2 0xFFC JUMPI PUSH2 0xFFB PUSH2 0xEBB JUMP JUMPDEST JUMPDEST PUSH0 PUSH2 0x1009 DUP7 DUP3 DUP8 ADD PUSH2 0xF05 JUMP JUMPDEST SWAP4 POP POP PUSH1 0x20 PUSH2 0x101A DUP7 DUP3 DUP8 ADD PUSH2 0xF05 JUMP JUMPDEST SWAP3 POP POP PUSH1 0x40 PUSH2 0x102B DUP7 DUP3 DUP8 ADD PUSH2 0xF38 JUMP JUMPDEST SWAP2 POP POP SWAP3 POP SWAP3 POP SWAP3 JUMP JUMPDEST PUSH0 PUSH1 0x20 DUP3 DUP5 SUB SLT ISZERO PUSH2 0x104A JUMPI PUSH2 0x1049 PUSH2 0xEBB JUMP JUMPDEST JUMPDEST PUSH0 PUSH2 0x1057 DUP5 DUP3 DUP6 ADD PUSH2 0xF05 JUMP JUMPDEST SWAP2 POP POP SWAP3 SWAP2 POP POP JUMP JUMPDEST PUSH0 PUSH0 PUSH1 0x40 DUP4 DUP6 SUB SLT ISZERO PUSH2 0x1076 JUMPI PUSH2 0x1075 PUSH2 0xEBB JUMP JUMPDEST JUMPDEST PUSH0 PUSH2 0x1083 DUP6 DUP3 DUP7 ADD PUSH2 0xF05 JUMP JUMPDEST SWAP3 POP POP PUSH1 0x20 PUSH2 0x1094 DUP6 DUP3 DUP7 ADD PUSH2 0xF05 JUMP JUMPDEST SWAP2 POP POP SWAP3 POP SWAP3 SWAP1 POP JUMP JUMPDEST PUSH0 DUP3 DUP3 MSTORE PUSH1 0x20 DUP3 ADD SWAP1 POP SWAP3 SWAP2 POP POP JUMP JUMPDEST PUSH32 0x4D65746145524332303A20617070726F766520746F2073656C66000000000000 PUSH0 DUP3 ADD MSTORE POP JUMP JUMPDEST PUSH0 PUSH2 0x10E2 PUSH1 0x1A DUP4 PUSH2 0x109E JUMP JUMPDEST SWAP2 POP PUSH2 0x10ED DUP3 PUSH2 0x10AE JUMP JUMPDEST PUSH1 0x20 DUP3 ADD SWAP1 POP SWAP2 SWAP1 POP JUMP JUMPDEST PUSH0 PUSH1 0x20 DUP3 ADD SWAP1 POP DUP2 DUP2 SUB PUSH0 DUP4 ADD MSTORE PUSH2 0x110F DUP2 PUSH2 0x10D6 JUMP JUMPDEST SWAP1 POP SWAP2 SWAP1 POP JUMP JUMPDEST PUSH32 0x4D65746145524332303A20617070726F766520746F20746865207A65726F2061 PUSH0 DUP3 ADD MSTORE PUSH32 0x6464726573730000000000000000000000000000000000000000000000000000 PUSH1 0x20 DUP3 ADD MSTORE POP JUMP JUMPDEST PUSH0 PUSH2 0x1170 PUSH1 0x26 DUP4 PUSH2 0x109E JUMP JUMPDEST SWAP2 POP PUSH2 0x117B DUP3 PUSH2 0x1116 JUMP JUMPDEST PUSH1 0x40 DUP3 ADD SWAP1 POP SWAP2 SWAP1 POP JUMP JUMPDEST PUSH0 PUSH1 0x20 DUP3 ADD SWAP1 POP DUP2 DUP2 SUB PUSH0 DUP4 ADD MSTORE PUSH2 0x119D DUP2 PUSH2 0x1164 JUMP JUMPDEST SWAP1 POP SWAP2 SWAP1 POP JUMP JUMPDEST PUSH32 0x4D65746145524332303A20617070726F766520616D6F756E74206D7573742062 PUSH0 DUP3 ADD MSTORE PUSH32 0x652067726561746572207468616E207A65726F00000000000000000000000000 PUSH1 0x20 DUP3 ADD MSTORE POP JUMP JUMPDEST PUSH0 PUSH2 0x11FE PUSH1 0x33 DUP4 PUSH2 0x109E JUMP JUMPDEST SWAP2 POP PUSH2 0x1209 DUP3 PUSH2 0x11A4 JUMP JUMPDEST PUSH1 0x40 DUP3 ADD SWAP1 POP SWAP2 SWAP1 POP JUMP JUMPDEST PUSH0 PUSH1 0x20 DUP3 ADD SWAP1 POP DUP2 DUP2 SUB PUSH0 DUP4 ADD MSTORE PUSH2 0x122B DUP2 PUSH2 0x11F2 JUMP JUMPDEST SWAP1 POP SWAP2 SWAP1 POP JUMP JUMPDEST PUSH32 0x4D65746145524332303A207472616E736665722066726F6D20746865206F776E PUSH0 DUP3 ADD MSTORE PUSH32 0x6572000000000000000000000000000000000000000000000000000000000000 PUSH1 0x20 DUP3 ADD MSTORE POP JUMP JUMPDEST PUSH0 PUSH2 0x128C PUSH1 0x22 DUP4 PUSH2 0x109E JUMP JUMPDEST SWAP2 POP PUSH2 0x1297 DUP3 PUSH2 0x1232 JUMP JUMPDEST PUSH1 0x40 DUP3 ADD SWAP1 POP SWAP2 SWAP1 POP JUMP JUMPDEST PUSH0 PUSH1 0x20 DUP3 ADD SWAP1 POP DUP2 DUP2 SUB PUSH0 DUP4 ADD MSTORE PUSH2 0x12B9 DUP2 PUSH2 0x1280 JUMP JUMPDEST SWAP1 POP SWAP2 SWAP1 POP JUMP JUMPDEST PUSH32 0x4D65746145524332303A207472616E736665722066726F6D20746865207A6572 PUSH0 DUP3 ADD MSTORE PUSH32 0x6F20616464726573730000000000000000000000000000000000000000000000 PUSH1 0x20 DUP3 ADD MSTORE POP JUMP JUMPDEST PUSH0 PUSH2 0x131A PUSH1 0x29 DUP4 PUSH2 0x109E JUMP JUMPDEST SWAP2 POP PUSH2 0x1325 DUP3 PUSH2 0x12C0 JUMP JUMPDEST PUSH1 0x40 DUP3 ADD SWAP1 POP SWAP2 SWAP1 POP JUMP JUMPDEST PUSH0 PUSH1 0x20 DUP3 ADD SWAP1 POP DUP2 DUP2 SUB PUSH0 DUP4 ADD MSTORE PUSH2 0x1347 DUP2 PUSH2 0x130E JUMP JUMPDEST SWAP1 POP SWAP2 SWAP1 POP JUMP JUMPDEST PUSH32 0x4D65746145524332303A207472616E7366657220616D6F756E74206578636565 PUSH0 DUP3 ADD MSTORE PUSH32 0x64732062616C616E636500000000000000000000000000000000000000000000 PUSH1 0x20 DUP3 ADD MSTORE POP JUMP JUMPDEST PUSH0 PUSH2 0x13A8 PUSH1 0x2A DUP4 PUSH2 0x109E JUMP JUMPDEST SWAP2 POP PUSH2 0x13B3 DUP3 PUSH2 0x134E JUMP JUMPDEST PUSH1 0x40 DUP3 ADD SWAP1 POP SWAP2 SWAP1 POP JUMP JUMPDEST PUSH0 PUSH1 0x20 DUP3 ADD SWAP1 POP DUP2 DUP2 SUB PUSH0 DUP4 ADD MSTORE PUSH2 0x13D5 DUP2 PUSH2 0x139C JUMP JUMPDEST SWAP1 POP SWAP2 SWAP1 POP JUMP JUMPDEST PUSH32 0x4D65746145524332303A207472616E7366657220616D6F756E74206578636565 PUSH0 DUP3 ADD MSTORE PUSH32 0x647320616C6C6F77616E63650000000000000000000000000000000000000000 PUSH1 0x20 DUP3 ADD MSTORE POP JUMP JUMPDEST PUSH0 PUSH2 0x1436 PUSH1 0x2C DUP4 PUSH2 0x109E JUMP JUMPDEST SWAP2 POP PUSH2 0x1441 DUP3 PUSH2 0x13DC JUMP JUMPDEST PUSH1 0x40 DUP3 ADD SWAP1 POP SWAP2 SWAP1 POP JUMP JUMPDEST PUSH0 PUSH1 0x20 DUP3 ADD SWAP1 POP DUP2 DUP2 SUB PUSH0 DUP4 ADD MSTORE PUSH2 0x1463 DUP2 PUSH2 0x142A JUMP JUMPDEST SWAP1 POP SWAP2 SWAP1 POP JUMP JUMPDEST PUSH32 0x4D65746145524332303A207472616E7366657220746F20746865207A65726F20 PUSH0 DUP3 ADD MSTORE PUSH32 0x6164647265737300000000000000000000000000000000000000000000000000 PUSH1 0x20 DUP3 ADD MSTORE POP JUMP JUMPDEST PUSH0 PUSH2 0x14C4 PUSH1 0x27 DUP4 PUSH2 0x109E JUMP JUMPDEST SWAP2 POP PUSH2 0x14CF DUP3 PUSH2 0x146A JUMP JUMPDEST PUSH1 0x40 DUP3 ADD SWAP1 POP SWAP2 SWAP1 POP JUMP JUMPDEST PUSH0 PUSH1 0x20 DUP3 ADD SWAP1 POP DUP2 DUP2 SUB PUSH0 DUP4 ADD MSTORE PUSH2 0x14F1 DUP2 PUSH2 0x14B8 JUMP JUMPDEST SWAP1 POP SWAP2 SWAP1 POP JUMP JUMPDEST PUSH32 0x4D65746145524332303A207472616E7366657220616D6F756E74206D75737420 PUSH0 DUP3 ADD MSTORE PUSH32 0x62652067726561746572207468616E207A65726F000000000000000000000000 PUSH1 0x20 DUP3 ADD MSTORE POP JUMP JUMPDEST PUSH0 PUSH2 0x1552 PUSH1 0x34 DUP4 PUSH2 0x109E JUMP JUMPDEST SWAP2 POP PUSH2 0x155D DUP3 PUSH2 0x14F8 JUMP JUMPDEST PUSH1 0x40 DUP3 ADD SWAP1 POP SWAP2 SWAP1 POP JUMP JUMPDEST PUSH0 PUSH1 0x20 DUP3 ADD SWAP1 POP DUP2 DUP2 SUB PUSH0 DUP4 ADD MSTORE PUSH2 0x157F DUP2 PUSH2 0x1546 JUMP JUMPDEST SWAP1 POP SWAP2 SWAP1 POP JUMP JUMPDEST PUSH32 0x4E487B7100000000000000000000000000000000000000000000000000000000 PUSH0 MSTORE PUSH1 0x11 PUSH1 0x4 MSTORE PUSH1 0x24 PUSH0 REVERT JUMPDEST PUSH0 PUSH2 0x15BD DUP3 PUSH2 0xF19 JUMP JUMPDEST SWAP2 POP PUSH2 0x15C8 DUP4 PUSH2 0xF19 JUMP JUMPDEST SWAP3 POP DUP3 DUP3 SUB SWAP1 POP DUP2 DUP2 GT ISZERO PUSH2 0x15E0 JUMPI PUSH2 0x15DF PUSH2 0x1586 JUMP JUMPDEST JUMPDEST SWAP3 SWAP2 POP POP JUMP JUMPDEST PUSH0 PUSH2 0x15F0 DUP3 PUSH2 0xF19 JUMP JUMPDEST SWAP2 POP PUSH2 0x15FB DUP4 PUSH2 0xF19 JUMP JUMPDEST SWAP3 POP DUP3 DUP3 ADD SWAP1 POP DUP1 DUP3 GT ISZERO PUSH2 0x1613 JUMPI PUSH2 0x1612 PUSH2 0x1586 JUMP JUMPDEST JUMPDEST SWAP3 SWAP2 POP POP JUMP JUMPDEST PUSH32 0x4D65746145524332303A206D696E742066726F6D206E6F6E2D6F776E65720000 PUSH0 DUP3 ADD MSTORE POP JUMP JUMPDEST PUSH0 PUSH2 0x164D PUSH1 0x1E DUP4 PUSH2 0x109E JUMP JUMPDEST SWAP2 POP PUSH2 0x1658 DUP3 PUSH2 0x1619 JUMP JUMPDEST PUSH1 0x20 DUP3 ADD SWAP1 POP SWAP2 SWAP1 POP JUMP JUMPDEST PUSH0 PUSH1 0x20 DUP3 ADD SWAP1 POP DUP2 DUP2 SUB PUSH0 DUP4 ADD MSTORE PUSH2 0x167A DUP2 PUSH2 0x1641 JUMP JUMPDEST SWAP1 POP SWAP2 SWAP1 POP JUMP JUMPDEST PUSH32 0x4D65746145524332303A206D696E7420746F20746865207A65726F2061646472 PUSH0 DUP3 ADD MSTORE PUSH32 0x6573730000000000000000000000000000000000000000000000000000000000 PUSH1 0x20 DUP3 ADD MSTORE POP JUMP JUMPDEST PUSH0 PUSH2 0x16DB PUSH1 0x23 DUP4 PUSH2 0x109E JUMP JUMPDEST SWAP2 POP PUSH2 0x16E6 DUP3 PUSH2 0x1681 JUMP JUMPDEST PUSH1 0x40 DUP3 ADD SWAP1 POP SWAP2 SWAP1 POP JUMP JUMPDEST PUSH0 PUSH1 0x20 DUP3 ADD SWAP1 POP DUP2 DUP2 SUB PUSH0 DUP4 ADD MSTORE PUSH2 0x1708 DUP2 PUSH2 0x16CF JUMP JUMPDEST SWAP1 POP SWAP2 SWAP1 POP JUMP JUMPDEST PUSH32 0x4D65746145524332303A206D696E7420616D6F756E74206D7573742062652067 PUSH0 DUP3 ADD MSTORE PUSH32 0x726561746572207468616E207A65726F00000000000000000000000000000000 PUSH1 0x20 DUP3 ADD MSTORE POP JUMP JUMPDEST PUSH0 PUSH2 0x1769 PUSH1 0x30 DUP4 PUSH2 0x109E JUMP JUMPDEST SWAP2 POP PUSH2 0x1774 DUP3 PUSH2 0x170F JUMP JUMPDEST PUSH1 0x40 DUP3 ADD SWAP1 POP SWAP2 SWAP1 POP JUMP JUMPDEST PUSH0 PUSH1 0x20 DUP3 ADD SWAP1 POP DUP2 DUP2 SUB PUSH0 DUP4 ADD MSTORE PUSH2 0x1796 DUP2 PUSH2 0x175D JUMP JUMPDEST SWAP1 POP SWAP2 SWAP1 POP JUMP INVALID LOG2 PUSH5 0x6970667358 0x22 SLT KECCAK256 BLOBHASH NUMBER SWAP9 LOG0 CALLDATASIZE GAS CALLDATACOPY 0xC2 MSTORE8 GT BLOCKHASH SWAP15 0xDF DUP1 0xC0 SMOD RJUMP 0xA1F6 0xD 0xEB 0xBA 0x21 LOG2 0xB9 0x22 LOG3 LOG1 PUSH31 0x7B223664736F6C634300081E00330000000000000000000000000000000000 "
				},
				"gasEstimates": {
					"creation": {
						"codeDepositCost": "1219800",
						"executionCost": "infinite",
						"totalCost": "infinite"
					},
					"external": {
						"allowance(address,address)": "infinite",
						"approve(address,uint256)": "infinite",
						"balanceOf(address)": "2851",
						"mint(address,uint256)": "infinite",
						"totalSupply()": "2455",
						"transfer(address,uint256)": "infinite",
						"transferFrom(address,address,uint256)": "infinite"
					}
				},
				"methodIdentifiers": {
					"allowance(address,address)": "dd62ed3e",
					"approve(address,uint256)": "095ea7b3",
					"balanceOf(address)": "70a08231",
					"mint(address,uint256)": "40c10f19",
					"totalSupply()": "18160ddd",
					"transfer(address,uint256)": "a9059cbb",
					"transferFrom(address,address,uint256)": "23b872dd"
				}
			},
			"storageLayout": {
				"storage": [
					{
						"astId": 84,
						"contract": "contracts/MetaERC20.sol:MetaERC20",
						"label": "_owner",
						"offset": 0,
						"slot": "0",
						"type": "t_address"
					},
					{
						"astId": 88,
						"contract": "contracts/MetaERC20.sol:MetaERC20",
						"label": "_balances",
						"offset": 0,
						"slot": "1",
						"type": "t_mapping(t_address,t_uint256)"
					},
					{
						"astId": 94,
						"contract": "contracts/MetaERC20.sol:MetaERC20",
						"label": "_allowances",
						"offset": 0,
						"slot": "2",
						"type": "t_mapping(t_address,t_mapping(t_address,t_uint256))"
					},
					{
						"astId": 96,
						"contract": "contracts/MetaERC20.sol:MetaERC20",
						"label": "_totalSupply",
						"offset": 0,
						"slot": "3",
						"type": "t_uint256"
					},
					{
						"astId": 98,
						"contract": "contracts/MetaERC20.sol:MetaERC20",
						"label": "_name",
						"offset": 0,
						"slot": "4",
						"type": "t_string_storage"
					},
					{
						"astId": 100,
						"contract": "contracts/MetaERC20.sol:MetaERC20",
						"label": "_symbol",
						"offset": 0,
						"slot": "5",
						"type": "t_string_storage"
					}
				],
				"types": {
					"t_address": {
						"encoding": "inplace",
						"label": "address",
						"numberOfBytes": "20"
					},
					"t_mapping(t_address,t_mapping(t_address,t_uint256))": {
						"encoding": "mapping",
						"key": "t_address",
						"label": "mapping(address => mapping(address => uint256))",
						"numberOfBytes": "32",
						"value": "t_mapping(t_address,t_uint256)"
					},
					"t_mapping(t_address,t_uint256)": {
						"encoding": "mapping",
						"key": "t_address",
						"label": "mapping(address => uint256)",
						"numberOfBytes": "32",
						"value": "t_uint256"
					},
					"t_string_storage": {
						"encoding": "bytes",
						"label": "string",
						"numberOfBytes": "32"
					},
					"t_uint256": {
						"encoding": "inplace",
						"label": "uint256",
						"numberOfBytes": "32"
					}
				}
			},
			"userdoc": {
				"kind": "user",
				"methods": {},
				"version": 1
			}
		}
	}
}