{
	"contracts/BeggingContract.sol": {
		"BeggingContract": {
			"abi": [
				{
					"inputs": [
						{
							"internalType": "uint256",
							"name": "duration",
							"type": "uint256"
						}
					],
					"stateMutability": "nonpayable",
					"type": "constructor"
				},
				{
					"inputs": [
						{
							"internalType": "address",
							"name": "owner",
							"type": "address"
						}
					],
					"name": "OwnableInvalidOwner",
					"type": "error"
				},
				{
					"inputs": [
						{
							"internalType": "address",
							"name": "account",
							"type": "address"
						}
					],
					"name": "OwnableUnauthorizedAccount",
					"type": "error"
				},
				{
					"anonymous": false,
					"inputs": [
						{
							"indexed": true,
							"internalType": "address",
							"name": "donator",
							"type": "address"
						},
						{
							"indexed": false,
							"internalType": "uint256",
							"name": "amount",
							"type": "uint256"
						}
					],
					"name": "Donation",
					"type": "event"
				},
				{
					"anonymous": false,
					"inputs": [
						{
							"indexed": true,
							"internalType": "address",
							"name": "previousOwner",
							"type": "address"
						},
						{
							"indexed": true,
							"internalType": "address",
							"name": "newOwner",
							"type": "address"
						}
					],
					"name": "OwnershipTransferred",
					"type": "event"
				},
				{
					"stateMutability": "payable",
					"type": "fallback"
				},
				{
					"inputs": [],
					"name": "donate",
					"outputs": [],
					"stateMutability": "payable",
					"type": "function"
				},
				{
					"inputs": [
						{
							"internalType": "address",
							"name": "donator",
							"type": "address"
						}
					],
					"name": "donations",
					"outputs": [
						{
							"internalType": "uint256",
							"name": "amount",
							"type": "uint256"
						}
					],
					"stateMutability": "view",
					"type": "function"
				},
				{
					"inputs": [],
					"name": "endTime",
					"outputs": [
						{
							"internalType": "uint256",
							"name": "",
							"type": "uint256"
						}
					],
					"stateMutability": "view",
					"type": "function"
				},
				{
					"inputs": [
						{
							"internalType": "address",
							"name": "donator",
							"type": "address"
						}
					],
					"name": "getDonation",
					"outputs": [
						{
							"internalType": "uint256",
							"name": "",
							"type": "uint256"
						}
					],
					"stateMutability": "view",
					"type": "function"
				},
				{
					"inputs": [],
					"name": "getTop3Donors",
					"outputs": [
						{
							"components": [
								{
									"internalType": "address",
									"name": "donator",
									"type": "address"
								},
								{
									"internalType": "uint256",
									"name": "amount",
									"type": "uint256"
								}
							],
							"internalType": "struct BeggingContract.Donor[3]",
							"name": "",
							"type": "tuple[3]"
						}
					],
					"stateMutability": "view",
					"type": "function"
				},
				{
					"inputs": [],
					"name": "owner",
					"outputs": [
						{
							"internalType": "address",
							"name": "",
							"type": "address"
						}
					],
					"stateMutability": "view",
					"type": "function"
				},
				{
					"inputs": [],
					"name": "renounceOwnership",
					"outputs": [],
					"stateMutability": "nonpayable",
					"type": "function"
				},
				{
					"inputs": [],
					"name": "startTime",
					"outputs": [
						{
							"internalType": "uint256",
							"name": "",
							"type": "uint256"
						}
					],
					"stateMutability": "view",
					"type": "function"
				},
				{
					"inputs": [],
					"name": "totalDonations",
					"outputs": [
						{
							"internalType": "uint256",
							"name": "",
							"type": "uint256"
						}
					],
					"stateMutability": "view",
					"type": "function"
				},
				{
					"inputs": [
						{
							"internalType": "address",
							"name": "newOwner",
							"type": "address"
						}
					],
					"name": "transferOwnership",
					"outputs": [],
					"stateMutability": "nonpayable",
					"type": "function"
				},
				{
					"inputs": [],
					"name": "withdraw",
					"outputs": [],
					"stateMutability": "nonpayable",
					"type": "function"
				},
				{
					"stateMutability": "payable",
					"type": "receive"
				}
			],
			"devdoc": {
				"errors": {
					"OwnableInvalidOwner(address)": [
						{
							"details": "The owner is not a valid owner account. (eg. `address(0)`)"
						}
					],
					"OwnableUnauthorizedAccount(address)": [
						{
							"details": "The caller account is not authorized to perform an operation."
						}
					]
				},
				"kind": "dev",
				"methods": {
					"owner()": {
						"details": "Returns the address of the current owner."
					},
					"renounceOwnership()": {
						"details": "Leaves the contract without owner. It will not be possible to call `onlyOwner` functions. Can only be called by the current owner. NOTE: Renouncing ownership will leave the contract without an owner, thereby disabling any functionality that is only available to the owner."
					},
					"transferOwnership(address)": {
						"details": "Transfers ownership of the contract to a new account (`newOwner`). Can only be called by the current owner."
					}
				},
				"version": 1
			},
			"evm": {
				"assembly": "    /* \"contracts/BeggingContract.sol\":140:3634  contract BeggingContract is Ownable {... */\n  mstore(0x40, 0x80)\n    /* \"contracts/BeggingContract.sol\":647:772  constructor(uint256 duration) Ownable(msg.sender) {... */\n  callvalue\n  dup1\n  iszero\n  tag_1\n  jumpi\n  revert(0x00, 0x00)\ntag_1:\n  pop\n  mload(0x40)\n  sub(codesize, bytecodeSize)\n  dup1\n  bytecodeSize\n  dup4\n  codecopy\n  dup2\n  dup2\n  add\n  0x40\n  mstore\n  dup2\n  add\n  swap1\n  tag_2\n  swap2\n  swap1\n  tag_3\n  jump\t// in\ntag_2:\n    /* \"contracts/BeggingContract.sol\":685:695  msg.sender */\n  caller\n    /* \"@openzeppelin/contracts/access/Ownable.sol\":1297:1298  0 */\n  0x00\n    /* \"@openzeppelin/contracts/access/Ownable.sol\":1273:1299  initialOwner == address(0) */\n  0xffffffffffffffffffffffffffffffffffffffff\n  and\n    /* \"@openzeppelin/contracts/access/Ownable.sol\":1273:1285  initialOwner */\n  dup2\n    /* \"@openzeppelin/contracts/access/Ownable.sol\":1273:1299  initialOwner == address(0) */\n  0xffffffffffffffffffffffffffffffffffffffff\n  and\n  sub\n    /* \"@openzeppelin/contracts/access/Ownable.sol\":1269:1364  if (initialOwner == address(0)) {... */\n  tag_7\n  jumpi\n    /* \"@openzeppelin/contracts/access/Ownable.sol\":1350:1351  0 */\n  0x00\n    /* \"@openzeppelin/contracts/access/Ownable.sol\":1322:1353  OwnableInvalidOwner(address(0)) */\n  mload(0x40)\n  0x1e4fbdf700000000000000000000000000000000000000000000000000000000\n  dup2\n  mstore\n  0x04\n  add\n  tag_8\n  swap2\n  swap1\n  tag_9\n  jump\t// in\ntag_8:\n  mload(0x40)\n  dup1\n  swap2\n  sub\n  swap1\n  revert\n    /* \"@openzeppelin/contracts/access/Ownable.sol\":1269:1364  if (initialOwner == address(0)) {... */\ntag_7:\n    /* \"@openzeppelin/contracts/access/Ownable.sol\":1373:1405  _transferOwnership(initialOwner) */\n  tag_10\n    /* \"@openzeppelin/contracts/access/Ownable.sol\":1392:1404  initialOwner */\n  dup2\n    /* \"@openzeppelin/contracts/access/Ownable.sol\":1373:1391  _transferOwnership */\n  shl(0x20, tag_11)\n    /* \"@openzeppelin/contracts/access/Ownable.sol\":1373:1405  _transferOwnership(initialOwner) */\n  0x20\n  shr\n  jump\t// in\ntag_10:\n    /* \"@openzeppelin/contracts/access/Ownable.sol\":1225:1412  constructor(address initialOwner) {... */\n  pop\n    /* \"contracts/BeggingContract.sol\":713:728  block.timestamp */\n  timestamp\n    /* \"contracts/BeggingContract.sol\":701:710  startTime */\n  0x03\n    /* \"contracts/BeggingContract.sol\":701:728  startTime = block.timestamp */\n  dup2\n  swap1\n  sstore\n  pop\n    /* \"contracts/BeggingContract.sol\":760:768  duration */\n  dup1\n    /* \"contracts/BeggingContract.sol\":742:757  block.timestamp */\n  timestamp\n    /* \"contracts/BeggingContract.sol\":742:768  block.timestamp + duration */\n  tag_13\n  swap2\n  swap1\n  tag_14\n  jump\t// in\ntag_13:\n    /* \"contracts/BeggingContract.sol\":732:739  endTime */\n  0x04\n    /* \"contracts/BeggingContract.sol\":732:768  endTime = block.timestamp + duration */\n  dup2\n  swap1\n  sstore\n  pop\n    /* \"contracts/BeggingContract.sol\":647:772  constructor(uint256 duration) Ownable(msg.sender) {... */\n  pop\n    /* \"contracts/BeggingContract.sol\":140:3634  contract BeggingContract is Ownable {... */\n  jump(tag_15)\n    /* \"@openzeppelin/contracts/access/Ownable.sol\":2912:3099  function _transferOwnership(address newOwner) internal virtual {... */\ntag_11:\n    /* \"@openzeppelin/contracts/access/Ownable.sol\":2985:3001  address oldOwner */\n  0x00\n    /* \"@openzeppelin/contracts/access/Ownable.sol\":3004:3010  _owner */\n  0x00\n  0x00\n  swap1\n  sload\n  swap1\n  0x0100\n  exp\n  swap1\n  div\n  0xffffffffffffffffffffffffffffffffffffffff\n  and\n    /* \"@openzeppelin/contracts/access/Ownable.sol\":2985:3010  address oldOwner = _owner */\n  swap1\n  pop\n    /* \"@openzeppelin/contracts/access/Ownable.sol\":3029:3037  newOwner */\n  dup2\n    /* \"@openzeppelin/contracts/access/Ownable.sol\":3020:3026  _owner */\n  0x00\n  0x00\n    /* \"@openzeppelin/contracts/access/Ownable.sol\":3020:3037  _owner = newOwner */\n  0x0100\n  exp\n  dup2\n  sload\n  dup2\n  0xffffffffffffffffffffffffffffffffffffffff\n  mul\n  not\n  and\n  swap1\n  dup4\n  0xffffffffffffffffffffffffffffffffffffffff\n  and\n  mul\n  or\n  swap1\n  sstore\n  pop\n    /* \"@openzeppelin/contracts/access/Ownable.sol\":3083:3091  newOwner */\n  dup2\n    /* \"@openzeppelin/contracts/access/Ownable.sol\":3052:3092  OwnershipTransferred(oldOwner, newOwner) */\n  0xffffffffffffffffffffffffffffffffffffffff\n  and\n    /* \"@openzeppelin/contracts/access/Ownable.sol\":3073:3081  oldOwner */\n  dup2\n    /* \"@openzeppelin/contracts/access/Ownable.sol\":3052:3092  OwnershipTransferred(oldOwner, newOwner) */\n  0xffffffffffffffffffffffffffffffffffffffff\n  and\n  0x8be0079c531659141344cd1fd0a4f28419497f9722a3daafe3b4186f6b6457e0\n  mload(0x40)\n  mload(0x40)\n  dup1\n  swap2\n  sub\n  swap1\n  log3\n    /* \"@openzeppelin/contracts/access/Ownable.sol\":2975:3099  {... */\n  pop\n    /* \"@openzeppelin/contracts/access/Ownable.sol\":2912:3099  function _transferOwnership(address newOwner) internal virtual {... */\n  pop\n  jump\t// out\n    /* \"#utility.yul\":88:205   */\ntag_18:\n    /* \"#utility.yul\":197:198   */\n  0x00\n    /* \"#utility.yul\":194:195   */\n  0x00\n    /* \"#utility.yul\":187:199   */\n  revert\n    /* \"#utility.yul\":334:411   */\ntag_20:\n    /* \"#utility.yul\":371:378   */\n  0x00\n    /* \"#utility.yul\":400:405   */\n  dup2\n    /* \"#utility.yul\":389:405   */\n  swap1\n  pop\n    /* \"#utility.yul\":334:411   */\n  swap2\n  swap1\n  pop\n  jump\t// out\n    /* \"#utility.yul\":417:539   */\ntag_21:\n    /* \"#utility.yul\":490:514   */\n  tag_33\n    /* \"#utility.yul\":508:513   */\n  dup2\n    /* \"#utility.yul\":490:514   */\n  tag_20\n  jump\t// in\ntag_33:\n    /* \"#utility.yul\":483:488   */\n  dup2\n    /* \"#utility.yul\":480:515   */\n  eq\n    /* \"#utility.yul\":470:533   */\n  tag_34\n  jumpi\n    /* \"#utility.yul\":529:530   */\n  0x00\n    /* \"#utility.yul\":526:527   */\n  0x00\n    /* \"#utility.yul\":519:531   */\n  revert\n    /* \"#utility.yul\":470:533   */\ntag_34:\n    /* \"#utility.yul\":417:539   */\n  pop\n  jump\t// out\n    /* \"#utility.yul\":545:688   */\ntag_22:\n    /* \"#utility.yul\":602:607   */\n  0x00\n    /* \"#utility.yul\":633:639   */\n  dup2\n    /* \"#utility.yul\":627:640   */\n  mload\n    /* \"#utility.yul\":618:640   */\n  swap1\n  pop\n    /* \"#utility.yul\":649:682   */\n  tag_36\n    /* \"#utility.yul\":676:681   */\n  dup2\n    /* \"#utility.yul\":649:682   */\n  tag_21\n  jump\t// in\ntag_36:\n    /* \"#utility.yul\":545:688   */\n  swap3\n  swap2\n  pop\n  pop\n  jump\t// out\n    /* \"#utility.yul\":694:1045   */\ntag_3:\n    /* \"#utility.yul\":764:770   */\n  0x00\n    /* \"#utility.yul\":813:815   */\n  0x20\n    /* \"#utility.yul\":801:810   */\n  dup3\n    /* \"#utility.yul\":792:799   */\n  dup5\n    /* \"#utility.yul\":788:811   */\n  sub\n    /* \"#utility.yul\":784:816   */\n  slt\n    /* \"#utility.yul\":781:900   */\n  iszero\n  tag_38\n  jumpi\n    /* \"#utility.yul\":819:898   */\n  tag_39\n  tag_18\n  jump\t// in\ntag_39:\n    /* \"#utility.yul\":781:900   */\ntag_38:\n    /* \"#utility.yul\":939:940   */\n  0x00\n    /* \"#utility.yul\":964:1028   */\n  tag_40\n    /* \"#utility.yul\":1020:1027   */\n  dup5\n    /* \"#utility.yul\":1011:1017   */\n  dup3\n    /* \"#utility.yul\":1000:1009   */\n  dup6\n    /* \"#utility.yul\":996:1018   */\n  add\n    /* \"#utility.yul\":964:1028   */\n  tag_22\n  jump\t// in\ntag_40:\n    /* \"#utility.yul\":954:1028   */\n  swap2\n  pop\n    /* \"#utility.yul\":910:1038   */\n  pop\n    /* \"#utility.yul\":694:1045   */\n  swap3\n  swap2\n  pop\n  pop\n  jump\t// out\n    /* \"#utility.yul\":1051:1177   */\ntag_23:\n    /* \"#utility.yul\":1088:1095   */\n  0x00\n    /* \"#utility.yul\":1128:1170   */\n  0xffffffffffffffffffffffffffffffffffffffff\n    /* \"#utility.yul\":1121:1126   */\n  dup3\n    /* \"#utility.yul\":1117:1171   */\n  and\n    /* \"#utility.yul\":1106:1171   */\n  swap1\n  pop\n    /* \"#utility.yul\":1051:1177   */\n  swap2\n  swap1\n  pop\n  jump\t// out\n    /* \"#utility.yul\":1183:1279   */\ntag_24:\n    /* \"#utility.yul\":1220:1227   */\n  0x00\n    /* \"#utility.yul\":1249:1273   */\n  tag_43\n    /* \"#utility.yul\":1267:1272   */\n  dup3\n    /* \"#utility.yul\":1249:1273   */\n  tag_23\n  jump\t// in\ntag_43:\n    /* \"#utility.yul\":1238:1273   */\n  swap1\n  pop\n    /* \"#utility.yul\":1183:1279   */\n  swap2\n  swap1\n  pop\n  jump\t// out\n    /* \"#utility.yul\":1285:1403   */\ntag_25:\n    /* \"#utility.yul\":1372:1396   */\n  tag_45\n    /* \"#utility.yul\":1390:1395   */\n  dup2\n    /* \"#utility.yul\":1372:1396   */\n  tag_24\n  jump\t// in\ntag_45:\n    /* \"#utility.yul\":1367:1370   */\n  dup3\n    /* \"#utility.yul\":1360:1397   */\n  mstore\n    /* \"#utility.yul\":1285:1403   */\n  pop\n  pop\n  jump\t// out\n    /* \"#utility.yul\":1409:1631   */\ntag_9:\n    /* \"#utility.yul\":1502:1506   */\n  0x00\n    /* \"#utility.yul\":1540:1542   */\n  0x20\n    /* \"#utility.yul\":1529:1538   */\n  dup3\n    /* \"#utility.yul\":1525:1543   */\n  add\n    /* \"#utility.yul\":1517:1543   */\n  swap1\n  pop\n    /* \"#utility.yul\":1553:1624   */\n  tag_47\n    /* \"#utility.yul\":1621:1622   */\n  0x00\n    /* \"#utility.yul\":1610:1619   */\n  dup4\n    /* \"#utility.yul\":1606:1623   */\n  add\n    /* \"#utility.yul\":1597:1603   */\n  dup5\n    /* \"#utility.yul\":1553:1624   */\n  tag_25\n  jump\t// in\ntag_47:\n    /* \"#utility.yul\":1409:1631   */\n  swap3\n  swap2\n  pop\n  pop\n  jump\t// out\n    /* \"#utility.yul\":1637:1817   */\ntag_26:\n    /* \"#utility.yul\":1685:1762   */\n  0x4e487b7100000000000000000000000000000000000000000000000000000000\n    /* \"#utility.yul\":1682:1683   */\n  0x00\n    /* \"#utility.yul\":1675:1763   */\n  mstore\n    /* \"#utility.yul\":1782:1786   */\n  0x11\n    /* \"#utility.yul\":1779:1780   */\n  0x04\n    /* \"#utility.yul\":1772:1787   */\n  mstore\n    /* \"#utility.yul\":1806:1810   */\n  0x24\n    /* \"#utility.yul\":1803:1804   */\n  0x00\n    /* \"#utility.yul\":1796:1811   */\n  revert\n    /* \"#utility.yul\":1823:2014   */\ntag_14:\n    /* \"#utility.yul\":1863:1866   */\n  0x00\n    /* \"#utility.yul\":1882:1902   */\n  tag_50\n    /* \"#utility.yul\":1900:1901   */\n  dup3\n    /* \"#utility.yul\":1882:1902   */\n  tag_20\n  jump\t// in\ntag_50:\n    /* \"#utility.yul\":1877:1902   */\n  swap2\n  pop\n    /* \"#utility.yul\":1916:1936   */\n  tag_51\n    /* \"#utility.yul\":1934:1935   */\n  dup4\n    /* \"#utility.yul\":1916:1936   */\n  tag_20\n  jump\t// in\ntag_51:\n    /* \"#utility.yul\":1911:1936   */\n  swap3\n  pop\n    /* \"#utility.yul\":1959:1960   */\n  dup3\n    /* \"#utility.yul\":1956:1957   */\n  dup3\n    /* \"#utility.yul\":1952:1961   */\n  add\n    /* \"#utility.yul\":1945:1961   */\n  swap1\n  pop\n    /* \"#utility.yul\":1980:1983   */\n  dup1\n    /* \"#utility.yul\":1977:1978   */\n  dup3\n    /* \"#utility.yul\":1974:1984   */\n  gt\n    /* \"#utility.yul\":1971:2007   */\n  iszero\n  tag_52\n  jumpi\n    /* \"#utility.yul\":1987:2005   */\n  tag_53\n  tag_26\n  jump\t// in\ntag_53:\n    /* \"#utility.yul\":1971:2007   */\ntag_52:\n    /* \"#utility.yul\":1823:2014   */\n  swap3\n  swap2\n  pop\n  pop\n  jump\t// out\n    /* \"contracts/BeggingContract.sol\":140:3634  contract BeggingContract is Ownable {... */\ntag_15:\n  dataSize(sub_0)\n  dup1\n  dataOffset(sub_0)\n  0x00\n  codecopy\n  0x00\n  return\nstop\n\nsub_0: assembly {\n        /* \"contracts/BeggingContract.sol\":140:3634  contract BeggingContract is Ownable {... */\n      mstore(0x40, 0x80)\n      jumpi(tag_1, lt(calldatasize, 0x04))\n      shr(0xe0, calldataload(0x00))\n      dup1\n      0x78e97925\n      gt\n      tag_14\n      jumpi\n      dup1\n      0x78e97925\n      eq\n      tag_8\n      jumpi\n      dup1\n      0x8da5cb5b\n      eq\n      tag_9\n      jumpi\n      dup1\n      0xcc6cb19a\n      eq\n      tag_10\n      jumpi\n      dup1\n      0xde2ed893\n      eq\n      tag_11\n      jumpi\n      dup1\n      0xed88c68e\n      eq\n      tag_12\n      jumpi\n      dup1\n      0xf2fde38b\n      eq\n      tag_13\n      jumpi\n      jump(tag_2)\n    tag_14:\n      dup1\n      0x2d1e2518\n      eq\n      tag_3\n      jumpi\n      dup1\n      0x3197cbb6\n      eq\n      tag_4\n      jumpi\n      dup1\n      0x3ccfd60b\n      eq\n      tag_5\n      jumpi\n      dup1\n      0x410a1d32\n      eq\n      tag_6\n      jumpi\n      dup1\n      0x715018a6\n      eq\n      tag_7\n      jumpi\n      jump(tag_2)\n    tag_1:\n      jumpi(tag_2, calldatasize)\n        /* \"contracts/BeggingContract.sol\":3620:3628  donate() */\n      tag_17\n        /* \"contracts/BeggingContract.sol\":3620:3626  donate */\n      tag_18\n        /* \"contracts/BeggingContract.sol\":3620:3628  donate() */\n      jump\t// in\n    tag_17:\n        /* \"contracts/BeggingContract.sol\":140:3634  contract BeggingContract is Ownable {... */\n      stop\n    tag_2:\n        /* \"contracts/BeggingContract.sol\":3500:3508  donate() */\n      tag_21\n        /* \"contracts/BeggingContract.sol\":3500:3506  donate */\n      tag_18\n        /* \"contracts/BeggingContract.sol\":3500:3508  donate() */\n      jump\t// in\n    tag_21:\n        /* \"contracts/BeggingContract.sol\":140:3634  contract BeggingContract is Ownable {... */\n      stop\n        /* \"contracts/BeggingContract.sol\":3302:3390  function getTop3Donors() public view returns (Donor[3] memory) {... */\n    tag_3:\n      callvalue\n      dup1\n      iszero\n      tag_22\n      jumpi\n      revert(0x00, 0x00)\n    tag_22:\n      pop\n      tag_23\n      tag_24\n      jump\t// in\n    tag_23:\n      mload(0x40)\n      tag_25\n      swap2\n      swap1\n      tag_26\n      jump\t// in\n    tag_25:\n      mload(0x40)\n      dup1\n      swap2\n      sub\n      swap1\n      return\n        /* \"contracts/BeggingContract.sol\":474:496  uint256 public endTime */\n    tag_4:\n      callvalue\n      dup1\n      iszero\n      tag_27\n      jumpi\n      revert(0x00, 0x00)\n    tag_27:\n      pop\n      tag_28\n      tag_29\n      jump\t// in\n    tag_28:\n      mload(0x40)\n      tag_30\n      swap2\n      swap1\n      tag_31\n      jump\t// in\n    tag_30:\n      mload(0x40)\n      dup1\n      swap2\n      sub\n      swap1\n      return\n        /* \"contracts/BeggingContract.sol\":1475:1799  function withdraw() public onlyOwner {... */\n    tag_5:\n      callvalue\n      dup1\n      iszero\n      tag_32\n      jumpi\n      revert(0x00, 0x00)\n    tag_32:\n      pop\n      tag_33\n      tag_34\n      jump\t// in\n    tag_33:\n      stop\n        /* \"contracts/BeggingContract.sol\":1900:2001  function getDonation(address donator) public view returns (uint256) {... */\n    tag_6:\n      callvalue\n      dup1\n      iszero\n      tag_35\n      jumpi\n      revert(0x00, 0x00)\n    tag_35:\n      pop\n      tag_36\n      0x04\n      dup1\n      calldatasize\n      sub\n      dup2\n      add\n      swap1\n      tag_37\n      swap2\n      swap1\n      tag_38\n      jump\t// in\n    tag_37:\n      tag_39\n      jump\t// in\n    tag_36:\n      mload(0x40)\n      tag_40\n      swap2\n      swap1\n      tag_31\n      jump\t// in\n    tag_40:\n      mload(0x40)\n      dup1\n      swap2\n      sub\n      swap1\n      return\n        /* \"@openzeppelin/contracts/access/Ownable.sol\":2293:2394  function renounceOwnership() public virtual onlyOwner {... */\n    tag_7:\n      callvalue\n      dup1\n      iszero\n      tag_41\n      jumpi\n      revert(0x00, 0x00)\n    tag_41:\n      pop\n      tag_42\n      tag_43\n      jump\t// in\n    tag_42:\n      stop\n        /* \"contracts/BeggingContract.sol\":424:448  uint256 public startTime */\n    tag_8:\n      callvalue\n      dup1\n      iszero\n      tag_44\n      jumpi\n      revert(0x00, 0x00)\n    tag_44:\n      pop\n      tag_45\n      tag_46\n      jump\t// in\n    tag_45:\n      mload(0x40)\n      tag_47\n      swap2\n      swap1\n      tag_31\n      jump\t// in\n    tag_47:\n      mload(0x40)\n      dup1\n      swap2\n      sub\n      swap1\n      return\n        /* \"@openzeppelin/contracts/access/Ownable.sol\":1638:1723  function owner() public view virtual returns (address) {... */\n    tag_9:\n      callvalue\n      dup1\n      iszero\n      tag_48\n      jumpi\n      revert(0x00, 0x00)\n    tag_48:\n      pop\n      tag_49\n      tag_50\n      jump\t// in\n    tag_49:\n      mload(0x40)\n      tag_51\n      swap2\n      swap1\n      tag_52\n      jump\t// in\n    tag_51:\n      mload(0x40)\n      dup1\n      swap2\n      sub\n      swap1\n      return\n        /* \"contracts/BeggingContract.sol\":284:343  mapping(address donator => uint256 amount) public donations */\n    tag_10:\n      callvalue\n      dup1\n      iszero\n      tag_53\n      jumpi\n      revert(0x00, 0x00)\n    tag_53:\n      pop\n      tag_54\n      0x04\n      dup1\n      calldatasize\n      sub\n      dup2\n      add\n      swap1\n      tag_55\n      swap2\n      swap1\n      tag_38\n      jump\t// in\n    tag_55:\n      tag_56\n      jump\t// in\n    tag_54:\n      mload(0x40)\n      tag_57\n      swap2\n      swap1\n      tag_31\n      jump\t// in\n    tag_57:\n      mload(0x40)\n      dup1\n      swap2\n      sub\n      swap1\n      return\n        /* \"contracts/BeggingContract.sol\":369:398  uint256 public totalDonations */\n    tag_11:\n      callvalue\n      dup1\n      iszero\n      tag_58\n      jumpi\n      revert(0x00, 0x00)\n    tag_58:\n      pop\n      tag_59\n      tag_60\n      jump\t// in\n    tag_59:\n      mload(0x40)\n      tag_61\n      swap2\n      swap1\n      tag_31\n      jump\t// in\n    tag_61:\n      mload(0x40)\n      dup1\n      swap2\n      sub\n      swap1\n      return\n        /* \"contracts/BeggingContract.sol\":1102:1374  function donate() public payable onlyDuringDonationPeriod {... */\n    tag_12:\n      tag_62\n      tag_18\n      jump\t// in\n    tag_62:\n      stop\n        /* \"@openzeppelin/contracts/access/Ownable.sol\":2543:2758  function transferOwnership(address newOwner) public virtual onlyOwner {... */\n    tag_13:\n      callvalue\n      dup1\n      iszero\n      tag_63\n      jumpi\n      revert(0x00, 0x00)\n    tag_63:\n      pop\n      tag_64\n      0x04\n      dup1\n      calldatasize\n      sub\n      dup2\n      add\n      swap1\n      tag_65\n      swap2\n      swap1\n      tag_38\n      jump\t// in\n    tag_65:\n      tag_66\n      jump\t// in\n    tag_64:\n      stop\n        /* \"contracts/BeggingContract.sol\":1102:1374  function donate() public payable onlyDuringDonationPeriod {... */\n    tag_18:\n        /* \"contracts/BeggingContract.sol\":928:937  startTime */\n      sload(0x03)\n        /* \"contracts/BeggingContract.sol\":909:924  block.timestamp */\n      timestamp\n        /* \"contracts/BeggingContract.sol\":909:937  block.timestamp >= startTime */\n      lt\n      iszero\n        /* \"contracts/BeggingContract.sol\":909:967  block.timestamp >= startTime && block.timestamp <= endTime */\n      dup1\n      iszero\n      tag_68\n      jumpi\n      pop\n        /* \"contracts/BeggingContract.sol\":960:967  endTime */\n      sload(0x04)\n        /* \"contracts/BeggingContract.sol\":941:956  block.timestamp */\n      timestamp\n        /* \"contracts/BeggingContract.sol\":941:967  block.timestamp <= endTime */\n      gt\n      iszero\n        /* \"contracts/BeggingContract.sol\":909:967  block.timestamp >= startTime && block.timestamp <= endTime */\n    tag_68:\n        /* \"contracts/BeggingContract.sol\":901:1016  require(block.timestamp >= startTime && block.timestamp <= endTime, \"Donations are not allowed during this period\") */\n      tag_69\n      jumpi\n      mload(0x40)\n      0x08c379a000000000000000000000000000000000000000000000000000000000\n      dup2\n      mstore\n      0x04\n      add\n      tag_70\n      swap1\n      tag_71\n      jump\t// in\n    tag_70:\n      mload(0x40)\n      dup1\n      swap2\n      sub\n      swap1\n      revert\n    tag_69:\n        /* \"contracts/BeggingContract.sol\":1184:1185  0 */\n      0x00\n        /* \"contracts/BeggingContract.sol\":1172:1181  msg.value */\n      callvalue\n        /* \"contracts/BeggingContract.sol\":1172:1185  msg.value > 0 */\n      gt\n        /* \"contracts/BeggingContract.sol\":1164:1228  require(msg.value > 0, \"Donation amount must be greater than 0\") */\n      tag_73\n      jumpi\n      mload(0x40)\n      0x08c379a000000000000000000000000000000000000000000000000000000000\n      dup2\n      mstore\n      0x04\n      add\n      tag_74\n      swap1\n      tag_75\n      jump\t// in\n    tag_74:\n      mload(0x40)\n      dup1\n      swap2\n      sub\n      swap1\n      revert\n    tag_73:\n        /* \"contracts/BeggingContract.sol\":1257:1266  msg.value */\n      callvalue\n        /* \"contracts/BeggingContract.sol\":1232:1241  donations */\n      0x01\n        /* \"contracts/BeggingContract.sol\":1232:1253  donations[msg.sender] */\n      0x00\n        /* \"contracts/BeggingContract.sol\":1242:1252  msg.sender */\n      caller\n        /* \"contracts/BeggingContract.sol\":1232:1253  donations[msg.sender] */\n      0xffffffffffffffffffffffffffffffffffffffff\n      and\n      0xffffffffffffffffffffffffffffffffffffffff\n      and\n      dup2\n      mstore\n      0x20\n      add\n      swap1\n      dup2\n      mstore\n      0x20\n      add\n      0x00\n      keccak256\n      0x00\n        /* \"contracts/BeggingContract.sol\":1232:1266  donations[msg.sender] += msg.value */\n      dup3\n      dup3\n      sload\n      tag_76\n      swap2\n      swap1\n      tag_77\n      jump\t// in\n    tag_76:\n      swap3\n      pop\n      pop\n      dup2\n      swap1\n      sstore\n      pop\n        /* \"contracts/BeggingContract.sol\":1288:1297  msg.value */\n      callvalue\n        /* \"contracts/BeggingContract.sol\":1270:1284  totalDonations */\n      0x02\n      0x00\n        /* \"contracts/BeggingContract.sol\":1270:1297  totalDonations += msg.value */\n      dup3\n      dup3\n      sload\n      tag_78\n      swap2\n      swap1\n      tag_77\n      jump\t// in\n    tag_78:\n      swap3\n      pop\n      pop\n      dup2\n      swap1\n      sstore\n      pop\n        /* \"contracts/BeggingContract.sol\":1301:1330  _updateTop3Donors(msg.sender) */\n      tag_79\n        /* \"contracts/BeggingContract.sol\":1319:1329  msg.sender */\n      caller\n        /* \"contracts/BeggingContract.sol\":1301:1318  _updateTop3Donors */\n      tag_80\n        /* \"contracts/BeggingContract.sol\":1301:1330  _updateTop3Donors(msg.sender) */\n      jump\t// in\n    tag_79:\n        /* \"contracts/BeggingContract.sol\":1348:1358  msg.sender */\n      caller\n        /* \"contracts/BeggingContract.sol\":1339:1370  Donation(msg.sender, msg.value) */\n      0xffffffffffffffffffffffffffffffffffffffff\n      and\n      0x5d8bc849764969eb1bcc6d0a2f55999d0167c1ccec240a4f39cf664ca9c4148e\n        /* \"contracts/BeggingContract.sol\":1360:1369  msg.value */\n      callvalue\n        /* \"contracts/BeggingContract.sol\":1339:1370  Donation(msg.sender, msg.value) */\n      mload(0x40)\n      tag_81\n      swap2\n      swap1\n      tag_31\n      jump\t// in\n    tag_81:\n      mload(0x40)\n      dup1\n      swap2\n      sub\n      swap1\n      log2\n        /* \"contracts/BeggingContract.sol\":1102:1374  function donate() public payable onlyDuringDonationPeriod {... */\n      jump\t// out\n        /* \"contracts/BeggingContract.sol\":3302:3390  function getTop3Donors() public view returns (Donor[3] memory) {... */\n    tag_24:\n        /* \"contracts/BeggingContract.sol\":3348:3363  Donor[3] memory */\n      tag_82\n      tag_83\n      jump\t// in\n    tag_82:\n        /* \"contracts/BeggingContract.sol\":3376:3386  top3Donors */\n      0x05\n        /* \"contracts/BeggingContract.sol\":3369:3386  return top3Donors */\n      0x03\n      dup1\n      0x20\n      mul\n      mload(0x40)\n      swap1\n      dup2\n      add\n      0x40\n      mstore\n      dup1\n      swap3\n      swap2\n      swap1\n      0x00\n      swap1\n    tag_85:\n      dup3\n      dup3\n      lt\n      iszero\n      tag_86\n      jumpi\n      dup4\n      dup3\n      0x02\n      mul\n      add\n      mload(0x40)\n      dup1\n      0x40\n      add\n      0x40\n      mstore\n      swap1\n      dup2\n      0x00\n      dup3\n      add\n      0x00\n      swap1\n      sload\n      swap1\n      0x0100\n      exp\n      swap1\n      div\n      0xffffffffffffffffffffffffffffffffffffffff\n      and\n      0xffffffffffffffffffffffffffffffffffffffff\n      and\n      0xffffffffffffffffffffffffffffffffffffffff\n      and\n      dup2\n      mstore\n      0x20\n      add\n      0x01\n      dup3\n      add\n      sload\n      dup2\n      mstore\n      pop\n      pop\n      dup2\n      mstore\n      0x20\n      add\n      swap1\n      0x01\n      add\n      swap1\n      jump(tag_85)\n    tag_86:\n      pop\n      pop\n      pop\n      pop\n      swap1\n      pop\n        /* \"contracts/BeggingContract.sol\":3302:3390  function getTop3Donors() public view returns (Donor[3] memory) {... */\n      swap1\n      jump\t// out\n        /* \"contracts/BeggingContract.sol\":474:496  uint256 public endTime */\n    tag_29:\n      sload(0x04)\n      dup2\n      jump\t// out\n        /* \"contracts/BeggingContract.sol\":1475:1799  function withdraw() public onlyOwner {... */\n    tag_34:\n        /* \"@openzeppelin/contracts/access/Ownable.sol\":1531:1544  _checkOwner() */\n      tag_89\n        /* \"@openzeppelin/contracts/access/Ownable.sol\":1531:1542  _checkOwner */\n      tag_90\n        /* \"@openzeppelin/contracts/access/Ownable.sol\":1531:1544  _checkOwner() */\n      jump\t// in\n    tag_89:\n        /* \"contracts/BeggingContract.sol\":1516:1531  uint256 balance */\n      0x00\n        /* \"contracts/BeggingContract.sol\":1534:1555  address(this).balance */\n      selfbalance\n        /* \"contracts/BeggingContract.sol\":1516:1555  uint256 balance = address(this).balance */\n      swap1\n      pop\n        /* \"contracts/BeggingContract.sol\":1577:1578  0 */\n      0x00\n        /* \"contracts/BeggingContract.sol\":1567:1574  balance */\n      dup2\n        /* \"contracts/BeggingContract.sol\":1567:1578  balance > 0 */\n      gt\n        /* \"contracts/BeggingContract.sol\":1559:1601  require(balance > 0, \"No funds available\") */\n      tag_92\n      jumpi\n      mload(0x40)\n      0x08c379a000000000000000000000000000000000000000000000000000000000\n      dup2\n      mstore\n      0x04\n      add\n      tag_93\n      swap1\n      tag_94\n      jump\t// in\n    tag_93:\n      mload(0x40)\n      dup1\n      swap2\n      sub\n      swap1\n      revert\n    tag_92:\n        /* \"contracts/BeggingContract.sol\":1675:1687  bool success */\n      0x00\n        /* \"contracts/BeggingContract.sol\":1701:1708  owner() */\n      tag_95\n        /* \"contracts/BeggingContract.sol\":1701:1706  owner */\n      tag_50\n        /* \"contracts/BeggingContract.sol\":1701:1708  owner() */\n      jump\t// in\n    tag_95:\n        /* \"contracts/BeggingContract.sol\":1693:1714  payable(owner()).call */\n      0xffffffffffffffffffffffffffffffffffffffff\n      and\n        /* \"contracts/BeggingContract.sol\":1722:1729  balance */\n      dup3\n        /* \"contracts/BeggingContract.sol\":1693:1734  payable(owner()).call{value: balance}(\"\") */\n      mload(0x40)\n      tag_96\n      swap1\n      tag_97\n      jump\t// in\n    tag_96:\n      0x00\n      mload(0x40)\n      dup1\n      dup4\n      sub\n      dup2\n      dup6\n      dup8\n      gas\n      call\n      swap3\n      pop\n      pop\n      pop\n      returndatasize\n      dup1\n      0x00\n      dup2\n      eq\n      tag_100\n      jumpi\n      mload(0x40)\n      swap2\n      pop\n      and(add(returndatasize, 0x3f), not(0x1f))\n      dup3\n      add\n      0x40\n      mstore\n      returndatasize\n      dup3\n      mstore\n      returndatasize\n      0x00\n      0x20\n      dup5\n      add\n      returndatacopy\n      jump(tag_99)\n    tag_100:\n      0x60\n      swap2\n      pop\n    tag_99:\n      pop\n        /* \"contracts/BeggingContract.sol\":1674:1734  (bool success, ) = payable(owner()).call{value: balance}(\"\") */\n      pop\n      swap1\n      pop\n        /* \"contracts/BeggingContract.sol\":1746:1753  success */\n      dup1\n        /* \"contracts/BeggingContract.sol\":1738:1773  require(success, \"Transfer failed\") */\n      tag_101\n      jumpi\n      mload(0x40)\n      0x08c379a000000000000000000000000000000000000000000000000000000000\n      dup2\n      mstore\n      0x04\n      add\n      tag_102\n      swap1\n      tag_103\n      jump\t// in\n    tag_102:\n      mload(0x40)\n      dup1\n      swap2\n      sub\n      swap1\n      revert\n    tag_101:\n        /* \"contracts/BeggingContract.sol\":1794:1795  0 */\n      0x00\n        /* \"contracts/BeggingContract.sol\":1777:1791  totalDonations */\n      0x02\n        /* \"contracts/BeggingContract.sol\":1777:1795  totalDonations = 0 */\n      dup2\n      swap1\n      sstore\n      pop\n        /* \"contracts/BeggingContract.sol\":1512:1799  {... */\n      pop\n      pop\n        /* \"contracts/BeggingContract.sol\":1475:1799  function withdraw() public onlyOwner {... */\n      jump\t// out\n        /* \"contracts/BeggingContract.sol\":1900:2001  function getDonation(address donator) public view returns (uint256) {... */\n    tag_39:\n        /* \"contracts/BeggingContract.sol\":1959:1966  uint256 */\n      0x00\n        /* \"contracts/BeggingContract.sol\":1979:1988  donations */\n      0x01\n        /* \"contracts/BeggingContract.sol\":1979:1997  donations[donator] */\n      0x00\n        /* \"contracts/BeggingContract.sol\":1989:1996  donator */\n      dup4\n        /* \"contracts/BeggingContract.sol\":1979:1997  donations[donator] */\n      0xffffffffffffffffffffffffffffffffffffffff\n      and\n      0xffffffffffffffffffffffffffffffffffffffff\n      and\n      dup2\n      mstore\n      0x20\n      add\n      swap1\n      dup2\n      mstore\n      0x20\n      add\n      0x00\n      keccak256\n      sload\n        /* \"contracts/BeggingContract.sol\":1972:1997  return donations[donator] */\n      swap1\n      pop\n        /* \"contracts/BeggingContract.sol\":1900:2001  function getDonation(address donator) public view returns (uint256) {... */\n      swap2\n      swap1\n      pop\n      jump\t// out\n        /* \"@openzeppelin/contracts/access/Ownable.sol\":2293:2394  function renounceOwnership() public virtual onlyOwner {... */\n    tag_43:\n        /* \"@openzeppelin/contracts/access/Ownable.sol\":1531:1544  _checkOwner() */\n      tag_106\n        /* \"@openzeppelin/contracts/access/Ownable.sol\":1531:1542  _checkOwner */\n      tag_90\n        /* \"@openzeppelin/contracts/access/Ownable.sol\":1531:1544  _checkOwner() */\n      jump\t// in\n    tag_106:\n        /* \"@openzeppelin/contracts/access/Ownable.sol\":2357:2387  _transferOwnership(address(0)) */\n      tag_108\n        /* \"@openzeppelin/contracts/access/Ownable.sol\":2384:2385  0 */\n      0x00\n        /* \"@openzeppelin/contracts/access/Ownable.sol\":2357:2375  _transferOwnership */\n      tag_109\n        /* \"@openzeppelin/contracts/access/Ownable.sol\":2357:2387  _transferOwnership(address(0)) */\n      jump\t// in\n    tag_108:\n        /* \"@openzeppelin/contracts/access/Ownable.sol\":2293:2394  function renounceOwnership() public virtual onlyOwner {... */\n      jump\t// out\n        /* \"contracts/BeggingContract.sol\":424:448  uint256 public startTime */\n    tag_46:\n      sload(0x03)\n      dup2\n      jump\t// out\n        /* \"@openzeppelin/contracts/access/Ownable.sol\":1638:1723  function owner() public view virtual returns (address) {... */\n    tag_50:\n        /* \"@openzeppelin/contracts/access/Ownable.sol\":1684:1691  address */\n      0x00\n        /* \"@openzeppelin/contracts/access/Ownable.sol\":1710:1716  _owner */\n      0x00\n      0x00\n      swap1\n      sload\n      swap1\n      0x0100\n      exp\n      swap1\n      div\n      0xffffffffffffffffffffffffffffffffffffffff\n      and\n        /* \"@openzeppelin/contracts/access/Ownable.sol\":1703:1716  return _owner */\n      swap1\n      pop\n        /* \"@openzeppelin/contracts/access/Ownable.sol\":1638:1723  function owner() public view virtual returns (address) {... */\n      swap1\n      jump\t// out\n        /* \"contracts/BeggingContract.sol\":284:343  mapping(address donator => uint256 amount) public donations */\n    tag_56:\n      mstore(0x20, 0x01)\n      dup1\n      0x00\n      mstore\n      keccak256(0x00, 0x40)\n      0x00\n      swap2\n      pop\n      swap1\n      pop\n      sload\n      dup2\n      jump\t// out\n        /* \"contracts/BeggingContract.sol\":369:398  uint256 public totalDonations */\n    tag_60:\n      sload(0x02)\n      dup2\n      jump\t// out\n        /* \"@openzeppelin/contracts/access/Ownable.sol\":2543:2758  function transferOwnership(address newOwner) public virtual onlyOwner {... */\n    tag_66:\n        /* \"@openzeppelin/contracts/access/Ownable.sol\":1531:1544  _checkOwner() */\n      tag_112\n        /* \"@openzeppelin/contracts/access/Ownable.sol\":1531:1542  _checkOwner */\n      tag_90\n        /* \"@openzeppelin/contracts/access/Ownable.sol\":1531:1544  _checkOwner() */\n      jump\t// in\n    tag_112:\n        /* \"@openzeppelin/contracts/access/Ownable.sol\":2647:2648  0 */\n      0x00\n        /* \"@openzeppelin/contracts/access/Ownable.sol\":2627:2649  newOwner == address(0) */\n      0xffffffffffffffffffffffffffffffffffffffff\n      and\n        /* \"@openzeppelin/contracts/access/Ownable.sol\":2627:2635  newOwner */\n      dup2\n        /* \"@openzeppelin/contracts/access/Ownable.sol\":2627:2649  newOwner == address(0) */\n      0xffffffffffffffffffffffffffffffffffffffff\n      and\n      sub\n        /* \"@openzeppelin/contracts/access/Ownable.sol\":2623:2714  if (newOwner == address(0)) {... */\n      tag_114\n      jumpi\n        /* \"@openzeppelin/contracts/access/Ownable.sol\":2700:2701  0 */\n      0x00\n        /* \"@openzeppelin/contracts/access/Ownable.sol\":2672:2703  OwnableInvalidOwner(address(0)) */\n      mload(0x40)\n      0x1e4fbdf700000000000000000000000000000000000000000000000000000000\n      dup2\n      mstore\n      0x04\n      add\n      tag_115\n      swap2\n      swap1\n      tag_52\n      jump\t// in\n    tag_115:\n      mload(0x40)\n      dup1\n      swap2\n      sub\n      swap1\n      revert\n        /* \"@openzeppelin/contracts/access/Ownable.sol\":2623:2714  if (newOwner == address(0)) {... */\n    tag_114:\n        /* \"@openzeppelin/contracts/access/Ownable.sol\":2723:2751  _transferOwnership(newOwner) */\n      tag_116\n        /* \"@openzeppelin/contracts/access/Ownable.sol\":2742:2750  newOwner */\n      dup2\n        /* \"@openzeppelin/contracts/access/Ownable.sol\":2723:2741  _transferOwnership */\n      tag_109\n        /* \"@openzeppelin/contracts/access/Ownable.sol\":2723:2751  _transferOwnership(newOwner) */\n      jump\t// in\n    tag_116:\n        /* \"@openzeppelin/contracts/access/Ownable.sol\":2543:2758  function transferOwnership(address newOwner) public virtual onlyOwner {... */\n      pop\n      jump\t// out\n        /* \"contracts/BeggingContract.sol\":2095:3190  function _updateTop3Donors(address newDonor) private {... */\n    tag_80:\n        /* \"contracts/BeggingContract.sol\":2152:2171  uint256 newDonation */\n      0x00\n        /* \"contracts/BeggingContract.sol\":2174:2183  donations */\n      0x01\n        /* \"contracts/BeggingContract.sol\":2174:2193  donations[newDonor] */\n      0x00\n        /* \"contracts/BeggingContract.sol\":2184:2192  newDonor */\n      dup4\n        /* \"contracts/BeggingContract.sol\":2174:2193  donations[newDonor] */\n      0xffffffffffffffffffffffffffffffffffffffff\n      and\n      0xffffffffffffffffffffffffffffffffffffffff\n      and\n      dup2\n      mstore\n      0x20\n      add\n      swap1\n      dup2\n      mstore\n      0x20\n      add\n      0x00\n      keccak256\n      sload\n        /* \"contracts/BeggingContract.sol\":2152:2193  uint256 newDonation = donations[newDonor] */\n      swap1\n      pop\n        /* \"contracts/BeggingContract.sol\":2197:2212  bool isExisting */\n      0x00\n        /* \"contracts/BeggingContract.sol\":2215:2220  false */\n      0x00\n        /* \"contracts/BeggingContract.sol\":2197:2220  bool isExisting = false */\n      swap1\n      pop\n        /* \"contracts/BeggingContract.sol\":2224:2245  uint256 existingIndex */\n      0x00\n        /* \"contracts/BeggingContract.sol\":2318:2327  uint256 i */\n      0x00\n        /* \"contracts/BeggingContract.sol\":2330:2331  0 */\n      0x00\n        /* \"contracts/BeggingContract.sol\":2318:2331  uint256 i = 0 */\n      swap1\n      pop\n        /* \"contracts/BeggingContract.sol\":2313:2456  for (uint256 i = 0; i < 3; i++) {... */\n    tag_118:\n        /* \"contracts/BeggingContract.sol\":2337:2338  3 */\n      0x03\n        /* \"contracts/BeggingContract.sol\":2333:2334  i */\n      dup2\n        /* \"contracts/BeggingContract.sol\":2333:2338  i < 3 */\n      lt\n        /* \"contracts/BeggingContract.sol\":2313:2456  for (uint256 i = 0; i < 3; i++) {... */\n      iszero\n      tag_119\n      jumpi\n        /* \"contracts/BeggingContract.sol\":2379:2387  newDonor */\n      dup5\n        /* \"contracts/BeggingContract.sol\":2354:2387  top3Donors[i].donator == newDonor */\n      0xffffffffffffffffffffffffffffffffffffffff\n      and\n        /* \"contracts/BeggingContract.sol\":2354:2364  top3Donors */\n      0x05\n        /* \"contracts/BeggingContract.sol\":2365:2366  i */\n      dup3\n        /* \"contracts/BeggingContract.sol\":2354:2367  top3Donors[i] */\n      0x03\n      dup2\n      lt\n      tag_121\n      jumpi\n      tag_122\n      tag_123\n      jump\t// in\n    tag_122:\n    tag_121:\n      0x02\n      mul\n      add\n        /* \"contracts/BeggingContract.sol\":2354:2375  top3Donors[i].donator */\n      0x00\n      add\n      0x00\n      swap1\n      sload\n      swap1\n      0x0100\n      exp\n      swap1\n      div\n      0xffffffffffffffffffffffffffffffffffffffff\n      and\n        /* \"contracts/BeggingContract.sol\":2354:2387  top3Donors[i].donator == newDonor */\n      0xffffffffffffffffffffffffffffffffffffffff\n      and\n      sub\n        /* \"contracts/BeggingContract.sol\":2350:2452  if (top3Donors[i].donator == newDonor) {... */\n      tag_125\n      jumpi\n        /* \"contracts/BeggingContract.sol\":2408:2412  true */\n      0x01\n        /* \"contracts/BeggingContract.sol\":2395:2412  isExisting = true */\n      swap3\n      pop\n        /* \"contracts/BeggingContract.sol\":2434:2435  i */\n      dup1\n        /* \"contracts/BeggingContract.sol\":2418:2435  existingIndex = i */\n      swap2\n      pop\n        /* \"contracts/BeggingContract.sol\":2441:2446  break */\n      jump(tag_119)\n        /* \"contracts/BeggingContract.sol\":2350:2452  if (top3Donors[i].donator == newDonor) {... */\n    tag_125:\n        /* \"contracts/BeggingContract.sol\":2340:2343  i++ */\n      dup1\n      dup1\n      0x01\n      add\n      swap2\n      pop\n      pop\n        /* \"contracts/BeggingContract.sol\":2313:2456  for (uint256 i = 0; i < 3; i++) {... */\n      jump(tag_118)\n    tag_119:\n      pop\n        /* \"contracts/BeggingContract.sol\":2464:2474  isExisting */\n      dup2\n        /* \"contracts/BeggingContract.sol\":2460:2900  if (isExisting) {... */\n      iszero\n      tag_126\n      jumpi\n        /* \"contracts/BeggingContract.sol\":2559:2570  newDonation */\n      dup3\n        /* \"contracts/BeggingContract.sol\":2524:2534  top3Donors */\n      0x05\n        /* \"contracts/BeggingContract.sol\":2535:2548  existingIndex */\n      dup3\n        /* \"contracts/BeggingContract.sol\":2524:2549  top3Donors[existingIndex] */\n      0x03\n      dup2\n      lt\n      tag_127\n      jumpi\n      tag_128\n      tag_123\n      jump\t// in\n    tag_128:\n    tag_127:\n      0x02\n      mul\n      add\n        /* \"contracts/BeggingContract.sol\":2524:2556  top3Donors[existingIndex].amount */\n      0x01\n      add\n        /* \"contracts/BeggingContract.sol\":2524:2570  top3Donors[existingIndex].amount = newDonation */\n      dup2\n      swap1\n      sstore\n      pop\n        /* \"contracts/BeggingContract.sol\":2460:2900  if (isExisting) {... */\n      jump(tag_130)\n    tag_126:\n        /* \"contracts/BeggingContract.sol\":2634:2643  uint256 i */\n      0x00\n        /* \"contracts/BeggingContract.sol\":2646:2647  0 */\n      0x00\n        /* \"contracts/BeggingContract.sol\":2634:2647  uint256 i = 0 */\n      swap1\n      pop\n        /* \"contracts/BeggingContract.sol\":2629:2896  for (uint256 i = 0; i < 3; i++) {... */\n    tag_131:\n        /* \"contracts/BeggingContract.sol\":2653:2654  3 */\n      0x03\n        /* \"contracts/BeggingContract.sol\":2649:2650  i */\n      dup2\n        /* \"contracts/BeggingContract.sol\":2649:2654  i < 3 */\n      lt\n        /* \"contracts/BeggingContract.sol\":2629:2896  for (uint256 i = 0; i < 3; i++) {... */\n      iszero\n      tag_132\n      jumpi\n        /* \"contracts/BeggingContract.sol\":2685:2695  top3Donors */\n      0x05\n        /* \"contracts/BeggingContract.sol\":2696:2697  i */\n      dup2\n        /* \"contracts/BeggingContract.sol\":2685:2698  top3Donors[i] */\n      0x03\n      dup2\n      lt\n      tag_134\n      jumpi\n      tag_135\n      tag_123\n      jump\t// in\n    tag_135:\n    tag_134:\n      0x02\n      mul\n      add\n        /* \"contracts/BeggingContract.sol\":2685:2705  top3Donors[i].amount */\n      0x01\n      add\n      sload\n        /* \"contracts/BeggingContract.sol\":2671:2682  newDonation */\n      dup5\n        /* \"contracts/BeggingContract.sol\":2671:2705  newDonation > top3Donors[i].amount */\n      gt\n        /* \"contracts/BeggingContract.sol\":2667:2891  if (newDonation > top3Donors[i].amount) {... */\n      iszero\n      tag_137\n      jumpi\n        /* \"contracts/BeggingContract.sol\":2746:2755  uint256 j */\n      0x00\n        /* \"contracts/BeggingContract.sol\":2758:2759  2 */\n      0x02\n        /* \"contracts/BeggingContract.sol\":2746:2759  uint256 j = 2 */\n      swap1\n      pop\n        /* \"contracts/BeggingContract.sol\":2741:2822  for (uint256 j = 2; j > i; j--) {... */\n    tag_138:\n        /* \"contracts/BeggingContract.sol\":2765:2766  i */\n      dup2\n        /* \"contracts/BeggingContract.sol\":2761:2762  j */\n      dup2\n        /* \"contracts/BeggingContract.sol\":2761:2766  j > i */\n      gt\n        /* \"contracts/BeggingContract.sol\":2741:2822  for (uint256 j = 2; j > i; j--) {... */\n      iszero\n      tag_139\n      jumpi\n        /* \"contracts/BeggingContract.sol\":2797:2807  top3Donors */\n      0x05\n        /* \"contracts/BeggingContract.sol\":2812:2813  1 */\n      0x01\n        /* \"contracts/BeggingContract.sol\":2808:2809  j */\n      dup3\n        /* \"contracts/BeggingContract.sol\":2808:2813  j - 1 */\n      tag_141\n      swap2\n      swap1\n      tag_142\n      jump\t// in\n    tag_141:\n        /* \"contracts/BeggingContract.sol\":2797:2814  top3Donors[j - 1] */\n      0x03\n      dup2\n      lt\n      tag_143\n      jumpi\n      tag_144\n      tag_123\n      jump\t// in\n    tag_144:\n    tag_143:\n      0x02\n      mul\n      add\n        /* \"contracts/BeggingContract.sol\":2781:2791  top3Donors */\n      0x05\n        /* \"contracts/BeggingContract.sol\":2792:2793  j */\n      dup3\n        /* \"contracts/BeggingContract.sol\":2781:2794  top3Donors[j] */\n      0x03\n      dup2\n      lt\n      tag_146\n      jumpi\n      tag_147\n      tag_123\n      jump\t// in\n    tag_147:\n    tag_146:\n      0x02\n      mul\n      add\n        /* \"contracts/BeggingContract.sol\":2781:2814  top3Donors[j] = top3Donors[j - 1] */\n      0x00\n      dup3\n      add\n      0x00\n      swap1\n      sload\n      swap1\n      0x0100\n      exp\n      swap1\n      div\n      0xffffffffffffffffffffffffffffffffffffffff\n      and\n      dup2\n      0x00\n      add\n      exp(0x0100, 0x00)\n      dup2\n      sload\n      dup2\n      0xffffffffffffffffffffffffffffffffffffffff\n      mul\n      not\n      and\n      swap1\n      dup4\n      0xffffffffffffffffffffffffffffffffffffffff\n      and\n      mul\n      or\n      swap1\n      sstore\n      pop\n      0x01\n      dup3\n      add\n      sload\n      dup2\n      0x01\n      add\n      sstore\n      swap1\n      pop\n      pop\n        /* \"contracts/BeggingContract.sol\":2768:2771  j-- */\n      dup1\n      dup1\n      tag_149\n      swap1\n      tag_150\n      jump\t// in\n    tag_149:\n      swap2\n      pop\n      pop\n        /* \"contracts/BeggingContract.sol\":2741:2822  for (uint256 j = 2; j > i; j--) {... */\n      jump(tag_138)\n    tag_139:\n      pop\n        /* \"contracts/BeggingContract.sol\":2844:2872  Donor(newDonor, newDonation) */\n      mload(0x40)\n      dup1\n      0x40\n      add\n      0x40\n      mstore\n      dup1\n        /* \"contracts/BeggingContract.sol\":2850:2858  newDonor */\n      dup7\n        /* \"contracts/BeggingContract.sol\":2844:2872  Donor(newDonor, newDonation) */\n      0xffffffffffffffffffffffffffffffffffffffff\n      and\n      dup2\n      mstore\n      0x20\n      add\n        /* \"contracts/BeggingContract.sol\":2860:2871  newDonation */\n      dup6\n        /* \"contracts/BeggingContract.sol\":2844:2872  Donor(newDonor, newDonation) */\n      dup2\n      mstore\n      pop\n        /* \"contracts/BeggingContract.sol\":2828:2838  top3Donors */\n      0x05\n        /* \"contracts/BeggingContract.sol\":2839:2840  i */\n      dup3\n        /* \"contracts/BeggingContract.sol\":2828:2841  top3Donors[i] */\n      0x03\n      dup2\n      lt\n      tag_151\n      jumpi\n      tag_152\n      tag_123\n      jump\t// in\n    tag_152:\n    tag_151:\n      0x02\n      mul\n      add\n        /* \"contracts/BeggingContract.sol\":2828:2872  top3Donors[i] = Donor(newDonor, newDonation) */\n      0x00\n      dup3\n      add\n      mload\n      dup2\n      0x00\n      add\n      exp(0x0100, 0x00)\n      dup2\n      sload\n      dup2\n      0xffffffffffffffffffffffffffffffffffffffff\n      mul\n      not\n      and\n      swap1\n      dup4\n      0xffffffffffffffffffffffffffffffffffffffff\n      and\n      mul\n      or\n      swap1\n      sstore\n      pop\n      0x20\n      dup3\n      add\n      mload\n      dup2\n      0x01\n      add\n      sstore\n      swap1\n      pop\n      pop\n        /* \"contracts/BeggingContract.sol\":2879:2884  break */\n      jump(tag_132)\n        /* \"contracts/BeggingContract.sol\":2667:2891  if (newDonation > top3Donors[i].amount) {... */\n    tag_137:\n        /* \"contracts/BeggingContract.sol\":2656:2659  i++ */\n      dup1\n      dup1\n      0x01\n      add\n      swap2\n      pop\n      pop\n        /* \"contracts/BeggingContract.sol\":2629:2896  for (uint256 i = 0; i < 3; i++) {... */\n      jump(tag_131)\n    tag_132:\n      pop\n        /* \"contracts/BeggingContract.sol\":2460:2900  if (isExisting) {... */\n    tag_130:\n        /* \"contracts/BeggingContract.sol\":2945:2954  uint256 i */\n      0x00\n        /* \"contracts/BeggingContract.sol\":2957:2958  0 */\n      0x00\n        /* \"contracts/BeggingContract.sol\":2945:2958  uint256 i = 0 */\n      swap1\n      pop\n        /* \"contracts/BeggingContract.sol\":2940:3187  for (uint256 i = 0; i < 2; i++) {... */\n    tag_154:\n        /* \"contracts/BeggingContract.sol\":2964:2965  2 */\n      0x02\n        /* \"contracts/BeggingContract.sol\":2960:2961  i */\n      dup2\n        /* \"contracts/BeggingContract.sol\":2960:2965  i < 2 */\n      lt\n        /* \"contracts/BeggingContract.sol\":2940:3187  for (uint256 i = 0; i < 2; i++) {... */\n      iszero\n      tag_155\n      jumpi\n        /* \"contracts/BeggingContract.sol\":2982:2991  uint256 j */\n      0x00\n        /* \"contracts/BeggingContract.sol\":2998:2999  1 */\n      0x01\n        /* \"contracts/BeggingContract.sol\":2994:2995  i */\n      dup3\n        /* \"contracts/BeggingContract.sol\":2994:2999  i + 1 */\n      tag_160\n      swap2\n      swap1\n      tag_77\n      jump\t// in\n    tag_160:\n        /* \"contracts/BeggingContract.sol\":2982:2999  uint256 j = i + 1 */\n      swap1\n      pop\n        /* \"contracts/BeggingContract.sol\":2977:3183  for (uint256 j = i + 1; j < 3; j++) {... */\n    tag_157:\n        /* \"contracts/BeggingContract.sol\":3005:3006  3 */\n      0x03\n        /* \"contracts/BeggingContract.sol\":3001:3002  j */\n      dup2\n        /* \"contracts/BeggingContract.sol\":3001:3006  j < 3 */\n      lt\n        /* \"contracts/BeggingContract.sol\":2977:3183  for (uint256 j = i + 1; j < 3; j++) {... */\n      iszero\n      tag_158\n      jumpi\n        /* \"contracts/BeggingContract.sol\":3046:3056  top3Donors */\n      0x05\n        /* \"contracts/BeggingContract.sol\":3057:3058  j */\n      dup2\n        /* \"contracts/BeggingContract.sol\":3046:3059  top3Donors[j] */\n      0x03\n      dup2\n      lt\n      tag_161\n      jumpi\n      tag_162\n      tag_123\n      jump\t// in\n    tag_162:\n    tag_161:\n      0x02\n      mul\n      add\n        /* \"contracts/BeggingContract.sol\":3046:3066  top3Donors[j].amount */\n      0x01\n      add\n      sload\n        /* \"contracts/BeggingContract.sol\":3023:3033  top3Donors */\n      0x05\n        /* \"contracts/BeggingContract.sol\":3034:3035  i */\n      dup4\n        /* \"contracts/BeggingContract.sol\":3023:3036  top3Donors[i] */\n      0x03\n      dup2\n      lt\n      tag_164\n      jumpi\n      tag_165\n      tag_123\n      jump\t// in\n    tag_165:\n    tag_164:\n      0x02\n      mul\n      add\n        /* \"contracts/BeggingContract.sol\":3023:3043  top3Donors[i].amount */\n      0x01\n      add\n      sload\n        /* \"contracts/BeggingContract.sol\":3023:3066  top3Donors[i].amount < top3Donors[j].amount */\n      lt\n        /* \"contracts/BeggingContract.sol\":3019:3178  if (top3Donors[i].amount < top3Donors[j].amount) {... */\n      iszero\n      tag_167\n      jumpi\n        /* \"contracts/BeggingContract.sol\":3075:3092  Donor memory temp */\n      0x00\n        /* \"contracts/BeggingContract.sol\":3095:3105  top3Donors */\n      0x05\n        /* \"contracts/BeggingContract.sol\":3106:3107  i */\n      dup4\n        /* \"contracts/BeggingContract.sol\":3095:3108  top3Donors[i] */\n      0x03\n      dup2\n      lt\n      tag_168\n      jumpi\n      tag_169\n      tag_123\n      jump\t// in\n    tag_169:\n    tag_168:\n      0x02\n      mul\n      add\n        /* \"contracts/BeggingContract.sol\":3075:3108  Donor memory temp = top3Donors[i] */\n      mload(0x40)\n      dup1\n      0x40\n      add\n      0x40\n      mstore\n      swap1\n      dup2\n      0x00\n      dup3\n      add\n      0x00\n      swap1\n      sload\n      swap1\n      0x0100\n      exp\n      swap1\n      div\n      0xffffffffffffffffffffffffffffffffffffffff\n      and\n      0xffffffffffffffffffffffffffffffffffffffff\n      and\n      0xffffffffffffffffffffffffffffffffffffffff\n      and\n      dup2\n      mstore\n      0x20\n      add\n      0x01\n      dup3\n      add\n      sload\n      dup2\n      mstore\n      pop\n      pop\n      swap1\n      pop\n        /* \"contracts/BeggingContract.sol\":3131:3141  top3Donors */\n      0x05\n        /* \"contracts/BeggingContract.sol\":3142:3143  j */\n      dup3\n        /* \"contracts/BeggingContract.sol\":3131:3144  top3Donors[j] */\n      0x03\n      dup2\n      lt\n      tag_171\n      jumpi\n      tag_172\n      tag_123\n      jump\t// in\n    tag_172:\n    tag_171:\n      0x02\n      mul\n      add\n        /* \"contracts/BeggingContract.sol\":3115:3125  top3Donors */\n      0x05\n        /* \"contracts/BeggingContract.sol\":3126:3127  i */\n      dup5\n        /* \"contracts/BeggingContract.sol\":3115:3128  top3Donors[i] */\n      0x03\n      dup2\n      lt\n      tag_174\n      jumpi\n      tag_175\n      tag_123\n      jump\t// in\n    tag_175:\n    tag_174:\n      0x02\n      mul\n      add\n        /* \"contracts/BeggingContract.sol\":3115:3144  top3Donors[i] = top3Donors[j] */\n      0x00\n      dup3\n      add\n      0x00\n      swap1\n      sload\n      swap1\n      0x0100\n      exp\n      swap1\n      div\n      0xffffffffffffffffffffffffffffffffffffffff\n      and\n      dup2\n      0x00\n      add\n      exp(0x0100, 0x00)\n      dup2\n      sload\n      dup2\n      0xffffffffffffffffffffffffffffffffffffffff\n      mul\n      not\n      and\n      swap1\n      dup4\n      0xffffffffffffffffffffffffffffffffffffffff\n      and\n      mul\n      or\n      swap1\n      sstore\n      pop\n      0x01\n      dup3\n      add\n      sload\n      dup2\n      0x01\n      add\n      sstore\n      swap1\n      pop\n      pop\n        /* \"contracts/BeggingContract.sol\":3167:3171  temp */\n      dup1\n        /* \"contracts/BeggingContract.sol\":3151:3161  top3Donors */\n      0x05\n        /* \"contracts/BeggingContract.sol\":3162:3163  j */\n      dup4\n        /* \"contracts/BeggingContract.sol\":3151:3164  top3Donors[j] */\n      0x03\n      dup2\n      lt\n      tag_177\n      jumpi\n      tag_178\n      tag_123\n      jump\t// in\n    tag_178:\n    tag_177:\n      0x02\n      mul\n      add\n        /* \"contracts/BeggingContract.sol\":3151:3171  top3Donors[j] = temp */\n      0x00\n      dup3\n      add\n      mload\n      dup2\n      0x00\n      add\n      exp(0x0100, 0x00)\n      dup2\n      sload\n      dup2\n      0xffffffffffffffffffffffffffffffffffffffff\n      mul\n      not\n      and\n      swap1\n      dup4\n      0xffffffffffffffffffffffffffffffffffffffff\n      and\n      mul\n      or\n      swap1\n      sstore\n      pop\n      0x20\n      dup3\n      add\n      mload\n      dup2\n      0x01\n      add\n      sstore\n      swap1\n      pop\n      pop\n        /* \"contracts/BeggingContract.sol\":3068:3178  {... */\n      pop\n        /* \"contracts/BeggingContract.sol\":3019:3178  if (top3Donors[i].amount < top3Donors[j].amount) {... */\n    tag_167:\n        /* \"contracts/BeggingContract.sol\":3008:3011  j++ */\n      dup1\n      dup1\n      0x01\n      add\n      swap2\n      pop\n      pop\n        /* \"contracts/BeggingContract.sol\":2977:3183  for (uint256 j = i + 1; j < 3; j++) {... */\n      jump(tag_157)\n    tag_158:\n      pop\n        /* \"contracts/BeggingContract.sol\":2967:2970  i++ */\n      dup1\n      dup1\n      0x01\n      add\n      swap2\n      pop\n      pop\n        /* \"contracts/BeggingContract.sol\":2940:3187  for (uint256 i = 0; i < 2; i++) {... */\n      jump(tag_154)\n    tag_155:\n      pop\n        /* \"contracts/BeggingContract.sol\":2148:3190  {... */\n      pop\n      pop\n      pop\n        /* \"contracts/BeggingContract.sol\":2095:3190  function _updateTop3Donors(address newDonor) private {... */\n      pop\n      jump\t// out\n        /* \"@openzeppelin/contracts/access/Ownable.sol\":1796:1958  function _checkOwner() internal view virtual {... */\n    tag_90:\n        /* \"@openzeppelin/contracts/access/Ownable.sol\":1866:1878  _msgSender() */\n      tag_181\n        /* \"@openzeppelin/contracts/access/Ownable.sol\":1866:1876  _msgSender */\n      tag_182\n        /* \"@openzeppelin/contracts/access/Ownable.sol\":1866:1878  _msgSender() */\n      jump\t// in\n    tag_181:\n        /* \"@openzeppelin/contracts/access/Ownable.sol\":1855:1878  owner() != _msgSender() */\n      0xffffffffffffffffffffffffffffffffffffffff\n      and\n        /* \"@openzeppelin/contracts/access/Ownable.sol\":1855:1862  owner() */\n      tag_183\n        /* \"@openzeppelin/contracts/access/Ownable.sol\":1855:1860  owner */\n      tag_50\n        /* \"@openzeppelin/contracts/access/Ownable.sol\":1855:1862  owner() */\n      jump\t// in\n    tag_183:\n        /* \"@openzeppelin/contracts/access/Ownable.sol\":1855:1878  owner() != _msgSender() */\n      0xffffffffffffffffffffffffffffffffffffffff\n      and\n      eq\n        /* \"@openzeppelin/contracts/access/Ownable.sol\":1851:1952  if (owner() != _msgSender()) {... */\n      tag_184\n      jumpi\n        /* \"@openzeppelin/contracts/access/Ownable.sol\":1928:1940  _msgSender() */\n      tag_185\n        /* \"@openzeppelin/contracts/access/Ownable.sol\":1928:1938  _msgSender */\n      tag_182\n        /* \"@openzeppelin/contracts/access/Ownable.sol\":1928:1940  _msgSender() */\n      jump\t// in\n    tag_185:\n        /* \"@openzeppelin/contracts/access/Ownable.sol\":1901:1941  OwnableUnauthorizedAccount(_msgSender()) */\n      mload(0x40)\n      0x118cdaa700000000000000000000000000000000000000000000000000000000\n      dup2\n      mstore\n      0x04\n      add\n      tag_186\n      swap2\n      swap1\n      tag_52\n      jump\t// in\n    tag_186:\n      mload(0x40)\n      dup1\n      swap2\n      sub\n      swap1\n      revert\n        /* \"@openzeppelin/contracts/access/Ownable.sol\":1851:1952  if (owner() != _msgSender()) {... */\n    tag_184:\n        /* \"@openzeppelin/contracts/access/Ownable.sol\":1796:1958  function _checkOwner() internal view virtual {... */\n      jump\t// out\n        /* \"@openzeppelin/contracts/access/Ownable.sol\":2912:3099  function _transferOwnership(address newOwner) internal virtual {... */\n    tag_109:\n        /* \"@openzeppelin/contracts/access/Ownable.sol\":2985:3001  address oldOwner */\n      0x00\n        /* \"@openzeppelin/contracts/access/Ownable.sol\":3004:3010  _owner */\n      0x00\n      0x00\n      swap1\n      sload\n      swap1\n      0x0100\n      exp\n      swap1\n      div\n      0xffffffffffffffffffffffffffffffffffffffff\n      and\n        /* \"@openzeppelin/contracts/access/Ownable.sol\":2985:3010  address oldOwner = _owner */\n      swap1\n      pop\n        /* \"@openzeppelin/contracts/access/Ownable.sol\":3029:3037  newOwner */\n      dup2\n        /* \"@openzeppelin/contracts/access/Ownable.sol\":3020:3026  _owner */\n      0x00\n      0x00\n        /* \"@openzeppelin/contracts/access/Ownable.sol\":3020:3037  _owner = newOwner */\n      0x0100\n      exp\n      dup2\n      sload\n      dup2\n      0xffffffffffffffffffffffffffffffffffffffff\n      mul\n      not\n      and\n      swap1\n      dup4\n      0xffffffffffffffffffffffffffffffffffffffff\n      and\n      mul\n      or\n      swap1\n      sstore\n      pop\n        /* \"@openzeppelin/contracts/access/Ownable.sol\":3083:3091  newOwner */\n      dup2\n        /* \"@openzeppelin/contracts/access/Ownable.sol\":3052:3092  OwnershipTransferred(oldOwner, newOwner) */\n      0xffffffffffffffffffffffffffffffffffffffff\n      and\n        /* \"@openzeppelin/contracts/access/Ownable.sol\":3073:3081  oldOwner */\n      dup2\n        /* \"@openzeppelin/contracts/access/Ownable.sol\":3052:3092  OwnershipTransferred(oldOwner, newOwner) */\n      0xffffffffffffffffffffffffffffffffffffffff\n      and\n      0x8be0079c531659141344cd1fd0a4f28419497f9722a3daafe3b4186f6b6457e0\n      mload(0x40)\n      mload(0x40)\n      dup1\n      swap2\n      sub\n      swap1\n      log3\n        /* \"@openzeppelin/contracts/access/Ownable.sol\":2975:3099  {... */\n      pop\n        /* \"@openzeppelin/contracts/access/Ownable.sol\":2912:3099  function _transferOwnership(address newOwner) internal virtual {... */\n      pop\n      jump\t// out\n        /* \"@openzeppelin/contracts/utils/Context.sol\":656:752  function _msgSender() internal view virtual returns (address) {... */\n    tag_182:\n        /* \"@openzeppelin/contracts/utils/Context.sol\":709:716  address */\n      0x00\n        /* \"@openzeppelin/contracts/utils/Context.sol\":735:745  msg.sender */\n      caller\n        /* \"@openzeppelin/contracts/utils/Context.sol\":728:745  return msg.sender */\n      swap1\n      pop\n        /* \"@openzeppelin/contracts/utils/Context.sol\":656:752  function _msgSender() internal view virtual returns (address) {... */\n      swap1\n      jump\t// out\n    tag_83:\n      mload(0x40)\n      dup1\n      0x60\n      add\n      0x40\n      mstore\n      dup1\n      0x03\n      swap1\n    tag_189:\n      tag_190\n      tag_191\n      jump\t// in\n    tag_190:\n      dup2\n      mstore\n      0x20\n      add\n      swap1\n      0x01\n      swap1\n      sub\n      swap1\n      dup2\n      tag_189\n      jumpi\n      swap1\n      pop\n      pop\n      swap1\n      jump\t// out\n    tag_191:\n      mload(0x40)\n      dup1\n      0x40\n      add\n      0x40\n      mstore\n      dup1\n      and(0xffffffffffffffffffffffffffffffffffffffff, 0x00)\n      dup2\n      mstore\n      0x20\n      add\n      0x00\n      dup2\n      mstore\n      pop\n      swap1\n      jump\t// out\n        /* \"#utility.yul\":7:133   */\n    tag_192:\n        /* \"#utility.yul\":94:100   */\n      0x00\n        /* \"#utility.yul\":122:126   */\n      0x03\n        /* \"#utility.yul\":112:126   */\n      swap1\n      pop\n        /* \"#utility.yul\":7:133   */\n      swap2\n      swap1\n      pop\n      jump\t// out\n        /* \"#utility.yul\":139:304   */\n    tag_193:\n        /* \"#utility.yul\":258:269   */\n      0x00\n        /* \"#utility.yul\":295:298   */\n      dup2\n        /* \"#utility.yul\":280:298   */\n      swap1\n      pop\n        /* \"#utility.yul\":139:304   */\n      swap3\n      swap2\n      pop\n      pop\n      jump\t// out\n        /* \"#utility.yul\":310:430   */\n    tag_194:\n        /* \"#utility.yul\":397:401   */\n      0x00\n        /* \"#utility.yul\":420:423   */\n      dup2\n        /* \"#utility.yul\":412:423   */\n      swap1\n      pop\n        /* \"#utility.yul\":310:430   */\n      swap2\n      swap1\n      pop\n      jump\t// out\n        /* \"#utility.yul\":436:562   */\n    tag_195:\n        /* \"#utility.yul\":473:480   */\n      0x00\n        /* \"#utility.yul\":513:555   */\n      0xffffffffffffffffffffffffffffffffffffffff\n        /* \"#utility.yul\":506:511   */\n      dup3\n        /* \"#utility.yul\":502:556   */\n      and\n        /* \"#utility.yul\":491:556   */\n      swap1\n      pop\n        /* \"#utility.yul\":436:562   */\n      swap2\n      swap1\n      pop\n      jump\t// out\n        /* \"#utility.yul\":568:664   */\n    tag_196:\n        /* \"#utility.yul\":605:612   */\n      0x00\n        /* \"#utility.yul\":634:658   */\n      tag_230\n        /* \"#utility.yul\":652:657   */\n      dup3\n        /* \"#utility.yul\":634:658   */\n      tag_195\n      jump\t// in\n    tag_230:\n        /* \"#utility.yul\":623:658   */\n      swap1\n      pop\n        /* \"#utility.yul\":568:664   */\n      swap2\n      swap1\n      pop\n      jump\t// out\n        /* \"#utility.yul\":670:778   */\n    tag_197:\n        /* \"#utility.yul\":747:771   */\n      tag_232\n        /* \"#utility.yul\":765:770   */\n      dup2\n        /* \"#utility.yul\":747:771   */\n      tag_196\n      jump\t// in\n    tag_232:\n        /* \"#utility.yul\":742:745   */\n      dup3\n        /* \"#utility.yul\":735:772   */\n      mstore\n        /* \"#utility.yul\":670:778   */\n      pop\n      pop\n      jump\t// out\n        /* \"#utility.yul\":784:861   */\n    tag_198:\n        /* \"#utility.yul\":821:828   */\n      0x00\n        /* \"#utility.yul\":850:855   */\n      dup2\n        /* \"#utility.yul\":839:855   */\n      swap1\n      pop\n        /* \"#utility.yul\":784:861   */\n      swap2\n      swap1\n      pop\n      jump\t// out\n        /* \"#utility.yul\":867:975   */\n    tag_199:\n        /* \"#utility.yul\":944:968   */\n      tag_235\n        /* \"#utility.yul\":962:967   */\n      dup2\n        /* \"#utility.yul\":944:968   */\n      tag_198\n      jump\t// in\n    tag_235:\n        /* \"#utility.yul\":939:942   */\n      dup3\n        /* \"#utility.yul\":932:969   */\n      mstore\n        /* \"#utility.yul\":867:975   */\n      pop\n      pop\n      jump\t// out\n        /* \"#utility.yul\":1049:1545   */\n    tag_200:\n        /* \"#utility.yul\":1180:1184   */\n      0x40\n        /* \"#utility.yul\":1175:1178   */\n      dup3\n        /* \"#utility.yul\":1171:1185   */\n      add\n        /* \"#utility.yul\":1270:1274   */\n      0x00\n        /* \"#utility.yul\":1263:1268   */\n      dup3\n        /* \"#utility.yul\":1259:1275   */\n      add\n        /* \"#utility.yul\":1253:1276   */\n      mload\n        /* \"#utility.yul\":1289:1352   */\n      tag_237\n        /* \"#utility.yul\":1346:1350   */\n      0x00\n        /* \"#utility.yul\":1341:1344   */\n      dup6\n        /* \"#utility.yul\":1337:1351   */\n      add\n        /* \"#utility.yul\":1323:1335   */\n      dup3\n        /* \"#utility.yul\":1289:1352   */\n      tag_197\n      jump\t// in\n    tag_237:\n        /* \"#utility.yul\":1195:1362   */\n      pop\n        /* \"#utility.yul\":1446:1450   */\n      0x20\n        /* \"#utility.yul\":1439:1444   */\n      dup3\n        /* \"#utility.yul\":1435:1451   */\n      add\n        /* \"#utility.yul\":1429:1452   */\n      mload\n        /* \"#utility.yul\":1465:1528   */\n      tag_238\n        /* \"#utility.yul\":1522:1526   */\n      0x20\n        /* \"#utility.yul\":1517:1520   */\n      dup6\n        /* \"#utility.yul\":1513:1527   */\n      add\n        /* \"#utility.yul\":1499:1511   */\n      dup3\n        /* \"#utility.yul\":1465:1528   */\n      tag_199\n      jump\t// in\n    tag_238:\n        /* \"#utility.yul\":1372:1538   */\n      pop\n        /* \"#utility.yul\":1149:1545   */\n      pop\n        /* \"#utility.yul\":1049:1545   */\n      pop\n      pop\n      jump\t// out\n        /* \"#utility.yul\":1551:1818   */\n    tag_201:\n        /* \"#utility.yul\":1664:1674   */\n      0x00\n        /* \"#utility.yul\":1685:1775   */\n      tag_240\n        /* \"#utility.yul\":1771:1774   */\n      dup4\n        /* \"#utility.yul\":1763:1769   */\n      dup4\n        /* \"#utility.yul\":1685:1775   */\n      tag_200\n      jump\t// in\n    tag_240:\n        /* \"#utility.yul\":1807:1811   */\n      0x40\n        /* \"#utility.yul\":1802:1805   */\n      dup4\n        /* \"#utility.yul\":1798:1812   */\n      add\n        /* \"#utility.yul\":1784:1812   */\n      swap1\n      pop\n        /* \"#utility.yul\":1551:1818   */\n      swap3\n      swap2\n      pop\n      pop\n      jump\t// out\n        /* \"#utility.yul\":1824:1957   */\n    tag_202:\n        /* \"#utility.yul\":1914:1918   */\n      0x00\n        /* \"#utility.yul\":1946:1950   */\n      0x20\n        /* \"#utility.yul\":1941:1944   */\n      dup3\n        /* \"#utility.yul\":1937:1951   */\n      add\n        /* \"#utility.yul\":1929:1951   */\n      swap1\n      pop\n        /* \"#utility.yul\":1824:1957   */\n      swap2\n      swap1\n      pop\n      jump\t// out\n        /* \"#utility.yul\":2037:2907   */\n    tag_203:\n        /* \"#utility.yul\":2217:2291   */\n      tag_243\n        /* \"#utility.yul\":2285:2290   */\n      dup2\n        /* \"#utility.yul\":2217:2291   */\n      tag_192\n      jump\t// in\n    tag_243:\n        /* \"#utility.yul\":2307:2413   */\n      tag_244\n        /* \"#utility.yul\":2406:2412   */\n      dup2\n        /* \"#utility.yul\":2401:2404   */\n      dup5\n        /* \"#utility.yul\":2307:2413   */\n      tag_193\n      jump\t// in\n    tag_244:\n        /* \"#utility.yul\":2300:2413   */\n      swap3\n      pop\n        /* \"#utility.yul\":2437:2513   */\n      tag_245\n        /* \"#utility.yul\":2507:2512   */\n      dup3\n        /* \"#utility.yul\":2437:2513   */\n      tag_194\n      jump\t// in\n    tag_245:\n        /* \"#utility.yul\":2536:2543   */\n      dup1\n        /* \"#utility.yul\":2567:2568   */\n      0x00\n        /* \"#utility.yul\":2552:2900   */\n    tag_246:\n        /* \"#utility.yul\":2577:2583   */\n      dup4\n        /* \"#utility.yul\":2574:2575   */\n      dup2\n        /* \"#utility.yul\":2571:2584   */\n      lt\n        /* \"#utility.yul\":2552:2900   */\n      iszero\n      tag_248\n      jumpi\n        /* \"#utility.yul\":2653:2659   */\n      dup2\n        /* \"#utility.yul\":2647:2660   */\n      mload\n        /* \"#utility.yul\":2680:2787   */\n      tag_249\n        /* \"#utility.yul\":2783:2786   */\n      dup8\n        /* \"#utility.yul\":2768:2781   */\n      dup3\n        /* \"#utility.yul\":2680:2787   */\n      tag_201\n      jump\t// in\n    tag_249:\n        /* \"#utility.yul\":2673:2787   */\n      swap7\n      pop\n        /* \"#utility.yul\":2810:2890   */\n      tag_250\n        /* \"#utility.yul\":2883:2889   */\n      dup4\n        /* \"#utility.yul\":2810:2890   */\n      tag_202\n      jump\t// in\n    tag_250:\n        /* \"#utility.yul\":2800:2890   */\n      swap3\n      pop\n        /* \"#utility.yul\":2612:2900   */\n      pop\n        /* \"#utility.yul\":2599:2600   */\n      0x01\n        /* \"#utility.yul\":2596:2597   */\n      dup2\n        /* \"#utility.yul\":2592:2601   */\n      add\n        /* \"#utility.yul\":2587:2601   */\n      swap1\n      pop\n        /* \"#utility.yul\":2552:2900   */\n      jump(tag_246)\n    tag_248:\n        /* \"#utility.yul\":2556:2570   */\n      pop\n        /* \"#utility.yul\":2193:2907   */\n      pop\n      pop\n      pop\n        /* \"#utility.yul\":2037:2907   */\n      pop\n      pop\n      jump\t// out\n        /* \"#utility.yul\":2913:3316   */\n    tag_26:\n        /* \"#utility.yul\":3096:3100   */\n      0x00\n        /* \"#utility.yul\":3134:3137   */\n      0xc0\n        /* \"#utility.yul\":3123:3132   */\n      dup3\n        /* \"#utility.yul\":3119:3138   */\n      add\n        /* \"#utility.yul\":3111:3138   */\n      swap1\n      pop\n        /* \"#utility.yul\":3148:3309   */\n      tag_252\n        /* \"#utility.yul\":3306:3307   */\n      0x00\n        /* \"#utility.yul\":3295:3304   */\n      dup4\n        /* \"#utility.yul\":3291:3308   */\n      add\n        /* \"#utility.yul\":3282:3288   */\n      dup5\n        /* \"#utility.yul\":3148:3309   */\n      tag_203\n      jump\t// in\n    tag_252:\n        /* \"#utility.yul\":2913:3316   */\n      swap3\n      swap2\n      pop\n      pop\n      jump\t// out\n        /* \"#utility.yul\":3322:3440   */\n    tag_204:\n        /* \"#utility.yul\":3409:3433   */\n      tag_254\n        /* \"#utility.yul\":3427:3432   */\n      dup2\n        /* \"#utility.yul\":3409:3433   */\n      tag_198\n      jump\t// in\n    tag_254:\n        /* \"#utility.yul\":3404:3407   */\n      dup3\n        /* \"#utility.yul\":3397:3434   */\n      mstore\n        /* \"#utility.yul\":3322:3440   */\n      pop\n      pop\n      jump\t// out\n        /* \"#utility.yul\":3446:3668   */\n    tag_31:\n        /* \"#utility.yul\":3539:3543   */\n      0x00\n        /* \"#utility.yul\":3577:3579   */\n      0x20\n        /* \"#utility.yul\":3566:3575   */\n      dup3\n        /* \"#utility.yul\":3562:3580   */\n      add\n        /* \"#utility.yul\":3554:3580   */\n      swap1\n      pop\n        /* \"#utility.yul\":3590:3661   */\n      tag_256\n        /* \"#utility.yul\":3658:3659   */\n      0x00\n        /* \"#utility.yul\":3647:3656   */\n      dup4\n        /* \"#utility.yul\":3643:3660   */\n      add\n        /* \"#utility.yul\":3634:3640   */\n      dup5\n        /* \"#utility.yul\":3590:3661   */\n      tag_204\n      jump\t// in\n    tag_256:\n        /* \"#utility.yul\":3446:3668   */\n      swap3\n      swap2\n      pop\n      pop\n      jump\t// out\n        /* \"#utility.yul\":3755:3872   */\n    tag_206:\n        /* \"#utility.yul\":3864:3865   */\n      0x00\n        /* \"#utility.yul\":3861:3862   */\n      0x00\n        /* \"#utility.yul\":3854:3866   */\n      revert\n        /* \"#utility.yul\":4001:4123   */\n    tag_208:\n        /* \"#utility.yul\":4074:4098   */\n      tag_261\n        /* \"#utility.yul\":4092:4097   */\n      dup2\n        /* \"#utility.yul\":4074:4098   */\n      tag_196\n      jump\t// in\n    tag_261:\n        /* \"#utility.yul\":4067:4072   */\n      dup2\n        /* \"#utility.yul\":4064:4099   */\n      eq\n        /* \"#utility.yul\":4054:4117   */\n      tag_262\n      jumpi\n        /* \"#utility.yul\":4113:4114   */\n      0x00\n        /* \"#utility.yul\":4110:4111   */\n      0x00\n        /* \"#utility.yul\":4103:4115   */\n      revert\n        /* \"#utility.yul\":4054:4117   */\n    tag_262:\n        /* \"#utility.yul\":4001:4123   */\n      pop\n      jump\t// out\n        /* \"#utility.yul\":4129:4268   */\n    tag_209:\n        /* \"#utility.yul\":4175:4180   */\n      0x00\n        /* \"#utility.yul\":4213:4219   */\n      dup2\n        /* \"#utility.yul\":4200:4220   */\n      calldataload\n        /* \"#utility.yul\":4191:4220   */\n      swap1\n      pop\n        /* \"#utility.yul\":4229:4262   */\n      tag_264\n        /* \"#utility.yul\":4256:4261   */\n      dup2\n        /* \"#utility.yul\":4229:4262   */\n      tag_208\n      jump\t// in\n    tag_264:\n        /* \"#utility.yul\":4129:4268   */\n      swap3\n      swap2\n      pop\n      pop\n      jump\t// out\n        /* \"#utility.yul\":4274:4603   */\n    tag_38:\n        /* \"#utility.yul\":4333:4339   */\n      0x00\n        /* \"#utility.yul\":4382:4384   */\n      0x20\n        /* \"#utility.yul\":4370:4379   */\n      dup3\n        /* \"#utility.yul\":4361:4368   */\n      dup5\n        /* \"#utility.yul\":4357:4380   */\n      sub\n        /* \"#utility.yul\":4353:4385   */\n      slt\n        /* \"#utility.yul\":4350:4469   */\n      iszero\n      tag_266\n      jumpi\n        /* \"#utility.yul\":4388:4467   */\n      tag_267\n      tag_206\n      jump\t// in\n    tag_267:\n        /* \"#utility.yul\":4350:4469   */\n    tag_266:\n        /* \"#utility.yul\":4508:4509   */\n      0x00\n        /* \"#utility.yul\":4533:4586   */\n      tag_268\n        /* \"#utility.yul\":4578:4585   */\n      dup5\n        /* \"#utility.yul\":4569:4575   */\n      dup3\n        /* \"#utility.yul\":4558:4567   */\n      dup6\n        /* \"#utility.yul\":4554:4576   */\n      add\n        /* \"#utility.yul\":4533:4586   */\n      tag_209\n      jump\t// in\n    tag_268:\n        /* \"#utility.yul\":4523:4586   */\n      swap2\n      pop\n        /* \"#utility.yul\":4479:4596   */\n      pop\n        /* \"#utility.yul\":4274:4603   */\n      swap3\n      swap2\n      pop\n      pop\n      jump\t// out\n        /* \"#utility.yul\":4609:4727   */\n    tag_210:\n        /* \"#utility.yul\":4696:4720   */\n      tag_270\n        /* \"#utility.yul\":4714:4719   */\n      dup2\n        /* \"#utility.yul\":4696:4720   */\n      tag_196\n      jump\t// in\n    tag_270:\n        /* \"#utility.yul\":4691:4694   */\n      dup3\n        /* \"#utility.yul\":4684:4721   */\n      mstore\n        /* \"#utility.yul\":4609:4727   */\n      pop\n      pop\n      jump\t// out\n        /* \"#utility.yul\":4733:4955   */\n    tag_52:\n        /* \"#utility.yul\":4826:4830   */\n      0x00\n        /* \"#utility.yul\":4864:4866   */\n      0x20\n        /* \"#utility.yul\":4853:4862   */\n      dup3\n        /* \"#utility.yul\":4849:4867   */\n      add\n        /* \"#utility.yul\":4841:4867   */\n      swap1\n      pop\n        /* \"#utility.yul\":4877:4948   */\n      tag_272\n        /* \"#utility.yul\":4945:4946   */\n      0x00\n        /* \"#utility.yul\":4934:4943   */\n      dup4\n        /* \"#utility.yul\":4930:4947   */\n      add\n        /* \"#utility.yul\":4921:4927   */\n      dup5\n        /* \"#utility.yul\":4877:4948   */\n      tag_210\n      jump\t// in\n    tag_272:\n        /* \"#utility.yul\":4733:4955   */\n      swap3\n      swap2\n      pop\n      pop\n      jump\t// out\n        /* \"#utility.yul\":4961:5130   */\n    tag_211:\n        /* \"#utility.yul\":5045:5056   */\n      0x00\n        /* \"#utility.yul\":5079:5085   */\n      dup3\n        /* \"#utility.yul\":5074:5077   */\n      dup3\n        /* \"#utility.yul\":5067:5086   */\n      mstore\n        /* \"#utility.yul\":5119:5123   */\n      0x20\n        /* \"#utility.yul\":5114:5117   */\n      dup3\n        /* \"#utility.yul\":5110:5124   */\n      add\n        /* \"#utility.yul\":5095:5124   */\n      swap1\n      pop\n        /* \"#utility.yul\":4961:5130   */\n      swap3\n      swap2\n      pop\n      pop\n      jump\t// out\n        /* \"#utility.yul\":5136:5367   */\n    tag_212:\n        /* \"#utility.yul\":5276:5310   */\n      0x446f6e6174696f6e7320617265206e6f7420616c6c6f77656420647572696e67\n        /* \"#utility.yul\":5272:5273   */\n      0x00\n        /* \"#utility.yul\":5264:5270   */\n      dup3\n        /* \"#utility.yul\":5260:5274   */\n      add\n        /* \"#utility.yul\":5253:5311   */\n      mstore\n        /* \"#utility.yul\":5345:5359   */\n      0x207468697320706572696f640000000000000000000000000000000000000000\n        /* \"#utility.yul\":5340:5342   */\n      0x20\n        /* \"#utility.yul\":5332:5338   */\n      dup3\n        /* \"#utility.yul\":5328:5343   */\n      add\n        /* \"#utility.yul\":5321:5360   */\n      mstore\n        /* \"#utility.yul\":5136:5367   */\n      pop\n      jump\t// out\n        /* \"#utility.yul\":5373:5739   */\n    tag_213:\n        /* \"#utility.yul\":5515:5518   */\n      0x00\n        /* \"#utility.yul\":5536:5603   */\n      tag_276\n        /* \"#utility.yul\":5600:5602   */\n      0x2c\n        /* \"#utility.yul\":5595:5598   */\n      dup4\n        /* \"#utility.yul\":5536:5603   */\n      tag_211\n      jump\t// in\n    tag_276:\n        /* \"#utility.yul\":5529:5603   */\n      swap2\n      pop\n        /* \"#utility.yul\":5612:5705   */\n      tag_277\n        /* \"#utility.yul\":5701:5704   */\n      dup3\n        /* \"#utility.yul\":5612:5705   */\n      tag_212\n      jump\t// in\n    tag_277:\n        /* \"#utility.yul\":5730:5732   */\n      0x40\n        /* \"#utility.yul\":5725:5728   */\n      dup3\n        /* \"#utility.yul\":5721:5733   */\n      add\n        /* \"#utility.yul\":5714:5733   */\n      swap1\n      pop\n        /* \"#utility.yul\":5373:5739   */\n      swap2\n      swap1\n      pop\n      jump\t// out\n        /* \"#utility.yul\":5745:6164   */\n    tag_71:\n        /* \"#utility.yul\":5911:5915   */\n      0x00\n        /* \"#utility.yul\":5949:5951   */\n      0x20\n        /* \"#utility.yul\":5938:5947   */\n      dup3\n        /* \"#utility.yul\":5934:5952   */\n      add\n        /* \"#utility.yul\":5926:5952   */\n      swap1\n      pop\n        /* \"#utility.yul\":5998:6007   */\n      dup2\n        /* \"#utility.yul\":5992:5996   */\n      dup2\n        /* \"#utility.yul\":5988:6008   */\n      sub\n        /* \"#utility.yul\":5984:5985   */\n      0x00\n        /* \"#utility.yul\":5973:5982   */\n      dup4\n        /* \"#utility.yul\":5969:5986   */\n      add\n        /* \"#utility.yul\":5962:6009   */\n      mstore\n        /* \"#utility.yul\":6026:6157   */\n      tag_279\n        /* \"#utility.yul\":6152:6156   */\n      dup2\n        /* \"#utility.yul\":6026:6157   */\n      tag_213\n      jump\t// in\n    tag_279:\n        /* \"#utility.yul\":6018:6157   */\n      swap1\n      pop\n        /* \"#utility.yul\":5745:6164   */\n      swap2\n      swap1\n      pop\n      jump\t// out\n        /* \"#utility.yul\":6170:6395   */\n    tag_214:\n        /* \"#utility.yul\":6310:6344   */\n      0x446f6e6174696f6e20616d6f756e74206d757374206265206772656174657220\n        /* \"#utility.yul\":6306:6307   */\n      0x00\n        /* \"#utility.yul\":6298:6304   */\n      dup3\n        /* \"#utility.yul\":6294:6308   */\n      add\n        /* \"#utility.yul\":6287:6345   */\n      mstore\n        /* \"#utility.yul\":6379:6387   */\n      0x7468616e20300000000000000000000000000000000000000000000000000000\n        /* \"#utility.yul\":6374:6376   */\n      0x20\n        /* \"#utility.yul\":6366:6372   */\n      dup3\n        /* \"#utility.yul\":6362:6377   */\n      add\n        /* \"#utility.yul\":6355:6388   */\n      mstore\n        /* \"#utility.yul\":6170:6395   */\n      pop\n      jump\t// out\n        /* \"#utility.yul\":6401:6767   */\n    tag_215:\n        /* \"#utility.yul\":6543:6546   */\n      0x00\n        /* \"#utility.yul\":6564:6631   */\n      tag_282\n        /* \"#utility.yul\":6628:6630   */\n      0x26\n        /* \"#utility.yul\":6623:6626   */\n      dup4\n        /* \"#utility.yul\":6564:6631   */\n      tag_211\n      jump\t// in\n    tag_282:\n        /* \"#utility.yul\":6557:6631   */\n      swap2\n      pop\n        /* \"#utility.yul\":6640:6733   */\n      tag_283\n        /* \"#utility.yul\":6729:6732   */\n      dup3\n        /* \"#utility.yul\":6640:6733   */\n      tag_214\n      jump\t// in\n    tag_283:\n        /* \"#utility.yul\":6758:6760   */\n      0x40\n        /* \"#utility.yul\":6753:6756   */\n      dup3\n        /* \"#utility.yul\":6749:6761   */\n      add\n        /* \"#utility.yul\":6742:6761   */\n      swap1\n      pop\n        /* \"#utility.yul\":6401:6767   */\n      swap2\n      swap1\n      pop\n      jump\t// out\n        /* \"#utility.yul\":6773:7192   */\n    tag_75:\n        /* \"#utility.yul\":6939:6943   */\n      0x00\n        /* \"#utility.yul\":6977:6979   */\n      0x20\n        /* \"#utility.yul\":6966:6975   */\n      dup3\n        /* \"#utility.yul\":6962:6980   */\n      add\n        /* \"#utility.yul\":6954:6980   */\n      swap1\n      pop\n        /* \"#utility.yul\":7026:7035   */\n      dup2\n        /* \"#utility.yul\":7020:7024   */\n      dup2\n        /* \"#utility.yul\":7016:7036   */\n      sub\n        /* \"#utility.yul\":7012:7013   */\n      0x00\n        /* \"#utility.yul\":7001:7010   */\n      dup4\n        /* \"#utility.yul\":6997:7014   */\n      add\n        /* \"#utility.yul\":6990:7037   */\n      mstore\n        /* \"#utility.yul\":7054:7185   */\n      tag_285\n        /* \"#utility.yul\":7180:7184   */\n      dup2\n        /* \"#utility.yul\":7054:7185   */\n      tag_215\n      jump\t// in\n    tag_285:\n        /* \"#utility.yul\":7046:7185   */\n      swap1\n      pop\n        /* \"#utility.yul\":6773:7192   */\n      swap2\n      swap1\n      pop\n      jump\t// out\n        /* \"#utility.yul\":7198:7378   */\n    tag_216:\n        /* \"#utility.yul\":7246:7323   */\n      0x4e487b7100000000000000000000000000000000000000000000000000000000\n        /* \"#utility.yul\":7243:7244   */\n      0x00\n        /* \"#utility.yul\":7236:7324   */\n      mstore\n        /* \"#utility.yul\":7343:7347   */\n      0x11\n        /* \"#utility.yul\":7340:7341   */\n      0x04\n        /* \"#utility.yul\":7333:7348   */\n      mstore\n        /* \"#utility.yul\":7367:7371   */\n      0x24\n        /* \"#utility.yul\":7364:7365   */\n      0x00\n        /* \"#utility.yul\":7357:7372   */\n      revert\n        /* \"#utility.yul\":7384:7575   */\n    tag_77:\n        /* \"#utility.yul\":7424:7427   */\n      0x00\n        /* \"#utility.yul\":7443:7463   */\n      tag_288\n        /* \"#utility.yul\":7461:7462   */\n      dup3\n        /* \"#utility.yul\":7443:7463   */\n      tag_198\n      jump\t// in\n    tag_288:\n        /* \"#utility.yul\":7438:7463   */\n      swap2\n      pop\n        /* \"#utility.yul\":7477:7497   */\n      tag_289\n        /* \"#utility.yul\":7495:7496   */\n      dup4\n        /* \"#utility.yul\":7477:7497   */\n      tag_198\n      jump\t// in\n    tag_289:\n        /* \"#utility.yul\":7472:7497   */\n      swap3\n      pop\n        /* \"#utility.yul\":7520:7521   */\n      dup3\n        /* \"#utility.yul\":7517:7518   */\n      dup3\n        /* \"#utility.yul\":7513:7522   */\n      add\n        /* \"#utility.yul\":7506:7522   */\n      swap1\n      pop\n        /* \"#utility.yul\":7541:7544   */\n      dup1\n        /* \"#utility.yul\":7538:7539   */\n      dup3\n        /* \"#utility.yul\":7535:7545   */\n      gt\n        /* \"#utility.yul\":7532:7568   */\n      iszero\n      tag_290\n      jumpi\n        /* \"#utility.yul\":7548:7566   */\n      tag_291\n      tag_216\n      jump\t// in\n    tag_291:\n        /* \"#utility.yul\":7532:7568   */\n    tag_290:\n        /* \"#utility.yul\":7384:7575   */\n      swap3\n      swap2\n      pop\n      pop\n      jump\t// out\n        /* \"#utility.yul\":7581:7749   */\n    tag_217:\n        /* \"#utility.yul\":7721:7741   */\n      0x4e6f2066756e647320617661696c61626c650000000000000000000000000000\n        /* \"#utility.yul\":7717:7718   */\n      0x00\n        /* \"#utility.yul\":7709:7715   */\n      dup3\n        /* \"#utility.yul\":7705:7719   */\n      add\n        /* \"#utility.yul\":7698:7742   */\n      mstore\n        /* \"#utility.yul\":7581:7749   */\n      pop\n      jump\t// out\n        /* \"#utility.yul\":7755:8121   */\n    tag_218:\n        /* \"#utility.yul\":7897:7900   */\n      0x00\n        /* \"#utility.yul\":7918:7985   */\n      tag_294\n        /* \"#utility.yul\":7982:7984   */\n      0x12\n        /* \"#utility.yul\":7977:7980   */\n      dup4\n        /* \"#utility.yul\":7918:7985   */\n      tag_211\n      jump\t// in\n    tag_294:\n        /* \"#utility.yul\":7911:7985   */\n      swap2\n      pop\n        /* \"#utility.yul\":7994:8087   */\n      tag_295\n        /* \"#utility.yul\":8083:8086   */\n      dup3\n        /* \"#utility.yul\":7994:8087   */\n      tag_217\n      jump\t// in\n    tag_295:\n        /* \"#utility.yul\":8112:8114   */\n      0x20\n        /* \"#utility.yul\":8107:8110   */\n      dup3\n        /* \"#utility.yul\":8103:8115   */\n      add\n        /* \"#utility.yul\":8096:8115   */\n      swap1\n      pop\n        /* \"#utility.yul\":7755:8121   */\n      swap2\n      swap1\n      pop\n      jump\t// out\n        /* \"#utility.yul\":8127:8546   */\n    tag_94:\n        /* \"#utility.yul\":8293:8297   */\n      0x00\n        /* \"#utility.yul\":8331:8333   */\n      0x20\n        /* \"#utility.yul\":8320:8329   */\n      dup3\n        /* \"#utility.yul\":8316:8334   */\n      add\n        /* \"#utility.yul\":8308:8334   */\n      swap1\n      pop\n        /* \"#utility.yul\":8380:8389   */\n      dup2\n        /* \"#utility.yul\":8374:8378   */\n      dup2\n        /* \"#utility.yul\":8370:8390   */\n      sub\n        /* \"#utility.yul\":8366:8367   */\n      0x00\n        /* \"#utility.yul\":8355:8364   */\n      dup4\n        /* \"#utility.yul\":8351:8368   */\n      add\n        /* \"#utility.yul\":8344:8391   */\n      mstore\n        /* \"#utility.yul\":8408:8539   */\n      tag_297\n        /* \"#utility.yul\":8534:8538   */\n      dup2\n        /* \"#utility.yul\":8408:8539   */\n      tag_218\n      jump\t// in\n    tag_297:\n        /* \"#utility.yul\":8400:8539   */\n      swap1\n      pop\n        /* \"#utility.yul\":8127:8546   */\n      swap2\n      swap1\n      pop\n      jump\t// out\n        /* \"#utility.yul\":8552:8699   */\n    tag_219:\n        /* \"#utility.yul\":8653:8664   */\n      0x00\n        /* \"#utility.yul\":8690:8693   */\n      dup2\n        /* \"#utility.yul\":8675:8693   */\n      swap1\n      pop\n        /* \"#utility.yul\":8552:8699   */\n      swap3\n      swap2\n      pop\n      pop\n      jump\t// out\n        /* \"#utility.yul\":8705:8819   */\n    tag_220:\n      pop\n      jump\t// out\n        /* \"#utility.yul\":8825:9223   */\n    tag_221:\n        /* \"#utility.yul\":8984:8987   */\n      0x00\n        /* \"#utility.yul\":9005:9088   */\n      tag_301\n        /* \"#utility.yul\":9086:9087   */\n      0x00\n        /* \"#utility.yul\":9081:9084   */\n      dup4\n        /* \"#utility.yul\":9005:9088   */\n      tag_219\n      jump\t// in\n    tag_301:\n        /* \"#utility.yul\":8998:9088   */\n      swap2\n      pop\n        /* \"#utility.yul\":9097:9190   */\n      tag_302\n        /* \"#utility.yul\":9186:9189   */\n      dup3\n        /* \"#utility.yul\":9097:9190   */\n      tag_220\n      jump\t// in\n    tag_302:\n        /* \"#utility.yul\":9215:9216   */\n      0x00\n        /* \"#utility.yul\":9210:9213   */\n      dup3\n        /* \"#utility.yul\":9206:9217   */\n      add\n        /* \"#utility.yul\":9199:9217   */\n      swap1\n      pop\n        /* \"#utility.yul\":8825:9223   */\n      swap2\n      swap1\n      pop\n      jump\t// out\n        /* \"#utility.yul\":9229:9608   */\n    tag_97:\n        /* \"#utility.yul\":9413:9416   */\n      0x00\n        /* \"#utility.yul\":9435:9582   */\n      tag_304\n        /* \"#utility.yul\":9578:9581   */\n      dup3\n        /* \"#utility.yul\":9435:9582   */\n      tag_221\n      jump\t// in\n    tag_304:\n        /* \"#utility.yul\":9428:9582   */\n      swap2\n      pop\n        /* \"#utility.yul\":9599:9602   */\n      dup2\n        /* \"#utility.yul\":9592:9602   */\n      swap1\n      pop\n        /* \"#utility.yul\":9229:9608   */\n      swap2\n      swap1\n      pop\n      jump\t// out\n        /* \"#utility.yul\":9614:9779   */\n    tag_222:\n        /* \"#utility.yul\":9754:9771   */\n      0x5472616e73666572206661696c65640000000000000000000000000000000000\n        /* \"#utility.yul\":9750:9751   */\n      0x00\n        /* \"#utility.yul\":9742:9748   */\n      dup3\n        /* \"#utility.yul\":9738:9752   */\n      add\n        /* \"#utility.yul\":9731:9772   */\n      mstore\n        /* \"#utility.yul\":9614:9779   */\n      pop\n      jump\t// out\n        /* \"#utility.yul\":9785:10151   */\n    tag_223:\n        /* \"#utility.yul\":9927:9930   */\n      0x00\n        /* \"#utility.yul\":9948:10015   */\n      tag_307\n        /* \"#utility.yul\":10012:10014   */\n      0x0f\n        /* \"#utility.yul\":10007:10010   */\n      dup4\n        /* \"#utility.yul\":9948:10015   */\n      tag_211\n      jump\t// in\n    tag_307:\n        /* \"#utility.yul\":9941:10015   */\n      swap2\n      pop\n        /* \"#utility.yul\":10024:10117   */\n      tag_308\n        /* \"#utility.yul\":10113:10116   */\n      dup3\n        /* \"#utility.yul\":10024:10117   */\n      tag_222\n      jump\t// in\n    tag_308:\n        /* \"#utility.yul\":10142:10144   */\n      0x20\n        /* \"#utility.yul\":10137:10140   */\n      dup3\n        /* \"#utility.yul\":10133:10145   */\n      add\n        /* \"#utility.yul\":10126:10145   */\n      swap1\n      pop\n        /* \"#utility.yul\":9785:10151   */\n      swap2\n      swap1\n      pop\n      jump\t// out\n        /* \"#utility.yul\":10157:10576   */\n    tag_103:\n        /* \"#utility.yul\":10323:10327   */\n      0x00\n        /* \"#utility.yul\":10361:10363   */\n      0x20\n        /* \"#utility.yul\":10350:10359   */\n      dup3\n        /* \"#utility.yul\":10346:10364   */\n      add\n        /* \"#utility.yul\":10338:10364   */\n      swap1\n      pop\n        /* \"#utility.yul\":10410:10419   */\n      dup2\n        /* \"#utility.yul\":10404:10408   */\n      dup2\n        /* \"#utility.yul\":10400:10420   */\n      sub\n        /* \"#utility.yul\":10396:10397   */\n      0x00\n        /* \"#utility.yul\":10385:10394   */\n      dup4\n        /* \"#utility.yul\":10381:10398   */\n      add\n        /* \"#utility.yul\":10374:10421   */\n      mstore\n        /* \"#utility.yul\":10438:10569   */\n      tag_310\n        /* \"#utility.yul\":10564:10568   */\n      dup2\n        /* \"#utility.yul\":10438:10569   */\n      tag_223\n      jump\t// in\n    tag_310:\n        /* \"#utility.yul\":10430:10569   */\n      swap1\n      pop\n        /* \"#utility.yul\":10157:10576   */\n      swap2\n      swap1\n      pop\n      jump\t// out\n        /* \"#utility.yul\":10582:10762   */\n    tag_123:\n        /* \"#utility.yul\":10630:10707   */\n      0x4e487b7100000000000000000000000000000000000000000000000000000000\n        /* \"#utility.yul\":10627:10628   */\n      0x00\n        /* \"#utility.yul\":10620:10708   */\n      mstore\n        /* \"#utility.yul\":10727:10731   */\n      0x32\n        /* \"#utility.yul\":10724:10725   */\n      0x04\n        /* \"#utility.yul\":10717:10732   */\n      mstore\n        /* \"#utility.yul\":10751:10755   */\n      0x24\n        /* \"#utility.yul\":10748:10749   */\n      0x00\n        /* \"#utility.yul\":10741:10756   */\n      revert\n        /* \"#utility.yul\":10768:10962   */\n    tag_142:\n        /* \"#utility.yul\":10808:10812   */\n      0x00\n        /* \"#utility.yul\":10828:10848   */\n      tag_313\n        /* \"#utility.yul\":10846:10847   */\n      dup3\n        /* \"#utility.yul\":10828:10848   */\n      tag_198\n      jump\t// in\n    tag_313:\n        /* \"#utility.yul\":10823:10848   */\n      swap2\n      pop\n        /* \"#utility.yul\":10862:10882   */\n      tag_314\n        /* \"#utility.yul\":10880:10881   */\n      dup4\n        /* \"#utility.yul\":10862:10882   */\n      tag_198\n      jump\t// in\n    tag_314:\n        /* \"#utility.yul\":10857:10882   */\n      swap3\n      pop\n        /* \"#utility.yul\":10906:10907   */\n      dup3\n        /* \"#utility.yul\":10903:10904   */\n      dup3\n        /* \"#utility.yul\":10899:10908   */\n      sub\n        /* \"#utility.yul\":10891:10908   */\n      swap1\n      pop\n        /* \"#utility.yul\":10930:10931   */\n      dup2\n        /* \"#utility.yul\":10924:10928   */\n      dup2\n        /* \"#utility.yul\":10921:10932   */\n      gt\n        /* \"#utility.yul\":10918:10955   */\n      iszero\n      tag_315\n      jumpi\n        /* \"#utility.yul\":10935:10953   */\n      tag_316\n      tag_216\n      jump\t// in\n    tag_316:\n        /* \"#utility.yul\":10918:10955   */\n    tag_315:\n        /* \"#utility.yul\":10768:10962   */\n      swap3\n      swap2\n      pop\n      pop\n      jump\t// out\n        /* \"#utility.yul\":10968:11139   */\n    tag_150:\n        /* \"#utility.yul\":11007:11010   */\n      0x00\n        /* \"#utility.yul\":11030:11054   */\n      tag_318\n        /* \"#utility.yul\":11048:11053   */\n      dup3\n        /* \"#utility.yul\":11030:11054   */\n      tag_198\n      jump\t// in\n    tag_318:\n        /* \"#utility.yul\":11021:11054   */\n      swap2\n      pop\n        /* \"#utility.yul\":11076:11080   */\n      0x00\n        /* \"#utility.yul\":11069:11074   */\n      dup3\n        /* \"#utility.yul\":11066:11081   */\n      sub\n        /* \"#utility.yul\":11063:11104   */\n      tag_319\n      jumpi\n        /* \"#utility.yul\":11084:11102   */\n      tag_320\n      tag_216\n      jump\t// in\n    tag_320:\n        /* \"#utility.yul\":11063:11104   */\n    tag_319:\n        /* \"#utility.yul\":11131:11132   */\n      0x01\n        /* \"#utility.yul\":11124:11129   */\n      dup3\n        /* \"#utility.yul\":11120:11133   */\n      sub\n        /* \"#utility.yul\":11113:11133   */\n      swap1\n      pop\n        /* \"#utility.yul\":10968:11139   */\n      swap2\n      swap1\n      pop\n      jump\t// out\n\n    auxdata: 0xa2646970667358221220403c557ae8badb6879b24c744e448adcbf0d0721a2b1e7b19ff0df78353f536d64736f6c634300081e0033\n}\n",
				"bytecode": {
					"linkReferences": {},
					"object": "608060405234801561000f575f5ffd5b506040516114f83803806114f8833981810160405281019061003191906101c9565b335f73ffffffffffffffffffffffffffffffffffffffff168173ffffffffffffffffffffffffffffffffffffffff16036100a2575f6040517f1e4fbdf70000000000000000000000000000000000000000000000000000000081526004016100999190610233565b60405180910390fd5b6100b1816100d160201b60201c565b504260038190555080426100c59190610279565b600481905550506102ac565b5f5f5f9054906101000a900473ffffffffffffffffffffffffffffffffffffffff169050815f5f6101000a81548173ffffffffffffffffffffffffffffffffffffffff021916908373ffffffffffffffffffffffffffffffffffffffff1602179055508173ffffffffffffffffffffffffffffffffffffffff168173ffffffffffffffffffffffffffffffffffffffff167f8be0079c531659141344cd1fd0a4f28419497f9722a3daafe3b4186f6b6457e060405160405180910390a35050565b5f5ffd5b5f819050919050565b6101a881610196565b81146101b2575f5ffd5b50565b5f815190506101c38161019f565b92915050565b5f602082840312156101de576101dd610192565b5b5f6101eb848285016101b5565b91505092915050565b5f73ffffffffffffffffffffffffffffffffffffffff82169050919050565b5f61021d826101f4565b9050919050565b61022d81610213565b82525050565b5f6020820190506102465f830184610224565b92915050565b7f4e487b71000000000000000000000000000000000000000000000000000000005f52601160045260245ffd5b5f61028382610196565b915061028e83610196565b92508282019050808211156102a6576102a561024c565b5b92915050565b61123f806102b95f395ff3fe60806040526004361061009f575f3560e01c806378e979251161006357806378e97925146101745780638da5cb5b1461019e578063cc6cb19a146101c8578063de2ed89314610204578063ed88c68e1461022e578063f2fde38b14610238576100ae565b80632d1e2518146100b85780633197cbb6146100e25780633ccfd60b1461010c578063410a1d3214610122578063715018a61461015e576100ae565b366100ae576100ac610260565b005b6100b6610260565b005b3480156100c3575f5ffd5b506100cc6103b9565b6040516100d99190610e23565b60405180910390f35b3480156100ed575f5ffd5b506100f6610468565b6040516101039190610e4b565b60405180910390f35b348015610117575f5ffd5b5061012061046e565b005b34801561012d575f5ffd5b5061014860048036038101906101439190610e92565b610576565b6040516101559190610e4b565b60405180910390f35b348015610169575f5ffd5b506101726105bc565b005b34801561017f575f5ffd5b506101886105cf565b6040516101959190610e4b565b60405180910390f35b3480156101a9575f5ffd5b506101b26105d5565b6040516101bf9190610ecc565b60405180910390f35b3480156101d3575f5ffd5b506101ee60048036038101906101e99190610e92565b6105fc565b6040516101fb9190610e4b565b60405180910390f35b34801561020f575f5ffd5b50610218610611565b6040516102259190610e4b565b60405180910390f35b610236610260565b005b348015610243575f5ffd5b5061025e60048036038101906102599190610e92565b610617565b005b600354421015801561027457506004544211155b6102b3576040517f08c379a00000000000000000000000000000000000000000000000000000000081526004016102aa90610f65565b60405180910390fd5b5f34116102f5576040517f08c379a00000000000000000000000000000000000000000000000000000000081526004016102ec90610ff3565b60405180910390fd5b3460015f3373ffffffffffffffffffffffffffffffffffffffff1673ffffffffffffffffffffffffffffffffffffffff1681526020019081526020015f205f828254610341919061103e565b925050819055503460025f828254610359919061103e565b925050819055506103693361069b565b3373ffffffffffffffffffffffffffffffffffffffff167f5d8bc849764969eb1bcc6d0a2f55999d0167c1ccec240a4f39cf664ca9c4148e346040516103af9190610e4b565b60405180910390a2565b6103c1610cae565b6005600380602002604051908101604052809291905f905b8282101561045f578382600202016040518060400160405290815f82015f9054906101000a900473ffffffffffffffffffffffffffffffffffffffff1673ffffffffffffffffffffffffffffffffffffffff1673ffffffffffffffffffffffffffffffffffffffff168152602001600182015481525050815260200190600101906103d9565b50505050905090565b60045481565b610476610b5f565b5f4790505f81116104bc576040517f08c379a00000000000000000000000000000000000000000000000000000000081526004016104b3906110bb565b60405180910390fd5b5f6104c56105d5565b73ffffffffffffffffffffffffffffffffffffffff16826040516104e890611106565b5f6040518083038185875af1925050503d805f8114610522576040519150601f19603f3d011682016040523d82523d5f602084013e610527565b606091505b505090508061056b576040517f08c379a000000000000000000000000000000000000000000000000000000000815260040161056290611164565b60405180910390fd5b5f6002819055505050565b5f60015f8373ffffffffffffffffffffffffffffffffffffffff1673ffffffffffffffffffffffffffffffffffffffff1681526020019081526020015f20549050919050565b6105c4610b5f565b6105cd5f610be6565b565b60035481565b5f5f5f9054906101000a900473ffffffffffffffffffffffffffffffffffffffff16905090565b6001602052805f5260405f205f915090505481565b60025481565b61061f610b5f565b5f73ffffffffffffffffffffffffffffffffffffffff168173ffffffffffffffffffffffffffffffffffffffff160361068f575f6040517f1e4fbdf70000000000000000000000000000000000000000000000000000000081526004016106869190610ecc565b60405180910390fd5b61069881610be6565b50565b5f60015f8373ffffffffffffffffffffffffffffffffffffffff1673ffffffffffffffffffffffffffffffffffffffff1681526020019081526020015f205490505f5f90505f5f5f90505b6003811015610774578473ffffffffffffffffffffffffffffffffffffffff166005826003811061071a57610719611182565b5b600202015f015f9054906101000a900473ffffffffffffffffffffffffffffffffffffffff1673ffffffffffffffffffffffffffffffffffffffff16036107675760019250809150610774565b80806001019150506106e6565b5081156107a05782600582600381106107905761078f611182565b5b6002020160010181905550610947565b5f5f90505b600381101561094557600581600381106107c2576107c1611182565b5b6002020160010154841115610938575f600290505b8181111561089e5760056001826107ee91906111af565b600381106107ff576107fe611182565b5b600202016005826003811061081757610816611182565b5b600202015f82015f9054906101000a900473ffffffffffffffffffffffffffffffffffffffff16815f015f6101000a81548173ffffffffffffffffffffffffffffffffffffffff021916908373ffffffffffffffffffffffffffffffffffffffff160217905550600182015481600101559050508080610896906111e2565b9150506107d7565b5060405180604001604052808673ffffffffffffffffffffffffffffffffffffffff16815260200185815250600582600381106108de576108dd611182565b5b600202015f820151815f015f6101000a81548173ffffffffffffffffffffffffffffffffffffffff021916908373ffffffffffffffffffffffffffffffffffffffff16021790555060208201518160010155905050610945565b80806001019150506107a5565b505b5f5f90505b6002811015610b58575f600182610963919061103e565b90505b6003811015610b4a576005816003811061098357610982611182565b5b60020201600101546005836003811061099f5761099e611182565b5b60020201600101541015610b3d575f600583600381106109c2576109c1611182565b5b600202016040518060400160405290815f82015f9054906101000a900473ffffffffffffffffffffffffffffffffffffffff1673ffffffffffffffffffffffffffffffffffffffff1673ffffffffffffffffffffffffffffffffffffffff168152602001600182015481525050905060058260038110610a4557610a44611182565b5b6002020160058460038110610a5d57610a5c611182565b5b600202015f82015f9054906101000a900473ffffffffffffffffffffffffffffffffffffffff16815f015f6101000a81548173ffffffffffffffffffffffffffffffffffffffff021916908373ffffffffffffffffffffffffffffffffffffffff160217905550600182015481600101559050508060058360038110610ae657610ae5611182565b5b600202015f820151815f015f6101000a81548173ffffffffffffffffffffffffffffffffffffffff021916908373ffffffffffffffffffffffffffffffffffffffff16021790555060208201518160010155905050505b8080600101915050610966565b50808060010191505061094c565b5050505050565b610b67610ca7565b73ffffffffffffffffffffffffffffffffffffffff16610b856105d5565b73ffffffffffffffffffffffffffffffffffffffff1614610be457610ba8610ca7565b6040517f118cdaa7000000000000000000000000000000000000000000000000000000008152600401610bdb9190610ecc565b60405180910390fd5b565b5f5f5f9054906101000a900473ffffffffffffffffffffffffffffffffffffffff169050815f5f6101000a81548173ffffffffffffffffffffffffffffffffffffffff021916908373ffffffffffffffffffffffffffffffffffffffff1602179055508173ffffffffffffffffffffffffffffffffffffffff168173ffffffffffffffffffffffffffffffffffffffff167f8be0079c531659141344cd1fd0a4f28419497f9722a3daafe3b4186f6b6457e060405160405180910390a35050565b5f33905090565b60405180606001604052806003905b610cc5610cdb565b815260200190600190039081610cbd5790505090565b60405180604001604052805f73ffffffffffffffffffffffffffffffffffffffff1681526020015f81525090565b5f60039050919050565b5f81905092915050565b5f819050919050565b5f73ffffffffffffffffffffffffffffffffffffffff82169050919050565b5f610d4f82610d26565b9050919050565b610d5f81610d45565b82525050565b5f819050919050565b610d7781610d65565b82525050565b604082015f820151610d915f850182610d56565b506020820151610da46020850182610d6e565b50505050565b5f610db58383610d7d565b60408301905092915050565b5f602082019050919050565b610dd681610d09565b610de08184610d13565b9250610deb82610d1d565b805f5b83811015610e1b578151610e028782610daa565b9650610e0d83610dc1565b925050600181019050610dee565b505050505050565b5f60c082019050610e365f830184610dcd565b92915050565b610e4581610d65565b82525050565b5f602082019050610e5e5f830184610e3c565b92915050565b5f5ffd5b610e7181610d45565b8114610e7b575f5ffd5b50565b5f81359050610e8c81610e68565b92915050565b5f60208284031215610ea757610ea6610e64565b5b5f610eb484828501610e7e565b91505092915050565b610ec681610d45565b82525050565b5f602082019050610edf5f830184610ebd565b92915050565b5f82825260208201905092915050565b7f446f6e6174696f6e7320617265206e6f7420616c6c6f77656420647572696e675f8201527f207468697320706572696f640000000000000000000000000000000000000000602082015250565b5f610f4f602c83610ee5565b9150610f5a82610ef5565b604082019050919050565b5f6020820190508181035f830152610f7c81610f43565b9050919050565b7f446f6e6174696f6e20616d6f756e74206d7573742062652067726561746572205f8201527f7468616e20300000000000000000000000000000000000000000000000000000602082015250565b5f610fdd602683610ee5565b9150610fe882610f83565b604082019050919050565b5f6020820190508181035f83015261100a81610fd1565b9050919050565b7f4e487b71000000000000000000000000000000000000000000000000000000005f52601160045260245ffd5b5f61104882610d65565b915061105383610d65565b925082820190508082111561106b5761106a611011565b5b92915050565b7f4e6f2066756e647320617661696c61626c6500000000000000000000000000005f82015250565b5f6110a5601283610ee5565b91506110b082611071565b602082019050919050565b5f6020820190508181035f8301526110d281611099565b9050919050565b5f81905092915050565b50565b5f6110f15f836110d9565b91506110fc826110e3565b5f82019050919050565b5f611110826110e6565b9150819050919050565b7f5472616e73666572206661696c656400000000000000000000000000000000005f82015250565b5f61114e600f83610ee5565b91506111598261111a565b602082019050919050565b5f6020820190508181035f83015261117b81611142565b9050919050565b7f4e487b71000000000000000000000000000000000000000000000000000000005f52603260045260245ffd5b5f6111b982610d65565b91506111c483610d65565b92508282039050818111156111dc576111db611011565b5b92915050565b5f6111ec82610d65565b91505f82036111fe576111fd611011565b5b60018203905091905056fea2646970667358221220403c557ae8badb6879b24c744e448adcbf0d0721a2b1e7b19ff0df78353f536d64736f6c634300081e0033",
					"opcodes": "PUSH1 0x80 PUSH1 0x40 MSTORE CALLVALUE DUP1 ISZERO PUSH2 0xF JUMPI PUSH0 PUSH0 REVERT JUMPDEST POP PUSH1 0x40 MLOAD PUSH2 0x14F8 CODESIZE SUB DUP1 PUSH2 0x14F8 DUP4 CODECOPY DUP2 DUP2 ADD PUSH1 0x40 MSTORE DUP2 ADD SWAP1 PUSH2 0x31 SWAP2 SWAP1 PUSH2 0x1C9 JUMP JUMPDEST CALLER PUSH0 PUSH20 0xFFFFFFFFFFFFFFFFFFFFFFFFFFFFFFFFFFFFFFFF AND DUP2 PUSH20 0xFFFFFFFFFFFFFFFFFFFFFFFFFFFFFFFFFFFFFFFF AND SUB PUSH2 0xA2 JUMPI PUSH0 PUSH1 0x40 MLOAD PUSH32 0x1E4FBDF700000000000000000000000000000000000000000000000000000000 DUP2 MSTORE PUSH1 0x4 ADD PUSH2 0x99 SWAP2 SWAP1 PUSH2 0x233 JUMP JUMPDEST PUSH1 0x40 MLOAD DUP1 SWAP2 SUB SWAP1 REVERT JUMPDEST PUSH2 0xB1 DUP2 PUSH2 0xD1 PUSH1 0x20 SHL PUSH1 0x20 SHR JUMP JUMPDEST POP TIMESTAMP PUSH1 0x3 DUP2 SWAP1 SSTORE POP DUP1 TIMESTAMP PUSH2 0xC5 SWAP2 SWAP1 PUSH2 0x279 JUMP JUMPDEST PUSH1 0x4 DUP2 SWAP1 SSTORE POP POP PUSH2 0x2AC JUMP JUMPDEST PUSH0 PUSH0 PUSH0 SWAP1 SLOAD SWAP1 PUSH2 0x100 EXP SWAP1 DIV PUSH20 0xFFFFFFFFFFFFFFFFFFFFFFFFFFFFFFFFFFFFFFFF AND SWAP1 POP DUP2 PUSH0 PUSH0 PUSH2 0x100 EXP DUP2 SLOAD DUP2 PUSH20 0xFFFFFFFFFFFFFFFFFFFFFFFFFFFFFFFFFFFFFFFF MUL NOT AND SWAP1 DUP4 PUSH20 0xFFFFFFFFFFFFFFFFFFFFFFFFFFFFFFFFFFFFFFFF AND MUL OR SWAP1 SSTORE POP DUP2 PUSH20 0xFFFFFFFFFFFFFFFFFFFFFFFFFFFFFFFFFFFFFFFF AND DUP2 PUSH20 0xFFFFFFFFFFFFFFFFFFFFFFFFFFFFFFFFFFFFFFFF AND PUSH32 0x8BE0079C531659141344CD1FD0A4F28419497F9722A3DAAFE3B4186F6B6457E0 PUSH1 0x40 MLOAD PUSH1 0x40 MLOAD DUP1 SWAP2 SUB SWAP1 LOG3 POP POP JUMP JUMPDEST PUSH0 PUSH0 REVERT JUMPDEST PUSH0 DUP2 SWAP1 POP SWAP2 SWAP1 POP JUMP JUMPDEST PUSH2 0x1A8 DUP2 PUSH2 0x196 JUMP JUMPDEST DUP2 EQ PUSH2 0x1B2 JUMPI PUSH0 PUSH0 REVERT JUMPDEST POP JUMP JUMPDEST PUSH0 DUP2 MLOAD SWAP1 POP PUSH2 0x1C3 DUP2 PUSH2 0x19F JUMP JUMPDEST SWAP3 SWAP2 POP POP JUMP JUMPDEST PUSH0 PUSH1 0x20 DUP3 DUP5 SUB SLT ISZERO PUSH2 0x1DE JUMPI PUSH2 0x1DD PUSH2 0x192 JUMP JUMPDEST JUMPDEST PUSH0 PUSH2 0x1EB DUP5 DUP3 DUP6 ADD PUSH2 0x1B5 JUMP JUMPDEST SWAP2 POP POP SWAP3 SWAP2 POP POP JUMP JUMPDEST PUSH0 PUSH20 0xFFFFFFFFFFFFFFFFFFFFFFFFFFFFFFFFFFFFFFFF DUP3 AND SWAP1 POP SWAP2 SWAP1 POP JUMP JUMPDEST PUSH0 PUSH2 0x21D DUP3 PUSH2 0x1F4 JUMP JUMPDEST SWAP1 POP SWAP2 SWAP1 POP JUMP JUMPDEST PUSH2 0x22D DUP2 PUSH2 0x213 JUMP JUMPDEST DUP3 MSTORE POP POP JUMP JUMPDEST PUSH0 PUSH1 0x20 DUP3 ADD SWAP1 POP PUSH2 0x246 PUSH0 DUP4 ADD DUP5 PUSH2 0x224 JUMP JUMPDEST SWAP3 SWAP2 POP POP JUMP JUMPDEST PUSH32 0x4E487B7100000000000000000000000000000000000000000000000000000000 PUSH0 MSTORE PUSH1 0x11 PUSH1 0x4 MSTORE PUSH1 0x24 PUSH0 REVERT JUMPDEST PUSH0 PUSH2 0x283 DUP3 PUSH2 0x196 JUMP JUMPDEST SWAP2 POP PUSH2 0x28E DUP4 PUSH2 0x196 JUMP JUMPDEST SWAP3 POP DUP3 DUP3 ADD SWAP1 POP DUP1 DUP3 GT ISZERO PUSH2 0x2A6 JUMPI PUSH2 0x2A5 PUSH2 0x24C JUMP JUMPDEST JUMPDEST SWAP3 SWAP2 POP POP JUMP JUMPDEST PUSH2 0x123F DUP1 PUSH2 0x2B9 PUSH0 CODECOPY PUSH0 RETURN INVALID PUSH1 0x80 PUSH1 0x40 MSTORE PUSH1 0x4 CALLDATASIZE LT PUSH2 0x9F JUMPI PUSH0 CALLDATALOAD PUSH1 0xE0 SHR DUP1 PUSH4 0x78E97925 GT PUSH2 0x63 JUMPI DUP1 PUSH4 0x78E97925 EQ PUSH2 0x174 JUMPI DUP1 PUSH4 0x8DA5CB5B EQ PUSH2 0x19E JUMPI DUP1 PUSH4 0xCC6CB19A EQ PUSH2 0x1C8 JUMPI DUP1 PUSH4 0xDE2ED893 EQ PUSH2 0x204 JUMPI DUP1 PUSH4 0xED88C68E EQ PUSH2 0x22E JUMPI DUP1 PUSH4 0xF2FDE38B EQ PUSH2 0x238 JUMPI PUSH2 0xAE JUMP JUMPDEST DUP1 PUSH4 0x2D1E2518 EQ PUSH2 0xB8 JUMPI DUP1 PUSH4 0x3197CBB6 EQ PUSH2 0xE2 JUMPI DUP1 PUSH4 0x3CCFD60B EQ PUSH2 0x10C JUMPI DUP1 PUSH4 0x410A1D32 EQ PUSH2 0x122 JUMPI DUP1 PUSH4 0x715018A6 EQ PUSH2 0x15E JUMPI PUSH2 0xAE JUMP JUMPDEST CALLDATASIZE PUSH2 0xAE JUMPI PUSH2 0xAC PUSH2 0x260 JUMP JUMPDEST STOP JUMPDEST PUSH2 0xB6 PUSH2 0x260 JUMP JUMPDEST STOP JUMPDEST CALLVALUE DUP1 ISZERO PUSH2 0xC3 JUMPI PUSH0 PUSH0 REVERT JUMPDEST POP PUSH2 0xCC PUSH2 0x3B9 JUMP JUMPDEST PUSH1 0x40 MLOAD PUSH2 0xD9 SWAP2 SWAP1 PUSH2 0xE23 JUMP JUMPDEST PUSH1 0x40 MLOAD DUP1 SWAP2 SUB SWAP1 RETURN JUMPDEST CALLVALUE DUP1 ISZERO PUSH2 0xED JUMPI PUSH0 PUSH0 REVERT JUMPDEST POP PUSH2 0xF6 PUSH2 0x468 JUMP JUMPDEST PUSH1 0x40 MLOAD PUSH2 0x103 SWAP2 SWAP1 PUSH2 0xE4B JUMP JUMPDEST PUSH1 0x40 MLOAD DUP1 SWAP2 SUB SWAP1 RETURN JUMPDEST CALLVALUE DUP1 ISZERO PUSH2 0x117 JUMPI PUSH0 PUSH0 REVERT JUMPDEST POP PUSH2 0x120 PUSH2 0x46E JUMP JUMPDEST STOP JUMPDEST CALLVALUE DUP1 ISZERO PUSH2 0x12D JUMPI PUSH0 PUSH0 REVERT JUMPDEST POP PUSH2 0x148 PUSH1 0x4 DUP1 CALLDATASIZE SUB DUP2 ADD SWAP1 PUSH2 0x143 SWAP2 SWAP1 PUSH2 0xE92 JUMP JUMPDEST PUSH2 0x576 JUMP JUMPDEST PUSH1 0x40 MLOAD PUSH2 0x155 SWAP2 SWAP1 PUSH2 0xE4B JUMP JUMPDEST PUSH1 0x40 MLOAD DUP1 SWAP2 SUB SWAP1 RETURN JUMPDEST CALLVALUE DUP1 ISZERO PUSH2 0x169 JUMPI PUSH0 PUSH0 REVERT JUMPDEST POP PUSH2 0x172 PUSH2 0x5BC JUMP JUMPDEST STOP JUMPDEST CALLVALUE DUP1 ISZERO PUSH2 0x17F JUMPI PUSH0 PUSH0 REVERT JUMPDEST POP PUSH2 0x188 PUSH2 0x5CF JUMP JUMPDEST PUSH1 0x40 MLOAD PUSH2 0x195 SWAP2 SWAP1 PUSH2 0xE4B JUMP JUMPDEST PUSH1 0x40 MLOAD DUP1 SWAP2 SUB SWAP1 RETURN JUMPDEST CALLVALUE DUP1 ISZERO PUSH2 0x1A9 JUMPI PUSH0 PUSH0 REVERT JUMPDEST POP PUSH2 0x1B2 PUSH2 0x5D5 JUMP JUMPDEST PUSH1 0x40 MLOAD PUSH2 0x1BF SWAP2 SWAP1 PUSH2 0xECC JUMP JUMPDEST PUSH1 0x40 MLOAD DUP1 SWAP2 SUB SWAP1 RETURN JUMPDEST CALLVALUE DUP1 ISZERO PUSH2 0x1D3 JUMPI PUSH0 PUSH0 REVERT JUMPDEST POP PUSH2 0x1EE PUSH1 0x4 DUP1 CALLDATASIZE SUB DUP2 ADD SWAP1 PUSH2 0x1E9 SWAP2 SWAP1 PUSH2 0xE92 JUMP JUMPDEST PUSH2 0x5FC JUMP JUMPDEST PUSH1 0x40 MLOAD PUSH2 0x1FB SWAP2 SWAP1 PUSH2 0xE4B JUMP JUMPDEST PUSH1 0x40 MLOAD DUP1 SWAP2 SUB SWAP1 RETURN JUMPDEST CALLVALUE DUP1 ISZERO PUSH2 0x20F JUMPI PUSH0 PUSH0 REVERT JUMPDEST POP PUSH2 0x218 PUSH2 0x611 JUMP JUMPDEST PUSH1 0x40 MLOAD PUSH2 0x225 SWAP2 SWAP1 PUSH2 0xE4B JUMP JUMPDEST PUSH1 0x40 MLOAD DUP1 SWAP2 SUB SWAP1 RETURN JUMPDEST PUSH2 0x236 PUSH2 0x260 JUMP JUMPDEST STOP JUMPDEST CALLVALUE DUP1 ISZERO PUSH2 0x243 JUMPI PUSH0 PUSH0 REVERT JUMPDEST POP PUSH2 0x25E PUSH1 0x4 DUP1 CALLDATASIZE SUB DUP2 ADD SWAP1 PUSH2 0x259 SWAP2 SWAP1 PUSH2 0xE92 JUMP JUMPDEST PUSH2 0x617 JUMP JUMPDEST STOP JUMPDEST PUSH1 0x3 SLOAD TIMESTAMP LT ISZERO DUP1 ISZERO PUSH2 0x274 JUMPI POP PUSH1 0x4 SLOAD TIMESTAMP GT ISZERO JUMPDEST PUSH2 0x2B3 JUMPI PUSH1 0x40 MLOAD PUSH32 0x8C379A000000000000000000000000000000000000000000000000000000000 DUP2 MSTORE PUSH1 0x4 ADD PUSH2 0x2AA SWAP1 PUSH2 0xF65 JUMP JUMPDEST PUSH1 0x40 MLOAD DUP1 SWAP2 SUB SWAP1 REVERT JUMPDEST PUSH0 CALLVALUE GT PUSH2 0x2F5 JUMPI PUSH1 0x40 MLOAD PUSH32 0x8C379A000000000000000000000000000000000000000000000000000000000 DUP2 MSTORE PUSH1 0x4 ADD PUSH2 0x2EC SWAP1 PUSH2 0xFF3 JUMP JUMPDEST PUSH1 0x40 MLOAD DUP1 SWAP2 SUB SWAP1 REVERT JUMPDEST CALLVALUE PUSH1 0x1 PUSH0 CALLER PUSH20 0xFFFFFFFFFFFFFFFFFFFFFFFFFFFFFFFFFFFFFFFF AND PUSH20 0xFFFFFFFFFFFFFFFFFFFFFFFFFFFFFFFFFFFFFFFF AND DUP2 MSTORE PUSH1 0x20 ADD SWAP1 DUP2 MSTORE PUSH1 0x20 ADD PUSH0 KECCAK256 PUSH0 DUP3 DUP3 SLOAD PUSH2 0x341 SWAP2 SWAP1 PUSH2 0x103E JUMP JUMPDEST SWAP3 POP POP DUP2 SWAP1 SSTORE POP CALLVALUE PUSH1 0x2 PUSH0 DUP3 DUP3 SLOAD PUSH2 0x359 SWAP2 SWAP1 PUSH2 0x103E JUMP JUMPDEST SWAP3 POP POP DUP2 SWAP1 SSTORE POP PUSH2 0x369 CALLER PUSH2 0x69B JUMP JUMPDEST CALLER PUSH20 0xFFFFFFFFFFFFFFFFFFFFFFFFFFFFFFFFFFFFFFFF AND PUSH32 0x5D8BC849764969EB1BCC6D0A2F55999D0167C1CCEC240A4F39CF664CA9C4148E CALLVALUE PUSH1 0x40 MLOAD PUSH2 0x3AF SWAP2 SWAP1 PUSH2 0xE4B JUMP JUMPDEST PUSH1 0x40 MLOAD DUP1 SWAP2 SUB SWAP1 LOG2 JUMP JUMPDEST PUSH2 0x3C1 PUSH2 0xCAE JUMP JUMPDEST PUSH1 0x5 PUSH1 0x3 DUP1 PUSH1 0x20 MUL PUSH1 0x40 MLOAD SWAP1 DUP2 ADD PUSH1 0x40 MSTORE DUP1 SWAP3 SWAP2 SWAP1 PUSH0 SWAP1 JUMPDEST DUP3 DUP3 LT ISZERO PUSH2 0x45F JUMPI DUP4 DUP3 PUSH1 0x2 MUL ADD PUSH1 0x40 MLOAD DUP1 PUSH1 0x40 ADD PUSH1 0x40 MSTORE SWAP1 DUP2 PUSH0 DUP3 ADD PUSH0 SWAP1 SLOAD SWAP1 PUSH2 0x100 EXP SWAP1 DIV PUSH20 0xFFFFFFFFFFFFFFFFFFFFFFFFFFFFFFFFFFFFFFFF AND PUSH20 0xFFFFFFFFFFFFFFFFFFFFFFFFFFFFFFFFFFFFFFFF AND PUSH20 0xFFFFFFFFFFFFFFFFFFFFFFFFFFFFFFFFFFFFFFFF AND DUP2 MSTORE PUSH1 0x20 ADD PUSH1 0x1 DUP3 ADD SLOAD DUP2 MSTORE POP POP DUP2 MSTORE PUSH1 0x20 ADD SWAP1 PUSH1 0x1 ADD SWAP1 PUSH2 0x3D9 JUMP JUMPDEST POP POP POP POP SWAP1 POP SWAP1 JUMP JUMPDEST PUSH1 0x4 SLOAD DUP2 JUMP JUMPDEST PUSH2 0x476 PUSH2 0xB5F JUMP JUMPDEST PUSH0 SELFBALANCE SWAP1 POP PUSH0 DUP2 GT PUSH2 0x4BC JUMPI PUSH1 0x40 MLOAD PUSH32 0x8C379A000000000000000000000000000000000000000000000000000000000 DUP2 MSTORE PUSH1 0x4 ADD PUSH2 0x4B3 SWAP1 PUSH2 0x10BB JUMP JUMPDEST PUSH1 0x40 MLOAD DUP1 SWAP2 SUB SWAP1 REVERT JUMPDEST PUSH0 PUSH2 0x4C5 PUSH2 0x5D5 JUMP JUMPDEST PUSH20 0xFFFFFFFFFFFFFFFFFFFFFFFFFFFFFFFFFFFFFFFF AND DUP3 PUSH1 0x40 MLOAD PUSH2 0x4E8 SWAP1 PUSH2 0x1106 JUMP JUMPDEST PUSH0 PUSH1 0x40 MLOAD DUP1 DUP4 SUB DUP2 DUP6 DUP8 GAS CALL SWAP3 POP POP POP RETURNDATASIZE DUP1 PUSH0 DUP2 EQ PUSH2 0x522 JUMPI PUSH1 0x40 MLOAD SWAP2 POP PUSH1 0x1F NOT PUSH1 0x3F RETURNDATASIZE ADD AND DUP3 ADD PUSH1 0x40 MSTORE RETURNDATASIZE DUP3 MSTORE RETURNDATASIZE PUSH0 PUSH1 0x20 DUP5 ADD RETURNDATACOPY PUSH2 0x527 JUMP JUMPDEST PUSH1 0x60 SWAP2 POP JUMPDEST POP POP SWAP1 POP DUP1 PUSH2 0x56B JUMPI PUSH1 0x40 MLOAD PUSH32 0x8C379A000000000000000000000000000000000000000000000000000000000 DUP2 MSTORE PUSH1 0x4 ADD PUSH2 0x562 SWAP1 PUSH2 0x1164 JUMP JUMPDEST PUSH1 0x40 MLOAD DUP1 SWAP2 SUB SWAP1 REVERT JUMPDEST PUSH0 PUSH1 0x2 DUP2 SWAP1 SSTORE POP POP POP JUMP JUMPDEST PUSH0 PUSH1 0x1 PUSH0 DUP4 PUSH20 0xFFFFFFFFFFFFFFFFFFFFFFFFFFFFFFFFFFFFFFFF AND PUSH20 0xFFFFFFFFFFFFFFFFFFFFFFFFFFFFFFFFFFFFFFFF AND DUP2 MSTORE PUSH1 0x20 ADD SWAP1 DUP2 MSTORE PUSH1 0x20 ADD PUSH0 KECCAK256 SLOAD SWAP1 POP SWAP2 SWAP1 POP JUMP JUMPDEST PUSH2 0x5C4 PUSH2 0xB5F JUMP JUMPDEST PUSH2 0x5CD PUSH0 PUSH2 0xBE6 JUMP JUMPDEST JUMP JUMPDEST PUSH1 0x3 SLOAD DUP2 JUMP JUMPDEST PUSH0 PUSH0 PUSH0 SWAP1 SLOAD SWAP1 PUSH2 0x100 EXP SWAP1 DIV PUSH20 0xFFFFFFFFFFFFFFFFFFFFFFFFFFFFFFFFFFFFFFFF AND SWAP1 POP SWAP1 JUMP JUMPDEST PUSH1 0x1 PUSH1 0x20 MSTORE DUP1 PUSH0 MSTORE PUSH1 0x40 PUSH0 KECCAK256 PUSH0 SWAP2 POP SWAP1 POP SLOAD DUP2 JUMP JUMPDEST PUSH1 0x2 SLOAD DUP2 JUMP JUMPDEST PUSH2 0x61F PUSH2 0xB5F JUMP JUMPDEST PUSH0 PUSH20 0xFFFFFFFFFFFFFFFFFFFFFFFFFFFFFFFFFFFFFFFF AND DUP2 PUSH20 0xFFFFFFFFFFFFFFFFFFFFFFFFFFFFFFFFFFFFFFFF AND SUB PUSH2 0x68F JUMPI PUSH0 PUSH1 0x40 MLOAD PUSH32 0x1E4FBDF700000000000000000000000000000000000000000000000000000000 DUP2 MSTORE PUSH1 0x4 ADD PUSH2 0x686 SWAP2 SWAP1 PUSH2 0xECC JUMP JUMPDEST PUSH1 0x40 MLOAD DUP1 SWAP2 SUB SWAP1 REVERT JUMPDEST PUSH2 0x698 DUP2 PUSH2 0xBE6 JUMP JUMPDEST POP JUMP JUMPDEST PUSH0 PUSH1 0x1 PUSH0 DUP4 PUSH20 0xFFFFFFFFFFFFFFFFFFFFFFFFFFFFFFFFFFFFFFFF AND PUSH20 0xFFFFFFFFFFFFFFFFFFFFFFFFFFFFFFFFFFFFFFFF AND DUP2 MSTORE PUSH1 0x20 ADD SWAP1 DUP2 MSTORE PUSH1 0x20 ADD PUSH0 KECCAK256 SLOAD SWAP1 POP PUSH0 PUSH0 SWAP1 POP PUSH0 PUSH0 PUSH0 SWAP1 POP JUMPDEST PUSH1 0x3 DUP2 LT ISZERO PUSH2 0x774 JUMPI DUP5 PUSH20 0xFFFFFFFFFFFFFFFFFFFFFFFFFFFFFFFFFFFFFFFF AND PUSH1 0x5 DUP3 PUSH1 0x3 DUP2 LT PUSH2 0x71A JUMPI PUSH2 0x719 PUSH2 0x1182 JUMP JUMPDEST JUMPDEST PUSH1 0x2 MUL ADD PUSH0 ADD PUSH0 SWAP1 SLOAD SWAP1 PUSH2 0x100 EXP SWAP1 DIV PUSH20 0xFFFFFFFFFFFFFFFFFFFFFFFFFFFFFFFFFFFFFFFF AND PUSH20 0xFFFFFFFFFFFFFFFFFFFFFFFFFFFFFFFFFFFFFFFF AND SUB PUSH2 0x767 JUMPI PUSH1 0x1 SWAP3 POP DUP1 SWAP2 POP PUSH2 0x774 JUMP JUMPDEST DUP1 DUP1 PUSH1 0x1 ADD SWAP2 POP POP PUSH2 0x6E6 JUMP JUMPDEST POP DUP2 ISZERO PUSH2 0x7A0 JUMPI DUP3 PUSH1 0x5 DUP3 PUSH1 0x3 DUP2 LT PUSH2 0x790 JUMPI PUSH2 0x78F PUSH2 0x1182 JUMP JUMPDEST JUMPDEST PUSH1 0x2 MUL ADD PUSH1 0x1 ADD DUP2 SWAP1 SSTORE POP PUSH2 0x947 JUMP JUMPDEST PUSH0 PUSH0 SWAP1 POP JUMPDEST PUSH1 0x3 DUP2 LT ISZERO PUSH2 0x945 JUMPI PUSH1 0x5 DUP2 PUSH1 0x3 DUP2 LT PUSH2 0x7C2 JUMPI PUSH2 0x7C1 PUSH2 0x1182 JUMP JUMPDEST JUMPDEST PUSH1 0x2 MUL ADD PUSH1 0x1 ADD SLOAD DUP5 GT ISZERO PUSH2 0x938 JUMPI PUSH0 PUSH1 0x2 SWAP1 POP JUMPDEST DUP2 DUP2 GT ISZERO PUSH2 0x89E JUMPI PUSH1 0x5 PUSH1 0x1 DUP3 PUSH2 0x7EE SWAP2 SWAP1 PUSH2 0x11AF JUMP JUMPDEST PUSH1 0x3 DUP2 LT PUSH2 0x7FF JUMPI PUSH2 0x7FE PUSH2 0x1182 JUMP JUMPDEST JUMPDEST PUSH1 0x2 MUL ADD PUSH1 0x5 DUP3 PUSH1 0x3 DUP2 LT PUSH2 0x817 JUMPI PUSH2 0x816 PUSH2 0x1182 JUMP JUMPDEST JUMPDEST PUSH1 0x2 MUL ADD PUSH0 DUP3 ADD PUSH0 SWAP1 SLOAD SWAP1 PUSH2 0x100 EXP SWAP1 DIV PUSH20 0xFFFFFFFFFFFFFFFFFFFFFFFFFFFFFFFFFFFFFFFF AND DUP2 PUSH0 ADD PUSH0 PUSH2 0x100 EXP DUP2 SLOAD DUP2 PUSH20 0xFFFFFFFFFFFFFFFFFFFFFFFFFFFFFFFFFFFFFFFF MUL NOT AND SWAP1 DUP4 PUSH20 0xFFFFFFFFFFFFFFFFFFFFFFFFFFFFFFFFFFFFFFFF AND MUL OR SWAP1 SSTORE POP PUSH1 0x1 DUP3 ADD SLOAD DUP2 PUSH1 0x1 ADD SSTORE SWAP1 POP POP DUP1 DUP1 PUSH2 0x896 SWAP1 PUSH2 0x11E2 JUMP JUMPDEST SWAP2 POP POP PUSH2 0x7D7 JUMP JUMPDEST POP PUSH1 0x40 MLOAD DUP1 PUSH1 0x40 ADD PUSH1 0x40 MSTORE DUP1 DUP7 PUSH20 0xFFFFFFFFFFFFFFFFFFFFFFFFFFFFFFFFFFFFFFFF AND DUP2 MSTORE PUSH1 0x20 ADD DUP6 DUP2 MSTORE POP PUSH1 0x5 DUP3 PUSH1 0x3 DUP2 LT PUSH2 0x8DE JUMPI PUSH2 0x8DD PUSH2 0x1182 JUMP JUMPDEST JUMPDEST PUSH1 0x2 MUL ADD PUSH0 DUP3 ADD MLOAD DUP2 PUSH0 ADD PUSH0 PUSH2 0x100 EXP DUP2 SLOAD DUP2 PUSH20 0xFFFFFFFFFFFFFFFFFFFFFFFFFFFFFFFFFFFFFFFF MUL NOT AND SWAP1 DUP4 PUSH20 0xFFFFFFFFFFFFFFFFFFFFFFFFFFFFFFFFFFFFFFFF AND MUL OR SWAP1 SSTORE POP PUSH1 0x20 DUP3 ADD MLOAD DUP2 PUSH1 0x1 ADD SSTORE SWAP1 POP POP PUSH2 0x945 JUMP JUMPDEST DUP1 DUP1 PUSH1 0x1 ADD SWAP2 POP POP PUSH2 0x7A5 JUMP JUMPDEST POP JUMPDEST PUSH0 PUSH0 SWAP1 POP JUMPDEST PUSH1 0x2 DUP2 LT ISZERO PUSH2 0xB58 JUMPI PUSH0 PUSH1 0x1 DUP3 PUSH2 0x963 SWAP2 SWAP1 PUSH2 0x103E JUMP JUMPDEST SWAP1 POP JUMPDEST PUSH1 0x3 DUP2 LT ISZERO PUSH2 0xB4A JUMPI PUSH1 0x5 DUP2 PUSH1 0x3 DUP2 LT PUSH2 0x983 JUMPI PUSH2 0x982 PUSH2 0x1182 JUMP JUMPDEST JUMPDEST PUSH1 0x2 MUL ADD PUSH1 0x1 ADD SLOAD PUSH1 0x5 DUP4 PUSH1 0x3 DUP2 LT PUSH2 0x99F JUMPI PUSH2 0x99E PUSH2 0x1182 JUMP JUMPDEST JUMPDEST PUSH1 0x2 MUL ADD PUSH1 0x1 ADD SLOAD LT ISZERO PUSH2 0xB3D JUMPI PUSH0 PUSH1 0x5 DUP4 PUSH1 0x3 DUP2 LT PUSH2 0x9C2 JUMPI PUSH2 0x9C1 PUSH2 0x1182 JUMP JUMPDEST JUMPDEST PUSH1 0x2 MUL ADD PUSH1 0x40 MLOAD DUP1 PUSH1 0x40 ADD PUSH1 0x40 MSTORE SWAP1 DUP2 PUSH0 DUP3 ADD PUSH0 SWAP1 SLOAD SWAP1 PUSH2 0x100 EXP SWAP1 DIV PUSH20 0xFFFFFFFFFFFFFFFFFFFFFFFFFFFFFFFFFFFFFFFF AND PUSH20 0xFFFFFFFFFFFFFFFFFFFFFFFFFFFFFFFFFFFFFFFF AND PUSH20 0xFFFFFFFFFFFFFFFFFFFFFFFFFFFFFFFFFFFFFFFF AND DUP2 MSTORE PUSH1 0x20 ADD PUSH1 0x1 DUP3 ADD SLOAD DUP2 MSTORE POP POP SWAP1 POP PUSH1 0x5 DUP3 PUSH1 0x3 DUP2 LT PUSH2 0xA45 JUMPI PUSH2 0xA44 PUSH2 0x1182 JUMP JUMPDEST JUMPDEST PUSH1 0x2 MUL ADD PUSH1 0x5 DUP5 PUSH1 0x3 DUP2 LT PUSH2 0xA5D JUMPI PUSH2 0xA5C PUSH2 0x1182 JUMP JUMPDEST JUMPDEST PUSH1 0x2 MUL ADD PUSH0 DUP3 ADD PUSH0 SWAP1 SLOAD SWAP1 PUSH2 0x100 EXP SWAP1 DIV PUSH20 0xFFFFFFFFFFFFFFFFFFFFFFFFFFFFFFFFFFFFFFFF AND DUP2 PUSH0 ADD PUSH0 PUSH2 0x100 EXP DUP2 SLOAD DUP2 PUSH20 0xFFFFFFFFFFFFFFFFFFFFFFFFFFFFFFFFFFFFFFFF MUL NOT AND SWAP1 DUP4 PUSH20 0xFFFFFFFFFFFFFFFFFFFFFFFFFFFFFFFFFFFFFFFF AND MUL OR SWAP1 SSTORE POP PUSH1 0x1 DUP3 ADD SLOAD DUP2 PUSH1 0x1 ADD SSTORE SWAP1 POP POP DUP1 PUSH1 0x5 DUP4 PUSH1 0x3 DUP2 LT PUSH2 0xAE6 JUMPI PUSH2 0xAE5 PUSH2 0x1182 JUMP JUMPDEST JUMPDEST PUSH1 0x2 MUL ADD PUSH0 DUP3 ADD MLOAD DUP2 PUSH0 ADD PUSH0 PUSH2 0x100 EXP DUP2 SLOAD DUP2 PUSH20 0xFFFFFFFFFFFFFFFFFFFFFFFFFFFFFFFFFFFFFFFF MUL NOT AND SWAP1 DUP4 PUSH20 0xFFFFFFFFFFFFFFFFFFFFFFFFFFFFFFFFFFFFFFFF AND MUL OR SWAP1 SSTORE POP PUSH1 0x20 DUP3 ADD MLOAD DUP2 PUSH1 0x1 ADD SSTORE SWAP1 POP POP POP JUMPDEST DUP1 DUP1 PUSH1 0x1 ADD SWAP2 POP POP PUSH2 0x966 JUMP JUMPDEST POP DUP1 DUP1 PUSH1 0x1 ADD SWAP2 POP POP PUSH2 0x94C JUMP JUMPDEST POP POP POP POP POP JUMP JUMPDEST PUSH2 0xB67 PUSH2 0xCA7 JUMP JUMPDEST PUSH20 0xFFFFFFFFFFFFFFFFFFFFFFFFFFFFFFFFFFFFFFFF AND PUSH2 0xB85 PUSH2 0x5D5 JUMP JUMPDEST PUSH20 0xFFFFFFFFFFFFFFFFFFFFFFFFFFFFFFFFFFFFFFFF AND EQ PUSH2 0xBE4 JUMPI PUSH2 0xBA8 PUSH2 0xCA7 JUMP JUMPDEST PUSH1 0x40 MLOAD PUSH32 0x118CDAA700000000000000000000000000000000000000000000000000000000 DUP2 MSTORE PUSH1 0x4 ADD PUSH2 0xBDB SWAP2 SWAP1 PUSH2 0xECC JUMP JUMPDEST PUSH1 0x40 MLOAD DUP1 SWAP2 SUB SWAP1 REVERT JUMPDEST JUMP JUMPDEST PUSH0 PUSH0 PUSH0 SWAP1 SLOAD SWAP1 PUSH2 0x100 EXP SWAP1 DIV PUSH20 0xFFFFFFFFFFFFFFFFFFFFFFFFFFFFFFFFFFFFFFFF AND SWAP1 POP DUP2 PUSH0 PUSH0 PUSH2 0x100 EXP DUP2 SLOAD DUP2 PUSH20 0xFFFFFFFFFFFFFFFFFFFFFFFFFFFFFFFFFFFFFFFF MUL NOT AND SWAP1 DUP4 PUSH20 0xFFFFFFFFFFFFFFFFFFFFFFFFFFFFFFFFFFFFFFFF AND MUL OR SWAP1 SSTORE POP DUP2 PUSH20 0xFFFFFFFFFFFFFFFFFFFFFFFFFFFFFFFFFFFFFFFF AND DUP2 PUSH20 0xFFFFFFFFFFFFFFFFFFFFFFFFFFFFFFFFFFFFFFFF AND PUSH32 0x8BE0079C531659141344CD1FD0A4F28419497F9722A3DAAFE3B4186F6B6457E0 PUSH1 0x40 MLOAD PUSH1 0x40 MLOAD DUP1 SWAP2 SUB SWAP1 LOG3 POP POP JUMP JUMPDEST PUSH0 CALLER SWAP1 POP SWAP1 JUMP JUMPDEST PUSH1 0x40 MLOAD DUP1 PUSH1 0x60 ADD PUSH1 0x40 MSTORE DUP1 PUSH1 0x3 SWAP1 JUMPDEST PUSH2 0xCC5 PUSH2 0xCDB JUMP JUMPDEST DUP2 MSTORE PUSH1 0x20 ADD SWAP1 PUSH1 0x1 SWAP1 SUB SWAP1 DUP2 PUSH2 0xCBD JUMPI SWAP1 POP POP SWAP1 JUMP JUMPDEST PUSH1 0x40 MLOAD DUP1 PUSH1 0x40 ADD PUSH1 0x40 MSTORE DUP1 PUSH0 PUSH20 0xFFFFFFFFFFFFFFFFFFFFFFFFFFFFFFFFFFFFFFFF AND DUP2 MSTORE PUSH1 0x20 ADD PUSH0 DUP2 MSTORE POP SWAP1 JUMP JUMPDEST PUSH0 PUSH1 0x3 SWAP1 POP SWAP2 SWAP1 POP JUMP JUMPDEST PUSH0 DUP2 SWAP1 POP SWAP3 SWAP2 POP POP JUMP JUMPDEST PUSH0 DUP2 SWAP1 POP SWAP2 SWAP1 POP JUMP JUMPDEST PUSH0 PUSH20 0xFFFFFFFFFFFFFFFFFFFFFFFFFFFFFFFFFFFFFFFF DUP3 AND SWAP1 POP SWAP2 SWAP1 POP JUMP JUMPDEST PUSH0 PUSH2 0xD4F DUP3 PUSH2 0xD26 JUMP JUMPDEST SWAP1 POP SWAP2 SWAP1 POP JUMP JUMPDEST PUSH2 0xD5F DUP2 PUSH2 0xD45 JUMP JUMPDEST DUP3 MSTORE POP POP JUMP JUMPDEST PUSH0 DUP2 SWAP1 POP SWAP2 SWAP1 POP JUMP JUMPDEST PUSH2 0xD77 DUP2 PUSH2 0xD65 JUMP JUMPDEST DUP3 MSTORE POP POP JUMP JUMPDEST PUSH1 0x40 DUP3 ADD PUSH0 DUP3 ADD MLOAD PUSH2 0xD91 PUSH0 DUP6 ADD DUP3 PUSH2 0xD56 JUMP JUMPDEST POP PUSH1 0x20 DUP3 ADD MLOAD PUSH2 0xDA4 PUSH1 0x20 DUP6 ADD DUP3 PUSH2 0xD6E JUMP JUMPDEST POP POP POP POP JUMP JUMPDEST PUSH0 PUSH2 0xDB5 DUP4 DUP4 PUSH2 0xD7D JUMP JUMPDEST PUSH1 0x40 DUP4 ADD SWAP1 POP SWAP3 SWAP2 POP POP JUMP JUMPDEST PUSH0 PUSH1 0x20 DUP3 ADD SWAP1 POP SWAP2 SWAP1 POP JUMP JUMPDEST PUSH2 0xDD6 DUP2 PUSH2 0xD09 JUMP JUMPDEST PUSH2 0xDE0 DUP2 DUP5 PUSH2 0xD13 JUMP JUMPDEST SWAP3 POP PUSH2 0xDEB DUP3 PUSH2 0xD1D JUMP JUMPDEST DUP1 PUSH0 JUMPDEST DUP4 DUP2 LT ISZERO PUSH2 0xE1B JUMPI DUP2 MLOAD PUSH2 0xE02 DUP8 DUP3 PUSH2 0xDAA JUMP JUMPDEST SWAP7 POP PUSH2 0xE0D DUP4 PUSH2 0xDC1 JUMP JUMPDEST SWAP3 POP POP PUSH1 0x1 DUP2 ADD SWAP1 POP PUSH2 0xDEE JUMP JUMPDEST POP POP POP POP POP POP JUMP JUMPDEST PUSH0 PUSH1 0xC0 DUP3 ADD SWAP1 POP PUSH2 0xE36 PUSH0 DUP4 ADD DUP5 PUSH2 0xDCD JUMP JUMPDEST SWAP3 SWAP2 POP POP JUMP JUMPDEST PUSH2 0xE45 DUP2 PUSH2 0xD65 JUMP JUMPDEST DUP3 MSTORE POP POP JUMP JUMPDEST PUSH0 PUSH1 0x20 DUP3 ADD SWAP1 POP PUSH2 0xE5E PUSH0 DUP4 ADD DUP5 PUSH2 0xE3C JUMP JUMPDEST SWAP3 SWAP2 POP POP JUMP JUMPDEST PUSH0 PUSH0 REVERT JUMPDEST PUSH2 0xE71 DUP2 PUSH2 0xD45 JUMP JUMPDEST DUP2 EQ PUSH2 0xE7B JUMPI PUSH0 PUSH0 REVERT JUMPDEST POP JUMP JUMPDEST PUSH0 DUP2 CALLDATALOAD SWAP1 POP PUSH2 0xE8C DUP2 PUSH2 0xE68 JUMP JUMPDEST SWAP3 SWAP2 POP POP JUMP JUMPDEST PUSH0 PUSH1 0x20 DUP3 DUP5 SUB SLT ISZERO PUSH2 0xEA7 JUMPI PUSH2 0xEA6 PUSH2 0xE64 JUMP JUMPDEST JUMPDEST PUSH0 PUSH2 0xEB4 DUP5 DUP3 DUP6 ADD PUSH2 0xE7E JUMP JUMPDEST SWAP2 POP POP SWAP3 SWAP2 POP POP JUMP JUMPDEST PUSH2 0xEC6 DUP2 PUSH2 0xD45 JUMP JUMPDEST DUP3 MSTORE POP POP JUMP JUMPDEST PUSH0 PUSH1 0x20 DUP3 ADD SWAP1 POP PUSH2 0xEDF PUSH0 DUP4 ADD DUP5 PUSH2 0xEBD JUMP JUMPDEST SWAP3 SWAP2 POP POP JUMP JUMPDEST PUSH0 DUP3 DUP3 MSTORE PUSH1 0x20 DUP3 ADD SWAP1 POP SWAP3 SWAP2 POP POP JUMP JUMPDEST PUSH32 0x446F6E6174696F6E7320617265206E6F7420616C6C6F77656420647572696E67 PUSH0 DUP3 ADD MSTORE PUSH32 0x207468697320706572696F640000000000000000000000000000000000000000 PUSH1 0x20 DUP3 ADD MSTORE POP JUMP JUMPDEST PUSH0 PUSH2 0xF4F PUSH1 0x2C DUP4 PUSH2 0xEE5 JUMP JUMPDEST SWAP2 POP PUSH2 0xF5A DUP3 PUSH2 0xEF5 JUMP JUMPDEST PUSH1 0x40 DUP3 ADD SWAP1 POP SWAP2 SWAP1 POP JUMP JUMPDEST PUSH0 PUSH1 0x20 DUP3 ADD SWAP1 POP DUP2 DUP2 SUB PUSH0 DUP4 ADD MSTORE PUSH2 0xF7C DUP2 PUSH2 0xF43 JUMP JUMPDEST SWAP1 POP SWAP2 SWAP1 POP JUMP JUMPDEST PUSH32 0x446F6E6174696F6E20616D6F756E74206D757374206265206772656174657220 PUSH0 DUP3 ADD MSTORE PUSH32 0x7468616E20300000000000000000000000000000000000000000000000000000 PUSH1 0x20 DUP3 ADD MSTORE POP JUMP JUMPDEST PUSH0 PUSH2 0xFDD PUSH1 0x26 DUP4 PUSH2 0xEE5 JUMP JUMPDEST SWAP2 POP PUSH2 0xFE8 DUP3 PUSH2 0xF83 JUMP JUMPDEST PUSH1 0x40 DUP3 ADD SWAP1 POP SWAP2 SWAP1 POP JUMP JUMPDEST PUSH0 PUSH1 0x20 DUP3 ADD SWAP1 POP DUP2 DUP2 SUB PUSH0 DUP4 ADD MSTORE PUSH2 0x100A DUP2 PUSH2 0xFD1 JUMP JUMPDEST SWAP1 POP SWAP2 SWAP1 POP JUMP JUMPDEST PUSH32 0x4E487B7100000000000000000000000000000000000000000000000000000000 PUSH0 MSTORE PUSH1 0x11 PUSH1 0x4 MSTORE PUSH1 0x24 PUSH0 REVERT JUMPDEST PUSH0 PUSH2 0x1048 DUP3 PUSH2 0xD65 JUMP JUMPDEST SWAP2 POP PUSH2 0x1053 DUP4 PUSH2 0xD65 JUMP JUMPDEST SWAP3 POP DUP3 DUP3 ADD SWAP1 POP DUP1 DUP3 GT ISZERO PUSH2 0x106B JUMPI PUSH2 0x106A PUSH2 0x1011 JUMP JUMPDEST JUMPDEST SWAP3 SWAP2 POP POP JUMP JUMPDEST PUSH32 0x4E6F2066756E647320617661696C61626C650000000000000000000000000000 PUSH0 DUP3 ADD MSTORE POP JUMP JUMPDEST PUSH0 PUSH2 0x10A5 PUSH1 0x12 DUP4 PUSH2 0xEE5 JUMP JUMPDEST SWAP2 POP PUSH2 0x10B0 DUP3 PUSH2 0x1071 JUMP JUMPDEST PUSH1 0x20 DUP3 ADD SWAP1 POP SWAP2 SWAP1 POP JUMP JUMPDEST PUSH0 PUSH1 0x20 DUP3 ADD SWAP1 POP DUP2 DUP2 SUB PUSH0 DUP4 ADD MSTORE PUSH2 0x10D2 DUP2 PUSH2 0x1099 JUMP JUMPDEST SWAP1 POP SWAP2 SWAP1 POP JUMP JUMPDEST PUSH0 DUP2 SWAP1 POP SWAP3 SWAP2 POP POP JUMP JUMPDEST POP JUMP JUMPDEST PUSH0 PUSH2 0x10F1 PUSH0 DUP4 PUSH2 0x10D9 JUMP JUMPDEST SWAP2 POP PUSH2 0x10FC DUP3 PUSH2 0x10E3 JUMP JUMPDEST PUSH0 DUP3 ADD SWAP1 POP SWAP2 SWAP1 POP JUMP JUMPDEST PUSH0 PUSH2 0x1110 DUP3 PUSH2 0x10E6 JUMP JUMPDEST SWAP2 POP DUP2 SWAP1 POP SWAP2 SWAP1 POP JUMP JUMPDEST PUSH32 0x5472616E73666572206661696C65640000000000000000000000000000000000 PUSH0 DUP3 ADD MSTORE POP JUMP JUMPDEST PUSH0 PUSH2 0x114E PUSH1 0xF DUP4 PUSH2 0xEE5 JUMP JUMPDEST SWAP2 POP PUSH2 0x1159 DUP3 PUSH2 0x111A JUMP JUMPDEST PUSH1 0x20 DUP3 ADD SWAP1 POP SWAP2 SWAP1 POP JUMP JUMPDEST PUSH0 PUSH1 0x20 DUP3 ADD SWAP1 POP DUP2 DUP2 SUB PUSH0 DUP4 ADD MSTORE PUSH2 0x117B DUP2 PUSH2 0x1142 JUMP JUMPDEST SWAP1 POP SWAP2 SWAP1 POP JUMP JUMPDEST PUSH32 0x4E487B7100000000000000000000000000000000000000000000000000000000 PUSH0 MSTORE PUSH1 0x32 PUSH1 0x4 MSTORE PUSH1 0x24 PUSH0 REVERT JUMPDEST PUSH0 PUSH2 0x11B9 DUP3 PUSH2 0xD65 JUMP JUMPDEST SWAP2 POP PUSH2 0x11C4 DUP4 PUSH2 0xD65 JUMP JUMPDEST SWAP3 POP DUP3 DUP3 SUB SWAP1 POP DUP2 DUP2 GT ISZERO PUSH2 0x11DC JUMPI PUSH2 0x11DB PUSH2 0x1011 JUMP JUMPDEST JUMPDEST SWAP3 SWAP2 POP POP JUMP JUMPDEST PUSH0 PUSH2 0x11EC DUP3 PUSH2 0xD65 JUMP JUMPDEST SWAP2 POP PUSH0 DUP3 SUB PUSH2 0x11FE JUMPI PUSH2 0x11FD PUSH2 0x1011 JUMP JUMPDEST JUMPDEST PUSH1 0x1 DUP3 SUB SWAP1 POP SWAP2 SWAP1 POP JUMP INVALID LOG2 PUSH5 0x6970667358 0x22 SLT KECCAK256 BLOCKHASH EXTCODECOPY SSTORE PUSH27 0xE8BADB6879B24C744E448ADCBF0D0721A2B1E7B19FF0DF78353F53 PUSH14 0x64736F6C634300081E0033000000 "
				},
				"gasEstimates": {
					"creation": {
						"codeDepositCost": "934200",
						"executionCost": "infinite",
						"totalCost": "infinite"
					},
					"external": {
						"": "infinite",
						"donate()": "infinite",
						"donations(address)": "2846",
						"endTime()": "2448",
						"getDonation(address)": "2896",
						"getTop3Donors()": "infinite",
						"owner()": "2536",
						"renounceOwnership()": "infinite",
						"startTime()": "2425",
						"totalDonations()": "2491",
						"transferOwnership(address)": "infinite",
						"withdraw()": "infinite"
					},
					"internal": {
						"_updateTop3Donors(address)": "infinite"
					}
				},
				"methodIdentifiers": {
					"donate()": "ed88c68e",
					"donations(address)": "cc6cb19a",
					"endTime()": "3197cbb6",
					"getDonation(address)": "410a1d32",
					"getTop3Donors()": "2d1e2518",
					"owner()": "8da5cb5b",
					"renounceOwnership()": "715018a6",
					"startTime()": "78e97925",
					"totalDonations()": "de2ed893",
					"transferOwnership(address)": "f2fde38b",
					"withdraw()": "3ccfd60b"
				}
			},
			"storageLayout": {
				"storage": [
					{
						"astId": 8,
						"contract": "contracts/BeggingContract.sol:BeggingContract",
						"label": "_owner",
						"offset": 0,
						"slot": "0",
						"type": "t_address"
					},
					{
						"astId": 192,
						"contract": "contracts/BeggingContract.sol:BeggingContract",
						"label": "donations",
						"offset": 0,
						"slot": "1",
						"type": "t_mapping(t_address,t_uint256)"
					},
					{
						"astId": 194,
						"contract": "contracts/BeggingContract.sol:BeggingContract",
						"label": "totalDonations",
						"offset": 0,
						"slot": "2",
						"type": "t_uint256"
					},
					{
						"astId": 196,
						"contract": "contracts/BeggingContract.sol:BeggingContract",
						"label": "startTime",
						"offset": 0,
						"slot": "3",
						"type": "t_uint256"
					},
					{
						"astId": 198,
						"contract": "contracts/BeggingContract.sol:BeggingContract",
						"label": "endTime",
						"offset": 0,
						"slot": "4",
						"type": "t_uint256"
					},
					{
						"astId": 208,
						"contract": "contracts/BeggingContract.sol:BeggingContract",
						"label": "top3Donors",
						"offset": 0,
						"slot": "5",
						"type": "t_array(t_struct(Donor)203_storage)3_storage"
					}
				],
				"types": {
					"t_address": {
						"encoding": "inplace",
						"label": "address",
						"numberOfBytes": "20"
					},
					"t_array(t_struct(Donor)203_storage)3_storage": {
						"base": "t_struct(Donor)203_storage",
						"encoding": "inplace",
						"label": "struct BeggingContract.Donor[3]",
						"numberOfBytes": "192"
					},
					"t_mapping(t_address,t_uint256)": {
						"encoding": "mapping",
						"key": "t_address",
						"label": "mapping(address => uint256)",
						"numberOfBytes": "32",
						"value": "t_uint256"
					},
					"t_struct(Donor)203_storage": {
						"encoding": "inplace",
						"label": "struct BeggingContract.Donor",
						"members": [
							{
								"astId": 200,
								"contract": "contracts/BeggingContract.sol:BeggingContract",
								"label": "donator",
								"offset": 0,
								"slot": "0",
								"type": "t_address"
							},
							{
								"astId": 202,
								"contract": "contracts/BeggingContract.sol:BeggingContract",
								"label": "amount",
								"offset": 0,
								"slot": "1",
								"type": "t_uint256"
							}
						],
						"numberOfBytes": "64"
					},
					"t_uint256": {
						"encoding": "inplace",
						"label": "uint256",
						"numberOfBytes": "32"
					}
				}
			},
			"userdoc": {
				"kind": "user",
				"methods": {},
				"version": 1
			}
		}
	}
}